:020000040800F2
:1000000000000220551B0008D5170008DB17000868
:10001000E1170008E7170008ED17000800000000CE
:10002000000000000000000000000000F3170008BE
:1000300001180008000000000F1800081D18000833
:10004000A51B0008A51B0008A51B0008A51B000890
:10005000A51B0008A51B0008A51B0008A51B000880
:10006000A51B0008A51B0008A51B0008A51B000870
:10007000A51B0008A51B0008A51B0008A51B000860
:10008000A51B0008A51B0008A51B0008A51B000850
:10009000A51B0008A51B0008A51B0008A51B000840
:1000A000A51B0008A51B0008A51B0008A51B000830
:1000B00029180008A51B0008A51B0008A51B00089F
:1000C000A51B0008A51B0008A51B0008A51B000810
:1000D000A51B00083D18000851180008A51B0008C2
:1000E000A51B0008A51B0008A51B0008A51B0008F0
:1000F000A51B0008A51B0008A51B0008A51B0008E0
:10010000A51B0008A51B0008A51B0008A51B0008CF
:10011000A51B0008A51B0008A51B0008A51B0008BF
:1001200065180008A51B0008A51B0008A51B0008F2
:10013000A51B0008A51B0008A51B0008A51B00089F
:10014000A51B0008A51B0008A51B0008A51B00088F
:10015000A51B0008A51B0008A51B0008A51B00087F
:10016000A51B0008A51B0008A51B0008A51B00086F
:10017000A51B0008A51B0008A51B00080000000027
:08018000A51B0008A51B0008E7
:1001880010B5054C237833B9044B13B10448AFF3C9
:1001980000800123237010BD14000020000000001F
:1001A800C065000808B5034B1BB103490348AFF30A
:1001B800008008BD0000000018000020C06500088D
:1001C80053B94AB9002908BF00281CBF4FF0FF31B6
:1001D8004FF0FF3000F06EB9ADF1080C6DE904CEB8
:1001E80000F006F8DDF804E0DDE9022304B070470A
:1001F8002DE9F047089D04468C46002B40F083808B
:100208008A42174647D9B2FA82F242B1C2F12000B7
:1002180024FA00F09140974040EA010C94404FEADC
:100228001748230CBCFBF8F61FFA87FE08FB16C11B
:1002380043EA014306FB0EF1994209D9FB1806F17E
:10024800FF3080F01981994240F21681023E3B440A
:100258005B1AA4B2B3FBF8F008FB103344EA03447A
:1002680000FB0EFEA64509D93C1900F1FF3380F0CA
:100278000581A64540F2028102383C4440EA064026
:10028800A4EB0E0400261DB1D4400023C5E90043A9
:100298003146BDE8F08702B9FFDEB2FA82F2002AE1
:1002A80050D1CB1B4FEA174E1FFA87F80126B3FB34
:1002B800FEFC210C0EFB1C3341EA034108FB0CF346
:1002C8008B4207D979180CF1FF3002D28B4200F229
:1002D800E9808446C91AA3B2B1FBFEF00EFB1011E7
:1002E80043EA014408FB00F8A04507D93C1900F18E
:1002F800FF3302D2A04500F2D9801846A4EB0804C7
:1003080040EA0C40BFE78B4209D9002D00F0B180CC
:100318000026C5E9000130463146BDE8F087B3FA4A
:1003280083F6002E4AD18B4202D3824200F2B88073
:10033800841A61EB030101208C46002DA8D0C5E981
:10034800004CA5E7C2F1200320FA03F6974001FA12
:1003580002F04FEA174ED9403043030CB1FBFEF6CA
:100368001FFA87F80EFB161143EA014306FB08F152
:10037800994204FA02F409D9FB1806F1FF3C80F00F
:100388008D80994240F28A80023E3B445B1A81B2DA
:10039800B3FBFEF00EFB103341EA034100FB08F308
:1003A8008B4207D9791800F1FF3C73D28B4271D97F
:1003B80002383944CB1A40EA064678E7C6F1200CE1
:1003C80003FA06F422FA0CF31C4320FA0CF701FA9C
:1003D80006F34FEA144E21FA0CF11F433B0CB1FB14
:1003E800FEF91FFA84F80EFB191143EA014109FBD3
:1003F80008FA8A4502FA06F200FA06F308D96118E3
:1004080009F1FF3048D28A4546D9A9F102092144A9
:10041800A1EB0A01BFB2B1FBFEF00EFB101147EAD7
:10042800014700FB08F8B84507D9E71900F1FF3183
:100438002ED2B8452CD90238274440EA0940A7EB08
:100448000807A0FB02894F45C64649461AD317D06C
:100458005DB1B3EB0E0267EB010707FA0CFCF24043
:100468004CEA0202F740C5E9002700263146BDE8FC
:10047800F0872E4628460BE70646E9E61846FDE6CD
:100488004345E5D2B8EB020E69EB04010138DFE71A
:100498000846D2E760468DE78146B9E7664675E7C4
:1004A80030464AE7ACF1020C394413E702383C44C1
:1004B80024E700BF704700BF80B584B000AF3B465B
:1004C80000221A605A609A60DA603D4B3D4A1A6011
:1004D8003B4B00225A603A4B00229A60384B01226B
:1004E8001A61374B00221A76354B002283F82020F8
:1004F800334B0022DA62324B334A9A62304B002285
:10050800DA602F4B0522DA612D4B002283F8302068
:100518002B4B01225A612A4801F0D8FB0346002BD5
:1005280001D000F00DFE08233B6001237B6000230F
:10053800BB603B461946224801F00CFC0346002BE1
:1005480001D000F0FDFD09233B6002237B603B46A0
:1005580019461B4801F0FEFB0346002B01D000F0B2
:10056800EFFD0A233B6003237B603B461946144892
:1005780001F0F0FB0346002B01D000F0E1FD0B2356
:100588003B6004237B603B4619460D4801F0E2FBC3
:100598000346002B01D000F0D3FD0C233B6005235C
:1005A8007B603B461946064801F0D4FB0346002B06
:1005B80001D000F0C5FD00BF1037BD4680BD00BFAB
:1005C80044000020002001400100000F80B500AF6A
:1005D80001220821024802F005FC00BF80BD00BFCF
:1005E800000C024080B584B000AF002208212F48DB
:1005F80002F0F8FB012208212C4802F0F3FB0A2341
:1006080002222B492B4803F09EFB0023FB604FF48A
:1006180000437B8100237B603FE07B68002B06DB87
:100628007B68032B03DC7B680433FB6018E07B6882
:10063800032B07DD7B68072B04DC7B68C3F107030A
:10064800FB600DE07B68072B06DD7B680B2B03DC6A
:100658007B680433FB6003E07B68C3F11703FB602E
:10066800134B1A887B8913409BB2002B05D0124A82
:10067800FB68002122F8131009E00F4AFB6832F8E2
:100688001330013399B20C4AFB6822F813107B89A6
:100698005B087B817B6801337B607B680F2BBCDD4B
:1006A80000BF00BF1037BD4680BD00BF000C024030
:1006B80030000020BC0500208C00002080B582B0EE
:1006C80000AF00237B600C4B1B6B0B4A43F4800389
:1006D8001363094B1B6B03F480037B607B68002268
:1006E8000021382001F02FFE382001F048FE00BF1D
:1006F8000837BD4680BD00BF0038024080B58EB0C7
:1007080000AF07F11C0300221A605A609A60DA6091
:100718001A615A619A613B4600221A605A609A60CF
:10072800DA601A615A619A612F4B4FF020421A60C1
:100738002D4B2E4A5A602C4B00229A602A4B0022DD
:10074800DA60294B00221A61274B10225A61264B86
:1007580000229A61244B0022DA61234B00221A629C
:10076800214B00225A62204B4FF480529A621E4B52
:100778000022DA621C4B4FF480421A631A4B0022A3
:100788005A63194B00229A63174B00225A640F23AD
:10079800FB610F233B623C237B620023BB62102377
:1007A800FB6211233B6300237B6308233B600F2319
:1007B8007B600923BB600023FB6010233B6111238E
:1007C8007B610023BB613A4607F11C0319460648C2
:1007D80003F09CFE0346002B01D000F0B1FC00BFE3
:1007E8003837BD4680BD00BF7C040020040100A04E
:1007F80080B400AF084B00221A60074B64225A608D
:10080800054B00229A60044B6422DA6000BFBD46A3
:100818005DF8047B704700BF3C04002080B483B0BF
:1008280000AF104B78221A600E4BA0225A600123A9
:100838007B600DE00B4A7B68002142F83310094ABF
:100848007B68DB00134400225A607B6801337B60BD
:100858007B68632BEEDD00BF00BF0C37BD465DF83B
:10086800047B7047AC00002080B58EB000AF07F164
:10087800240300221A605A609A60DA601A61002321
:100888003B62894B1B6B884A43F010031363864B0A
:100898001B6B03F010033B623B6A0023FB61824B36
:1008A8001B6B814A43F0040313637F4B1B6B03F0FC
:1008B8000403FB61FB690023BB617B4B1B6B7A4A1A
:1008C80043F020031363784B1B6B03F02003BB61D9
:1008D800BB6900237B61744B1B6B734A43F0800335
:1008E8001363714B1B6B03F080037B617B690023EF
:1008F8003B616D4B1B6B6C4A43F0010313636A4BFE
:100908001B6B03F001033B613B690023FB60664BF3
:100918001B6B654A43F002031363634B1B6B03F0C5
:100928000203FB60FB680023BB605F4B1B6B5E4AE6
:1009380043F0080313635C4B1B6B03F00803BB60B5
:10094800BB6800237B60584B1B6B574A43F040033E
:100958001363554B1B6B03F040037B607B680022DD
:100968001021524802F03EFA00224FF40851504834
:1009780002F038FA00224FF480614E4802F032FA51
:1009880000224FF4E0714C4802F02CFA00224FF498
:1009980080714A4802F026FA00220821484802F0ED
:1009A80021FA10237B620123BB620023FB62002330
:1009B8003B6307F1240319463C4802F077F84FF4EB
:1009C80008537B620123BB620023FB6200233B6365
:1009D80007F124031946364802F068F84FF400730B
:1009E8007B620023BB620023FB6207F124031946E4
:1009F800304802F05BF84FF480637B620123BB62EE
:100A08000023FB6200233B6307F1240319462948AE
:100A180002F04CF84FF4E0737B620123BB620023C1
:100A2800FB6200233B6307F124031946224802F0C6
:100A38003DF84FF480737B620023BB620123FB62A5
:100A480007F1240319461A4802F030F84FF480736E
:100A58007B620123BB620023FB6200233B6307F137
:100A680024031946154802F021F84FF480537B629D
:100A78000023BB620023FB6207F1240319460C48DC
:100A880002F014F808237B620123BB620023FB6297
:100A980000233B6307F124031946094802F006F8CE
:100AA80000BF3837BD4680BD003802400010024004
:100AB80000080240001402400018024000000240F2
:100AC800000C024080B500AF124B134A1A60114B5C
:100AD800124A5A600F4B00229A600E4B0022DA60CD
:100AE8000C4B4FF480421A610A4B00225A61094BA1
:100AF80000229A61074B0022DA61064B00221A6233
:100B0800044802F0A3F90346002B01D000F018FBBB
:100B180000BF80BDCC04002000540040A086010026
:100B280080B483B000AF0346FB80044AFB8813807F
:100B380000BF0C37BD465DF8047B7047FEFF0F60B1
:100B480080B483B000AF0346FB80044AFB8853801F
:100B580000BF0C37BD465DF8047B7047FEFF0F6091
:100B680080B483B000AF064B5B889BB2FB80FB88E8
:100B78009BB218460C37BD465DF8047B704700BF32
:100B8800FEFF0F6080B483B000AF0346FB71FB79B2
:100B98001B09DBB203F00303DBB2002B07D00A4BBF
:100BA8004FF4A0721A80084BF0225A8006E0064BD8
:100BB800F0221A80044B4FF4A0725A8000BF0C3701
:100BC800BD465DF8047B70472005002080B500AF66
:100BD80000224FF40051AA4802F004F94FF4FA70C9
:100BE80001F050F801224FF40051A54802F0FAF83C
:100BF8004FF4FA7001F046F80020FFF7C3FFD32046
:100C0800FFF78EFFFFF7ACFF03461A469D4B9A800D
:100C1800FFF7A6FF03461A469A4B9A80FFF7A0FFF4
:100C280003461A46974B9A80964B9B881B029AB2AA
:100C3800944B9A80FFF794FF03461A46914B9B8882
:100C480013439AB28F4B9A80CF20FFF769FF002099
:100C5800FFF776FFC120FFF773FF3020FFF770FF23
:100C6800ED20FFF75DFF6420FFF76AFF0320FFF721
:100C780067FF1220FFF764FF8120FFF761FFE8207C
:100C8800FFF74EFF8520FFF75BFF1020FFF758FFA7
:100C98007A20FFF755FFCB20FFF742FF3920FFF7F7
:100CA8004FFF2C20FFF74CFF0020FFF749FF3420AF
:100CB800FFF746FF0220FFF743FFF720FFF730FF5B
:100CC8002020FFF73DFFEA20FFF72AFF0020FFF76B
:100CD80037FF0020FFF734FFC020FFF721FF1B205C
:100CE800FFF72EFFC120FFF71BFF0120FFF728FFAA
:100CF800C520FFF715FF3020FFF722FF3020FFF750
:100D08001FFFC720FFF70CFFB720FFF719FF36209A
:100D1800FFF706FF0820FFF713FF3A20FFF700FF51
:100D28005520FFF70DFFB120FFF7FAFE0020FFF76F
:100D380007FF1A20FFF704FFB620FFF7F1FE0A208D
:100D4800FFF7FEFEA220FFF7FBFEF220FFF7E8FE0A
:100D58000020FFF7F5FE2620FFF7E2FE0120FFF74F
:100D6800EFFEE020FFF7DCFE0F20FFF7E9FE2A2068
:100D7800FFF7E6FE2820FFF7E3FE0820FFF7E0FE76
:100D88000E20FFF7DDFE0820FFF7DAFE5420FFF7FC
:100D9800D7FEA920FFF7D4FE4320FFF7D1FE0A2093
:100DA800FFF7CEFE0F20FFF7CBFE0020FFF7C8FEAF
:100DB8000020FFF7C5FE0020FFF7C2FE0020FFF766
:100DC800BFFEE120FFF7ACFE0020FFF7B9FE1520BB
:100DD800FFF7B6FE1720FFF7B3FE0720FFF7B0FEB8
:100DE8001120FFF7ADFE0620FFF7AAFE2B20FFF724
:100DF800A7FE5620FFF7A4FE3C20FFF7A1FE052022
:100E0800FFF79EFE1020FFF79BFE0F20FFF798FECE
:100E18003F20FFF795FE3F20FFF792FE0F20FFF7D8
:100E28008FFE2B20FFF77CFE0020FFF789FE0020B5
:100E3800FFF786FE0120FFF783FE3F20FFF780FEC5
:100E48002A20FFF76DFE0020FFF77AFE0020FFF74B
:100E580077FE0020FFF774FEEF20FFF771FE1120E8
:100E6800FFF75EFE782000F00DFF2920FFF758FEFF
:100E780001224FF48071044801F0B4FF00BF80BD27
:100E880000080240200500200000024080B500AFA5
:100E98003F4B1B88DBB29AB23D4B1A803D4B1B88F7
:100EA8001A463D4B9B5C1B021AB2394B1B881BB27E
:100EB80013431BB29AB2364B1A80364B1B88032B4E
:100EC80046D801A252F823F0E10E0008FF0E0008F0
:100ED8001D0F00083B0F00082D4B1B8843F0B00383
:100EE8009AB22B4B1A802A4B1B8823F040039AB2E4
:100EF800274B1A802DE0264B1B8843F0D0039AB26B
:100F0800234B1A80224B1B8823F020039AB2204BD4
:100F18001A801EE01E4B1B8843F0E0039AB21C4B5C
:100F28001A801B4B1B8823F010039AB2184B1A80A7
:100F38000FE0174B1B8843F070039AB2144B1A80CA
:100F4800134B1B8823F080039AB2114B1A8000E0E0
:100F580000BF104B1B8801335A4203F0030302F011
:100F6800030258BF53429AB20A4B1A80002240210A
:100F78000A4801F037FF012302220549084802F018
:100F8800A6FD01224021054801F02CFF00BF80BDCD
:100F98000400002032000020000000200018024059
:100FA800BC05002080B500AF00F0FAFD00F026F87F
:100FB800FFF75AFCFFF782FBFFF77EFAFFF79EFB6D
:100FC800FFF780FD00F012F900F0B4FC00F06AFDB4
:100FD80000F060FC00F0FAFC00F08EFD00F078F8FC
:100FE800054B1B88012BFBD1034B00221A80FFF70E
:100FF800F9FA00F07FF8F3E73600002080B594B0E6
:1010080000AF07F1200330220021184605F0CCFA82
:1010180007F10C0300221A605A609A60DA601A61BC
:101028000023BB60284B1B6C274A43F08053136492
:10103800254B1B6C03F08053BB60BB6800237B60AF
:10104800224B1B68214A43F4804313601F4B1B68E3
:1010580003F480437B607B6802233B620123FB62CD
:1010680010233B630223BB630023FB6308233B6419
:10107800A8237B640223BB640423FB6407F12003D9
:10108800184602F027F80346002B01D000F058F864
:101098000F23FB6002233B6100237B614FF4A053C5
:1010A800BB614FF4A053FB6107F10C0305211846FF
:1010B80002F088FA0346002B01D000F041F800BF87
:1010C8005037BD4680BD00BF003802400070004068
:1010D80080B500AF00F03AF8FFF778FAFFF776FD31
:1010E800FFF786FBFFF79AFB322000F039F800BFC4
:1010F80080BD000080B500AF0E4B1B780133DAB21B
:101108000C4B1A700B4B1A780B4BA3FB02131909E3
:101118000B469B000B449B00D31ADBB2002B06D175
:101128001021064801F077FE024B00221A7000BF1A
:1011380080BD00BF34000020CDCCCCCC00100240D4
:1011480080B400AF72B600BFFEE7000080B500AF04
:10115800024803F06FFA00BF80BD00BFA40600205C
:1011680080B483B000AF0346FB80084AFB88138035
:10117800064B1A88064B1A80064B00221A8000BFBD
:101188000C37BD465DF8047B704700BF3A0000206D
:10119800380000203600002080B582B000AF7860AB
:1011A8007B681B68B3F1804F16D10D4B1B88002B51
:1011B80010D00B4B1B88013B9AB2094B1A80084B85
:1011C8001B88002B06D1074B01221A80064B1A8870
:1011D800034B1A80FFF75AFE00BF0837BD4680BD93
:1011E80038000020360000203A00002080B500AF0B
:1011F800174B184A1A60164B4FF482725A60144BF8
:1012080000229A60124B0022DA60114B00221A6108
:101218000F4B00225A610E4B4FF400729A610C4B2F
:101228000022DA610A4B00221A62094B00225A6234
:10123800074B00229A62064B0A22DA62044802F03F
:10124800BDFB0346002B01D0FFF77AFF00BF80BD2E
:10125800BC0500200030014080B483B000AF0023FB
:101268007B60104B5B6C0F4A43F4804353640D4B17
:101278005B6C03F480437B607B6800233B60094B15
:101288001B6C084A43F080531364064B1B6C03F035
:1012980080533B603B6800BF0C37BD465DF8047B5C
:1012A800704700BF0038024080B58AB000AF786050
:1012B80007F1140300221A605A609A60DA601A6112
:1012C8007B681B683C4A934271D100233B613B4BCE
:1012D8005B6C3A4A43F480735364384B5B6C03F499
:1012E80080733B613B690023FB60344B1B6B334AC3
:1012F80043F004031363314B1B6B03F00403FB60DF
:10130800FB680023BB602D4B1B6B2C4A43F0020388
:1013180013632A4B1B6B03F00203BB60BB680723F4
:101328007B610323BB610023FB6107F114031946AA
:10133800234801F0BBFB03237B610323BB6100232C
:10134800FB6107F1140319461E4801F0AFFB1E4B61
:101358001E4A1A601C4B00225A601B4B00229A60DE
:10136800194B0022DA60184B4FF480621A61164B51
:101378004FF400625A61144B4FF400529A61124BB9
:101388004FF48072DA61104B00221A620E4B002271
:101398005A620D4801F00EF80346002B01D0FFF702
:1013A800CFFE7B68084A9A63074A7B68936300BF4D
:1013B8002837BD4680BD00BF0020014000380240EC
:1013C80000080240000402405C050020106402404E
:1013D80080B58AB000AF786007F1140300221A6064
:1013E8005A609A60DA601A617B681B68194A9342EE
:1013F8002BD100233B61184B1B6B174A43F00203A8
:101408001363154B1B6B03F002033B613B69C0235D
:101418007B611223BB610023FB6103233B6204232E
:101428007B6207F1140319460C4801F03FFB0023C7
:10143800FB60094B1B6C084A43F400131364064B0A
:101448001B6C03F40013FB60FB6800BF2837BD4624
:1014580080BD00BF00540040003802400004024034
:1014680080B58AB000AF786007F1140300221A60D3
:101478005A609A60DA601A617B681B68194A93425D
:101488002BD100233B61184B5B6C174A43F4805304
:101498005364154B5B6C03F480533B613B69002339
:1014A800FB60114B1B6B104A43F0020313630E4B96
:1014B8001B6B03F00203FB60FB6838237B6102238C
:1014C800BB610023FB6103233B6205237B6207F1B9
:1014D80014031946054801F0E9FA00BF2837BD464C
:1014E80080BD00BF003001400038024000040240C7
:1014F80080B586B000AF78607B681B68224A93424B
:101508000ED100237B61214B5B6C204A43F0010321
:1015180053641E4B5B6C03F001037B617B692EE017
:101528007B681B68B3F1804F16D100233B61174BD2
:101538001B6C164A43F001031364144B1B6C03F035
:1015480001033B613B69002200211C2000F0FBFEE7
:101558001C2000F014FF12E07B681B680C4A9342C1
:101568000DD10023FB60094B1B6C084A43F0800334
:101578001364064B1B6C03F08003FB60FB6800BF21
:101588001837BD4680BD00BF00000140003802404A
:10159800001C004080B588B000AF786007F10C03EC
:1015A80000221A605A609A60DA601A617B681B68C8
:1015B800124A93421ED10023BB60114B1B6B104A89
:1015C80043F0200313630E4B1B6B03F02003BB6037
:1015D800BB684FF48073FB6002233B6100237B618F
:1015E8000023BB610923FB6107F10C031946054879
:1015F80001F05CFA00BF2037BD4680BD001C0040EA
:10160800003802400014024080B58CB000AF78600A
:1016180007F11C0300221A605A609A60DA601A61A6
:101628007B681B683A4A934235D10023BB61394B2A
:101638005B6C384A43F010035364364B5B6C03F021
:101648001003BB61BB6900237B61324B1B6B314AC2
:1016580043F0010313632F4B1B6B03F001037B6102
:101668007B694FF4C063FB6102233B6200237B620A
:101678000323BB620723FB6207F11C0319462648B4
:1016880001F014FA00220021252000F05CFE25203C
:1016980000F075FE38E07B681B68204A934233D11E
:1016A80000233B611B4B1B6C1A4A43F40033136441
:1016B800184B1B6C03F400333B613B690023FB6050
:1016C800144B1B6B134A43F001031363114B1B6B41
:1016D80003F00103FB60FB680C23FB6102233B6200
:1016E80000237B620323BB620723FB6207F11C0311
:1016F8001946094801F0DAF900220021262000F0F5
:1017080022FE262000F03BFE00BF3037BD4680BDDC
:101718000010014000380240000002400044004030
:1017280080B586B000AF3B1D00221A605A609A60EF
:10173800DA601A611C4B1B68002B31D11A4B01224D
:101748001A6000233B60194B9B6B184A43F0010356
:101758009363164B9B6B03F001033B603B684FF6AA
:1017680088737B600223BB600023FB6003233B611B
:101778000C237B613B1D19460D4801F097F94CF28B
:10178800B3737B600223BB600023FB6003233B61D0
:101798000C237B613B1D1946064801F087F900E0E0
:1017A80000BF1837BD4680BD3C000020003802400D
:1017B80000100240000C024080B582B000AF786093
:1017C800FFF7AEFF00BF0837BD4680BD80B400AF4D
:1017D800FEE780B400AFFEE780B400AFFEE780B458
:1017E80000AFFEE780B400AFFEE780B400AF00BFF3
:1017F800BD465DF8047B704780B400AF00BFBD46AE
:101808005DF8047B704780B400AF00BFBD465DF84B
:10181800047B704780B500AF00F014FA00BF80BDAC
:1018280080B500AF024802F0CEFF00BF80BD00BF08
:10183800A406002080B500AF024803F009FF00BFEE
:1018480080BD00BFEC06002080B500AF024803F061
:10185800FFFE00BF80BD00BF3007002080B500AF8D
:10186800024800F0E7FE00BF80BD00BF5C05002015
:1018780080B400AF064BD3F88830054A43F47003B0
:10188800C2F8883000BFBD465DF8047B704700BFD2
:1018980000ED00E080B586B000AF07F10803002234
:1018A8001A605A609A60DA603B4600221A605A60F1
:1018B8001E4B1F4A1A601D4B53225A601B4B0022B5
:1018C8009A601A4B4FF6FF72DA60184B00221A61C1
:1018D800164B00225A61154B00229A61134802F0F8
:1018E80059FE0346002B01D0FFF72AFC4FF4805322
:1018F800BB6007F1080319460C4803F02FF90346AB
:10190800002B01D0FFF71CFC00233B6000237B6009
:101918003B461946054803F0FBFC0346002B01D063
:10192800FFF70EFC00BF1837BD4680BD5C060020DF
:101938000000014080B586B000AF07F1080300221F
:101948001A605A609A60DA603B4600221A605A6050
:101958001D4B4FF080421A601B4B40F247325A60D1
:10196800194B00229A60184B6322DA60164B00224A
:101978001A61154B00229A61134802F00BFE0346C8
:10198800002B01D0FFF7DCFB4FF48053BB6007F15D
:10199800080319460C4803F0E1F80346002B01D070
:1019A800FFF7CEFB00233B6000237B603B461946D4
:1019B800054803F0ADFC0346002B01D0FFF7C0FB40
:1019C80000BF1837BD4680BDA406002080B588B08A
:1019D80000AF3B1D00221A605A609A60DA601A61F3
:1019E8005A619A611E4B1F4A1A601D4B40F24732DA
:1019F8005A601B4B00229A60194B6322DA60184B1D
:101A080000221A61164B00229A61154802F0C2FDA5
:101A18000346002B01D0FFF793FB114802F07AFE32
:101A28000346002B01D0FFF78BFB60237B6000236C
:101A3800BB600023FB6000237B613B1D002219462D
:101A4800074802F0C9FF0346002B01D0FFF778FBD7
:101A58000348FFF79FFD00BF2037BD4680BD00BF8C
:101A680014060020001C004080B582B000AF7860EA
:101A78007B681B68084A93420AD10A230122074956
:101A8800074803F022FD01220449054803F0AFFD91
:101A980000BF0837BD4680BD00100140400000204F
:101AA800EC06002080B500AF114B124A1A60104BAB
:101AB8004FF4E1325A600E4B00229A600C4B002220
:101AC800DA600B4B00221A61094B0C225A61084B51
:101AD80000229A61064B0022DA61054803F0A8FC4F
:101AE8000346002B01D0FFF72BFB00BF80BD00BFD2
:101AF800EC0600200010014080B500AF114B124ADF
:101B08001A60104B4FF4E1325A600E4B00229A6073
:101B18000C4B0022DA600B4B00221A61094B0C2295
:101B28005A61084B00229A61064B0022DA61054887
:101B380003F07EFC0346002B01D0FFF701FB00BF3A
:101B480080BD00BF3007002000440040DFF834D0DB
:101B58000D480E490E4A002302E0D458C4500433FD
:101B6800C4188C42F9D30B4A0B4C002301E01360D4
:101B78000432A242FBD3FFF77BFE04F0F1FCFFF72F
:101B880011FA704700000220000000201400002015
:101B9800086600081400002078070020FEE700000F
:101BA80080B500AF0E4B1B680D4A43F400731360F9
:101BB8000B4B1B680A4A43F480631360084B1B688D
:101BC800074A43F480731360032000F0B1FB0F2031
:101BD80000F008F8FFF740FB0023184680BD00BF5F
:101BE800003C024080B582B000AF7860124B1A68A2
:101BF800124B1B7819464FF47A73B3FBF1F3B2FB1F
:101C0800F3F3184600F0C9FB0346002B01D001236B
:101C18000EE07B680F2B0AD8002279684FF0FF305E
:101C280000F091FB064A7B681360002300E0012363
:101C380018460837BD4680BD080000201000002067
:101C48000C00002080B400AF064B1B781A46064BE8
:101C58001B681344044A136000BFBD465DF8047B4B
:101C6800704700BF100000207407002080B400AF48
:101C7800034B1B681846BD465DF8047B704700BFE0
:101C88007407002080B584B000AF7860FFF7EEFFDE
:101C9800B8607B68FB60FB68B3F1FF3F05D00A4B77
:101CA8001B781A46FB681344FB6000BFFFF7DEFF92
:101CB8000246BB68D31AFA689A42F7D800BF00BF39
:101CC8001037BD4680BD00BF1000002080B584B02D
:101CD80000AF78600023FB737B68002B01D10123E0
:101CE80033E07B681B6C002B09D17868FFF7DCFABE
:101CF8007B6800225A647B68002283F83C207B685A
:101D08001B6C03F01003002B18D17B681B6C23F4A9
:101D1800885323F0020343F002027B681A64786850
:101D280000F03AF97B6800225A647B681B6C23F048
:101D3800030343F001027B681A6401E00123FB738B
:101D48007B68002283F83C20FB7B18461037BD4691
:101D580080BD000080B485B000AF78603960002392
:101D6800BB607B6893F83C30012B01D1022305E16D
:101D78007B68012283F83C203B681B68092B25D926
:101D88007B681B68D9683B681B689BB21A46134678
:101D98005B0013441E3B072202FA03F3DA437B6815
:101DA8001B680A40DA607B681B68D9683B689A68D8
:101DB8003B681B689BB2184603465B0003441E3B06
:101DC8009A407B681B680A43DA6022E07B681B68DC
:101DD80019693B681B689BB21A4613465B0013449B
:101DE800072202FA03F3DA437B681B680A401A6188
:101DF8007B681B6819693B689A683B681B689BB2DB
:101E0800184603465B0003449A407B681B680A43F4
:101E18001A613B685B68062B24D87B681B68596B82
:101E28003B685A6813469B001344053B1F2202FA7D
:101E380003F3DA437B681B680A405A637B681B68B4
:101E4800596B3B681B689BB218463B685A68134637
:101E58009B001344053B00FA03F27B681B680A43A6
:101E68005A634CE03B685B680C2B24D87B681B6882
:101E7800196B3B685A6813469B001344233B1F2287
:101E880002FA03F3DA437B681B680A401A637B682B
:101E98001B68196B3B681B689BB218463B685A68FD
:101EA80013469B001344233B00FA03F27B681B682C
:101EB8000A431A6323E07B681B68D96A3B685A683F
:101EC80013469B001344413B1F2202FA03F3DA43F3
:101ED8007B681B680A40DA627B681B68D96A3B68C2
:101EE8001B689BB218463B685A6813469B0013440C
:101EF800413B00FA03F27B681B680A43DA62224B13
:101F0800FB607B681B68214A934209D13B681B68C8
:101F1800122B05D1FB685B6843F48002FB685A60AA
:101F28007B681B68194A934223D13B681B68102BB6
:101F380003D03B681B68112B1BD1FB685B6843F41B
:101F48000002FB685A603B681B68102B11D1104BCC
:101F58001B68104AA2FB03239A0C13469B001344E8
:101F68005B00BB6002E0BB68013BBB60BB68002B49
:101F7800F9D17B68002283F83C20002318461437E7
:101F8800BD465DF8047B70470023014000200140F6
:101F98000800002083DE1B4380B485B000AF786062
:101FA800794BFB60FB685B6823F44032FB685A603E
:101FB800FB685A687B685B681A43FB685A607B68F1
:101FC8001B685A687B681B6822F480725A607B68B9
:101FD8001B6859687B681B691A027B681B680A437F
:101FE8005A607B681B685A687B681B6822F04072DD
:101FF8005A607B681B6859687B689A687B681B68AD
:102008000A435A607B681B689A687B681B6822F4DD
:1020180000629A607B681B6899687B68DA687B68ED
:102028001B680A439A607B689B6A584A934222D08D
:102038007B681B689A687B681B6822F070629A60EC
:102048007B681B6899687B689A6A7B681B680A4387
:102058009A607B681B689A687B681B6822F040520C
:102068009A607B681B6899687B68DA6A7B681B687A
:102078000A439A600FE07B681B689A687B681B6854
:1020880022F070629A607B681B689A687B681B689C
:1020980022F040529A607B681B689A687B681B68CC
:1020A80022F002029A607B681B6899687B681B7E35
:1020B8005A007B681B680A439A607B6893F8203053
:1020C800002B1BD07B681B685A687B681B6842F42E
:1020D80000625A607B681B685A687B681B6822F438
:1020E80060425A607B681B6859687B685B6A013B81
:1020F8005A037B681B680A435A6007E07B681B68C1
:102108005A687B681B6822F400625A607B681B6807
:10211800DA6A7B681B6822F47002DA627B681B68E3
:10212800D96A7B68DB69013B1A057B681B680A432F
:10213800DA627B681B689A687B681B6822F4007205
:102148009A607B681B6899687B6893F830305A02FC
:102158007B681B680A439A607B681B689A687B687F
:102168001B6822F480629A607B681B6899687B68A8
:102178005B699A027B681B680A439A6000BF143740
:10218800BD465DF8047B7047002301400100000F45
:1021980080B485B000AF78607B6803F00703FB600C
:1021A8000C4BDB68BB60BA684FF6FF031340BB609B
:1021B800FB681A02BB68134343F0BF6343F4003360
:1021C800BB60044ABB68D36000BF1437BD465DF8E6
:1021D800047B704700ED00E080B400AF044BDB687F
:1021E8001B0A03F007031846BD465DF8047B7047D9
:1021F80000ED00E080B483B000AF0346FB7197F9AF
:102208000730002B0BDBFB7903F01F02074997F916
:1022180007305B09012000FA02F241F8232000BFD1
:102228000C37BD465DF8047B704700BF00E100E055
:1022380080B483B000AF03463960FB7197F907306B
:10224800002B0ADB3B68DAB20C4997F90730120118
:10225800D2B20B4483F800230AE03B68DAB208499B
:10226800FB7903F00F03043B1201D2B20B441A7638
:1022780000BF0C37BD465DF8047B704700E100E005
:1022880000ED00E080B489B000AFF860B9607A6012
:10229800FB6803F00703FB61FB69C3F10703042B29
:1022A80028BF0423BB61FB690433062B02D9FB69F1
:1022B800033B00E000237B614FF0FF32BB6902FA69
:1022C80003F3DA43BB681A407B699A404FF0FF3149
:1022D8007B6901FA03F3D9437B680B401343184623
:1022E8002437BD465DF8047B7047000080B582B096
:1022F80000AF78607B68013BB3F1807F01D3012395
:102308000FE00A4A7B68013B53600F214FF0FF3012
:10231800FFF78EFF054B00229A60044B07221A60D4
:10232800002318460837BD4680BD00BF10E000E016
:1023380080B582B000AF78607868FFF729FF00BFEA
:102348000837BD4680BD80B586B000AF0346B9608A
:102358007A60FB7300237B61FFF73EFF78617A6840
:10236800B9687869FFF78EFF024697F90F30114672
:102378001846FFF75DFF00BF1837BD4680BD80B522
:1023880082B000AF0346FB7197F907301846FFF794
:1023980031FF00BF0837BD4680BD80B582B000AFB1
:1023A80078607868FFF7A2FF034618460837BD46ED
:1023B80080BD000080B586B000AF786000237B61E7
:1023C800FFF754FC38617B68002B01D1012399E0A9
:1023D8007B68022283F835207B68002283F834204A
:1023E8007B681B681A687B681B6822F001021A6008
:1023F8000FE0FFF73BFC02463B69D31A052B08D9CF
:102408007B6820225A657B68032283F835200323E2
:1024180078E07B681B681B6803F00103002BE8D198
:102428007B681B681B687B617A69384B13407B614A
:102438007B685A687B689B681A437B68DB681A4329
:102448007B681B691A437B685B691A437B689B69D5
:102458001A437B68DB691A437B681B6A13437A69F2
:1024680013437B617B685B6A042B07D17B68DA6A5C
:102478007B681B6B13437A6913437B617B681B681A
:102488007A691A607B681B685B697B617B6923F0EA
:1024980007037B617B685B6A7A6913437B617B68AE
:1024A8005B6A042B17D17B689B6A7A6913437B614B
:1024B8007B68DB6A002B0ED0786800F07BFA034655
:1024C800002B08D07B6840225A657B68012283F87C
:1024D8003520012316E07B681B687A695A617868A1
:1024E80000F032FA0346FB607B68DB6D3F229A40BE
:1024F800FB689A607B6800225A657B68012283F832
:102508003520002318461837BD4680BD3F8010F09F
:1025180080B584B000AF78607B689B6DFB60FFF787
:10252800A5FBB8607B6893F83530DBB2022B08D086
:102538007B6880225A657B68002283F83420012357
:1025480052E07B681B681A687B681B6822F01602D9
:102558001A607B681B685A697B681B6822F08002D6
:102568005A617B681B6C002B03D17B689B6C002B2A
:1025780007D07B681B681A687B681B6822F0080212
:102588001A607B681B681A687B681B6822F0010266
:102598001A6013E0FFF76AFB0246BB68D31A052BE3
:1025A8000CD97B6820225A657B68032283F8352082
:1025B8007B68002283F83420032315E07B681B68BE
:1025C8001B6803F00103002BE4D17B68DB6D3F221D
:1025D8009A40FB689A607B68012283F835207B6803
:1025E800002283F83420002318461037BD4680BDEA
:1025F80080B483B000AF78607B6893F83530DBB285
:10260800022B04D07B6880225A6501230CE07B688A
:10261800052283F835207B681B681A687B681B686D
:1026280022F001021A60002318460C37BD465DF8F7
:10263800047B704780B586B000AF78600023BB602C
:10264800924B1B68924AA2FB03239B0A7B617B681F
:102658009B6D3B613B691B68FB607B68DB6D0822F7
:102668009A40FB681340002B1AD07B681B681B68D4
:1026780003F00403002B13D07B681B681A687B687F
:102688001B6822F004021A607B68DB6D08229A40FE
:102698003B699A607B685B6D43F001027B685A6511
:1026A8007B68DB6D01229A40FB681340002B12D037
:1026B8007B681B685B6903F08003002B0BD07B6889
:1026C800DB6D01229A403B699A607B685B6D43F041
:1026D80002027B685A657B68DB6D04229A40FB68BE
:1026E8001340002B12D07B681B681B6803F00203A1
:1026F800002B0BD07B68DB6D04229A403B699A6003
:102708007B685B6D43F004027B685A657B68DB6D10
:1027180010229A40FB681340002B43D07B681B684B
:102728001B6803F00803002B3CD07B68DB6D10228C
:102738009A403B699A607B681B681B6803F4802396
:10274800002B18D07B681B681B6803F40023002B40
:1027580008D17B681B6C002B24D07B681B6C7868C5
:1027680098471FE07B689B6C002B1BD07B689B6C99
:102778007868984716E07B681B681B6803F48073C9
:10278800002B07D17B681B681A687B681B6822F0DE
:1027980008021A607B681B6C002B03D07B681B6CDB
:1027A800786898477B68DB6D20229A40FB68134065
:1027B800002B00F08E807B681B681B6803F01003F9
:1027C800002B00F086807B68DB6D20229A403B69F5
:1027D8009A607B6893F83530DBB2052B36D17B687D
:1027E8001B681A687B681B6822F016021A607B68EF
:1027F8001B685A697B681B6822F080025A617B68F3
:102808001B6C002B03D17B689B6C002B07D07B686B
:102818001B681A687B681B6822F008021A607B68CC
:10282800DB6D3F229A403B699A607B68012283F8FE
:1028380035207B68002283F834207B681B6D002BD1
:102848007DD07B681B6D7868984778E07B681B684B
:102858001B6803F48023002B1CD07B681B681B6853
:1028680003F40023002B08D17B685B6C002B30D06D
:102878007B685B6C786898472BE07B68DB6B002B88
:1028880027D07B68DB6B7868984722E00800002037
:10289800B5814E1B7B681B681B6803F48073002B93
:1028A8000FD17B681B681A687B681B6822F01002CE
:1028B8001A607B68012283F835207B68002283F840
:1028C80034207B68DB6B002B03D07B68DB6B78687C
:1028D80098477B685B6D002B32D07B685B6D03F09B
:1028E8000103002B22D07B68052283F835207B6802
:1028F8001B681A687B681B6822F001021A60BB68B3
:102908000133BB607A699A4207D37B681B681B68EE
:1029180003F00103002BF2D100E000BF7B68012225
:1029280083F835207B68002283F834207B68DB6CD1
:10293800002B05D07B68DB6C7868984700E000BF07
:102948001837BD4680BD00BF80B485B000AF786041
:102958007B681B68DBB2103B144AA2FB03231B09EC
:10296800FB60134AFB6813441B781A467B68DA65D8
:10297800FB68032B09D97B681B6823F47F7323F05A
:1029880003031A1D7B689A6507E07B681B6823F4BC
:102998007F7323F003037A6893657B689B6D184601
:1029A8001437BD465DF8047B704700BFABAAAAAADE
:1029B800F065000880B485B000AF78600023FB7331
:1029C8007B689B6ABB607B689B69002B1FD1BB68D7
:1029D800032B56D801A252F823F000BFF5290008AE
:1029E800072A0008F52900088B2A00087B68DB6A9B
:1029F80003F08073002B46D00123FB7343E07B6810
:102A0800DB6AB3F1C07F40D10123FB733DE07B68F3
:102A18009B69B3F5005F21D1BB68032B37D801A2AE
:102A280052F823F03D2A0008432A00083D2A0008EE
:102A3800552A00080123FB7330E07B68DB6A03F04A
:102A48008073002B25D00123FB7322E07B68DB6AAF
:102A5800B3F1C07F1FD10123FB731CE0BB68022BBD
:102A680003D9BB68032B03D018E00123FB7315E0DF
:102A78007B68DB6A03F08073002B0ED00123FB73A5
:102A88000BE000BF0AE000BF08E000BF06E000BF9F
:102A980004E000BF02E000BF00E000BFFB7B184677
:102AA8001437BD465DF8047B704700BF80B489B019
:102AB80000AF7860396000237B6100233B6100230D
:102AC800BB610023FB616BE10122FB6902FA03F39E
:102AD8007B613B681B687A6913403B613A697B6993
:102AE8009A4240F05A813B685B6803F00303012B6C
:102AF80005D03B685B6803F00303022B30D17B6889
:102B08009B68BB61FB695B00032202FA03F3DB43AA
:102B1800BA691340BB613B68DA68FB695B0002FA7B
:102B280003F3BA691343BB617B68BA699A607B682F
:102B38005B68BB610122FB6902FA03F3DB43BA69F4
:102B48001340BB613B685B681B0903F00102FB692A
:102B580002FA03F3BA691343BB617B68BA695A6026
:102B68003B685B6803F00303032B17D07B68DB68C3
:102B7800BB61FB695B00032202FA03F3DB43BA691A
:102B88001340BB613B689A68FB695B0002FA03F378
:102B9800BA691343BB617B68BA69DA603B685B68F2
:102BA80003F00303022B23D1FB69DA087B680832A0
:102BB80053F82230BB61FB6903F007039B000F2227
:102BC80002FA03F3DB43BA691340BB613B681A6935
:102BD800FB6903F007039B0002FA03F3BA69134386
:102BE800BB61FB69DA087B680832B96943F82210CF
:102BF8007B681B68BB61FB695B00032202FA03F375
:102C0800DB43BA691340BB613B685B6803F00302AE
:102C1800FB695B0002FA03F3BA691343BB617B6883
:102C2800BA691A603B685B6803F44033002B00F014
:102C3800B4800023FB60604B5B6C5F4A43F48043C5
:102C480053645D4B5B6C03F48043FB60FB685B4A39
:102C5800FB699B08023352F82330BB61FB6903F020
:102C680003039B000F2202FA03F3DB43BA69134004
:102C7800BB617B68524A93422BD07B68514A93428E
:102C880025D07B68504A93421FD07B684F4A9342B5
:102C980019D07B684E4A934213D07B684D4A9342C1
:102CA8000DD07B684C4A934207D07B684B4A9342CD
:102CB80001D107230EE008230CE006230AE00523D0
:102CC80008E0042306E0032304E0022302E00123D2
:102CD80000E00023FA6902F0030292009340BA6907
:102CE8001343BB613549FB699B080233BA6941F854
:102CF80023203B4B1B68BB613B69DB43BA6913402C
:102D0800BB613B685B6803F48033002B03D0BA696E
:102D18003B691343BB61324ABB691360304B5B6844
:102D2800BB613B69DB43BA691340BB613B685B68C5
:102D380003F40033002B03D0BA693B691343BB612A
:102D4800274ABB695360264B9B68BB613B69DB43E1
:102D5800BA691340BB613B685B6803F48013002BBE
:102D680003D0BA693B691343BB611D4ABB699360D1
:102D78001B4BDB68BB613B69DB43BA691340BB6132
:102D88003B685B6803F40013002B03D0BA693B6906
:102D98001343BB61124ABB69D360FB690133FB6112
:102DA800FB690F2B7FF690AE00BF00BF2437BD46EE
:102DB8005DF8047B704700BF0038024000380140CE
:102DC800000002400004024000080240000C0240DB
:102DD800001002400014024000180240001C02408B
:102DE800003C014080B483B000AF78600B467B8024
:102DF80013467B707B78002B03D07A887B689A61B6
:102E080003E07B881A047B689A6100BF0C37BD46D3
:102E18005DF8047B704780B485B000AF78600B46DE
:102E28007B807B685B69FB607A88FB6813401A04C7
:102E3800FB68D9437B880B401A437B689A6100BFC3
:102E48001437BD465DF8047B7047000080B584B038
:102E580000AF78607B68002B01D101232BE17B68F0
:102E680093F83D30DBB2002B06D17B68002283F853
:102E78003C207868FEF7ACFA7B68242283F83D2072
:102E88007B681B681A687B681B6822F001021A605D
:102E98007B681B681A687B681B6842F400421A60EA
:102EA8007B681B681A687B681B6822F400421A60FA
:102EB80000F05CFDF8607B685B68814A934207D844
:102EC800FB68804A934294BF01230023DBB206E0EB
:102ED800FB687D4A934294BF01230023DBB2002B99
:102EE80001D00123E7E0FB68784AA2FB03239B0C8F
:102EF800BB607B681B685B6823F03F017B681B68CD
:102F0800BA680A435A607B681B681B6A23F03F0152
:102F18007B685B686A4A934202D8BB68013309E060
:102F2800BB684FF4967202FB03F3694AA2FB0323C2
:102F38009B0901337A6812680B4313627B681B682C
:102F4800DB6923F44F4222F0FF027B685B685C492F
:102F58008B4219D8FB68591E7B685B685B00B1FB24
:102F6800F3F3591C40F6FC730B40002B0AD0FB68A6
:102F7800591E7B685B685B00B1FBF3F30133C3F355
:102F88000B0351E004234FE07B689B68002B11D1B1
:102F9800FB68581E7B6859680B465B000B44B0FB06
:102FA800F3F30133C3F30B03002B0CBF01230023FE
:102FB800DBB212E0FB68581E7B6859680B469B0021
:102FC8000B4499000B44B0FBF3F30133C3F30B0339
:102FD800002B0CBF01230023DBB2002B01D00123FF
:102FE80022E07B689B68002B0ED1FB68581E7B682B
:102FF80059680B465B000B44B0FBF3F30133C3F392
:103008000B0343F400430FE0FB68581E7B685968C4
:103018000B469B000B4499000B44B0FBF3F30133C0
:10302800C3F30B0343F44043796809681343CB6146
:103038007B681B681B6823F0C0017B68DA697B68C2
:103048001B6A1A437B681B680A431A607B681B6803
:103058009B6823F4034323F0FF037A6811697A68B5
:10306800D26811437A6812680B4393607B681B68C7
:10307800DB6823F0FF017B685A697B689B691A4308
:103088007B681B680A43DA607B681B681A687B6880
:103098001B6842F001021A607B6800221A647B6890
:1030A800202283F83D207B6800221A637B68002277
:1030B80083F83E20002318461037BD4680BD00BF68
:1030C800A08601007F841E00FF083D0083DE1B43AD
:1030D800D34D621080B586B000AF78607B68002B56
:1030E80001D1012364E27B681B6803F00103002B14
:1030F80075D0A34B9B6803F00C03042B0CD0A04B9A
:103108009B6803F00C03082B12D19D4B5B6803F4FA
:103118008003B3F5800F0BD1994B1B6803F4003380
:10312800002B5BD07B685B68002B57D101233FE203
:103138007B685B68B3F5803F06D1914B1B68904A6A
:1031480043F4803313601DE07B685B68B3F5A02F00
:103158000CD18B4B1B688A4A43F480231360884B3D
:103168001B68874A43F4803313600BE0844B1B6869
:10317800834A23F480331360814B1B68804A23F40D
:10318800802313607B685B68002B13D0FEF76EFD0D
:10319800386108E0FEF76AFD02463B69D31A642BE2
:1031A80001D9032304E2764B1B6803F40033002B98
:1031B800F0D014E0FEF75AFD386108E0FEF756FD3E
:1031C80002463B69D31A642B01D90323F0E16C4B07
:1031D8001B6803F40033002BF0D100E000BF7B68CC
:1031E8001B6803F00203002B63D0654B9B6803F058
:1031F8000C03002B0BD0624B9B6803F00C03082BCD
:103208001CD15F4B5B6803F48003002B16D15C4B29
:103218001B6803F00203002B05D07B68DB68012BD9
:1032280001D00123C4E1564B1B6823F0F8027B68E8
:103238001B69DB00524913430B603AE07B68DB688B
:10324800002B20D04F4B01221A60FEF70FFD38618A
:1032580008E0FEF70BFD02463B69D31A022B01D9A1
:103268000323A5E1464B1B6803F00203002BF0D0B3
:10327800434B1B6823F0F8027B681B69DB0040495D
:1032880013430B6015E03F4B00221A60FEF7EEFC7B
:10329800386108E0FEF7EAFC02463B69D31A022BC4
:1032A80001D9032384E1364B1B6803F00203002B8A
:1032B800F0D17B681B6803F00803002B30D07B68D3
:1032C8005B69002B16D0304B01221A60FEF7CEFC4A
:1032D800386108E0FEF7CAFC02463B69D31A022BA4
:1032E80001D9032364E1264B5B6F03F00203002B33
:1032F800F0D015E0244B00221A60FEF7B7FC3861C5
:1033080008E0FEF7B3FC02463B69D31A022B01D949
:1033180003234DE11A4B5B6F03F00203002BF0D13E
:103328007B681B6803F00403002B00F0A0800023D7
:10333800FB75134B1B6C03F08053002B0FD100233C
:10334800BB600F4B1B6C0E4A43F0805313640C4B4D
:103358001B6C03F08053BB60BB680123FB750B4BF0
:103368001B6803F48073002B21D1084B1B68074AA4
:1033780043F480731360FEF779FC386111E000BFF5
:103388000038024000004742800E4742007000406B
:10339800FEF76CFC02463B69D31A022B01D90323C2
:1033A80006E1854B1B6803F48073002BF0D07B6823
:1033B8009B68012B06D1814B1B6F804A43F00103A8
:1033C80013671CE07B689B68052B0CD17B4B1B6F3C
:1033D8007A4A43F004031367784B1B6F774A43F02C
:1033E800010313670BE0754B1B6F744A23F001034D
:1033F8001367724B1B6F714A23F0040313677B68D2
:103408009B68002B15D0FEF731FC38610AE0FEF707
:103418002DFC02463B69D31A41F28832934201D906
:103428000323C5E0654B1B6F03F00203002BEED0AE
:1034380014E0FEF71BFC38610AE0FEF717FC0246B1
:103448003B69D31A41F28832934201D90323AFE092
:103458005A4B1B6F03F00203002BEED1FB7D012BAF
:1034680005D1564B1B6C554A23F0805313647B6877
:103478009B69002B00F09B80504B9B6803F00C036A
:10348800082B5CD07B689B69022B41D14C4B0022F6
:103498001A60FEF7EBFB386108E0FEF7E7FB02462F
:1034A8003B69D31A022B01D9032381E0434B1B68E4
:1034B80003F00073002BF0D17B68DA697B681B6A24
:1034C8001A437B685B6A9B011A437B689B6A5B08AB
:1034D800013B1B041A437B68DB6A1B06374913430D
:1034E8004B60374B01221A60FEF7C0FB386108E0D9
:1034F800FEF7BCFB02463B69D31A022B01D9032312
:1035080056E02E4B1B6803F00073002BF0D04EE002
:103518002B4B00221A60FEF7A9FB386108E0FEF782
:10352800A5FB02463B69D31A022B01D903233FE0CE
:10353800224B1B6803F00073002BF0D137E07B6847
:103548009B69012B01D1012332E01C4B5B68FB60B6
:103558007B689B69012B28D0FB6803F480027B6899
:10356800DB699A4221D1FB6803F03F027B681B6A42
:103578009A421AD1FA6847F6C07313407A68526AB9
:103588009201934211D1FB6803F440327B689B6A35
:103598005B08013B1B049A4207D1FB6803F0706289
:1035A8007B68DB6A1B069A4201D0012300E00023F6
:1035B80018461837BD4680BD0070004000380240EC
:1035C8006000474280B584B000AF786039607B689E
:1035D800002B01D10123CCE0684B1B6803F00703E3
:1035E8003A689A420CD9654B3A68D2B21A70634B62
:1035F8001B6803F007033A689A4201D00123B8E038
:103608007B681B6803F00203002B20D07B681B68D3
:1036180003F00403002B05D0594B9B68584A43F428
:10362800E05393607B681B6803F00803002B05D008
:10363800534B9B68524A43F460439360504B9B68DA
:1036480023F0F0027B689B684D4913438B607B68CD
:103658001B6803F00103002B44D07B685B68012BD7
:1036680007D1474B1B6803F40033002B19D1012302
:103678007FE07B685B68022B03D07B685B68032B69
:1036880007D13F4B1B6803F00073002B09D10123BE
:103698006FE03B4B1B6803F00203002B01D10123B1
:1036A80067E0374B9B6823F003027B685B6834490B
:1036B80013438B60FEF7DAFAF8600AE0FEF7D6FAF1
:1036C8000246FB68D31A41F28832934201D9032398
:1036D8004FE02B4B9B6803F00C027B685B689B00F8
:1036E8009A42EBD1254B1B6803F007033A689A42CC
:1036F8000CD2224B3A68D2B21A70204B1B6803F0E6
:1037080007033A689A4201D0012332E07B681B68BC
:1037180003F00403002B08D0194B9B6823F4E052F4
:103728007B68DB68164913438B607B681B6803F072
:103738000803002B09D0124B9B6823F460427B6876
:103748001B69DB000E4913438B6000F021F8024629
:103758000B4B9B681B0903F00F030A49CB5C22FA49
:1037680003F3094A1360094B1B681846FEF73AFA37
:10377800002318461037BD4680BD00BF003C0240FC
:1037880000380240D8650008080000200C0000201E
:103798002DE9B04384B000AF00237B600023FB60B9
:1037A80000233B600023BB60674B9B6803F00C035E
:1037B800082B0DD0082B00F2BD80002B02D0042B63
:1037C80003D0B7E0614BBB60B7E0614BBB60B4E0CE
:1037D8005D4B5B6803F03F037B605B4B5B6803F406
:1037E8008003002B4DD0584B5B689B091A464FF05D
:1037F800000340F2FF104FF0000102EA000803EA5C
:103808000109404649464FF000024FF000034B01C2
:1038180043EAD063420110461946B0EB080061EB59
:1038280009014FF000024FF000038B0143EA906357
:103838008201121A63EB01034FF000004FF0000100
:10384800D90041EA5271D00002460B4612EB080239
:1038580043EB09034FF000004FF00001590241EA21
:10386800D251500202460B46104619467B681A464A
:103878004FF00003FCF7A4FC02460B461346FB601E
:103888004AE0314B5B689B091A464FF0000340F24F
:10389800FF104FF0000102EA000403EA0105204688
:1038A80029464FF000024FF000034B0143EAD06372
:1038B800420110461946001B61EB05014FF000025A
:1038C8004FF000038B0143EA90638201121A63EB05
:1038D80001034FF000004FF00001D90041EA527196
:1038E800D00002460B46121945EB03034FF00000C7
:1038F8004FF00001990241EA9251900202460B46AC
:10390800104619467B681A464FF00003FCF758FC2E
:1039180002460B461346FB600B4B5B681B0C03F01F
:10392800030301335B003B60FA683B68B2FBF3F3C7
:10393800BB6002E0054BBB6000BFBB681846103790
:10394800BD46BDE8B08300BF003802400024F40043
:1039580000127A0080B400AF034B1B681846BD46BE
:103968005DF8047B704700BF0800002080B500AFF9
:10397800FFF7F0FF0246054B9B689B0A03F007031D
:103988000349CB5C22FA03F3184680BD0038024095
:10399800E865000880B500AFFFF7DCFF0246054B7D
:1039A8009B685B0B03F007030349CB5C22FA03F324
:1039B800184680BD00380240E865000880B582B02E
:1039C80000AF78607B68002B01D101237BE07B6826
:1039D8005B6A002B08D17B685B68B3F5827F09D0EE
:1039E8007B680022DA6105E07B6800221A617B6847
:1039F80000225A617B6800229A627B6893F85130F2
:103A0800DBB2002B06D17B68002283F8502078684F
:103A1800FDF726FD7B68022283F851207B681B682E
:103A28001A687B681B6822F040021A607B685B6832
:103A380003F482727B689B6803F404431A437B682F
:103A4800DB6803F400631A437B681B6903F0020315
:103A58001A437B685B6903F001031A437B689B691F
:103A680003F400731A437B68DB6903F038031A43D5
:103A78007B681B6A03F0800342EA03017B689B6A48
:103A880003F400527B681B680A431A607B689B69D1
:103A98001B0C03F004017B685B6A03F010027B686F
:103AA8001B680A435A607B681B68DA697B681B6875
:103AB80022F40062DA617B6800225A657B68012281
:103AC80083F85120002318460837BD4680BD80B5CD
:103AD80088B000AFF860B9603B601346FB800023F4
:103AE800FB77FB6893F85030012B01D1022326E1C4
:103AF800FB68012283F85020FEF7B8F8B861FB880C
:103B0800FB82FB6893F85130DBB2012B02D0022311
:103B1800FB770BE1BB68002B02D0FB88002B02D19E
:103B28000123FB7702E1FB68032283F85120FB683D
:103B380000225A65FB68BA681A63FB68FA889A8695
:103B4800FB68FA88DA86FB6800229A63FB68002221
:103B58009A87FB680022DA87FB6800225A64FB68B0
:103B680000221A64FB689B68B3F5004F0FD1FB680D
:103B78001B681A68FB681B6822F040021A60FB6821
:103B88001B681A68FB681B6842F480421A60FB686D
:103B98001B681B6803F04003402B07D0FB681B68B9
:103BA8001A68FB681B6842F040021A60FB68DB6811
:103BB800B3F5006F4BD1FB685B68002B02D0FB8A22
:103BC800012B3ED1FB681B6B1A88FB681B68DA6007
:103BD800FB681B6B9A1CFB681A63FB68DB8E9BB245
:103BE800013B9AB2FB68DA862BE0FB681B689B688E
:103BF80003F00203022B12D1FB681B6B1A88FB68C7
:103C08001B68DA60FB681B6B9A1CFB681A63FB680D
:103C1800DB8E9BB2013B9AB2FB68DA8611E0FEF7B5
:103C280025F80246BB69D31A3A689A4203D83B681A
:103C3800B3F1FF3F02D13B68002B02D10323FB778E
:103C480074E0FB68DB8E9BB2002BCED14CE0FB68A6
:103C58005B68002B02D0FB8A012B40D1FB681A6BF2
:103C6800FB681B680C3312781A70FB681B6B5A1CB4
:103C7800FB681A63FB68DB8E9BB2013B9AB2FB6858
:103C8800DA862CE0FB681B689B6803F00203022BB2
:103C980013D1FB681A6BFB681B680C3312781A7017
:103CA800FB681B6B5A1CFB681A63FB68DB8E9BB2B4
:103CB800013B9AB2FB68DA8611E0FDF7D7FF0246AE
:103CC800BB69D31A3A689A4203D83B68B3F1FF3FFD
:103CD80002D13B68002B02D10323FB7726E0FB6867
:103CE800DB8E9BB2002BCDD1BA693968F86800F039
:103CF800CBFB0346002B02D0FB6820225A65FB68E9
:103D08009B68002B0AD100233B61FB681B68DB68BA
:103D18003B61FB681B689B683B613B69FB685B6DAB
:103D2800002B02D00123FB7700E000BFFB680122D3
:103D380083F85120FB68002283F85020FB7F184647
:103D48002037BD4680BD80B588B002AFF860B96045
:103D58003B601346FB800023FB75FB685B68B3F58B
:103D6800827F12D1FB689B68002B0ED1FB6804226E
:103D780083F85120FA883B6800931346BA68B968FB
:103D8800F86800F0F1F80346EAE0FB6893F8503071
:103D9800012B01D10223E3E0FB68012283F85020C4
:103DA800FDF764FF3861FB6893F85130DBB2012BF3
:103DB80002D00223FB75CAE0BB68002B02D0FB8847
:103DC800002B02D10123FB75C1E0FB68042283F8B4
:103DD8005120FB6800225A65FB68BA689A63FB6841
:103DE800FA889A87FB68FA88DA87FB6800221A63E0
:103DF800FB6800229A86FB680022DA86FB680022AC
:103E08001A64FB6800225A64FB689B68B3F5004F8C
:103E18000FD1FB681B681A68FB681B6822F0400218
:103E28001A60FB681B681A68FB681B6822F48042EA
:103E38001A60FB681B681B6803F04003402B07D01F
:103E4800FB681B681A68FB681B6842F040021A602E
:103E5800FB68DB68002B62D12EE0FB681B689B685F
:103E680003F00103012B15D1FB681B6803F10C0259
:103E7800FB689B6B1278D2B21A70FB689B6B5A1C5A
:103E8800FB689A63FB68DB8F9BB2013B9AB2FB68C5
:103E9800DA8711E0FDF7EAFE02463B69D31A3A6871
:103EA8009A4203D83B68B3F1FF3F02D13B68002B2D
:103EB80002D10323FB754AE0FB68DB8F9BB2002B22
:103EC800CBD131E0FB681B689B6803F00103012B31
:103ED80013D1FB681B68DA68FB689B6B92B21A8087
:103EE800FB689B6B9A1CFB689A63FB68DB8F9BB231
:103EF800013B9AB2FB68DA8711E0FDF7B7FE02468C
:103F08003B69D31A3A689A4203D83B68B3F1FF3F3A
:103F180002D13B68002B02D10323FB7517E0FB6835
:103F2800DB8F9BB2002BCDD13A693968F86800F075
:103F380045FA0346002B02D0FB6820225A65FB682D
:103F48005B6D002B02D00123FB7500E000BFFB680E
:103F5800012283F85120FB68002283F85020FB7D62
:103F680018461837BD4680BD80B58CB000AFF860E4
:103F7800B9607A607B800123FB62002387F82B30CD
:103F8800FB6893F85030012B01D102238AE1FB68CA
:103F9800012283F85020FDF769FE7862FB6893F8E8
:103FA800513087F82330FB685B68FB617B887B8333
:103FB80097F82330012B0FD0FB69B3F5827F07D127
:103FC800FB689B68002B03D197F82330042B03D0A0
:103FD800022387F82B305BE1BB68002B05D07B6898
:103FE800002B02D07B88002B03D1012387F82B30CC
:103FF8004EE1FB6893F85130DBB2042B03D0FB6829
:10400800052283F85120FB6800225A65FB687A680C
:104018009A63FB687A88DA87FB687A889A87FB68EC
:10402800BA681A63FB687A88DA86FB687A889A869F
:10403800FB6800221A64FB6800225A64FB681B684C
:104048001B6803F04003402B07D0FB681B681A6805
:10405800FB681B6842F040021A60FB68DB68B3F536
:10406800006F78D1FB685B68002B02D07B8B012B3B
:1040780066D1FB681B6B1A88FB681B68DA60FB68F3
:104088001B6B9A1CFB681A63FB68DB8E9BB2013BB7
:104098009AB2FB68DA8653E0FB681B689B6803F0FA
:1040A8000203022B1BD1FB68DB8E9BB2002B16D0C0
:1040B800FB6A012B13D1FB681B6B1A88FB681B6812
:1040C800DA60FB681B6B9A1CFB681A63FB68DB8E63
:1040D8009BB2013B9AB2FB68DA860023FB62FB685D
:1040E8001B689B6803F00103012B19D1FB68DB8F68
:1040F8009BB2002B14D0FB681B68DA68FB689B6BCB
:1041080092B21A80FB689B6B9A1CFB689A63FB68E7
:10411800DB8F9BB2013B9AB2FB68DA870123FB6213
:10412800FDF7A4FD02467B6AD31ABA6B9A4207D8F8
:10413800BB6BB3F1FF3F03D0032387F82B30A7E015
:10414800FB68DB8E9BB2002BA6D1FB68DB8F9BB292
:10415800002BA1D17CE0FB685B68002B02D07B8B35
:10416800012B6BD1FB681A6BFB681B680C33127848
:104178001A70FB681B6B5A1CFB681A63FB68DB8EA2
:104188009BB2013B9AB2FB68DA8657E0FB681B6872
:104198009B6803F00203022B1CD1FB68DB8E9BB2E9
:1041A800002B17D0FB6A012B14D1FB681A6BFB6834
:1041B8001B680C3312781A70FB681B6B5A1CFB685F
:1041C8001A63FB68DB8E9BB2013B9AB2FB68DA8606
:1041D8000023FB62FB681B689B6803F00103012B4B
:1041E80019D1FB68DB8F9BB2002B14D0FB681B68CE
:1041F800DA68FB689B6BD2B21A70FB689B6B5A1C1F
:10420800FB689A63FB68DB8F9BB2013B9AB2FB6841
:10421800DA870123FB62FDF729FD02467B6AD31A80
:10422800BA6B9A4203D8BB6BB3F1FF3F02D1BB6BA9
:10423800002B03D1032387F82B3029E0FB68DB8EA2
:104248009BB2002BA2D1FB68DB8F9BB2002B9DD1C8
:104258007A6AB96BF86800F017F90346002B06D0A4
:10426800012387F82B30FB6820225A6510E0FB6891
:104278009B68002B0BD100237B61FB681B68DB6804
:104288007B61FB681B689B687B617B6900E000BF02
:10429800FB68012283F85120FB68002283F8502034
:1042A80097F82B3018463037BD4680BD80B588B0AA
:1042B80000AFF860B9603B601346FB71FDF7D6FCB0
:1042C8000246BB6A9B1A3A681344FB61FDF7CEFCB1
:1042D800B861394B1B685B011B0DFA6902FB03F3DC
:1042E8007B6154E03B68B3F1FF3F50D0FDF7BEFC63
:1042F8000246BB69D31AFA699A4202D9FB69002BB4
:104308003DD1FB681B685A68FB681B6822F0E00215
:104318005A60FB685B68B3F5827F11D1FB689B68C4
:10432800B3F5004F04D0FB689B68B3F5806F07D1E5
:10433800FB681B681A68FB681B6822F040021A6059
:10434800FB689B6AB3F5005F0FD1FB681B681A68AE
:10435800FB681B6822F400521A60FB681B681A6825
:10436800FB681B6842F400521A60FB68012283F85C
:104378005120FB68002283F85020032317E07B6953
:10438800002B01D10023FB617B69013B7B61FB684A
:104398001B689A68BB681340BA689A420CBF01232D
:1043A8000023DBB21A46FB799A429BD100231846B8
:1043B8002037BD4680BD00BF0800002080B586B00C
:1043C80002AFF860B9607A60FB685B68B3F5827F1A
:1043D80011D1FB689B68B3F5004F04D0FB689B685C
:1043E800B3F5806F07D1FB681B681A68FB681B6808
:1043F80022F040021A60FB685B68B3F5827F2AD11D
:10440800FB689B68B3F5806F12D07B680093BB682C
:1044180000228021F868FFF749FF0346002B2DD0C2
:10442800FB685B6D43F02002FB685A65032326E0B6
:104438007B680093BB6800220121F868FFF736FF0C
:104448000346002B1AD0FB685B6D43F02002FB6823
:104458005A65032313E07B680093BB68002201219F
:10446800F868FFF723FF0346002B07D0FB685B6D56
:1044780043F02002FB685A65032300E00023184636
:104488001037BD4680BD000080B588B002AFF86027
:10449800B9607A601B4B1B681B4AA2FB03235B0DA8
:1044A8004FF47A7202FB03F37B61FB685B68B3F538
:1044B800827F12D17B680093BB6800228021F86854
:1044C800FFF7F4FE0346002B16D0FB685B6D43F044
:1044D8002002FB685A6503230FE07B69002B0AD092
:1044E8007B69013B7B61FB681B689B6803F0800369
:1044F800802BF2D000E000BF002318461837BD46D5
:1045080080BD00BF08000020819F5E1680B584B082
:1045180000AFF860B9607A60FB68002B01D1012315
:1045280034E0FB6893F84930DBB2002B06D1FB6816
:10453800002283F84820F868FDF73EF9FB681A68FE
:10454800FB6808331946104601F03AFFFB68186803
:10455800FB689B681A46B96801F084FFFB685868D5
:10456800FB689A68FB681B6B796801F0B9FFFB6808
:104578001B68FA68926853F82210FB681B68FA688F
:10458800926841F0010143F82210002318461037C1
:10459800BD4680BD80B582B000AF78607B68002BD7
:1045A80001D1012341E07B6893F83D30DBB2002B59
:1045B80006D17B68002283F83C207868FCF798FFD6
:1045C8007B68022283F83D207B681A687B68043385
:1045D8001946104600F0B2FB7B68012283F846209A
:1045E8007B68012283F83E207B68012283F83F2004
:1045F8007B68012283F840207B68012283F84120F0
:104608007B68012283F842207B68012283F84320DB
:104618007B68012283F844207B68012283F84520C7
:104628007B68012283F83D20002318460837BD46E1
:1046380080BD000080B485B000AF78607B6893F8D7
:104648003D30DBB2012B01D001234EE07B68022212
:1046580083F83D207B681B68DA687B681B6842F03A
:104668000102DA607B681B68234A934222D07B6888
:104678001B68B3F1804F1DD07B681B681F4A9342AB
:1046880018D07B681B681E4A934213D07B681B684E
:104698001C4A93420ED07B681B681B4A934209D080
:1046A8007B681B68194A934204D07B681B68184AC8
:1046B800934211D17B681B689B6803F00703FB607A
:1046C800FB68062B10D07B681B681A687B681B6820
:1046D80042F001021A6007E07B681B681A687B6871
:1046E8001B6842F001021A60002318461437BD46C1
:1046F8005DF8047B704700BF0000014000040040E3
:1047080000080040000C0040000401400040014047
:104718000018004080B582B000AF78607B68002B3D
:1047280001D1012341E07B6893F83D30DBB2002BD7
:1047380006D17B68002283F83C20786800F039F8BD
:104748007B68022283F83D207B681A687B68043303
:104758001946104600F0F2FA7B68012283F84620D9
:104768007B68012283F83E207B68012283F83F2082
:104778007B68012283F840207B68012283F841206E
:104788007B68012283F842207B68012283F843205A
:104798007B68012283F844207B68012283F8452046
:1047A8007B68012283F83D20002318460837BD4660
:1047B80080BD80B483B000AF786000BF0C37BD46C1
:1047C8005DF8047B704780B582B000AF78607B6885
:1047D8001B681B6903F00203022B22D17B681B684C
:1047E800DB6803F00203022B1BD17B681B686FF0A8
:1047F80002021A617B6801221A777B681B689B6931
:1048080003F00303002B03D0786800F078FA05E082
:10481800786800F06AFA786800F07BFA7B68002212
:104828001A777B681B681B6903F00403042B22D1E9
:104838007B681B68DB6803F00403042B1BD17B68CF
:104848001B686FF004021A617B6802221A777B6882
:104858001B689B6903F44073002B03D0786800F051
:104868004EFA05E0786800F040FA786800F051FAEE
:104878007B6800221A777B681B681B6903F00803B2
:10488800082B22D17B681B68DB6803F00803082B20
:104898001BD17B681B686FF008021A617B680422D1
:1048A8001A777B681B68DB6903F00303002B03D0CE
:1048B800786800F024FA05E0786800F016FA78685D
:1048C80000F027FA7B6800221A777B681B681B694F
:1048D80003F01003102B22D17B681B68DB6803F000
:1048E8001003102B1BD17B681B686FF010021A6134
:1048F8007B6808221A777B681B68DB6903F44073BE
:10490800002B03D0786800F0FAF905E0786800F029
:10491800ECF9786800F0FDF97B6800221A777B686B
:104928001B681B6903F00103012B0ED17B681B6810
:10493800DB6803F00103012B07D17B681B686FF06C
:1049480001021A617868FCF727FC7B681B681B6901
:1049580003F08003802B0ED17B681B68DB6803F0B3
:104968008003802B07D17B681B686FF080021A6177
:10497800786800F053FD7B681B681B6903F04003EF
:10498800402B0ED17B681B68DB6803F04003402B8B
:1049980007D17B681B686FF040021A61786800F0E5
:1049A800C2F97B681B681B6903F02003202B0ED11A
:1049B8007B681B68DB6803F02003202B07D17B682A
:1049C8001B686FF020021A61786800F01DFD00BFB7
:1049D8000837BD4680BD000080B586B000AFF860DE
:1049E800B9607A600023FB75FB6893F83C30012BB3
:1049F80001D10223AEE0FB68012283F83C207B68EA
:104A08000C2B00F29F8001A252F823F0494A0008BB
:104A18004D4B00084D4B00084D4B0008894A0008D3
:104A28004D4B00084D4B00084D4B0008CB4A000881
:104A38004D4B00084D4B00084D4B00080B4B000830
:104A4800FB681B68B968184600F018FAFB681B6811
:104A58009A69FB681B6842F008029A61FB681B6848
:104A68009A69FB681B6822F004029A61FB681B685C
:104A78009969BB681A69FB681B680A439A6164E014
:104A8800FB681B68B968184600F068FAFB681B6881
:104A98009A69FB681B6842F400629A61FB681B68AC
:104AA8009A69FB681B6822F480629A61FB681B683C
:104AB8009969BB681B691A02FB681B680A439A61FB
:104AC80043E0FB681B68B968184600F0BDFAFB684C
:104AD8001B68DA69FB681B6842F00802DA61FB6848
:104AE8001B68DA69FB681B6822F00402DA61FB685C
:104AF8001B68D969BB681A69FB681B680A43DA61D5
:104B080023E0FB681B68B968184600F011FBFB68D6
:104B18001B68DA69FB681B6842F40062DA61FB68AB
:104B28001B68DA69FB681B6822F48062DA61FB683B
:104B38001B68D969BB681B691A02FB681B680A43B2
:104B4800DA6102E00123FB7500BFFB68002283F8ED
:104B58003C20FB7D18461837BD4680BD80B584B023
:104B680000AF786039600023FB737B6893F83C30B2
:104B7800012B01D10223B4E07B68012283F83C2099
:104B88007B68022283F83D207B681B689B68BB60BA
:104B9800BB6823F07703BB60BB6823F47F43BB602B
:104BA8007B681B68BA689A603B681B68B3F5005F4E
:104BB8003ED0B3F5005F00F28780B3F5805F00F068
:104BC8008680B3F5805F7FD8702B1AD0702B7BD886
:104BD800602B50D0602B77D8502B3CD0502B73D8FB
:104BE800402B58D0402B6FD8302B64D0302B6BD84B
:104BF800202B60D0202B67D8002B5CD0102B5AD0EC
:104C080062E07B6818683B6899683B685A683B684B
:104C1800DB6800F05DFB7B681B689B68BB60BB685A
:104C280043F07703BB607B681B68BA689A604FE003
:104C38007B6818683B6899683B685A683B68DB681A
:104C480000F046FB7B681B689A687B681B6842F427
:104C580080429A603CE07B6818683B6859683B680A
:104C6800DB681A4600F0BAFA7B681B6850211846C0
:104C780000F013FB2CE07B6818683B6859683B68B8
:104C8800DB681A4600F0D9FA7B681B686021184671
:104C980000F003FB1CE07B6818683B6859683B68B8
:104CA800DB681A4600F09AFA7B681B6840211846B0
:104CB80000F0F3FA0CE07B681A683B681B68194639
:104CC800104600F0EAFA03E00123FB7300E000BF9E
:104CD8007B68012283F83D207B68002283F83C2012
:104CE800FB7B18461037BD4680BD80B483B000AF4B
:104CF800786000BF0C37BD465DF8047B704780B410
:104D080083B000AF786000BF0C37BD465DF8047B08
:104D1800704780B483B000AF786000BF0C37BD46E1
:104D28005DF8047B704780B483B000AF786000BF43
:104D38000C37BD465DF8047B7047000080B485B031
:104D480000AF786039607B681B68FB607B68404A0D
:104D5800934213D07B68B3F1804F0FD07B683D4AF4
:104D680093420BD07B683C4A934207D07B683B4A0E
:104D7800934203D07B683A4A934208D1FB6823F0F8
:104D88007003FB603B685B68FA681343FB607B68F1
:104D98002F4A93422BD07B68B3F1804F27D07B6892
:104DA8002C4A934223D07B682B4A93421FD07B68BE
:104DB8002A4A93421BD07B68294A934217D07B68C2
:104DC800284A934213D07B68274A93420FD07B68C6
:104DD800264A93420BD07B68254A934207D07B68CA
:104DE800244A934203D07B68234A934208D1FB6844
:104DF80023F44073FB603B68DB68FA681343FB608D
:104E0800FB6823F080023B685B691343FB607B68A7
:104E1800FA681A603B689A687B68DA623B681A68C5
:104E28007B689A627B680A4A934203D07B680C4A83
:104E3800934203D13B681A697B681A637B68012235
:104E48005A6100BF1437BD465DF8047B704700BF48
:104E5800000001400004004000080040000C004031
:104E68000004014000400140004401400048014066
:104E780000180040001C00400020004080B487B0AB
:104E880000AF786039607B681B6A23F001027B6899
:104E98001A627B681B6A7B617B685B683B617B6825
:104EA8009B69FB60FB6823F07003FB60FB6823F0E1
:104EB8000303FB603B681B68FA681343FB607B696C
:104EC80023F002037B613B689B687A6913437B612B
:104ED8007B68204A934203D07B681F4A93420CD1D7
:104EE8007B6923F008037B613B68DB687A691343BD
:104EF8007B617B6923F004037B617B68154A9342DD
:104F080003D07B68144A934211D13B6923F4807320
:104F18003B613B6923F400733B613B685B693A6919
:104F280013433B613B689B693A6913433B617B6868
:104F38003A695A607B68FA689A613B685A687B6884
:104F48005A637B687A691A6200BF1C37BD465DF8F0
:104F5800047B7047000001400004014080B487B022
:104F680000AF786039607B681B6A23F010027B68A9
:104F78001A627B681B6A7B617B685B683B617B6844
:104F88009B69FB60FB6823F4E043FB60FB6823F448
:104F98004073FB603B681B681B02FA681343FB60A5
:104FA8007B6923F020037B613B689B681B017A695E
:104FB80013437B617B68224A934203D07B68214A72
:104FC80093420DD17B6923F080037B613B68DB68EA
:104FD8001B017A6913437B617B6923F040037B6182
:104FE8007B68174A934203D07B68164A934213D1D1
:104FF8003B6923F480633B613B6923F400633B61B5
:105008003B685B699B003A6913433B613B689B695A
:105018009B003A6913433B617B683A695A607B6835
:10502800FA689A613B685A687B689A637B687A6910
:105038001A6200BF1C37BD465DF8047B704700BF8D
:10504800000001400004014080B487B000AF7860E0
:1050580039607B681B6A23F480727B681A627B68FC
:105068001B6A7B617B685B683B617B68DB69FB6013
:10507800FB6823F07003FB60FB6823F00303FB600D
:105088003B681B68FA681343FB607B6923F4007371
:105098007B613B689B681B027A6913437B617B6871
:1050A800214A934203D07B68204A93420DD17B6901
:1050B80023F400637B613B68DB681B027A69134356
:1050C8007B617B6923F480637B617B68164A93422A
:1050D80003D07B68154A934213D13B6923F480536C
:1050E8003B613B6923F400533B613B685B691B01EF
:1050F8003A6913433B613B689B691B013A69134357
:105108003B617B683A695A607B68FA68DA613B6898
:105118005A687B68DA637B687A691A6200BF1C3751
:10512800BD465DF8047B7047000001400004014063
:1051380080B487B000AF786039607B681B6A23F45D
:1051480080527B681A627B681B6A3B617B685B687C
:105158007B617B68DB69FB60FB6823F4E043FB60F1
:10516800FB6823F44073FB603B681B681B02FA680A
:105178001343FB603B6923F400533B613B689B6826
:105188001B033A6913433B617B68124A934203D07D
:105198007B68114A934209D17B6923F480437B6180
:1051A8003B685B699B017A6913437B617B687A6919
:1051B8005A607B68FA68DA613B685A687B681A64E7
:1051C8007B683A691A6200BF1C37BD465DF8047BEC
:1051D800704700BF000001400004014080B487B060
:1051E80000AFF860B9607A60FB681B6A7B61FB6896
:1051F8001B6A23F00102FB681A62FB689B693B612A
:105208003B6923F0F0033B617B681B013A69134358
:105218003B617B6923F00A037B617A69BB681343AE
:105228007B61FB683A699A61FB687A691A6200BF18
:105238001C37BD465DF8047B704780B487B000AF6B
:10524800F860B9607A60FB681B6A23F01002FB689B
:105258001A62FB689B697B61FB681B6A3B617B691F
:1052680023F470437B617B681B037A6913437B617A
:105278003B6923F0A0033B61BB681B013A691343F8
:105288003B61FB687A699A61FB683A691A6200BFF8
:105298001C37BD465DF8047B704780B485B000AF0D
:1052A800786039607B689B68FB60FB6823F070035B
:1052B800FB603A68FB68134343F00703FB607B68B5
:1052C800FA689A6000BF1437BD465DF8047B7047E2
:1052D80080B487B000AFF860B9607A603B60FB6863
:1052E8009B687B617B6923F47F437B613B681A027F
:1052F8007B681A43BB6813437A6913437B61FB6875
:105308007A699A6000BF1C37BD465DF8047B704718
:1053180080B485B000AF786039607B6893F83C3022
:10532800012B01D102235AE07B68012283F83C203B
:105338007B68022283F83D207B681B685B68FB6002
:105348007B681B689B68BB60FB6823F07003FB608D
:105358003B681B68FA681343FB607B681B68FA6844
:105368005A607B681B68214A934222D07B681B687D
:10537800B3F1804F1DD07B681B681D4A934218D03B
:105388007B681B681B4A934213D07B681B681A4AC8
:1053980093420ED07B681B68184A934209D07B68F9
:1053A8001B68174A934204D07B681B68154A9342CE
:1053B8000CD1BB6823F08003BB603B685B68BA68AC
:1053C8001343BB607B681B68BA689A607B680122DC
:1053D80083F83D207B68002283F83C200023184690
:1053E8001437BD465DF8047B704700BF00000140DC
:1053F8000004004000080040000C00400004014088
:10540800004001400018004080B483B000AF7860CD
:1054180000BF0C37BD465DF8047B704780B483B08D
:1054280000AF786000BF0C37BD465DF8047B70475D
:1054380080B582B000AF78607B68002B01D1012372
:105448003FE07B6893F83D30DBB2002B06D17B68E8
:10545800002283F83C207868FCF7D6F87B68242281
:1054680083F83D207B681B68DA687B681B6822F438
:105478000052DA60786800F0DBFD7B681B681A6907
:105488007B681B6822F490421A617B681B685A6922
:105498007B681B6822F02A025A617B681B68DA68FD
:1054A8007B681B6842F40052DA607B6800221A6449
:1054B8007B68202283F83D207B68202283F83E20E9
:1054C800002318460837BD4680BD80B58AB002AFB4
:1054D800F860B9603B601346FB8000237B61FB6882
:1054E80093F83D30DBB2202B7CD1BB68002B02D077
:1054F800FB88002B01D1012375E0FB6893F83C3051
:10550800012B01D102236EE0FB68012283F83C20C5
:10551800FB6800221A64FB68212283F83D20FCF70F
:10552800A5FB7861FB68FA889A84FB68FA88DA84B4
:10553800FB689B68B3F5805F08D1FB681B69002B8B
:1055480004D10023FB61BB68BB6103E0BB68FB615E
:105558000023BB61FB68002283F83C202AE03B68FB
:1055680000937B6900228021F86800F01FFB034646
:10557800002B01D0032336E0FB69002B0BD1BB695C
:105588001B881A46FB681B68C2F308025A60BB698D
:105598000233BB6107E0FB691A78FB681B685A6035
:1055A800FB690133FB61FB68DB8C9BB2013B9AB260
:1055B800FB68DA84FB68DB8C9BB2002BCFD13B689D
:1055C80000937B6900224021F86800F0EFFA034657
:1055D800002B01D0032306E0FB68202283F83D203E
:1055E800002300E0022318462037BD4680BD80B561
:1055F80084B000AFF860B9601346FB80FB6893F88D
:105608003E30DBB2202B1DD1BB68002B02D0FB88BB
:10561800002B01D1012316E0FB6893F83C30012BE5
:1056280001D102230FE0FB68012283F83C20FB68CC
:1056380000221A63FB881A46B968F86800F024FB50
:10564800034600E0022318461037BD4680BD00001F
:1056580080B5BAB000AF78607B681B681B68C7F874
:10566800E4307B681B68DB68C7F8E0307B681B6840
:105678005B69C7F8DC300023C7F8D8300023C7F8C7
:10568800D430D7F8E43003F00F03C7F8D830D7F890
:10569800D830002B0FD1D7F8E43003F02003002BCB
:1056A80009D0D7F8E03003F02003002B03D0786846
:1056B80000F003FC56E2D7F8D830002B00F0DE806B
:1056C800D7F8DC3003F00103002B06D1D7F8E0301F
:1056D80003F49073002B00F0D180D7F8E43003F086
:1056E8000103002B0BD0D7F8E03003F48073002BB4
:1056F80005D07B681B6C43F001027B681A64D7F8FD
:10570800E43003F00403002B0BD0D7F8DC3003F0AF
:105718000103002B05D07B681B6C43F002027B68F9
:105728001A64D7F8E43003F00203002B0BD0D7F843
:10573800DC3003F00103002B05D07B681B6C43F0C1
:1057480004027B681A64D7F8E43003F00803002BDE
:1057580011D0D7F8E03003F02003002B05D1D7F89B
:10576800DC3003F00103002B05D07B681B6C43F091
:1057780008027B681A647B681B6C002B00F0ED81C3
:10578800D7F8E43003F02003002B08D0D7F8E03036
:1057980003F02003002B02D0786800F08EFB7B68B2
:1057A8001B685B6903F04003402B0CBF01230023F7
:1057B800DBB2C7F8D4307B681B6C03F00803002BFE
:1057C80003D1D7F8D430002B4FD0786800F096FA80
:1057D8007B681B685B6903F04003402B41D17B6801
:1057E8001B681433C7F89C30D7F89C3053E8003F47
:1057F800C7F89830D7F8983023F04003C7F8D0306E
:105808007B681B681433D7F8D020C7F8A820C7F8DE
:10581800A430D7F8A410D7F8A82041E80023C7F887
:10582800A030D7F8A030002BD9D17B689B6B002B18
:1058380013D07B689B6B7D4A1A657B689B6B184607
:10584800FCF7D6FE0346002B16D07B689B6B1B6DBE
:105858007A68926B104698470EE0786800F090F9E5
:105868000AE0786800F08CF906E0786800F088F9BA
:105878007B6800221A6470E100BF6EE17B681B6BD5
:10588800012B40F04A81D7F8E43003F01003002BD5
:1058980000F04381D7F8E03003F01003002B00F04C
:1058A8003C810023BB607B681B681B68BB607B680E
:1058B8001B685B68BB60BB687B681B685B6903F03F
:1058C8004003402B40F0B4807B689B6B1B685B688F
:1058D800A7F8BE30B7F8BE30002B00F040817B68D7
:1058E8009B8DB7F8BE209A4280F039817B68B7F863
:1058F800BE20DA857B689B6BDB69B3F5807F00F09F
:1059080088807B681B680C33C7F88830D7F88830E4
:1059180053E8003FC7F88430D7F8843023F4807305
:10592800C7F8B8307B681B680C33D7F8B820C7F8BD
:105938009420C7F89030D7F89010D7F8942041E811
:105948000023C7F88C30D7F88C30002BD9D17B686E
:105958001B6814337B677B6F53E8003F3B673B6FE3
:1059680023F00103C7F8B4307B681B681433D7F8F9
:10597800B420C7F88020FB67F96FD7F8802041E88A
:105988000023BB67BB6F002BE1D17B681B68143316
:105998003B663B6E53E8003FFB65FB6D23F040031D
:1059A800C7F8B0307B681B681433D7F8B020FA66A4
:1059B800BB66B96EFA6E41E800237B667B6E002BEE
:1059C800E3D17B68202283F83E207B6800221A639B
:1059D8007B681B680C33FB64FB6C53E8003FBB64BB
:1059E800BB6C23F01003C7F8AC307B681B680C3322
:1059F800D7F8AC20BA657B65796DBA6D41E80023AC
:105A08003B653B6D002BE3D17B689B6B1846FCF72D
:105A18007FFD7B689A8D7B68DB8D9BB2D31A9BB226
:105A28001946786800F0B6F899E000BFCB5D000829
:105A38007B689A8D7B68DB8D9BB2D31AA7F8CE3032
:105A48007B68DB8D9BB2002B00F08B80B7F8CE30E3
:105A5800002B00F086807B681B680C33BB63BB6B34
:105A680053E8003F7B637B6B23F49073C7F8C8301F
:105A78007B681B680C33D7F8C8207A643B64396CA0
:105A88007A6C41E80023FB63FB6B002BE3D17B6856
:105A98001B6814337B627B6A53E8003F3B623B6AB6
:105AA80023F00103C7F8C4307B681B681433D7F8A8
:105AB800C4203A63FB62F96A3A6B41E80023BB628F
:105AC800BB6A002BE3D17B68202283F83E207B68E9
