:020000040800F2
:10000000000002204D2C0008CD280008D32800084D
:10001000D9280008DF280008E528000800000000B3
:10002000000000000000000000000000EB280008B5
:10003000F928000800000000072900081529000819
:100040009D2C00089D2C00089D2C00089D2C00086C
:100050009D2C00089D2C00089D2C00089D2C00085C
:100060009D2C00089D2C00089D2C00089D2C00084C
:100070009D2C00089D2C00089D2C00089D2C00083C
:100080009D2C00089D2C00089D2C00089D2C00082C
:100090009D2C00089D2C00089D2C00089D2C00081C
:1000A0009D2C00089D2C00089D2C00089D2C00080C
:1000B000212900089D2C00089D2C00089D2C00087B
:1000C0009D2C00089D2C00089D2C00089D2C0008EC
:1000D0009D2C000835290008492900089D2C00089E
:1000E0009D2C00089D2C00089D2C00089D2C0008CC
:1000F0009D2C00089D2C00089D2C00089D2C0008BC
:100100009D2C00089D2C00089D2C00089D2C0008AB
:100110009D2C00089D2C00089D2C00089D2C00089B
:100120005D2900089D2C00089D2C00089D2C0008CE
:100130009D2C00089D2C00089D2C00089D2C00087B
:100140009D2C00089D2C00089D2C00089D2C00086B
:100150009D2C00089D2C00089D2C00089D2C00085B
:100160009D2C00089D2C00089D2C00089D2C00084B
:100170009D2C00089D2C00089D2C0008000000000C
:080180009D2C00089D2C0008D5
:1001880010B5054C237833B9044B13B10448AFF3C9
:1001980000800123237010BD1C0000200000000017
:1001A800AC72000808B5034B1BB103490348AFF311
:1001B800008008BD0000000020000020AC7200088C
:1001C80053B94AB9002908BF00281CBF4FF0FF31B6
:1001D8004FF0FF3000F070B9ADF1080C6DE904CEB6
:1001E80000F006F8DDF804E0DDE9022304B070470A
:1001F8002DE9F047089E0D4604460F46002B4AD1CC
:100208008A42944665D9B2FA82F343B102FA03FCF2
:10021800C3F120029F4020FA02F217439C404FEAA4
:100228001C4E1FFA8CF5B7FBFEF1220C0EFB117762
:1002380042EA074201FB05F090420AD91CEB020290
:1002480001F1FF3780F01C81904240F21981023998
:100258006244121AA4B2B2FBFEF00EFB102244EA6A
:10026800024400FB05F5A5420AD91CEB040400F181
:10027800FF3280F00781A54240F2048164440238CD
:1002880040EA0140641B00211EB1DC400023C6E99E
:100298000043BDE8F0878B4208D9002E00F0ED80BE
:1002A8000021C6E900050846BDE8F087B3FA83F1E6
:1002B800002949D1AB4202D3824200F2F880841A65
:1002C80065EB030201201746002EE2D0C6E900477D
:1002D800DFE702B9FFDEB2FA82F3002B40F090802C
:1002E8008A1A4FEA1C471FFA8CFE0121B2FBF7F568
:1002F80007FB1520220C42EA00420EFB05F0904253
:1003080008D91CEB020205F1FF3802D2904200F234
:10031800CB804546121AA4B2B2FBF7F007FB1022B5
:1003280044EA02440EFB00FEA64508D91CEB04046F
:1003380000F1FF3202D2A64500F2BB801046A4EBC2
:100348000E0440EA05409FE7C1F120078B4022FADE
:1003580007FC4CEA030C05FA01F420FA07F3FD4008
:100368004FEA1C492343B5FBF9F81FFA8CFE09FB39
:1003780018551C0C44EA054408FB0EF5A54202FA80
:1003880001F200FA01F00BD91CEB040408F1FF3A62
:1003980080F08880A54240F28580A8F10208644474
:1003A800641B9DB2B4FBF9F309FB134445EA04440A
:1003B80003FB0EFEA64508D91CEB040403F1FF3528
:1003C8006CD2A6456AD9023B644443EA0843A3FBBE
:1003D8000295A4EB0E04AC42C846AE4656D353D0A1
:1003E80056B1B0EB080264EB0E0404FA07F7CA40F2
:1003F800CC401743C6E9007418460021BDE8F087D1
:10040800C3F1200102FA03FC20FA01F225FA01F1F6
:100418009D402A434FEA1C471FFA8CFEB1FBF7F0B8
:1004280007FB1015110C41EA054100FB0EF58D4242
:1004380004FA03F408D91CEB010100F1FF382FD2AC
:100448008D422DD902386144491B92B2B1FBF7F5B0
:1004580007FB151142EA014205FB0EF1914208D94A
:100468001CEB020205F1FF3816D2914214D9023D65
:100478006244521A45EA004138E73146304608E7F7
:100488003946E6E61046FBE64845A9D2B9EB02082C
:1004980065EB0C0E013BA3E74546EAE72B4694E7DC
:1004A8004046D1E7D0467BE7023D624432E7084642
:1004B8000AE76444023842E7704700BF80B584B059
:1004C80000AF3B4600221A605A609A60DA603D4BE2
:1004D8003D4A1A603B4B00225A603A4B00229A6010
:1004E800384B01221A61374B00221A76354B00220D
:1004F80083F82020334B0022DA62324B334A9A6267
:10050800304B0022DA602F4B0522DA612D4B002296
:1005180083F830202B4B01225A612A4802F052FC02
:100528000346002B01D001F088FE08233B6001231D
:100538007B600023BB603B461946224802F086FCDC
:100548000346002B01D001F078FE09233B6002230B
:100558007B603B4619461B4802F078FC0346002B9B
:1005680001D001F06AFE0A233B6003237B603B460F
:100578001946144802F06AFC0346002B01D001F02A
:100588005CFE0B233B6004237B603B4619460D4809
:1005980002F05CFC0346002B01D001F04EFE0C2358
:1005A8003B6005237B603B461946064802F04EFC3B
:1005B8000346002B01D001F040FE00BF1037BD46B6
:1005C80080BD00BF38000020002001400100000F5E
:1005D80080B500AF01220821024803F07FFC00BF6C
:1005E80080BD00BF000C024080B582B000AF002380
:1005F8007B600C4B1B6B0B4A43F480031363094B62
:100608001B6B03F480037B607B6800220021382089
:1006180002F015FF382002F02EFF00BF0837BD4654
:1006280080BD00BF0038024080B58EB000AF07F132
:100638001C0300221A605A609A60DA601A615A61D3
:100648009A613B4600221A605A609A60DA601A6121
:100658005A619A612F4B4FF020421A602D4B2E4A57
:100668005A602C4B00229A602A4B0022DA60294BF0
:1006780000221A61274B10225A61264B00229A61E8
:10068800244B0022DA61234B00221A62214B0022FC
:100698005A62204B4FF480529A621E4B0022DA6253
:1006A8001C4B4FF480421A631A4B00225A63194BB1
:1006B80000229A63174B00225A640F23FB610F2311
:1006C8003B623C237B620023BB621023FB62112345
:1006D8003B6300237B6308233B600F237B60092374
:1006E800BB600023FB6010233B6111237B61002367
:1006F800BB613A4607F11C031946064804F074FC2E
:100708000346002B01D001F098FD00BF3837BD46E5
:1007180080BD00BF80000020040100A080B400AFAD
:10072800084B00221A60074B64225A60054B0022CE
:100738009A60044B6422DA6000BFBD465DF8047B12
:10074800704700BF5C04002080B483B000AF104B3A
:1007580078221A600E4BA0225A6001237B600DE0BC
:100768000B4A7B68002142F83310094A7B68DB009A
:10077800134400225A607B6801337B607B68632BDB
:10078800EEDD00BF00BF0C37BD465DF8047B704747
:100798003C01002080B58EB000AF07F12403002291
:1007A8001A605A609A60DA601A6100233B62894BCA
:1007B8001B6B884A43F010031363864B1B6B03F0D3
:1007C80010033B623B6A0023FB61824B1B6B814A2F
:1007D80043F0040313637F4B1B6B03F00403FB61BB
:1007E800FB690023BB617B4B1B6B7A4A43F02003F8
:1007F8001363784B1B6B03F02003BB61BB690023B9
:100808007B61744B1B6B734A43F080031363714B1A
:100818001B6B03F080037B617B6900233B616D4B9D
:100828001B6B6C4A43F0010313636A4B1B6B03F0A9
:1008380001033B613B690023FB60664B1B6B654A08
:1008480043F002031363634B1B6B03F00203FB606B
:10085800FB680023BB605F4B1B6B5E4A43F00803D9
:1008680013635C4B1B6B03F00803BB60BB6800237E
:100878007B60584B1B6B574A43F040031363554B3F
:100888001B6B03F040037B607B68002210215248F9
:1008980003F024FB00224FF40851504803F01EFBDC
:1008A80000224FF480614E4803F018FB00224FF4F9
:1008B800E0714C4803F012FB00224FF480714A4863
:1008C80003F00CFB00220821484803F007FB102323
:1008D8007B620123BB620023FB6200233B6307F1B9
:1008E800240319463C4803F05DF94FF408537B6232
:1008F8000123BB620023FB6200233B6307F124034F
:100908001946364803F04EF94FF400737B62002312
:10091800BB620023FB6207F124031946304803F049
:1009280041F94FF480637B620123BB620023FB62C1
:1009380000233B6307F124031946294803F032F9E1
:100948004FF4E0737B620123BB620023FB62002348
:100958003B6307F124031946224803F023F94FF4B7
:1009680080737B620023BB620123FB6207F12403CF
:1009780019461A4803F016F94FF480737B62012375
:10098800BB620023FB6200233B6307F12403194683
:10099800154803F007F94FF480537B620023BB62CC
:1009A8000023FB6207F1240319460C4803F0FAF808
:1009B80008237B620123BB620023FB6200233B63A5
:1009C80007F124031946094803F0ECF800BF38374B
:1009D800BD4680BD003802400010024000080240B9
:1009E800001402400018024000000240000C0240BF
:1009F80080B500AF124B134A1A60114B124A5A6065
:100A08000F4B00229A600E4B0022DA600C4B4FF419
:100A180080421A610A4B00225A61094B00229A61EE
:100A2800074B0022DA61064B00221A62044803F0E1
:100A38006FFA0346002B01D001F0FFFB00BF80BD19
:100A48006C04002000540040A086010080B584B0EA
:100A580004AF264B00934FF4A073F022002100202E
:100A680000F012FF4BF640430093B923B9229621B8
:100A7800412000F097FC4BF640430093EB23B9224A
:100A8800C821412000F08EFC4BF64043009340F211
:100A98001D13B922FA21412000F084FC012302939E
:100AA80018230193002300930023114A9B2154200B
:100AB80001F0BCF90123029318230193002300934A
:100AC80000230C4ACD214D2001F0B0F901230293F7
:100AD80018230193002300930023074AFF2148208D
:100AE80001F0A4F900BFBD4680BD00BFBCA200084C
:100AF800C4720008CC720008D872000880B584B0AF
:100B080004AF304B00934FF4A073F0220021002073
:100B180000F0BAFE4BF6404300938723B9226421C4
:100B2800412000F03FFC4BF640430093B923B92223
:100B38009621412000F036FC4BF640430093EB230E
:100B4800B922C821412000F02DFC4BF64043009308
:100B580040F21D13B922FA21412000F023FC0123A1
:100B6800029318230193002300930023164A692156
:100B7800542001F05BF90123029318230193002309
:100B880000930023114A9B21602001F04FF90123B3
:100B98000293182301930023009300230C4ACD21CC
:100BA800602001F043F901230293182301930023E5
:100BB80000930023074AFF21642001F037F900BFA2
:100BC800BD4680BDBCFA0208E4720008EC72000859
:100BD800F4720008FC72000890B589B004AF5D4B50
:100BE80000934FF4A073F0220021002000F04CFE87
:100BF8000123029310230193002300930023564AF4
:100C080050210A2001F012F90123029310230193C5
:100C1800002300930023514A50213C2001F006F99B
:100C280001230293102301930023009300234C4ACD
:100C38005021A02001F0FAF800237B6007F1080397
:100C480000221A609A800123FB7351E0FB7B053375
:100C58009BB21B019CB2FB7B391D0A22184606F089
:100C6800B1FA024601230293102301930023009353
:100C7800002321460A2001F0D9F8FB7B05339BB2FB
:100C88001B0199B2FB7B5A1E13465B0013449B0061
:100C9800344A1A440123029310230193002300933A
:100CA80000233C2001F0C2F8FB7B05339BB21B01FB
:100CB8009CB2FB7B5A1E2B4913465B0013449B00D6
:100CC8000B440A331B8818463B1D0A22194606F0B6
:100CD80079FA02460123029310230193002300931B
:100CE80000232146A02001F0A1F8FB7B0133FB7310
:100CF8001D4B1B78FA7B9A42A8D94BF640430093C8
:100D080040F21D13B922FA21412000F04BFB0123C8
:100D1800029318230193002300930023134AFF2111
:100D2800642001F083F80023009340F21D13B922D8
:100D3800FA21412000F007FC002300934FF48E7342
:100D4800B822FB21422000F0FEFB00BF1437BD464D
:100D580090BD00BFBC520508047300080C7300085E
:100D680014730008D000002000000020FC72000866
:100D780080B584B004AF4FF6FF7000F0E1FA4AF294
:100D88005163009340F23F13EF22C821002000F086
:100D980009FB4BF64043009340F23B134B2240F2D1
:100DA8000911052000F0FEFA4BF64043009340F28B
:100DB8003B13EB2240F20911A52000F0F3FA4BF6A1
:100DC80040430093FF239B22CD21552000F0EAFAEF
:100DD8004BF64043009340F23B139B2240F209112B
:100DE800552000F0DFFA0123009319234FF47842CD
:100DF800E621C82000F0ADFF0123029310230193E0
:100E08000023009300230A4ADE21B62001F00EF8E1
:100E18000123029310230193002300930023054A22
:100E2800CD21052001F002F800BFBD4680BD00BFFE
:100E38001C7300082473000880B584B004AF094B04
:100E48001B689AB2102302934AF25163019300235C
:100E580000930523DD21052000F098FC00BFBD4666
:100E680080BD00BF0400002080B584B004AF1B4BD8
:100E780000934FF4A073F0220021002000F004FD3D
:100E88004BF640430093B923B9229621412000F044
:100E980089FA4BF640430093EB23B922C82141203D
:100EA80000F080FA01230293182301930023009392
:100EB80000230B4A9B215A2000F0B8FF012302931C
:100EC80018230193002300930023064ACD216420B0
:100ED80000F0ACFF00BFBD4680BD00BFBCAA07083C
:100EE8002C730008FC72000880B584B004AF184B5E
:100EF80000934FF4A073F0220021002000F0C4FCFE
:100F08004BF640430093EB23B922C821412000F05F
:100F180049FA00230093EB23B922C821412000F0AD
:100F280012FB00230093EA23B822C921422000F0D3
:100F38000AFB012302931823019300230093002343
:100F4800044ACD21642000F071FF00BFBD4680BD7A
:100F5800BC020A08FC72000880B584B004AF184BC4
:100F680000934FF4A073F0220021002000F08CFCC5
:100F78004BF640430093EB23B922C821412000F0EF
:100F880011FA00230093EB23B922C821412000F075
:100F9800DAFA00230093EA23B822C921422000F09C
:100FA800D2FA01230293182301930023009300230C
:100FB800044ACD21642000F039FF00BFBD4680BD42
:100FC800BC5A0C08FC72000880B582B002AF48F227
:100FD80030430093B923B9229621412000F0B3FA97
:100FE80048F230430093B823B8229721422000F0FA
:100FF800AAFA48F230430093EB23B922C8214120D2
:1010080000F0A1FA48F230430093EA23B822C9213C
:10101800422000F098FA48F23043009340F21D1342
:10102800B922FA21412000F08EFA48F230430093A9
:101038004FF48E73B822FB21422000F084FA00BFDF
:10104800BD4680BD80B582B002AFFFF7BDFF00236B
:101058000093B923B9229621412000F074FA0023A5
:101068000093B823B8229721422000F06CFA00BF01
:10107800BD4680BD80B582B002AFFFF7A5FF002353
:101088000093EB23B922C821412000F05CFA002329
:101098000093EA23B822C921422000F054FA00BF85
:1010A800BD4680BD80B582B002AFFFF78DFF00233B
:1010B800009340F21D13B922FA21412000F043FAAF
:1010C800002300934FF48E73B822FB21422000F0D6
:1010D8003AFA00BFBD4680BD80B582B002AF00239A
:1010E80000938723B9226421412000F02CFA0023C1
:1010F80000938623B8226521422000F024FAFFF7E6
:1011080063FF00BFBD4680BD80B582B002AF48F224
:10111800304300938723B9226421412000F013FA59
:1011280048F2304300938623B8226521422000F01C
:101138000AFAFFF787FF00BFBD4680BD80B582B0C1
:1011480002AF48F2304300938723B922642141203B
:1011580000F0F9F948F2304300938623B82265215C
:10116800422000F0F0F9FFF785FF00BFBD4680BDC3
:1011780080B582B002AF48F2304300938723B9228A
:101188006421412000F0DFF948F2304300938623C0
:10119800B8226521422000F0D6F9FFF783FF00BF8F
:1011A800BD4680BD80B582B002AF00230093B9234D
:1011B800B9229621412000F0C6F900230093B823F4
:1011C800B8229721422000F0BEF948F2304300933C
:1011D800EB23B922C821412000F0B5F948F2304389
:1011E8000093EA23B822C921422000F0ACF900BFDD
:1011F800BD4680BD80B582B002AF48F2304300934F
:10120800B923B9229621412000F09DF948F23043D4
:101218000093B823B8229721422000F094F90023C4
:101228000093EB23B922C821412000F08CF9002358
:101238000093EA23B822C921422000F084F900BFB4
:10124800BD4680BD80B483B000AF0346FB80044A2E
:10125800FB88138000BF0C37BD465DF8047B7047E0
:10126800FEFF0F6080B483B000AF0346FB80044AE2
:10127800FB88538000BF0C37BD465DF8047B704780
:10128800FEFF0F6080B483B000AF064B5B889BB253
:10129800FB80FB889BB218460C37BD465DF8047B83
:1012A800704700BFFEFF0F6090B583B000AF0446E3
:1012B800084611461A462346FB800346BB800B4668
:1012C8007B8013463B802A20FFF7BCFFFB881B0A64
:1012D8009BB21846FFF7C6FFFB88DBB29BB21846E5
:1012E800FFF7C0FF7B881B0A9BB21846FFF7BAFFBF
:1012F8007B88DBB29BB21846FFF7B4FF2B20FFF7C1
:10130800A1FFBB881B0A9BB21846FFF7ABFFBB883F
:10131800DBB29BB21846FFF7A5FF3B881B0A9BB2BE
:101328001846FFF79FFF3B88DBB29BB21846FFF7D2
:1013380099FF2C20FFF786FF00BF0C37BD4690BDF4
:1013480080B584B000AF0346FB80154B1B88013B7A
:101358009AB2134B5B88013B9BB200210020FFF738
:10136800A3FF0023FB8111E00023BB8106E0FB887B
:101378001846FFF777FFBB890133BB81084B5B88B1
:10138800BA899A42F3D3FB890133FB81044B1B884A
:10139800FA899A42E8D300BF00BF1037BD4680BD26
:1013A800C004002090B585B000AF04460846114639
:1013B8001A462346FB800346BB800B467B801346B8
:1013C8003B807B88013B9AB23B88013B9BB2B98842
:1013D800F888FFF769FFBB88FB8110E0FB88BB81B9
:1013E80006E03B8C1846FFF73DFFBB890133BB8104
:1013F800BA897B889A42F4D3FB890133FB81FA8945
:101408003B889A42EAD300BF00BF1437BD4690BD5F
:1014180080B582B000AF0346FB800B46BB80134605
:101428007B80BB88FA88B988F888FFF73DFF7B88FE
:101438001846FFF717FF00BF0837BD4680BD90B5B7
:101448008DB000AF0446084611461A462346FB8075
:101458000346BB800B467B8013463B800023BB6260
:1014680000237B627A88FB88D31A3B623A88BB8860
:10147800D31AFB61FB88FB60BB88BB603B6A002B0F
:1014880002DD01237B610BE03B6A002B02D10023C4
:101498007B6105E04FF0FF337B613B6A5B423B6257
:1014A800FB69002B02DD01233B610BE0FB69002B8C
:1014B80002D100233B6105E04FF0FF333B61FB693C
:1014C8005B42FB613A6AFB699A4202DD3B6ABB6197
:1014D80001E0FB69BB610023FB852BE0FB689BB245
:1014E800BA6891B2B7F840201846FFF791FFBA6A78
:1014F8003B6A1344BB627A6AFB6913447B62BA6A2B
:10150800BB699A4207DDBA6ABB69D31ABB62FA683B
:101518007B691344FB607A6ABB699A4207DD7A6A81
:10152800BB69D31A7B62BA683B691344BB60FB8D05
:101538000133FB85FB8DBA699A42CFDA00BF00BF41
:101548003437BD4690BD90B585B002AF0446084615
:1015580011461A462346FB800346BB800B467B8018
:1015680013463B80BC887A88B988F8883B8B0093FF
:101578002346FFF764FF3C88FA88B988F8883B8BD4
:1015880000932346FFF75BFF3C887A883988F88800
:101598003B8B00932346FFF752FF3C887A88B98833
:1015A80078883B8B00932346FFF749FF00BF0C3731
:1015B800BD4690BD90B587B000AF044608461146B9
:1015C8001A462346FB800346BB800B46FB70134636
:1015D8003B8000237B75FB883B8297F82C305B08A7
:1015E800FB73FB7BDB08DBB21A46FB7B03F00703CC
:1015F800DBB2002B14BF01230023DBB213449AB2E1
:1016080097F82C309BB212FB03F3BB81FB78203B8D
:10161800FB70FB7B9AB2FB8813449BB2013B9CB2E4
:1016280097F82C309AB2BB8813449BB2013B9BB20B
:10163800B988F8882246FFF737FE00237B827AE0D4
:1016480097F82C300C2B28D097F82C30102B08D179
:10165800FA787B8A3C4912010A4413441B78FB75CB
:101668001BE097F82C30182B0BD1FA78798A374879
:1016780013465B0013441B0103440B441B78FB75A2
:101688000BE097F82C30202B5AD1FA787B8A304916
:1016980092010A4413441B78FB750023BB7544E090
:1016A80097F83030002B20D1FA7DBB7D42FA03F346
:1016B80003F00103002B04D03B881846FFF7D2FD46
:1016C80003E03B8D1846FFF7CDFD7B7D01337B752D
:1016D8007B7DFA7BB3FBF2F101FB02F29B1ADBB2D2
:1016E800002B1FD100237B7522E0FA7DBB7D42FAD7
:1016F80003F303F00103002B05D03A88B988FB886F
:101708001846FFF785FEFB880133FB80FA883B8A81
:10171800D21AFB7B9A4205D13B8AFB80BB880133F6
:10172800BB8005E0BB7D0133BB75BB7D072BB7D9FB
:101738007B8A01337B827A8ABB899A4280D300E014
:1017480000BF1C37BD4690BD3C7300082C790008CB
:10175800FC8A000880B485B000AF03460A46FB71D6
:101768001346BB710123FB6004E0FA79FB6802FBB6
:1017780003F3FB60BB795A1EBA71002BF5D1FB68E5
:1017880018461437BD465DF8047B704790B589B09C
:1017980004AF0446084611461A462346FB80034612
:1017A800BB800B467B8013467B700023BB7397F886
:1017B80028305B087B730023FB7359E07C887A78B8
:1017C800FB7BD31ADBB2013BDBB219460A20FFF7D9
:1017D800C1FF0346B4FBF3F12A4BA3FB0123DA084C
:1017E80013469B0013445B00CA1A13463B73BB7B2A
:1017F800002B21D1FA7B7B78013B9A421CDA3B7B98
:10180800002B17D1FB7B9AB27B7B9BB212FB03F3B5
:101818009AB2FB88134498B23A8CB9880023029391
:1018280097F828300193BB8C009313462022FFF7CA
:10183800C1FE1AE00123BB73FB7B9AB27B7B9BB290
:1018480012FB03F39AB2FB88134498B23B7B303304
:10185800DAB23C8CB9880023029397F828300193B8
:10186800BB8C00932346FFF7A5FEFB7B0133FB737C
:10187800FA7B7B789A42A1D300BF00BF1437BD46DC
:1018880090BD00BFCDCCCCCC90B587B000AF04469E
:10189800084611461A462346FB800346BB800B4682
:1018A8007B8013463B8000233B61FA887B88134486
:1018B8009BB2013B9CB2BA883B8813449BB2013B64
:1018C8009BB2B988F8882246FFF7EEFC0023FB821A
:1018D80027E00023BB821DE03B695B00BA6A134422
:1018E8001B78FB733B695B000133BA6A13441B78AE
:1018F800BB73FB7B1B021AB2BB7B1BB213431BB22D
:101908009BB21846FFF7AEFC3B6901333B61BB8ACB
:101918000133BB82BA8A3B889A42DDD3FB8A013302
:10192800FB82FA8A7B889A42D3D300BF00BF1C3758
:10193800BD4690BD80B483B000AF0346FB71FB7910
:101948001B09DBB203F00303DBB2002B07D00A4B01
:101958004FF4A0721A80084BF0225A8006E0064B1A
:10196800F0221A80044B4FF4A0725A8000BF0C3743
:10197800BD465DF8047B7047C004002080B500AF09
:1019880000224FF40051AA4802F0A8FA4FF4FA7066
:1019980001F0F4F901224FF40051A54802F09EFA33
:1019A8004FF4FA7001F0EAF90020FFF7C3FFD320E3
:1019B800FFF748FCFFF766FC03461A469D4B9A80E2
:1019C800FFF760FC03461A469A4B9A80FFF75AFCC9
:1019D80003461A46974B9A80964B9B881B029AB2ED
:1019E800944B9A80FFF74EFC03461A46914B9B880E
:1019F80013439AB28F4B9A80CF20FFF723FC002025
:101A0800FFF730FCC120FFF72DFC3020FFF72AFC40
:101A1800ED20FFF717FC6420FFF724FC0320FFF7F5
:101A280021FC1220FFF71EFC8120FFF71BFCE82099
:101A3800FFF708FC8520FFF715FC1020FFF712FCC4
:101A48007A20FFF70FFCCB20FFF7FCFB3920FFF7CC
:101A580009FC2C20FFF706FC0020FFF703FC3420CC
:101A6800FFF700FC0220FFF7FDFBF720FFF7EAFB7A
:101A78002020FFF7F7FBEA20FFF7E4FB0020FFF741
:101A8800F1FB0020FFF7EEFBC020FFF7DBFB1B207C
:101A9800FFF7E8FBC120FFF7D5FB0120FFF7E2FBCA
:101AA800C520FFF7CFFB3020FFF7DCFB3020FFF726
:101AB800D9FBC720FFF7C6FBB720FFF7D3FB3620BB
:101AC800FFF7C0FB0820FFF7CDFB3A20FFF7BAFB72
:101AD8005520FFF7C7FBB120FFF7B4FB0020FFF745
:101AE800C1FB1A20FFF7BEFBB620FFF7ABFB0A20AD
:101AF800FFF7B8FBA220FFF7B5FBF220FFF7A2FB28
:101B08000020FFF7AFFB2620FFF79CFB0120FFF723
:101B1800A9FBE020FFF796FB0F20FFF7A3FB2A2085
:101B2800FFF7A0FB2820FFF79DFB0820FFF79AFB93
:101B38000E20FFF797FB0820FFF794FB5420FFF7D0
:101B480091FBA920FFF78EFB4320FFF78BFB0A20B0
:101B5800FFF788FB0F20FFF785FB0020FFF782FBCC
:101B68000020FFF77FFB0020FFF77CFB0020FFF73A
:101B780079FBE120FFF766FB0020FFF773FB1520D8
:101B8800FFF770FB1720FFF76DFB0720FFF76AFBD5
:101B98001120FFF767FB0620FFF764FB2B20FFF7F8
:101BA80061FB5620FFF75EFB3C20FFF75BFB05203F
:101BB800FFF758FB1020FFF755FB0F20FFF752FBEC
:101BC8003F20FFF74FFB3F20FFF74CFB0F20FFF7AD
:101BD80049FB2B20FFF736FB0020FFF743FB0020D3
:101BE800FFF740FB0120FFF73DFB3F20FFF73AFBE3
:101BF8002A20FFF727FB0020FFF734FB0020FFF720
:101C080031FB0020FFF72EFBEF20FFF72BFB112005
:101C1800FFF718FB782001F0B1F82920FFF712FB35
:101C280001224FF48071044802F058F900BF80BDCA
:101C380000080240C00400200000024080B584B0C3
:101C480000AFF860B9607A603B60FB689AB27B6865
:101C58009BB2134498B2BB689AB23B689BB21344D8
:101C68009BB23A8B1946FFF7D3FBFB689AB27B68A5
:101C78009BB2D31A98B2BB689AB23B689BB2134422
:101C88009BB23A8B1946FFF7C3FBFB689AB27B6895
:101C98009BB2134498B2BB689AB23B689BB2D31A02
:101CA8009BB23A8B1946FFF7B3FBFB689AB27B6885
:101CB8009BB2D31A98B2BB689AB23B689BB2D31A4C
:101CC8009BB23A8B1946FFF7A3FBFB689AB23B68B5
:101CD8009BB2134498B2BB689AB27B689BB2134418
:101CE8009BB23A8B1946FFF793FBFB689AB23B68A5
:101CF8009BB2D31A98B2BB689AB27B689BB2134462
:101D08009BB23A8B1946FFF783FBFB689AB23B6894
:101D18009BB2134498B2BB689AB27B689BB2D31A41
:101D28009BB23A8B1946FFF773FBFB689AB23B6884
:101D38009BB2D31A98B2BB689AB27B689BB2D31A8B
:101D48009BB23A8B1946FFF763FB00BF1037BD46BD
:101D580080BD80B58AB002AFF860B9603B601346B9
:101D6800FB800023FB613B68BB613B685B00C3F100
:101D780003033B61BB6A002B4FD029E0FB697B6101
:101D88000AE0FB8800937B69FA69B968F868FFF78D
:101D980055FF7B6901337B617A69BB699A42F0DD43
:101DA8003B69002B06DAFB699A003B69134406334A
:101DB8003B610AE0FA69BB69D31A9A003B6913448C
:101DC8000A333B61BB69013BBB61FB690133FB61C2
:101DD800FA69BB699A42D1DD23E0FB880093BB69AD
:101DE800FA69B968F868FFF729FF3B69002B06DA3A
:101DF800FB699A003B69134406333B610AE0FA69C0
:101E0800BB69D31A9A003B6913440A333B61BB6927
:101E1800013BBB61FB690133FB61FA69BB699A420B
:101E2800DBDD00BF2037BD4680BD000090B58BB01C
:101E380004AFBA601A460346FB810B46BB811346C2
:101E4800FB80FB89BB820023FB7548E0FB7D002BF0
:101E580045D1FA89264B1B88194697F82C305B0820
:101E6800DBB2CB1A9A423FDCBA89214B5B88194610
:101E780097F82C30CB1A9A4236DCBB681B78802B3B
:101E880002D90123FB752AE0BB681B780D2B0BD107
:101E980097F82C309AB2BB891344BB81BB8AFB816B
:101EA800BB680133BB6017E0BB681A78FC88B98946
:101EB800F88997F83030029397F82C3001933B8DCE
:101EC80000932346FFF776FB97F82C305B08DBB2CC
:101ED8009AB2FB891344FB81BB680133BB60BB68C2
:101EE8001B78002BB2D100E000BF1C37BD4690BD67
:101EF800C004002080B500AF3F4B1B88DBB29AB20C
:101F08003D4B1A803D4B1B881A463D4B9B5C1B0280
:101F18001AB2394B1B881BB213431BB29AB2364B09
:101F28001A80364B1B88032B46D801A252F823F09F
:101F3800491F0008671F0008851F0008A31F000825
:101F48002D4B1B8843F0B0039AB22B4B1A802A4BB7
:101F58001B8823F040039AB2274B1A802DE0264BAA
:101F68001B8843F0D0039AB2234B1A80224B1B885C
:101F780023F020039AB2204B1A801EE01E4B1B88C8
:101F880043F0E0039AB21C4B1A801B4B1B8823F0CA
:101F980010039AB2184B1A800FE0174B1B8843F0B6
:101FA80070039AB2144B1A80134B1B8823F08003DA
:101FB8009AB2114B1A8000E000BF104B1B88013306
:101FC8005A4203F0030302F0030258BF53429AB285
:101FD8000A4B1A80002240210A4801F07FFF0123A2
:101FE80002220549084802F0F8FD0122402105486F
:101FF80001F074FF00BF80BD0C000020C604002063
:1020080008000020001802403005002080B500AF0D
:1020180000F042FE00F096F8FEF7BCFBFEF7E4FA8B
:10202800FEF74CFAFEF700FBFEF7E2FC00F05AF967
:1020380000F0FCFC00F0B2FD00F0A8FC00F042FD4E
:1020480000F0D6FD00F0E8F8FEF700FD4FF4FA7056
:1020580000F094FEFEF7F6FF4FF4FA7000F08EFEE3
:10206800FFF708F84FF4FA7000F088FEFFF71AF847
:102078004FF4FA7000F082FEFEF740FD4FF4FA705C
:1020880000F07CFEFFF728F84FF4FA7000F076FEB7
:10209800FFF73AF84FF4FA7000F070FEFFF74EF8C9
:1020A8004FF4FA7000F06AFEFFF762F84FF4FA7026
:1020B80000F064FE1F4B204A106818601D4B4FF457
:1020C8007A725A811D4B1E4A10681860194B7C227F
:1020D800DA82FEF781FD4FF4FA7000F04FFEFEF74A
:1020E80047FE4FF4FA7000F049FEFEF7A5FE4FF4E4
:1020F800FA7000F043FEFEF7B7FE4FF4FA7000F0F6
:102108003DFEFFF74FF84FF4FA7000F037FEFFF787
:1021180071F84FF4FA7000F031FEFEF7E5FE4FF467
:102128007A7000F02BFEFEF717FF4FF47A7000F07C
:1021380025FEFEE7D000002034730008DC000020F4
:102148003873000880B594B000AF07F1200330223F
:102158000021184605F07AF807F10C0300221A60EE
:102168005A609A60DA601A610023BB60284B1B6CC6
:10217800274A43F080531364254B1B6C03F08053AC
:10218800BB60BB6800237B60224B1B68214A43F479
:10219800804313601F4B1B6803F480437B607B689C
:1021A80002233B620123FB6210233B630223BB63D0
:1021B8000023FB6308233B64A8237B640223BB64DE
:1021C8000423FB6407F12003184601F0E5FF0346EA
:1021D800002B01D000F031F80F23FB6002233B6194
:1021E80000237B614FF4A053BB614FF4A053FB6104
:1021F80007F10C030521184602F046FA0346002BA6
:1022080001D000F01AF800BF5037BD4680BD00BFAE
:10221800003802400070004080B500AF00F012F8AE
:10222800FEF7D6F9FFF7AAFBFEF778FAFEF78CFA65
:10223800322000F011F800BF80BD80B400AF72B644
:1022480000BFFEE780B500AF024802F061FF00BFA3
:1022580080BD00BFD405002080B483B000AF034622
:10226800FB80084AFB881380064B1A88064B1A80A5
:10227800064B00221A8000BF0C37BD465DF8047B70
:10228800704700BF2C0500202A05002028050020E3
:1022980080B582B000AF78607B681B68B3F1804F6F
:1022A80016D10D4B1B88002B10D00B4B1B88013B04
:1022B8009AB2094B1A80084B1B88002B06D1074B92
:1022C80001221A80064B1A88034B1A80FFF712FE68
:1022D80000BF0837BD4680BD2A050020280500201C
:1022E8002C05002080B500AF174B184A1A60164B12
:1022F8004FF482725A60144B00229A60124B0022EB
:10230800DA60114B00221A610F4B00225A610E4B02
:102318004FF400729A610C4B0022DA610A4B0022DA
:102328001A62094B00225A62074B00229A62064B36
:102338000A22DA62044802F0C7FB0346002B01D0E8
:10234800FFF77BFF00BF80BD300500200030014053
:1023580080B483B000AF00237B60104B5B6C0F4AE6
:1023680043F4804353640D4B5B6C03F480437B6000
:102378007B6800233B60094B1B6C084A43F0805381
:102388001364064B1B6C03F080533B603B6800BF33
:102398000C37BD465DF8047B704700BF003802402B
:1023A80080B58AB000AF786007F1140300221A6084
:1023B8005A609A60DA601A617B681B683C4A9342EB
:1023C80071D100233B613B4B5B6C3A4A43F4807309
:1023D8005364384B5B6C03F480733B613B690023A7
:1023E800FB60344B1B6B334A43F004031363314BDC
:1023F8001B6B03F00403FB60FB680023BB602D4BE1
:102408001B6B2C4A43F0020313632A4B1B6B03F02C
:102418000203BB60BB6807237B610323BB61002306
:10242800FB6107F114031946234801F0BBFB0323A2
:102438007B610323BB610023FB6107F11403194689
:102448001E4801F0AFFB1E4B1E4A1A601C4B0022AF
:102458005A601B4B00229A60194B0022DA60184B15
:102468004FF480621A61164B4FF400625A61144BA4
:102478004FF400529A61124B4FF48072DA61104B9C
:1024880000221A620E4B00225A620D4801F00EF823
:102498000346002B01D0FFF7D0FE7B68084A9A63F9
:1024A800074A7B68936300BF2837BD4680BD00BFDD
:1024B80000200140003802400008024000040240A9
:1024C800C80400201064024080B58AB000AF78606C
:1024D80007F1140300221A605A609A60DA601A61E0
:1024E8007B681B68194A93422BD100233B61184B28
:1024F8001B6B174A43F002031363154B1B6B03F066
:1025080002033B613B69C0237B611223BB6100234B
:10251800FB6103233B6204237B6207F11403194622
:102528000C4801F03FFB0023FB60094B1B6C084A79
:1025380043F400131364064B1B6C03F40013FB6095
:10254800FB6800BF2837BD4680BD00BF005400406F
:10255800003802400004024080B58AB000AF7860BD
:1025680007F1140300221A605A609A60DA601A614F
:102578007B681B68194A93422BD100233B61184B97
:102588005B6C174A43F480535364154B5B6C03F43C
:1025980080533B613B690023FB60114B1B6B104A66
:1025A80043F0020313630E4B1B6B03F00203FB6043
:1025B800FB6838237B610223BB610023FB61032393
:1025C8003B6205237B6207F114031946054801F0B5
:1025D800E9FA00BF2837BD4680BD00BF0030014082
:1025E800003802400004024080B586B000AF786031
:1025F8007B681B68224A93420ED100237B61214BE2
:102608005B6C204A43F0010353641E4B5B6C03F080
:1026180001037B617B692EE07B681B68B3F1804F07
:1026280016D100233B61174B1B6C164A43F001037C
:102638001364144B1B6C03F001033B613B690022DC
:1026480000211C2000F0FBFE1C2000F014FF12E00B
:102658007B681B680C4A93420DD10023FB60094B31
:102668001B6C084A43F080031364064B1B6C03F091
:102678008003FB60FB6800BF1837BD4680BD00BF04
:102688000000014000380240001C004080B588B0BE
:1026980000AF786007F10C0300221A605A609A6054
:1026A800DA601A617B681B68124A93421ED10023C4
:1026B800BB60114B1B6B104A43F0200313630E4B96
:1026C8001B6B03F02003BB60BB684FF48073FB6097
:1026D80002233B6100237B610023BB610923FB616B
:1026E80007F10C031946054801F05CFA00BF2037D2
:1026F800BD4680BD001C0040003802400014024066
:1027080080B58CB000AF786007F11C0300221A6016
:102718005A609A60DA601A617B681B683A4A934289
:1027280035D10023BB61394B5B6C384A43F0100349
:102738005364364B5B6C03F01003BB61BB69002329
:102748007B61324B1B6B314A43F0010313632F4B00
:102758001B6B03F001037B617B694FF4C063FB6172
:1027680002233B6200237B620323BB620723FB62D5
:1027780007F11C031946264801F014FA002200212B
:10278800252000F05CFE252000F075FE38E07B680F
:102798001B68204A934233D100233B611B4B1B6CBF
:1027A8001A4A43F400331364184B1B6C03F40033C8
:1027B8003B613B690023FB60144B1B6B134A43F0DE
:1027C80001031363114B1B6B03F00103FB60FB68F0
:1027D8000C23FB6102233B6200237B620323BB6261
:1027E8000723FB6207F11C031946094801F0DAF9CF
:1027F80000220021262000F022FE262000F03BFEC9
:1028080000BF3037BD4680BD00100140003802408F
:10281800000002400044004080B586B000AF3B1D78
:1028280000221A605A609A60DA601A611C4B1B68B1
:10283800002B31D11A4B01221A6000233B60194B3F
:102848009B6B184A43F001039363164B9B6B03F091
:1028580001033B603B684FF688737B600223BB60D3
:102868000023FB6003233B610C237B613B1D19465E
:102878000D4801F097F94CF2B3737B600223BB60FB
:102888000023FB6003233B610C237B613B1D19463E
:10289800064801F087F900E000BF1837BD4680BD43
:1028A800880500200038024000100240000C024059
:1028B80080B582B000AF7860FFF7AEFF00BF083781
:1028C800BD4680BD80B400AFFEE780B400AFFEE730
:1028D80080B400AFFEE780B400AFFEE780B400AF7D
:1028E800FEE780B400AF00BFBD465DF8047B7047CB
:1028F80080B400AF00BFBD465DF8047B704780B46C
:1029080000AF00BFBD465DF8047B704780B500AFDF
:1029180000F014FA00BF80BD80B500AF024802F095
:10292800C0FC00BF80BD00BFD405002080B500AF4B
:10293800024803F0FBFB00BF80BD00BF6806002013
:1029480080B500AF024803F0F1FB00BF80BD00BFB7
:10295800AC06002080B500AF024800F0E7FE00BFDB
:1029680080BD00BFC804002080B400AF064BD3F878
:102978008830054A43F47003C2F8883000BFBD466A
:102988005DF8047B704700BF00ED00E080B586B0BD
:1029980000AF07F1080300221A605A609A60DA60F3
:1029A8003B4600221A605A601E4B1F4A1A601D4B94
:1029B80053225A601B4B00229A601A4B4FF6FF7243
:1029C800DA60184B00221A61164B00225A61154B27
:1029D80000229A61134802F04BFB0346002B01D0FA
:1029E800FFF72BFC4FF48053BB6007F1080319462F
:1029F8000C4802F021FE0346002B01D0FFF71DFC16
:102A080000233B6000237B603B461946054803F0E2
:102A1800EDF90346002B01D0FFF70FFC00BF183774
:102A2800BD4680BD8C0500200000014080B586B001
:102A380000AF07F1080300221A605A609A60DA6052
:102A48003B4600221A605A601D4B4FF080421A60C4
:102A58001B4B40F247325A60194B00229A60184BC0
:102A68006322DA60164B00221A61154B00229A6124
:102A7800134802F0FDFA0346002B01D0FFF7DDFBF7
:102A88004FF48053BB6007F1080319460C4802F065
:102A9800D3FD0346002B01D0FFF7CFFB00233B609B
:102AA80000237B603B461946054803F09FF903461F
:102AB800002B01D0FFF7C1FB00BF1837BD4680BD12
:102AC800D405002080B588B000AF3B1D00221A60F5
:102AD8005A609A60DA601A615A619A611E4B1F4AFD
:102AE8001A601D4B40F247325A601B4B00229A6015
:102AF800194B6322DA60184B00221A61164B002228
:102B08009A61154802F0B4FA0346002B01D0FFF78A
:102B180094FB114802F06CFB0346002B01D0FFF731
:102B28008CFB60237B600023BB600023FB600023D9
:102B38007B613B1D00221946074802F0BBFC034697
:102B4800002B01D0FFF779FB0348FFF79FFD00BF7B
:102B58002037BD4680BD00BF1C060020001C004079
:102B680080B582B000AF78607B681B68084A9342E2
:102B78000AD10A2301220749074803F014FA01225F
:102B88000449054803F0A1FA00BF0837BD4680BDD7
:102B980000100140640600206806002080B500AFE0
:102BA800114B124A1A60104B4FF4E1325A600E4B27
:102BB80000229A600C4B0022DA600B4B00221A614B
:102BC800094B0C225A61084B00229A61064B0022DD
:102BD800DA61054803F09AF90346002B01D0FFF7A4
:102BE8002CFB00BF80BD00BF68060020001001401C
:102BF80080B500AF114B124A1A60104B4FF4E13206
:102C08005A600E4B00229A600C4B0022DA600B4B84
:102C180000221A61094B0C225A61084B00229A6162
:102C2800064B0022DA61054803F070F90346002BD1
:102C380001D0FFF702FB00BF80BD00BFAC0600203B
:102C480000440040DFF834D00D480E490E4A0023F6
:102C580002E0D458C4500433C4188C42F9D30B4A48
:102C68000B4C002301E013600432A242FBD3FFF7B0
:102C78007BFE04F0F3FAFFF7C9F970470000022061
:102C8800000000201C00002014B30E081C000020C7
:102C9800F4060020FEE7000080B500AF0E4B1B686D
:102CA8000D4A43F4007313600B4B1B680A4A43F444
:102CB80080631360084B1B68074A43F480731360F2
:102CC800032000F0B1FB0F2000F008F8FFF740FBED
:102CD8000023184680BD00BF003C024080B582B08A
:102CE80000AF7860124B1A68124B1B7819464FF4E4
:102CF8007A73B3FBF1F3B2FBF3F3184600F0C9FBA8
:102D08000346002B01D001230EE07B680F2B0AD865
:102D1800002279684FF0FF3000F091FB064A7B688B
:102D28001360002300E0012318460837BD4680BD24
:102D380010000020180000201400002080B400AF0C
:102D4800064B1B781A46064B1B681344044A13604B
:102D580000BFBD465DF8047B704700BF1800002027
:102D6800F006002080B400AF034B1B681846BD4630
:102D78005DF8047B704700BFF006002080B584B082
:102D880000AF7860FFF7EEFFB8607B68FB60FB6818
:102D9800B3F1FF3F05D00A4B1B781A46FB68134472
:102DA800FB6000BFFFF7DEFF0246BB68D31AFA6874
:102DB8009A42F7D800BF00BF1037BD4680BD00BF9C
:102DC8001800002080B584B000AF78600023FB7342
:102DD8007B68002B01D1012333E07B681B6C002B3F
:102DE80009D17868FFF7DCFA7B6800225A647B68AF
:102DF800002283F83C207B681B6C03F01003002B37
:102E080018D17B681B6C23F4885323F0020343F02A
:102E180002027B681A64786800F03AF97B6800223D
:102E28005A647B681B6C23F0030343F001027B6840
:102E38001A6401E00123FB737B68002283F83C20BD
:102E4800FB7B18461037BD4680BD000080B485B0B6
:102E580000AF786039600023BB607B6893F83C3032
:102E6800012B01D1022305E17B68012283F83C2074
:102E78003B681B68092B25D97B681B68D9683B68A8
:102E88001B689BB21A4613465B0013441E3B07227D
:102E980002FA03F3DA437B681B680A40DA607B684E
:102EA8001B68D9683B689A683B681B689BB21846E0
:102EB80003465B0003441E3B9A407B681B680A4339
:102EC800DA6022E07B681B6819693B681B689BB263
:102ED8001A4613465B001344072202FA03F3DA4347
:102EE8007B681B680A401A617B681B6819693B6824
:102EF8009A683B681B689BB2184603465B0003440C
:102F08009A407B681B680A431A613B685B68062B1A
:102F180024D87B681B68596B3B685A6813469B002A
:102F28001344053B1F2202FA03F3DA437B681B684C
:102F38000A405A637B681B68596B3B681B689BB2E5
:102F480018463B685A6813469B001344053B00FA31
:102F580003F27B681B680A435A634CE03B685B6872
:102F68000C2B24D87B681B68196B3B685A6813467E
:102F78009B001344233B1F2202FA03F3DA437B68C6
:102F88001B680A401A637B681B68196B3B681B68DF
:102F98009BB218463B685A6813469B001344233B70
:102FA80000FA03F27B681B680A431A6323E07B6814
:102FB8001B68D96A3B685A6813469B001344413B17
:102FC8001F2202FA03F3DA437B681B680A40DA62BD
:102FD8007B681B68D96A3B681B689BB218463B68CC
:102FE8005A6813469B001344413B00FA03F27B687E
:102FF8001B680A43DA62224BFB607B681B68214A24
:10300800934209D13B681B68122B05D1FB685B68AA
:1030180043F48002FB685A607B681B68194A934234
:1030280023D13B681B68102B03D03B681B68112B0E
:103038001BD1FB685B6843F40002FB685A603B687D
:103048001B68102B11D1104B1B68104AA2FB0323DD
:103058009A0C13469B0013445B00BB6002E0BB68FC
:10306800013BBB60BB68002BF9D17B68002283F869
:103078003C20002318461437BD465DF8047B704792
:1030880000230140002001401000002083DE1B4384
:1030980080B485B000AF7860794BFB60FB685B68F3
:1030A80023F44032FB685A60FB685A687B685B68A7
:1030B8001A43FB685A607B681B685A687B681B6800
:1030C80022F480725A607B681B6859687B681B69A8
:1030D8001A027B681B680A435A607B681B685A6837
:1030E8007B681B6822F040725A607B681B685968CD
:1030F8007B689A687B681B680A435A607B681B6810
:103108009A687B681B6822F400629A607B681B6877
:1031180099687B68DA687B681B680A439A607B68F1
:103128009B6A584A934222D07B681B689A687B68DE
:103138001B6822F070629A607B681B6899687B68DC
:103148009A6A7B681B680A439A607B681B689A685E
:103158007B681B6822F040529A607B681B689968FC
:103168007B68DA6A7B681B680A439A600FE07B68B1
:103178001B689A687B681B6822F070629A607B689B
:103188001B689A687B681B6822F040529A607B68CB
:103198001B689A687B681B6822F002029A607B6849
:1031A8001B6899687B681B7E5A007B681B680A430A
:1031B8009A607B6893F82030002B1BD07B681B68D3
:1031C8005A687B681B6842F400625A607B681B6817
:1031D8005A687B681B6822F460425A607B681B68E7
:1031E80059687B685B6A013B5A037B681B680A4322
:1031F8005A6007E07B681B685A687B681B6822F482
:1032080000625A607B681B68DA6A7B681B6822F474
:103218007002DA627B681B68D96A7B68DB69013BEC
:103228001A057B681B680A43DA627B681B689A6820
:103238007B681B6822F400729A607B681B68996837
:103248007B6893F830305A027B681B680A439A609F
:103258007B681B689A687B681B6822F480629A60A6
:103268007B681B6899687B685B699A027B681B6846
:103278000A439A6000BF1437BD465DF8047B704767
:10328800002301400100000F80B485B000AF7860D2
:103298007B6803F00703FB600C4BDB68BB60BA6814
:1032A8004FF6FF031340BB60FB681A02BB68134369
:1032B80043F0BF6343F40033BB60044ABB68D36088
:1032C80000BF1437BD465DF8047B704700ED00E091
:1032D80080B400AF044BDB681B0A03F007031846F1
:1032E800BD465DF8047B704700ED00E080B483B014
:1032F80000AF0346FB7197F90730002B0BDBFB7916
:1033080003F01F02074997F907305B09012000FA0B
:1033180002F241F8232000BF0C37BD465DF8047B5C
:10332800704700BF00E100E080B483B000AF0346FF
:103338003960FB7197F90730002B0ADB3B68DAB27A
:103348000C4997F907301201D2B20B4483F80023D5
:103358000AE03B68DAB20849FB7903F00F03043B43
:103368001201D2B20B441A7600BF0C37BD465DF885
:10337800047B704700E100E000ED00E080B489B014
:1033880000AFF860B9607A60FB6803F00703FB617F
:10339800FB69C3F10703042B28BF0423BB61FB6946
:1033A8000433062B02D9FB69033B00E000237B6151
:1033B8004FF0FF32BB6902FA03F3DA43BB681A40E5
:1033C8007B699A404FF0FF317B6901FA03F3D943D7
:1033D8007B680B40134318462437BD465DF8047BD1
:1033E8007047000080B582B000AF78607B68013B11
:1033F800B3F1807F01D301230FE00A4A7B68013BC8
:1034080053600F214FF0FF30FFF78EFF054B00226E
:103418009A60044B07221A60002318460837BD46F5
:1034280080BD00BF10E000E080B582B000AF7860DA
:103438007868FFF729FF00BF0837BD4680BD80B513
:1034480086B000AF0346B9607A60FB7300237B61E6
:10345800FFF73EFF78617A68B9687869FFF78EFFF1
:10346800024697F90F3011461846FFF75DFF00BF77
:103478001837BD4680BD80B582B000AF0346FB71EA
:1034880097F907301846FFF731FF00BF0837BD46E8
:1034980080BD80B582B000AF78607868FFF7A2FF82
:1034A800034618460837BD4680BD000080B586B083
:1034B80000AF786000237B61FFF754FC38617B68BC
:1034C800002B01D1012399E07B68022283F8352083
:1034D8007B68002283F834207B681B681A687B6845
:1034E8001B6822F001021A600FE0FFF73BFC02465E
:1034F8003B69D31A052B08D97B6820225A657B685B
:10350800032283F83520032378E07B681B681B6857
:1035180003F00103002BE8D17B681B681B687B6103
:103528007A69384B13407B617B685A687B689B6873
:103538001A437B68DB681A437B681B691A437B68FC
:103548005B691A437B689B691A437B68DB691A438A
:103558007B681B6A13437A6913437B617B685B6AE8
:10356800042B07D17B68DA6A7B681B6B13437A6983
:1035780013437B617B681B687A691A607B681B68E8
:103588005B697B617B6923F007037B617B685B6A0E
:103598007A6913437B617B685B6A042B17D17B686C
:1035A8009B6A7A6913437B617B68DB6A002B0ED0C8
:1035B800786800F07BFA0346002B08D07B6840222D
:1035C8005A657B68012283F83520012316E07B6861
:1035D8001B687A695A61786800F032FA0346FB6022
:1035E8007B68DB6D3F229A40FB689A607B6800220B
:1035F8005A657B68012283F835200023184618375E
:10360800BD4680BD3F8010F080B584B000AF7860C3
:103618007B689B6DFB60FFF7A5FBB8607B6893F840
:103628003530DBB2022B08D07B6880225A657B6874
:10363800002283F83420012352E07B681B681A6853
:103648007B681B6822F016021A607B681B685A693F
:103658007B681B6822F080025A617B681B6C002B18
:1036680003D17B689B6C002B07D07B681B681A68AA
:103678007B681B6822F008021A607B681B681A685E
:103688007B681B6822F001021A6013E0FFF76AFBEF
:103698000246BB68D31A052B0CD97B6820225A65D1
:1036A8007B68032283F835207B68002283F8342066
:1036B800032315E07B681B681B6803F00103002BDC
:1036C800E4D17B68DB6D3F229A40FB689A607B6897
:1036D800012283F835207B68002283F834200023F8
:1036E80018461037BD4680BD80B483B000AF7860FF
:1036F8007B6893F83530DBB2022B04D07B688022DC
:103708005A6501230CE07B68052283F835207B6825
:103718001B681A687B681B6822F001021A60002384
:1037280018460C37BD465DF8047B704780B586B0F7
:1037380000AF78600023BB608E4B1B688E4AA2FBEB
:1037480003239B0A7B617B689B6D3B613B691B681C
:10375800FB607B68DB6D08229A40FB681340002BF6
:103768001AD07B681B681B6803F00403002B13D076
:103778007B681B681A687B681B6822F004021A6061
:103788007B68DB6D08229A403B699A607B685B6DB9
:1037980043F001027B685A657B68DB6D01229A4021
:1037A800FB681340002B12D07B681B685B6903F031
:1037B8008003002B0BD07B68DB6D01229A403B69AC
:1037C8009A607B685B6D43F002027B685A657B6890
:1037D800DB6D04229A40FB681340002B12D07B68F3
:1037E8001B681B6803F00203002B0BD07B68DB6DA2
:1037F80004229A403B699A607B685B6D43F004023F
:103808007B685A657B68DB6D10229A40FB68134021
:10381800002B43D07B681B681B6803F00803002B50
:103828003CD07B68DB6D10229A403B699A607B68CC
:103838001B681B6803F48023002B18D07B681B6867
:103848001B6803F40023002B08D17B681B6C002B3A
:1038580024D07B681B6C786898471FE07B689B6C5A
:10386800002B1BD07B689B6C7868984716E07B68B8
:103878001B681B6803F48073002B07D17B681B68E7
:103888001A687B681B6822F008021A607B681B6C48
:10389800002B03D07B681B6C786898477B68DB6DCE
:1038A80020229A40FB681340002B00F08F807B6831
:1038B8001B681B6803F01003002B00F087807B68EF
:1038C800DB6D20229A403B699A607B6893F835301B
:1038D800DBB2052B36D17B681B681A687B681B68CE
:1038E80022F016021A607B681B685A697B681B689D
:1038F80022F080025A617B681B6C002B03D17B6825
:103908009B6C002B07D07B681B681A687B681B6858
:1039180022F008021A607B68DB6D3F229A403B69FF
:103928009A607B68012283F835207B68002283F83F
:1039380034207B681B6D002B7ED07B681B6D7868FC
:10394800984779E07B681B681B6803F48023002B89
:103958001DD07B681B681B6803F40023002B0DD166
:103968007B685B6C002B31D07B685B6C7868984710
:103978002CE000BF10000020B5814E1B7B68DB6B7C
:10398800002B23D07B68DB6B786898471EE07B6848
:103998001B681B6803F48073002B0FD17B681B68BE
:1039A8001A687B681B6822F010021A607B68012283
:1039B80083F835207B68002283F834207B68DB6B32
:1039C800002B03D07B68DB6B786898477B685B6D5E
:1039D800002B32D07B685B6D03F00103002B22D0F3
:1039E8007B68052283F835207B681B681A687B682A
:1039F8001B6822F001021A60BB680133BB607A6958
:103A08009A4207D37B681B681B6803F00103002BED
:103A1800F2D100E000BF7B68012283F835207B6883
:103A2800002283F834207B68DB6C002B05D07B6890
:103A3800DB6C7868984700E000BF1837BD4680BD4A
:103A480080B485B000AF78607B681B68DBB2103B40
:103A5800144AA2FB03231B09FB60134AFB681344A7
:103A68001B781A467B68DA65FB68032B09D97B68E3
:103A78001B6823F47F7323F003031A1D7B689A6580
:103A880007E07B681B6823F47F7323F003037A68DD
:103A980093657B689B6D18461437BD465DF8047BBB
:103AA800704700BFABAAAAAAD4B20E0880B485B0EA
:103AB80000AF78600023FB737B689B6ABB607B6800
:103AC8009B69002B1FD1BB68032B56D801A252F863
:103AD80023F000BFED3A0008FF3A0008ED3A00086D
:103AE800833B00087B68DB6A03F08073002B46D0B9
:103AF8000123FB7343E07B68DB6AB3F1C07F40D1ED
:103B08000123FB733DE07B689B69B3F5005F21D11E
:103B1800BB68032B37D801A252F823F0353B0008C5
:103B28003B3B0008353B00084D3B00080123FB7375
:103B380030E07B68DB6A03F08073002B25D001231B
:103B4800FB7322E07B68DB6AB3F1C07F1FD10123DE
:103B5800FB731CE0BB68022B03D9BB68032B03D0A3
:103B680018E00123FB7315E07B68DB6A03F08073C0
:103B7800002B0ED00123FB730BE000BF0AE000BF4F
:103B880008E000BF06E000BF04E000BF02E000BF9D
:103B980000E000BFFB7B18461437BD465DF8047B88
:103BA800704700BF80B489B000AF786039600023E7
:103BB8007B6100233B610023BB610023FB616BE158
:103BC8000122FB6902FA03F37B613B681B687A698F
:103BD80013403B613A697B699A4240F05A813B68DD
:103BE8005B6803F00303012B05D03B685B6803F0B7
:103BF8000303022B30D17B689B68BB61FB695B00C8
:103C0800032202FA03F3DB43BA691340BB613B6842
:103C1800DA68FB695B0002FA03F3BA691343BB6114
:103C28007B68BA699A607B685B68BB610122FB6943
:103C380002FA03F3DB43BA691340BB613B685B6874
:103C48001B0903F00102FB6902FA03F3BA69134383
:103C5800BB617B68BA695A603B685B6803F0030321
:103C6800032B17D07B68DB68BB61FB695B00032211
:103C780002FA03F3DB43BA691340BB613B689A68F5
:103C8800FB695B0002FA03F3BA691343BB617B6803
:103C9800BA69DA603B685B6803F00303022B23D13F
:103CA800FB69DA087B68083253F82230BB61FB698C
:103CB80003F007039B000F2202FA03F3DB43BA6900
:103CC8001340BB613B681A69FB6903F007039B005B
:103CD80002FA03F3BA691343BB61FB69DA087B682C
:103CE8000832B96943F822107B681B68BB61FB691D
:103CF8005B00032202FA03F3DB43BA691340BB619A
:103D08003B685B6803F00302FB695B0002FA03F39C
:103D1800BA691343BB617B68BA691A603B685B6820
:103D280003F44033002B00F0B4800023FB60604BA9
:103D38005B6C5F4A43F4804353645D4B5B6C03F4F4
:103D48008043FB60FB685B4AFB699B08023352F8BF
:103D58002330BB61FB6903F003039B000F2202FAC7
:103D680003F3DB43BA691340BB617B68524A934251
:103D78002BD07B68514A934225D07B68504A9342A6
:103D88001FD07B684F4A934219D07B684E4A9342B2
:103D980013D07B684D4A93420DD07B684C4A9342BE
:103DA80007D07B684B4A934201D107230EE00823D2
:103DB8000CE006230AE0052308E0042306E00323B9
:103DC80004E0022302E0012300E00023FA6902F084
:103DD800030292009340BA691343BB613549FB69FA
:103DE8009B080233BA6941F823203B4B1B68BB612F
:103DF8003B69DB43BA691340BB613B685B6803F40A
:103E08008033002B03D0BA693B691343BB61324A44
:103E1800BB691360304B5B68BB613B69DB43BA69C4
:103E28001340BB613B685B6803F40033002B03D08D
:103E3800BA693B691343BB61274ABB695360264B88
:103E48009B68BB613B69DB43BA691340BB613B6854
:103E58005B6803F48013002B03D0BA693B691343F2
:103E6800BB611D4ABB6993601B4BDB68BB613B6947
:103E7800DB43BA691340BB613B685B6803F400131A
:103E8800002B03D0BA693B691343BB61124ABB6973
:103E9800D360FB690133FB61FB690F2B7FF690AEA2
:103EA80000BF00BF2437BD465DF8047B704700BFE4
:103EB800003802400038014000000240000402407F
:103EC80000080240000C02400010024000140240AA
:103ED80000180240001C0240003C014080B483B03E
:103EE80000AF78600B467B8013467B707B78002B95
:103EF80003D07A887B689A6103E07B881A047B6820
:103F08009A6100BF0C37BD465DF8047B704700001E
:103F180080B584B000AF78607B68002B01D10123A5
:103F28002BE17B6893F83D30DBB2002B06D17B6830
:103F3800002283F83C207868FEF7C6FA7B682422C2
:103F480083F83D207B681B681A687B681B6822F031
:103F580001021A607B681B681A687B681B6842F458
:103F680000421A607B681B681A687B681B6822F429
:103F780000421A6000F080FDF8607B685B68814A47
:103F8800934207D8FB68804A934294BF01230023D9
:103F9800DBB206E0FB687D4A934294BF012300230D
:103FA800DBB2002B01D00123E7E0FB68784AA2FBD3
:103FB80003239B0CBB607B681B685B6823F03F0195
:103FC8007B681B68BA680A435A607B681B681B6A6F
:103FD80023F03F017B685B686A4A934202D8BB685A
:103FE800013309E0BB684FF4967202FB03F3694A98
:103FF800A2FB03239B0901337A6812680B431362FF
:104008007B681B68DB6923F44F4222F0FF027B6860
:104018005B685C498B4219D8FB68591E7B685B68F2
:104028005B00B1FBF3F3591C40F6FC730B40002B0B
:104038000AD0FB68591E7B685B685B00B1FBF3F331
:104048000133C3F30B0351E004234FE07B689B6803
:10405800002B11D1FB68581E7B6859680B465B0022
:104068000B44B0FBF3F30133C3F30B03002B0CBF7A
:1040780001230023DBB212E0FB68581E7B685968F5
:104088000B469B000B4499000B44B0FBF3F3013340
:10409800C3F30B03002B0CBF01230023DBB2002B5F
:1040A80001D0012322E07B689B68002B0ED1FB68BE
:1040B800581E7B6859680B465B000B44B0FBF3F352
:1040C8000133C3F30B0343F400430FE0FB68581EAE
:1040D8007B6859680B469B000B4499000B44B0FB66
:1040E800F3F30133C3F30B0343F4404379680968DE
:1040F8001343CB617B681B681B6823F0C0017B6896
:10410800DA697B681B6A1A437B681B680A431A6072
:104118007B681B689B6823F4034323F0FF037A68DA
:1041280011697A68D26811437A6812680B43936000
:104138007B681B68DB6823F0FF017B685A697B6832
:104148009B691A437B681B680A43DA607B681B68B3
:104158001A687B681B6842F001021A607B680022BB
:104168001A647B68202283F83D207B6800221A634A
:104178007B68002283F83E20002318461037BD468E
:1041880080BD00BFA08601007F841E00FF083D009F
:1041980083DE1B43D34D621080B586B000AF7860D4
:1041A8007B68002B01D1012367E27B681B6803F061
:1041B8000103002B75D0884B9B6803F00C03042B7C
:1041C8000CD0854B9B6803F00C03082B12D1824B53
:1041D8005B6803F48003B3F5800F0BD17E4B1B683B
:1041E80003F40033002B5BD07B685B68002B57D14E
:1041F800012342E27B685B68B3F5803F06D1764BCA
:104208001B68754A43F4803313601DE07B685B6864
:10421800B3F5A02F0CD1704B1B686F4A43F4802371
:1042280013606D4B1B686C4A43F4803313600BE0DA
:10423800694B1B68684A23F480331360664B1B681C
:10424800654A23F4802313607B685B68002B13D0D6
:10425800FEF788FD386108E0FEF784FD02463B69F9
:10426800D31A642B01D9032307E25B4B1B6803F4C1
:104278000033002BF0D014E0FEF774FD386108E03D
:10428800FEF770FD02463B69D31A642B01D903235C
:10429800F3E1514B1B6803F40033002BF0D100E02D
:1042A80000BF7B681B6803F00203002B63D04A4BF6
:1042B8009B6803F00C03002B0BD0474B9B6803F063
:1042C8000C03082B1CD1444B5B6803F48003002BC0
:1042D80016D1414B1B6803F00203002B05D07B6805
:1042E800DB68012B01D00123C7E13B4B1B6823F09E
:1042F800F8027B681B69DB00374913430B603AE01F
:104308007B68DB68002B20D0344B01221A60FEF753
:1043180029FD386108E0FEF725FD02463B69D31AFE
:10432800022B01D90323A8E12B4B1B6803F00203DE
:10433800002BF0D0284B1B6823F0F8027B681B6920
:10434800DB00254913430B6015E0244B00221A605B
:10435800FEF708FD386108E0FEF704FD02463B69F8
:10436800D31A022B01D9032387E11B4B1B6803F0E7
:104378000203002BF0D17B681B6803F00803002BB5
:1043880036D07B685B69002B16D0154B01221A606A
:10439800FEF7E8FC386108E0FEF7E4FC02463B69FA
:1043A800D31A022B01D9032367E10B4B5B6F03F090
:1043B8000203002BF0D01BE0094B00221A60FEF725
:1043C800D1FC38610EE0FEF7CDFC02463B69D31AFA
:1043D800022B07D9032350E100380240000047426E
:1043E800800E4742884B5B6F03F00203002BEAD133
:1043F8007B681B6803F00403002B00F09780002300
:10440800FB75814B1B6C03F08053002B0FD10023ED
:10441800BB607D4B1B6C7C4A43F0805313647A4B22
:104428001B6C03F08053BB60BB680123FB75774BA3
:104438001B6803F48073002B18D1744B1B68734AF4
:1044480043F480731360FEF78DFC386108E0FEF7D3
:1044580089FC02463B69D31A022B01D903230CE1DC
:104468006A4B1B6803F48073002BF0D07B689B6851
:10447800012B06D1644B1B6F634A43F0010313679A
:104488001CE07B689B68052B0CD15F4B1B6F5E4A59
:1044980043F0040313675C4B1B6F5B4A43F0010353
:1044A80013670BE0584B1B6F574A23F00103136740
:1044B800554B1B6F544A23F0040313677B689B68B2
:1044C800002B15D0FEF74EFC38610AE0FEF74AFCD7
:1044D80002463B69D31A41F28832934201D9032339
:1044E800CBE0494B1B6F03F00203002BEED014E026
:1044F800FEF738FC38610AE0FEF734FC02463B69F7
:10450800D31A41F28832934201D90323B5E03E4BD6
:104518001B6F03F00203002BEED1FB7D012B05D1AD
:10452800394B1B6C384A23F0805313647B689B69B2
:10453800002B00F0A180344B9B6803F00C03082B80
:104548005CD07B689B69022B41D1314B00221A60F9
:10455800FEF708FC386108E0FEF704FC02463B69F8
:10456800D31A022B01D9032387E0274B1B6803F0DA
:104578000073002BF0D17B68DA697B681B6A1A43E9
:104588007B685B6A9B011A437B689B6A5B08013BFB
:104598001B041A437B68DB6A1B061B4913434B60E9
:1045A8001B4B01221A60FEF7DDFB386108E0FEF7BD
:1045B800D9FB02463B69D31A022B01D903235CE0DD
:1045C800114B1B6803F00073002BF0D054E0104B24
:1045D80000221A60FEF7C6FB386108E0FEF7C2FB4E
:1045E80002463B69D31A022B01D9032345E0064B47
:1045F8001B6803F00073002BF0D13DE07B689B69DA
:10460800012B07D1012338E0003802400070004038
:10461800600047421B4B5B68FB607B689B69012B12
:1046280028D0FB6803F480027B68DB699A4221D1B9
:10463800FB6803F03F027B681B6A9A421AD1FA684A
:1046480047F6C07313407A68526A9201934211D1B7
:10465800FB6803F440327B689B6A5B08013B1B04E0
:104668009A4207D1FB6803F070627B68DB6A1B061D
:104678009A4201D0012300E0002318461837BD46AE
:1046880080BD00BF0038024080B584B000AF7860BC
:1046980039607B68002B01D10123CCE0684B1B6893
:1046A80003F007033A689A420CD9654B3A68D2B2CC
:1046B8001A70634B1B6803F007033A689A4201D0EB
:1046C8000123B8E07B681B6803F00203002B20D0AD
:1046D8007B681B6803F00403002B05D0594B9B68CB
:1046E800584A43F4E05393607B681B6803F008035F
:1046F800002B05D0534B9B68524A43F460439360A8
:10470800504B9B6823F0F0027B689B684D4913432C
:104718008B607B681B6803F00103002B44D07B6827
:104728005B68012B07D1474B1B6803F40033002B50
:1047380019D101237FE07B685B68022B03D07B687B
:104748005B68032B07D13F4B1B6803F00073002BFA
:1047580009D101236FE03B4B1B6803F00203002BD8
:1047680001D1012367E0374B9B6823F003027B6884
:104778005B68344913438B60FEF7F4FAF8600AE08B
:10478800FEF7F0FA0246FB68D31A41F288329342E8
:1047980001D903234FE02B4B9B6803F00C027B6885
:1047A8005B689B009A42EBD1254B1B6803F007031B
:1047B8003A689A420CD2224B3A68D2B21A70204B0D
:1047C8001B6803F007033A689A4201D0012332E0DC
:1047D8007B681B6803F00403002B08D0194B9B6807
:1047E80023F4E0527B68DB68164913438B607B68CF
:1047F8001B6803F00803002B09D0124B9B6823F4B5
:1048080060427B681B69DB000E4913438B6000F034
:1048180021F802460B4B9B681B0903F00F030A495A
:10482800CB5C22FA03F3094A1360094B1B6818464C
:10483800FEF754FA002318461037BD4680BD00BF66
:10484800003C024000380240BCB20E0810000020B4
:10485800140000202DE9B04F94B000AF00237B6412
:104868000023FB6400233B640023BB64794B9B68F3
:1048780003F00C03082B0DD0082B00F2E180002B6D
:1048880002D0042B03D0DBE0734BBB64DBE0734B3B
:10489800BB64D8E06F4B5B6803F03F037B646D4BF0
:1048A8005B6803F48003002B63D06A4B5B689B0949
:1048B8000022BB63FA63BB6BC3F308033B630023AB
:1048C8007B63D7E90C4522462B464FF000004FF09A
:1048D8000001590141EAD261500102460B462146C6
:1048E800511A3961294663EB01037B614FF00002DD
:1048F8004FF00003D7E904AB59468B01514643EA10
:10490800916351468A015146B2EB0108594663EB5F
:1049180001094FF000024FF000034FEAC90343EAD0
:1049280058734FEAC80290469946234618EB03038A
:10493800BB602B4649EB0303FB604FF000024FF0CE
:104948000003D7E9024529464B02214643EAD153E1
:1049580021464A02104619467B6C0022BB62FA6265
:10496800D7E90A23FBF72CFC02460B461346FB64E7
:1049780058E0384B5B689B09002218461146C0F383
:1049880008033B6200237B62D7E9088942464B460D
:104998004FF000004FF00001590141EAD261500187
:1049A80002460B464146B2EB010A494663EB010B4E
:1049B8004FF000024FF000034FEA8B1343EA9A636B
:1049C8004FEA8A12B2EB0A0463EB0B054FF00002C0
:1049D8004FF00003EB0043EA5473E20014461D460F
:1049E8004346E3183B604B4645EB03037B604FF0BF
:1049F80000024FF00003D7E9004529468B02214603
:104A080043EA915321468A02104619467B6C0022DC
:104A1800BB61FA61D7E90623FBF7D2FB02460B46D6
:104A28001346FB640B4B5B681B0C03F00303013359
:104A38005B003B64FA6C3B6CB2FBF3F3BB6402E0D3
:104A4800054BBB6400BFBB6C18465037BD46BDE87C
:104A5800B08F00BF003802400024F40000127A0032
:104A680080B400AF034B1B681846BD465DF8047B55
:104A7800704700BF1000002080B500AFFFF7F0FFBF
:104A88000246054B9B689B0A03F007030349CB5C6E
:104A980022FA03F3184680BD00380240CCB20E0853
:104AA80080B500AFFFF7DCFF0246054B9B685B0B48
:104AB80003F007030349CB5C22FA03F3184680BDD1
:104AC80000380240CCB20E0880B582B000AF7860E2
:104AD8007B68002B01D101237BE07B685B6A002B9C
:104AE80008D17B685B68B3F5827F09D07B680022B8
:104AF800DA6105E07B6800221A617B6800225A614E
:104B08007B6800229A627B6893F85130DBB2002BF5
:104B180006D17B68002283F850207868FDF71CFDD9
:104B28007B68022283F851207B681B681A687B68BF
:104B38001B6822F040021A607B685B6803F482728B
:104B48007B689B6803F404431A437B68DB6803F4BF
:104B580000631A437B681B6903F002031A437B68EE
:104B68005B6903F001031A437B689B6903F40073D4
:104B78001A437B68DB6903F038031A437B681B6AB6
:104B880003F0800342EA03017B689B6A03F4005246
:104B98007B681B680A431A607B689B691B0C03F0DF
:104BA80004017B685B6A03F010027B681B680A4398
:104BB8005A607B681B68DA697B681B6822F40062AC
:104BC800DA617B6800225A657B68012283F85120EC
:104BD800002318460837BD4680BD80B588B000AFB1
:104BE800F860B9603B601346FB800023FB77FB68E5
:104BF80093F85030012B01D1022326E1FB680122F2
:104C080083F85020FEF7AEF8B861FB88FB82FB689A
:104C180093F85130DBB2012B02D00223FB770BE172
:104C2800BB68002B02D0FB88002B02D10123FB7745
:104C380002E1FB68032283F85120FB6800225A65D1
:104C4800FB68BA681A63FB68FA889A86FB68FA8870
:104C5800DA86FB6800229A63FB6800229A87FB6861
:104C68000022DA87FB6800225A64FB6800221A6473
:104C7800FB689B68B3F5004F0FD1FB681B681A6887
:104C8800FB681B6822F040021A60FB681B681A6800
:104C9800FB681B6842F480421A60FB681B681B684B
:104CA80003F04003402B07D0FB681B681A68FB68B9
:104CB8001B6842F040021A60FB68DB68B3F5006FBE
:104CC8004BD1FB685B68002B02D0FB8A012B3ED1DD
:104CD800FB681B6B1A88FB681B68DA60FB681B6B38
:104CE8009A1CFB681A63FB68DB8E9BB2013B9AB285
:104CF800FB68DA862BE0FB681B689B6803F00203FD
:104D0800022B12D1FB681B6B1A88FB681B68DA60E0
:104D1800FB681B6B9A1CFB681A63FB68DB8E9BB2F3
:104D2800013B9AB2FB68DA8611E0FEF71BF80246EF
:104D3800BB69D31A3A689A4203D83B68B3F1FF3F7C
:104D480002D13B68002B02D10323FB7774E0FB6898
:104D5800DB8E9BB2002BCED14CE0FB685B68002B4E
:104D680002D0FB8A012B40D1FB681A6BFB681B68D9
:104D78000C3312781A70FB681B6B5A1CFB681A6399
:104D8800FB68DB8E9BB2013B9AB2FB68DA862CE0AB
:104D9800FB681B689B6803F00203022B13D1FB68B6
:104DA8001A6BFB681B680C3312781A70FB681B6B54
:104DB8005A1CFB681A63FB68DB8E9BB2013B9AB2F4
:104DC800FB68DA8611E0FDF7CDFF0246BB69D31A0E
:104DD8003A689A4203D83B68B3F1FF3F02D13B6877
:104DE800002B02D10323FB7726E0FB68DB8E9BB206
:104DF800002BCDD1BA693968F86800F0B3F80346DA
:104E0800002B02D0FB6820225A65FB689B68002BA8
:104E18000AD100233B61FB681B68DB683B61FB68C8
:104E28001B689B683B613B69FB685B6D002B02D08C
:104E38000123FB7700E000BFFB68012283F85120C3
:104E4800FB68002283F85020FB7F18462037BD46B8
:104E580080BD000080B588B000AFF860B9603B60E5
:104E68001346FB71FDF77EFF0246BB6A9B1A3A6840
:104E78001344FB61FDF776FFB861394B1B685B0192
:104E88001B0DFA6902FB03F37B6154E03B68B3F145
:104E9800FF3F50D0FDF766FF0246BB69D31AFA6997
:104EA8009A4202D9FB69002B3DD1FB681B685A68FE
:104EB800FB681B6822F0E0025A60FB685B68B3F588
:104EC800827F11D1FB689B68B3F5004F04D0FB6863
:104ED8009B68B3F5806F07D1FB681B681A68FB688D
:104EE8001B6822F040021A60FB689B6AB3F5005FFA
:104EF8000FD1FB681B681A68FB681B6822F4005214
:104F08001A60FB681B681A68FB681B6842F4005249
:104F18001A60FB68012283F85120FB68002283F89D
:104F28005020032317E07B69002B01D10023FB618C
:104F38007B69013B7B61FB681B689A68BB6813400F
:104F4800BA689A420CBF01230023DBB21A46FB79E8
:104F58009A429BD1002318462037BD4680BD00BF2A
:104F68001000002080B588B002AFF860B9607A60A0
:104F78001B4B1B681B4AA2FB03235B0D4FF47A7281
:104F880002FB03F37B61FB685B68B3F5827F12D198
:104F98007B680093BB6800228021F868FFF75AFFFE
:104FA8000346002B16D0FB685B6D43F02002FB68BC
:104FB8005A6503230FE07B69002B0AD07B69013B0C
:104FC8007B61FB681B689B6803F08003802BF2D031
:104FD80000E000BF002318461837BD4680BD00BF5B
:104FE80010000020819F5E1680B584B000AFF86085
:104FF800B9607A60FB68002B01D1012334E0FB68BB
:1050080093F84930DBB2002B06D1FB68002283F805
:105018004820F868FDF74CFCFB681A68FB68083301
:105028001946104601F0E6FFFB681868FB689B68A4
:105038001A46B96802F030F8FB685868FB689A6845
:10504800FB681B6B796802F065F8FB681B68FA68F7
:10505800926853F82210FB681B68FA68926841F05E
:10506800010143F82210002318461037BD4680BDC1
:1050780080B582B000AF78607B68002B01D1012336
:1050880041E07B6893F83D30DBB2002B06D17B68AA
:10509800002283F83C207868FDF7A6FA7B68022294
:1050A80083F83D207B681A687B68043319461046EC
:1050B80000F0B2FB7B68012283F846207B6801225E
:1050C80083F83E207B68012283F83F207B68012219
:1050D80083F840207B68012283F841207B68012205
:1050E80083F842207B68012283F843207B680122F1
:1050F80083F844207B68012283F845207B680122DD
:1051080083F83D20002318460837BD4680BD0000BF
:1051180080B485B000AF78607B6893F83D30DBB22F
:10512800012B01D001234EE07B68022283F83D2049
:105138007B681B68DA687B681B6842F00102DA60EA
:105148007B681B68234A934222D07B681B68B3F1B3
:10515800804F1DD07B681B681F4A934218D07B681C
:105168001B681E4A934213D07B681B681C4A9342F3
:105178000ED07B681B681B4A934209D07B681B686A
:10518800194A934204D07B681B68184A934211D18C
:105198007B681B689B6803F00703FB60FB68062BB2
:1051A80010D07B681B681A687B681B6842F0010294
:1051B8001A6007E07B681B681A687B681B6842F006
:1051C80001021A60002318461437BD465DF8047BB7
:1051D800704700BF00000140000400400008004084
:1051E800000C00400004014000400140001800404D
:1051F80080B582B000AF78607B68002B01D10123B5
:1052080041E07B6893F83D30DBB2002B06D17B6828
:10521800002283F83C20786800F039F87B68022285
:1052280083F83D207B681A687B680433194610466A
:1052380000F0F2FA7B68012283F846207B6801229D
:1052480083F83E207B68012283F83F207B68012297
:1052580083F840207B68012283F841207B68012283
:1052680083F842207B68012283F843207B6801226F
:1052780083F844207B68012283F845207B6801225B
:1052880083F83D20002318460837BD4680BD80B40A
:1052980083B000AF786000BF0C37BD465DF8047B73
:1052A800704780B582B000AF78607B681B681B6967
:1052B80003F00203022B22D17B681B68DB6803F032
:1052C8000203022B1BD17B681B686FF002021A6174
:1052D8007B6801221A777B681B689B6903F00303CC
:1052E800002B03D0786800F078FA05E0786800F0C1
:1052F8006AFA786800F07BFA7B6800221A777B6884
:105308001B681B6903F00403042B22D17B681B680C
:10531800DB6803F00403042B1BD17B681B686FF068
:1053280004021A617B6802221A777B681B689B69F2
:1053380003F44073002B03D0786800F04EFA05E0C0
:10534800786800F040FA786800F051FA7B6800222B
:105358001A777B681B681B6903F00803082B22D1A6
:105368007B681B68DB6803F00803082B1BD17B688C
:105378001B686FF008021A617B6804221A777B6841
:105388001B68DB6903F00303002B03D0786800F087
:1053980024FA05E0786800F016FA786800F027FA31
:1053A8007B6800221A777B681B681B6903F010036F
:1053B800102B22D17B681B68DB6803F01003102BCD
:1053C8001BD17B681B686FF010021A617B6808228A
:1053D8001A777B681B68DB6903F44073002B03D0E2
:1053E800786800F0FAF905E0786800F0ECF9786878
:1053F80000F0FDF97B6800221A777B681B681B693F
:1054080003F00103012B0ED17B681B68DB6803F0F6
:105418000103012B07D17B681B686FF001021A6139
:105428007868FCF735FF7B681B681B6903F080030D
:10543800802B0ED17B681B68DB6803F08003802B10
:1054480007D17B681B686FF080021A61786800F0EA
:1054580053FD7B681B681B6903F04003402B0ED18A
:105468007B681B68DB6803F04003402B07D17B682F
:105478001B686FF040021A61786800F0C2F97B6817
:105488001B681B6903F02003202B0ED17B681B6867
:10549800DB6803F02003202B07D17B681B686FF0C3
:1054A80020021A61786800F01DFD00BF0837BD466C
:1054B80080BD000080B586B000AFF860B9607A6042
:1054C8000023FB75FB6893F83C30012B01D10223C4
:1054D800AEE0FB68012283F83C207B680C2B00F2CD
:1054E8009F8001A252F823F025550008295600088C
:1054F800295600082956000865550008295600084D
:105508002956000829560008A755000829560008FA
:105518002956000829560008E7550008FB681B684B
:10552800B968184600F018FAFB681B689A69FB68A6
:105538001B6842F008029A61FB681B689A69FB685D
:105548001B6822F004029A61FB681B689969BB68B2
:105558001A69FB681B680A439A6164E0FB681B6868
:10556800B968184600F068FAFB681B689A69FB6816
:105578001B6842F400629A61FB681B689A69FB68C1
:105588001B6822F480629A61FB681B689969BB6892
:105598001B691A02FB681B680A439A6143E0FB68AF
:1055A8001B68B968184600F0BDFAFB681B68DA6921
:1055B800FB681B6842F00802DA61FB681B68DA695D
:1055C800FB681B6822F00402DA61FB681B68D96972
:1055D800BB681A69FB681B680A43DA6123E0FB6849
:1055E8001B68B968184600F011FBFB681B68DA698C
:1055F800FB681B6842F40062DA61FB681B68DA69C1
:10560800FB681B6822F48062DA61FB681B68D96951
:10561800BB681B691A02FB681B680A43DA6102E06F
:105628000123FB7500BFFB68002283F83C20FB7D4B
:1056380018461837BD4680BD80B584B000AF786085
:1056480039600023FB737B6893F83C30012B01D150
:105658000223B4E07B68012283F83C207B680222A5
:1056680083F83D207B681B689B68BB60BB6823F0A0
:105678007703BB60BB6823F47F43BB607B681B6810
:10568800BA689A603B681B68B3F5005F3ED0B3F513
:10569800005F00F28780B3F5805F00F08680B3F585
:1056A800805F7FD8702B1AD0702B7BD8602B50D09E
:1056B800602B77D8502B3CD0502B73D8402B58D028
:1056C800402B6FD8302B64D0302B6BD8202B60D078
:1056D800202B67D8002B5CD0102B5AD062E07B6857
:1056E80018683B6899683B685A683B68DB6800F053
:1056F8005DFB7B681B689B68BB60BB6843F07703F6
:10570800BB607B681B68BA689A604FE07B68186862
:105718003B6899683B685A683B68DB6800F046FB61
:105728007B681B689A687B681B6842F480429A60B1
:105738003CE07B6818683B6859683B68DB681A4638
:1057480000F0BAFA7B681B685021184600F013FB7A
:105758002CE07B6818683B6859683B68DB681A4628
:1057680000F0D9FA7B681B686021184600F003FB3B
:105778001CE07B6818683B6859683B68DB681A4618
:1057880000F09AFA7B681B684021184600F0F3FA8B
:105798000CE07B681A683B681B681946104600F0E5
:1057A800EAFA03E00123FB7300E000BF7B680122F3
:1057B80083F83D207B68002283F83C20FB7B184659
:1057C8001037BD4680BD80B483B000AF786000BF9D
:1057D8000C37BD465DF8047B704780B483B000AFDA
:1057E800786000BF0C37BD465DF8047B704780B415
:1057F80083B000AF786000BF0C37BD465DF8047B0E
:10580800704780B483B000AF786000BF0C37BD46E6
:105818005DF8047B7047000080B485B000AF786005
:1058280039607B681B68FB607B68404A934213D0F1
:105838007B68B3F1804F0FD07B683D4A93420BD011
:105848007B683C4A934207D07B683B4A934203D02B
:105858007B683A4A934208D1FB6823F07003FB60E7
:105868003B685B68FA681343FB607B682F4A934286
:105878002BD07B68B3F1804F27D07B682C4A9342AA
:1058880023D07B682B4A93421FD07B682A4A9342D5
:105898001BD07B68294A934217D07B68284A9342D9
:1058A80013D07B68274A93420FD07B68264A9342DD
:1058B8000BD07B68254A934207D07B68244A9342E1
:1058C80003D07B68234A934208D1FB6823F44073D2
:1058D800FB603B68DB68FA681343FB60FB6823F0F6
:1058E80080023B685B691343FB607B68FA681A6057
:1058F8003B689A687B68DA623B681A687B689A62D8
:105908007B680A4A934203D07B680C4A934203D1CE
:105918003B681A697B681A637B6801225A6100BF79
:105928001437BD465DF8047B704700BF0000014096
:105938000004004000080040000C00400004014042
:105948000040014000440140004801400018004068
:10595800001C00400020004080B487B000AF786091
:1059680039607B681B6A23F001027B681A627B68D6
:105978001B6A7B617B685B683B617B689B69FB603A
:10598800FB6823F07003FB60FB6823F00303FB60F4
:105998003B681B68FA681343FB607B6923F00203CA
:1059A8007B613B689B687A6913437B617B68204A0B
:1059B800934203D07B681F4A93420CD17B6923F042
:1059C80008037B613B68DB687A6913437B617B6909
:1059D80023F004037B617B68154A934203D07B68FC
:1059E800144A934211D13B6923F480733B613B69AC
:1059F80023F400733B613B685B693A6913433B617D
:105A08003B689B693A6913433B617B683A695A6012
:105A18007B68FA689A613B685A687B685A637B6856
:105A28007A691A6200BF1C37BD465DF8047B70476F
:105A3800000001400004014080B487B000AF7860E6
:105A480039607B681B6A23F010027B681A627B68E6
:105A58001B6A7B617B685B683B617B689B69FB6059
:105A6800FB6823F4E043FB60FB6823F44073FB60AE
:105A78003B681B681B02FA681343FB607B6923F0D1
:105A880020037B613B689B681B017A6913437B6138
:105A98007B68224A934203D07B68214A93420DD106
:105AA8007B6923F080037B613B68DB681B017A69B3
:105AB80013437B617B6923F040037B617B68174A52
:105AC800934203D07B68164A934213D13B6923F46F
