:020000040800F2
:1000000000000220395800086145000867450008D3
:100010006D450008734500087945000800000000A0
:100020000000000000000000000000007F45000804
:100030008D450008000000009B450008A945000808
:10004000895800088958000889580008895800080C
:1000500089580008895800088958000889580008FC
:1000600089580008895800088958000889580008EC
:1000700089580008895800088958000889580008DC
:1000800089580008895800088958000889580008CC
:1000900089580008895800088958000889580008BC
:1000A00089580008895800088958000889580008AC
:1000B000B545000889580008895800088958000883
:1000C000895800088958000889580008895800088C
:1000D00089580008C9450008DD450008895800080E
:1000E000895800088958000889580008895800086C
:1000F000895800088958000889580008895800085C
:10010000895800088958000889580008895800084B
:10011000895800088958000889580008895800083B
:10012000F1450008895800088958000889580008D6
:10013000895800088958000889580008895800081B
:10014000895800088958000889580008895800080B
:1001500089580008895800088958000889580008FB
:1001600089580008895800088958000889580008EB
:1001700089580008895800088958000800000000C4
:080180008958000889580008A5
:1001900010B5054C237833B9044B13B10448AFF3C1
:1001A00000800123237010BDD0000020000000005B
:1001B00034D1000808B5034B1BB103490348AFF322
:1001C000008008BD00000000D400002034D10008E9
:1001D00001F0FF01102A2BDB10F0070F08D010F8F8
:1001E000013B013A8B422DD010F0070F42B3F6D1FC
:1001F000F0B441EA012141EA014122F007047FF015
:1002000000070023F0E80256083C85EA010586EA6B
:10021000010685FA47F5A3FA87F586FA47F6A5FAA7
:1002200087F68EB9EED1F0BC01F0FF0102F00702B3
:1002300032B110F8013B013A83EA010313B1F8D15E
:100240000020704701387047002D06BF354603383F
:10025000073815F0010F07D1013015F4807F02BF78
:10026000013015F4C03F0130F0BC0138704700BFC9
:1002700081F0004102E000BF83F0004330B54FEA57
:1002800041044FEA430594EA050F08BF90EA020FC4
:100290001FBF54EA000C55EA020C7FEA645C7FEA57
:1002A000655C00F0E2804FEA5454D4EB5555B8BF7A
:1002B0006D420CDD2C4480EA020281EA030382EAEB
:1002C000000083EA010180EA020281EA0303362D7D
:1002D00088BF30BD11F0004F4FEA01314FF4801C50
:1002E0004CEA113102D0404261EB410113F0004F62
:1002F0004FEA03334CEA133302D0524263EB430319
:1003000094EA050F00F0A780A4F10104D5F1200EB6
:100310000DDB02FA0EFC22FA05F2801841F1000111
:1003200003FA0EF2801843FA05F359410EE0A5F1E5
:1003300020050EF1200E012A03FA0EFC28BF4CF016
:10034000020C43FA05F3C01851EBE37101F00045CC
:1003500007D54FF0000EDCF1000C7EEB00006EEBD9
:100360000101B1F5801F1BD3B1F5001F0CD3490863
:100370005FEA30004FEA3C0C04F101044FEA4452BA
:1003800012F5800F80F09A80BCF1004F08BF5FEA41
:10039000500C50F1000041EB045141EA050130BD21
:1003A0005FEA4C0C404141EB0101013C28BFB1F533
:1003B000801FE9D291F0000F04BF01460020B1FA7E
:1003C00081F308BF2033A3F10B03B3F120020CDA51
:1003D0000C3208DD02F1140CC2F10C0201FA0CF02F
:1003E00021FA02F10CE002F11402D8BFC2F1200C94
:1003F00001FA02F120FA0CFCDCBF41EA0C0190404A
:10040000E41AA2BF01EB0451294330BD6FEA040492
:100410001F3C1CDA0C340EDC04F11404C4F120027D
:1004200020FA04F001FA02F340EA030021FA04F38F
:1004300045EA030130BDC4F10C04C4F1200220FAE6
:1004400002F001FA04F340EA0300294630BD21FA24
:1004500004F0294630BD94F0000F83F4801306BFEA
:1004600081F480110134013D4EE77FEA645C18BFDE
:100470007FEA655C29D094EA050F08BF90EA020F75
:1004800005D054EA000C04BF1946104630BD91EA6D
:10049000030F1EBF0021002030BD5FEA545C05D170
:1004A0004000494128BF41F0004130BD14F58004AF
:1004B0003CBF01F5801130BD01F0004545F0FE4123
:1004C00041F470014FF0000030BD7FEA645C1ABF58
:1004D000194610467FEA655C1CBF0B46024650EA8F
:1004E000013406BF52EA033591EA030F41F40021BB
:1004F00030BD00BF90F0000F04BF0021704730B541
:100500004FF4806404F132044FF000054FF0000115
:1005100050E700BF90F0000F04BF0021704730B5D6
:100520004FF4806404F1320410F0004548BF4042AB
:100530004FF000013EE700BF42004FEAE2014FEA00
:1005400031014FEA02701FBF12F07F4393F07F4FDB
:1005500081F06051704732F07F4208BF704793F0DE
:100560007F4F04BF41F40021704730B54FF46074F1
:1005700001F0004521F000411CE700BF50EA0102F4
:1005800008BF704730B54FF000050AE050EA01029D
:1005900008BF704730B511F0004502D5404261EB0D
:1005A00041014FF4806404F132045FEA915C3FF44E
:1005B000D8AE4FF003025FEADC0C18BF03325FEAEB
:1005C000DC0C18BF033202EBDC02C2F1200300FA9C
:1005D00003FC20FA02F001FA03FE40EA0E0021FAC1
:1005E00002F11444BDE600BF70B54FF0FF0C4CF4AF
:1005F000E06C1CEA11541DBF1CEA135594EA0C0F61
:1006000095EA0C0F00F0DEF82C4481EA030621EA9B
:100610004C5123EA4C5350EA013518BF52EA0335D6
:1006200041F4801143F4801338D0A0FB02CE4FF088
:100630000005E1FB02E506F00042E0FB03E54FF0B8
:100640000006E1FB03569CF0000F18BF4EF0010EB0
:10065000A4F1FF04B6F5007F64F5407404D25FEAAC
:100660004E0E6D4146EB060642EAC62141EA55515F
:100670004FEAC52040EA5E504FEACE2EB4F1FD0CA1
:1006800088BFBCF5E06F1ED8BEF1004F08BF5FEA1F
:10069000500E50F1000041EB045170BD06F00046D1
:1006A00046EA010140EA020081EA0301B4EB5C047E
:1006B000C2BFD4EB0C0541EA045170BD41F4801176
:1006C0004FF0000E013C00F3AB8014F1360FDEBF9B
:1006D000002001F0004170BDC4F10004203C35DA77
:1006E0000C341BDC04F11404C4F1200500FA05F3FA
:1006F00020FA04F001FA05F240EA020001F000429B
:1007000021F0004110EBD37021FA04F642EB060110
:100710005EEA430E08BF20EAD37070BDC4F10C043A
:10072000C4F1200500FA04F320FA05F001FA04F2FE
:1007300040EA020001F0004110EBD37041F10001EA
:100740005EEA430E08BF20EAD37070BDC4F12005F5
:1007500000FA05F24EEA020E20FA04F301FA05F25D
:1007600043EA020321FA04F001F0004121FA04F205
:1007700020EA020000EBD3705EEA430E08BF20EAD5
:10078000D37070BD94F0000F0FD101F0004640000F
:1007900041EB010111F4801F08BF013CF7D041EA91
:1007A000060195F0000F18BF704703F00046520095
:1007B00043EB030313F4801F08BF013DF7D043EA66
:1007C0000603704794EA0C0F0CEA135518BF95EA1C
:1007D0000C0F0CD050EA410618BF52EA4306D1D1A3
:1007E00081EA030101F000414FF0000070BD50EAC2
:1007F000410606BF1046194652EA430619D094EA4C
:100800000C0F02D150EA013613D195EA0C0F05D135
:1008100052EA03361CBF104619460AD181EA030189
:1008200001F0004141F0FE4141F470014FF0000041
:1008300070BD41F0FE4141F4780170BD70B54FF0DC
:10084000FF0C4CF4E06C1CEA11541DBF1CEA13555C
:1008500094EA0C0F95EA0C0F00F0A7F8A4EB05043E
:1008600081EA030E52EA03354FEA013100F0888035
:100870004FEA03334FF0805545EA131343EA1263FE
:100880004FEA022245EA111545EA10654FEA0026B3
:100890000EF000419D4208BF964244F1FD0404F56C
:1008A000407402D25B084FEA3202B61A65EB0305C8
:1008B0005B084FEA32024FF480104FF4002CB6EB85
:1008C000020E75EB030E22BFB61A754640EA0C0005
:1008D0005B084FEA3202B6EB020E75EB030E22BF45
:1008E000B61A754640EA5C005B084FEA3202B6EB86
:1008F000020E75EB030E22BFB61A754640EA9C0045
:100900005B084FEA3202B6EB020E75EB030E22BF14
:10091000B61A754640EADC0055EA060E18D04FEAD2
:10092000051545EA16754FEA06164FEAC30343EA72
:1009300052734FEAC2025FEA1C1CC0D111F4801F3F
:100940000BD141EA00014FF000004FF0004CB6E738
:1009500011F4801F04BF01430020B4F1FD0C88BFD7
:10096000BCF5E06F3FF6AFAEB5EB030C04BFB6EBE2
:10097000020C5FEA500C50F1000041EB045170BDD5
:100980000EF0004E4EEA113114EB5C04C2BFD4EB02
:100990000C0541EA045170BD41F480114FF0000E86
:1009A000013C90E645EA060E8DE60CEA135594EA02
:1009B0000C0F08BF95EA0C0F3FF43BAF94EA0C0F05
:1009C0000AD150EA01347FF434AF95EA0C0F7FF47A
:1009D00025AF104619462CE795EA0C0F06D152EACE
:1009E00003353FF4FDAE1046194622E750EA4106B2
:1009F00018BF52EA43067FF4C5AE50EA41047FF4C3
:100A00000DAF52EA43057FF4EBAE12E74FF0FF3C27
:100A100006E000BF4FF0010C02E000BF4FF0010CF8
:100A20004DF804CD4FEA410C7FEA6C5C4FEA430C71
:100A300018BF7FEA6C5C1BD001B050EA410C0CBFC0
:100A400052EA430C91EA030F02BF90EA020F002022
:100A5000704710F1000F91EA030F58BF994208BF89
:100A600090422CBFD8176FEAE37040F00100704746
:100A70004FEA410C7FEA6C5C02D150EA013C07D19D
:100A80004FEA430C7FEA6C5CD6D152EA033CD3D0E8
:100A90005DF8040B704700BF8446104662468C46E2
:100AA0001946634600E000BF01B5FFF7B7FF002815
:100AB00048BF10F1000F01BD4DF808EDFFF7F4FF3E
:100AC0000CBF012000205DF808FB00BF4DF808EDC9
:100AD000FFF7EAFF34BF012000205DF808FB00BFEC
:100AE0004DF808EDFFF7E0FF94BF012000205DF80E
:100AF00008FB00BF4DF808EDFFF7CEFF94BF0120C3
:100B000000205DF808FB00BF4DF808EDFFF7C4FFBB
:100B100034BF012000205DF808FB00BF4FEA410C04
:100B20007FEA6C5C02D150EA013C0AD14FEA430CE7
:100B30007FEA6C5C02D152EA033C02D14FF0000024
:100B400070474FF0010070474FEA410212F5001262
:100B500015D211D56FF47873B3EB625212D94FEA04
:100B6000C12343F0004343EA505311F0004F23FAEE
:100B700002F018BF404270474FF00000704750EA43
:100B8000013005D111F0004008BF6FF00040704700
:100B90004FF00000704700BF4A0011D212F500125A
:100BA00011D20DD56FF47873B3EB62520ED44FEAC5
:100BB000C12343F0004343EA505323FA02F0704745
:100BC0004FF00000704750EA013002D14FF0FF3083
:100BD00070474FF0000070474FEA4102B2F1E04326
:100BE00024BFB3F5001CDCF1FE5C0DD901F0004C14
:100BF0004FEAC0024CEA5070B2F1004F40EB830064
:100C000008BF20F00100704711F0804F21D113F18F
:100C10003872BCBF01F00040704741F480114FEAC8
:100C20005252C2F11802C2F1200C10FA0CF320FA51
:100C300002F018BF40F001004FEAC1234FEAD3236E
:100C400003FA0CFC40EA0C0023FA02F34FEA4303D8
:100C5000CCE77FEA625307D150EA01331EBF4FF061
:100C6000FE4040F44000704701F0004040F0FE407C
:100C700040F40000704700BF53B94AB9002908BFCB
:100C800000281CBF4FF0FF314FF0FF3000F06EB96D
:100C9000ADF1080C6DE904CE00F006F8DDF804E0D3
:100CA000DDE9022304B070472DE9F047089D0446B2
:100CB0008C46002B40F083808A42174647D9B2FA0F
:100CC00082F242B1C2F1200024FA00F09140974034
:100CD00040EA010C94404FEA1748230CBCFBF8F69D
:100CE0001FFA87FE08FB16C143EA014306FB0EF11B
:100CF000994209D9FB1806F1FF3080F01981994219
:100D000040F21681023E3B445B1AA4B2B3FBF8F0FA
:100D100008FB103344EA034400FB0EFEA64509D944
:100D20003C1900F1FF3380F00581A64540F20281B5
:100D300002383C4440EA0640A4EB0E0400261DB1F4
:100D4000D4400023C5E900433146BDE8F08702B92D
:100D5000FFDEB2FA82F2002A50D1CB1B4FEA174EC7
:100D60001FFA87F80126B3FBFEFC210C0EFB1C3397
:100D700041EA034108FB0CF38B4207D979180CF1C7
:100D8000FF3002D28B4200F2E9808446C91AA3B236
:100D9000B1FBFEF00EFB101143EA014408FB00F822
:100DA000A04507D93C1900F1FF3302D2A04500F25B
:100DB000D9801846A4EB080440EA0C40BFE78B42F8
:100DC00009D9002D00F0B1800026C5E900013046A8
:100DD0003146BDE8F087B3FA83F6002E4AD18B4244
:100DE00002D3824200F2B880841A61EB0301012031
:100DF0008C46002DA8D0C5E9004CA5E7C2F1200320
:100E000020FA03F6974001FA02F04FEA174ED94054
:100E10003043030CB1FBFEF61FFA87F80EFB1611E8
:100E200043EA014306FB08F1994204FA02F409D9A6
:100E3000FB1806F1FF3C80F08D80994240F28A80D9
:100E4000023E3B445B1A81B2B3FBFEF00EFB103353
:100E500041EA034100FB08F38B4207D9791800F1FE
:100E6000FF3C73D28B4271D902383944CB1A40EA25
:100E7000064678E7C6F1200C03FA06F422FA0CF3D2
:100E80001C4320FA0CF701FA06F34FEA144E21FA3C
:100E90000CF11F433B0CB1FBFEF91FFA84F80EFB6B
:100EA000191143EA014109FB08FA8A4502FA06F2E0
:100EB00000FA06F308D9611809F1FF3048D28A45D3
:100EC00046D9A9F102092144A1EB0A01BFB2B1FB45
:100ED000FEF00EFB101147EA014700FB08F8B84589
:100EE00007D9E71900F1FF312ED2B8452CD90238C5
:100EF000274440EA0940A7EB0807A0FB02894F45B9
:100F0000C64649461AD317D05DB1B3EB0E0267EB64
:100F1000010707FA0CFCF2404CEA0202F740C5E96F
:100F2000002700263146BDE8F0872E4628460BE70D
:100F30000646E9E61846FDE64345E5D2B8EB020E63
:100F400069EB04010138DFE70846D2E760468DE728
:100F50008146B9E7664675E730464AE7ACF1020CD0
:100F6000394413E702383C4424E700BF704700BF10
:100F700080B584B000AF3B4600221A605A609A6088
:100F8000DA603D4B3D4A1A603B4B00225A603A4BB7
:100F900000229A60384B01221A61374B00221A76E0
:100FA000354B002283F82020334B0022DA62324B8B
:100FB000334A9A62304B0022DA602F4B0522DA6105
:100FC0002D4B002283F830202B4B01225A612A48F6
:100FD00004F0F2FC0346002B01D002F051FD08237F
:100FE0003B6001237B600023BB603B4619462248DF
:100FF00004F026FD0346002B01D002F041FD092339
:101000003B6002237B603B4619461B4804F018FDF9
:101010000346002B01D002F033FD0A233B6003237B
:101020007B603B461946144804F00AFD0346002B3A
:1010300001D002F025FD0B233B6004237B603B467F
:1010400019460D4804F0FCFC0346002B01D002F0C9
:1010500017FD0C233B6005237B603B461946064881
:1010600004F0EEFC0346002B01D002F009FD00BFA6
:101070001037BD4680BD00BF380100200020014070
:101080000100000F80B500AF00F03CF800BF80BD4C
:1010900080B588B004AF0346FB800023FB73FA8859
:1010A0000A2302930123019307F10F0300931023F6
:1010B000A021044805F096FFFB7B18461037BD467B
:1010C00080BD00BF7C05002080B586B004AF03461C
:1010D0000A46FB8013467B71FA880A230293012398
:1010E00001937B1D00931023A021054805F080FE8D
:1010F000052004F03DFC00BF0837BD4680BD00BFA1
:101100007C05002080B582B000AF4FF6FF70FFF77E
:10111000BFFF0346FB71FB79552B01D1002310E083
:1011200055214FF6FF70FFF7CFFF4FF6FF70FFF727
:10113000AFFF0346FB71FB79552B01D1002300E083
:10114000012318460837BD4680BD90B583B000AF77
:1011500003463960FB801346BB800DE0FB885A1CB8
:10116000FA803C68621C3A601846FFF791FF03461C
:101170002370BB88013BBB80BB88002BEED100BF36
:1011800000BF0C37BD4690BD80B582B000AF0346AE
:101190003960FB801346BB800CE03B681A78FB8803
:1011A00011461846FFF790FFFB880133FB803B6830
:1011B00001333B60BB885A1EBA80002BEDD100BFC3
:1011C00000BF0837BD4680BD80B500AF01220821B1
:1011D000024805F095FC00BF80BD00BF000C024036
:1011E00080B584B000AF002208212F4805F088FCAC
:1011F000012208212C4805F083FC0A2302222B49F6
:101200002B4807F0AAFA0023FB604FF400437B81D0
:1012100000237B603FE07B68002B06DB7B68032BB1
:1012200003DC7B680433FB6018E07B68032B07DD7D
:101230007B68072B04DC7B68C3F10703FB600DE0D0
:101240007B68072B06DD7B680B2B03DC7B68043394
:10125000FB6003E07B68C3F11703FB60134B1A8844
:101260007B8913409BB2002B05D0124AFB680021FA
:1012700022F8131009E00F4AFB6832F813300133EB
:1012800099B20C4AFB6822F813107B895B087B81BA
:101290007B6801337B607B680F2BBCDD00BF00BF28
:1012A0001037BD4680BD00BF000C0240EC0000209E
:1012B0006C0600208001002080B582B000AF0023C2
:1012C0007B600C4B1B6B0B4A43F480031363094B8D
:1012D0001B6B03F480037B607B68002200213820B5
:1012E00004F0A7FE382004F0C0FE00BF0837BD465A
:1012F00080BD00BF0038024080B483B000AF00233F
:101300007B6007E0084A7B68134400221A707B6800
:1013100001337B607B68032BF4DD00BF00BF0C371B
:10132000BD465DF8047B7047F400002080B400AF38
:10133000074B01221A60074B1B68074A1360074BD3
:101340001B68074A136000BFBD465DF8047B704709
:1013500008010020F80000200C010020FC00002003
:101360001001002080B500AF0A4B1B68012B0ED185
:10137000094B1B68094A1360094B1B68094A136033
:1013800002F034FD084B93E8030001F0ECFA00BFD3
:1013900080BD00BF080100200C010020F8000020E3
:1013A00010010020FC0000200C00002080B500AFE0
:1013B00000F07EFB0346012B07D1204B1B68022B5C
:1013C00003D01E4B01221A6036E000F095FB034665
:1013D000012B07D1194B1B68012B03D0174B02229D
:1013E0001A6029E000F0ACFB0346012B07D1134B38
:1013F0001B68042B03D0114B03221A601CE000F081
:10140000C1FB0346012B07D10C4B1B68032B03D0F8
:101410000A4B04221A600FE000F03FFC0346012B48
:101420000AD1FFF783FF064B0F221A60034B0022FD
:101430001A6001F08DF8FFE700BF80BDFC000020BE
:10144000F800002080B500AFB14B1B68112B00F2F3
:10145000508101A252F823F0A1140008431500089E
:10146000F316000869160008F3160008F3160008C2
:10147000F3160008F3160008F3160008F316000828
:10148000F31600087F160008851600088B16000862
:10149000F3160008C516000891160008AB160008E0
:1014A00000F01FFC0346012B15D19A4B5B78012BF2
:1014B00009D1FFF721FF964B01221A6002F0E6FAEC
:1014C00000F090FE17E1FFF717FF924B01225A70D0
:1014D00001F02CF90FE100F0AFFC0346012B16D10F
:1014E0008C4B9B78012B0AD18B4B1B68012B06D1AF
:1014F000FFF702FF00F0B0FFFFF734FFFBE0FFF75C
:10150000FBFE844B01229A7001F028F9F3E000F011
:101510000AFC0346012B40F0EE807E4BDB78012B6A
:1015200007D1FFF7E9FE7A4B03221A6000F0C8FEEC
:10153000E1E0FFF7E1FE774B0122DA7001F026F9D6
:10154000D9E000F013FC0346012B22D1714B1B782C
:10155000012B16D1FFF7D0FE6D4B0B221A604FF412
:10156000FA7002F091FC00F077FF01F03BFA02F014
:101570003DFC6A4B93E8030001F0F5F900F0D0FF61
:1015800059E0FFF7B9FE634B01221A7001F018F918
:1015900051E000F00DFC0346012B22D15D4B5B783E
:1015A000012B16D1FFF7A8FE594B0C221A604FF4FD
:1015B000FA7002F069FC00F04FFF01F013FA02F03C
:1015C00015FC564B93E8030001F0CDF900F0A8FF9D
:1015D00031E0FFF791FE4F4B01225A7001F008F9FC
:1015E00029E000F007FC0346012B24D1494B9B78EE
:1015F000012B19D1FFF780FE454B0D221A604FF4E5
:10160000FA7002F041FC00F027FF01F0EBF902F064
:10161000EDFB424B93E8030001F0A5F9404B00229B
:101620001A6000F07DFF06E0FFF766FE394B0122ED
:101630009A7001F0F7F800F0C9FA0346012B5CD16B
:10164000344BDB78012B07D1FFF756FE304B0022DD
:101650001A6000F06FFD50E0FFF74EFE2D4B0122A7
:10166000DA7001F0F9F848E000F0B0FA0346012B17
:1016700045D1274B00221A6000F05CFD3FE0FFF7E8
:1016800095FE43E0FFF792FE40E0FFF78FFE3DE05E
:1016900000F0BFFA0346012B33D11D4B01221A6023
:1016A00000F0A0FD01F085F92BE000F0B2FA03464E
:1016B000012B28D1164B01221A6000F093FD01F096
:1016C00078F920E000F0A5FA0346012B07D1104B72
:1016D00001221A6000F086FD01F06BF915E000F0C0
:1016E000BAFA0346012B10D100F0B6FEFFF73AFE1E
:1016F0000BE000BF0AE000BF08E000BF06E000BF4B
:1017000004E000BF02E000BF00E000BF00BF80BDFA
:10171000F8000020F4000020080100200C00002048
:10172000F000002080B500AF0A4B1B684FF4C87270
:10173000B2FBF3F213469B001A44074B1B68134499
:101740000533054A1360034B00221A6000F0E8FEDF
:1017500000BF80BD000100200400002080B500AF64
:10176000174B1B68002B01D002F0DEFA02F00EFAD4
:101770000346012B07D1134B10221A6002F086F9A1
:1017800000F026FF19E002F03FFA0346012B09D1D1
:101790000D4B1B6801330C4A1360FFF7C3FF02F0C7
:1017A00091FA0AE0084B1B68642B06D1054B112205
:1017B0001A6000F045FF02F069F900BF80BD00BF6C
:1017C000FC000020F80000200800002080B500AFD9
:1017D0004A4B1B680D2B3CD00D2B00F385800B2B47
:1017E00002D00C2B0FD07FE0454B1B680133444ADD
:1017F0001360444B1B88012B78D1424B00221A8086
:10180000FFF7ACFF72E03E4B1B6801333C4A1360AC
:101810003C4B1B88012B04D13A4B00221A80FFF766
:101820009DFF394B1B68052B03D1C82002F02CFB10
:101830005EE0354B1B680A2B03D1642002F024FBC9
:1018400056E0314B1B680F2B52D1322002F01CFBAB
:101850004EE02B4B1B680133294A13602B4B1B684E
:1018600001332A4A1360294B1968294BA3FB012332
:101870001A0913469B0013449B00CA1A002A06D17A
:10188000244B1B68013B234A136001F0CFF81D4B2A
:101890001B88012B04D11B4B00221A80FFF75EFF2F
:1018A0001C4B1B68322B03D8C82002F0EDFA21E054
:1018B000184B1B68232B03D8642002F0E5FA19E0CB
:1018C000144B1B68142B03D8322002F0DDFA11E010
:1018D000104B1B68002B0DD1084B10221A6000F032
:1018E00077FE02F0D3F805E000BF04E000BF02E09D
:1018F00000BF00E000BF00BF80BD00BFF8000020B7
:10190000000100201E01002008000020F00000203F
:10191000CDCCCCCC0401002080B58EB000AF07F157
:101920001C0300221A605A609A60DA601A615A61D8
:101930009A613B4600221A605A609A60DA601A6126
:101940005A619A612F4B4FF020421A602D4B2E4A5C
:101950005A602C4B00229A602A4B0022DA60294BF5
:1019600000221A61274B10225A61264B00229A61ED
:10197000244B0022DA61234B00221A62214B002201
:101980005A62204B4FF480529A621E4B0022DA6258
:101990001C4B4FF480421A631A4B00225A63194BB6
:1019A00000229A63174B00225A640F23FB610F2316
:1019B0003B623C237B620023BB621023FB6211234A
:1019C0003B6300237B6308233B600F237B60092379
:1019D000BB600023FB6010233B6111237B6100236C
:1019E000BB613A4607F11C031946064807F098FA0E
:1019F0000346002B01D002F043F800BF3837BD4644
:101A000080BD00BFA0010020040100A00000000074
:101A1000B0B582B000AF0446084611461A462346C8
:101A2000FB800346BB800B467B8013463B80FA88D5
:101A30007B88D31A1846FEF76DFD02460B469FEDD4
:101A40001A1B43EC102B0AF08DFB55EC104BBA8897
:101A50003B88D31A1846FEF75DFD02460B469FED04
:101A6000121B43EC102B0AF07DFB53EC102B20468D
:101A70002946FEF703FC02460B4643EC172BB0EE5B
:101A8000470AF0EE670A0AF01BFC53EC102B1046D5
:101A90001946FFF7A1F8034607EE903AB0EE670A41
:101AA0000837BD46B0BD00BF000000000000004088
:101AB00080B500AF03F024FE0346002B01D10023C4
:101AC00018E003F02FFE0346A52B12D903F02AFEDF
:101AD0000346EA2B0DD803F031FE0346B3F5857FAC
:101AE00007D303F02BFE0346B3F59D7F01D80123F6
:101AF00000E00023184680BD80B500AF03F000FE73
:101B00000346002B01D1002318E003F00BFE03462F
:101B1000052B12D903F006FE03464A2B0DD803F01D
:101B20000DFE0346B3F5857F07D303F007FE03469A
:101B3000B3F59D7F01D8012300E00023184680BD46
:101B400080B500AF03F0DCFD0346002B01D100237C
:101B500016E003F0E7FD0346552B10D903F0E2FD34
:101B600003469A2B0BD803F0E9FD0346CD2B06D98B
:101B700003F0E4FD0346FE2B01D8012300E000231F
:101B8000184680BD80B500AF03F0BAFD0346002BB8
:101B900001D1002318E003F0C5FD0346552B12D9EF
:101BA00003F0C0FD03469A2B0DD803F0C7FD034692
:101BB000B3F5857F07D303F0C1FD0346B3F59D7FE1
:101BC00001D8012300E00023184680BD80B500AF96
:101BD00003F096FD0346002B01D1002317E003F02C
:101BE000A1FD0346412B11D903F09CFD0346B82B00
:101BF0000CD803F0A3FD0346FA2B07D903F09EFD92
:101C00000346B3F58E7F01D8012300E00023184678
:101C100080BD80B500AF03F073FD0346002B01D1FA
:101C2000002316E003F07EFD0346412B10D903F09C
:101C300079FD0346B82B0BD803F080FD0346C82B73
:101C400006D903F07BFD0346EA2B01D8012300E00F
:101C50000023184680BD80B500AF03F051FD034658
:101C6000002B01D1002316E003F05CFD0346412B5D
:101C700010D903F057FD0346B82B0BD803F05EFDD7
:101C80000346962B06D903F059FD0346B82B01D81D
:101C9000012300E00023184680BD98B500AF03F093
:101CA0002FFD0346002B01D1002318E003F03AFD7D
:101CB00003461C4603F042FD03461946E623C822AC
:101CC0002046FFF7A5FEF0EE407AB3EE097AF4EE77
:101CD000C77AF1EE10FA4CBF01230023DBB218469D
:101CE00098BD80B500AF03F00BFD0346002B01D17A
:101CF000002316E003F016FD0346412B10D903F034
:101D000011FD0346B82B0BD803F018FD0346962BA4
:101D100006D903F013FD0346B82B01D8012300E0D8
:101D20000023184680BD80B500AF03F0E9FC0346F0
:101D3000002B01D1002317E003F0F4FC0346412BF4
:101D400011D903F0EFFC0346B82B0CD803F0F6FCD6
:101D50000346FA2B07D903F0F1FC0346B3F58E7F57
:101D600001D8012300E00023184680BD80B500AFF4
:101D700003F0C6FC0346002B01D1002316E003F05C
:101D8000D1FC0346412B10D903F0CCFC0346B82B01
:101D90000BD803F0D3FC0346642B06D903F0CEFC2A
:101DA0000346862B01D8012300E00023184680BD9E
:101DB00080B500AF03F0A4FC0346002B01D1002343
:101DC00016E003F0AFFC0346412B10D903F0AAFC48
:101DD0000346B82B0BD803F0B1FC0346962B06D96B
:101DE00003F0ACFC0346B82B01D8012300E000232C
:101DF000184680BD80B500AF03F082FC0346002B7F
:101E000001D1002316E003F08DFC0346412B10D9CD
:101E100003F088FC0346B82B0BD803F08FFC034675
:101E2000C82B06D903F08AFC0346EA2B01D801230C
:101E300000E00023184680BD80B500AF03F060FCD1
:101E40000346002B01D1002316E003F06BFC034690
:101E5000412B10D903F066FC0346B82B0BD803F0D6
:101E60006DFC0346C82B06D903F068FC0346EA2B39
:101E700001D8012300E00023184680BD80B58EB054
:101E800000AF07F1240300221A605A609A60DA60FA
:101E90001A6100233B62894B1B6B884A43F0100395
:101EA0001363864B1B6B03F010033B623B6A0023FA
:101EB000FB61824B1B6B814A43F0040313637F4B2E
:101EC0001B6B03F00403FB61FB690023BB617B4BCD
:101ED0001B6B7A4A43F020031363784B1B6B03F0B0
:101EE0002003BB61BB6900237B61744B1B6B734A8E
:101EF00043F080031363714B1B6B03F080037B6122
:101F00007B6900233B616D4B1B6B6C4A43F0010303
:101F100013636A4B1B6B03F001033B613B690023B6
:101F2000FB60664B1B6B654A43F002031363634B14
:101F30001B6B03F00203FB60FB680023BB605F4B7D
:101F40001B6B5E4A43F0080313635C4B1B6B03F08F
:101F50000803BB60BB6800237B60584B1B6B574A70
:101F600043F040031363554B1B6B03F040037B604E
:101F70007B6800221021524804F0C2FD00224FF479
:101F80000851504804F0BCFD00224FF480614E48D7
:101F900004F0B6FD00224FF4E0714C4804F0B0FDAF
:101FA00000224FF480714A4804F0AAFD0022082163
:101FB000484804F0A5FD10237B620123BB62002387
:101FC000FB6200233B6307F1240319463C4804F0FD
:101FD000E3FB4FF408537B620123BB620023FB62E7
:101FE00000233B6307F124031946364804F0D4FB71
:101FF0004FF400737B620023BB620023FB6207F196
:1020000024031946304804F0C7FB4FF480637B6219
:102010000123BB620023FB6200233B6307F124031F
:102020001946294804F0B8FB4FF4E0737B620123A2
:10203000BB620023FB6200233B6307F124031946C4
:10204000224804F0A9FB4FF480737B620023BB623B
:102050000123FB6207F1240319461A4804F09CFB94
:102060004FF480737B620123BB620023FB62002379
:102070003B6307F124031946154804F08DFB4FF428
:1020800080537B620023BB620023FB6207F12403C1
:1020900019460C4804F080FB08237B620123BB62D5
:1020A0000023FB6200233B6307F124031946094820
:1020B00004F072FB00BF3837BD4680BD00380240D7
:1020C00000100240000802400014024000180240C4
:1020D00000000240000C024080B500AF124B134AD2
:1020E0001A60114B124A5A600F4B00229A600E4B35
:1020F0000022DA600C4B4FF480421A610A4B002236
:102100005A61094B00229A61074B0022DA61064BA3
:1021100000221A62044804F027FD0346002B01D078
:1021200001F0AEFC00BF80BD7C05002000540040E3
:10213000A086010080B584B004AF264B00934FF415
:10214000A073F0220021002000F0B6FF4BF64043C0
:102150000093B923B9229621412000F03BFD4BF6B4
:1021600040430093EB23B922C821412000F032FD07
:102170004BF64043009340F21D13B922FA2141204F
:1021800000F028FD012302931823019300230093FC
:102190000023114A9B21542001F060FA012302938D
:1021A000182301930023009300230C4ACD214D20D6
:1021B00001F054FA012302931823019300230093A2
:1021C0000023074AFF21482001F048FA00BFBD461E
:1021D00080BD00BF2802010850D1000858D1000876
:1021E00064D1000880B584B004AF304B00934FF445
:1021F000A073F0220021002000F05EFF4BF6404368
:1022000000938723B9226421412000F0E3FC4BF6C0
:1022100040430093B923B9229621412000F0DAFC13
:102220004BF640430093EB23B922C821412000F034
:10223000D1FC4BF64043009340F21D13B922FA2122
:10224000412000F0C7FC01230293182301930023CF
:1022500000930023164A6921542001F0FFF901235D
:10226000029318230193002300930023114A9B211A
:10227000602001F0F3F90123029318230193002356
:10228000009300230C4ACD21602001F0E7F90123DF
:10229000029318230193002300930023074AFF2190
:1022A000642001F0DBF900BFBD4680BD285A030859
:1022B00070D1000878D1000880D1000888D10008CA
:1022C00090B589B004AF5D4B00934FF4A073F0223A
:1022D0000021002000F0F0FE01230293102301935F
:1022E000002300930023564A50210A2001F0B6F93A
:1022F0000123029310230193002300930023514AEA
:1023000050213C2001F0AAF90123029310230193EC
:102310000023009300234C4A5021A02001F09EF995
:1023200000237B6007F1080300221A609A800123D2
:10233000FB7351E0FB7B05339BB21B019CB2FB7B23
:10234000391D0A22184608F0BFFE024601230293F7
:102350001023019300230093002321460A2001F05B
:102360007DF9FB7B05339BB21B0199B2FB7B5A1EA7
:1023700013465B0013449B00344A1A440123029322
:10238000102301930023009300233C2001F066F901
:10239000FB7B05339BB21B019CB2FB7B5A1E2B4976
:1023A00013465B0013449B000B440A331B881846FA
:1023B0003B1D0A22194608F087FE024601230293BC
:1023C000102301930023009300232146A02001F055
:1023D00045F9FB7B0133FB731D4B1B78FA7B9A425B
:1023E000A8D94BF64043009340F21D13B922FA21BD
:1023F000412000F0EFFB01230293182301930023F7
:1024000000930023134AFF21642001F027F90023E1
:10241000009340F21D13B922FA21412000F0ABFCD9
:10242000002300934FF48E73B822FB21422000F06A
:10243000A2FC00BF1437BD4690BD00BF28B20508FE
:1024400090D1000898D10008A0D100081005002004
:102450000000002088D1000880B584B004AF4FF69A
:10246000FF7000F085FB4AF25163009340F23F1386
:10247000EF22C821002000F0ADFB4BF64043009353
:1024800040F23B134B2240F20911052000F0A2FB61
:102490004BF64043009340F23B13EB2240F209110C
:1024A000A52000F097FB4BF640430093FF239B22AF
:1024B000CD21552000F08EFB4BF64043009340F2B7
:1024C0003B139B2240F20911552000F083FB0123AE
:1024D000009319234FF47842E621C82001F051F807
:1024E00001230293102301930023009300230A4A3F
:1024F000DE21B62001F0B2F80123029310230193EC
:10250000002300930023054ACD21052001F0A6F801
:1025100000BFBD4680BD00BFA8D10008B0D10008F3
:1025200080B584B004AF094B1B689AB210230293A4
:102530004AF251630193002300930523DD21052016
:1025400000F03CFD00BFBD4680BD00BF0400002080
:1025500080B584B004AF1B4B00934FF4A073F022FE
:102560000021002000F0A8FD4BF640430093B92362
:10257000B9229621412000F02DFB4BF640430093F9
:10258000EB23B922C821412000F024FB0123029350
:10259000182301930023009300230B4A9B215A2008
:1025A00001F05CF8012302931823019300230093A8
:1025B0000023064ACD21642001F050F800BFBD463B
:1025C00080BD00BF280A0808B8D1000888D10008DB
:1025D00080B584B004AF184B00934FF4A073F02281
:1025E0000021002000F068FD4BF640430093EB23F0
:1025F000B922C821412000F0EDFA00230093EB231B
:10260000B922C821412000F0B6FB00230093EA2341
:10261000B822C921422000F0AEFB01230293182307
:102620000193002300930023044ACD21642001F08C
:1026300015F800BFBD4680BD28620A0888D1000891
:1026400080B584B004AF184B00934FF4A073F02210
:102650000021002000F030FD4BF640430093EB23B7
:10266000B922C821412000F0B5FA00230093EB23E2
:10267000B922C821412000F07EFB00230093EA2309
:10268000B822C921422000F076FB012302931823CF
:102690000193002300930023044ACD21642000F01D
:1026A000DDFF00BFBD4680BD28BA0C0888D10008F8
:1026B00080B582B002AF48F230430093B923B9220B
:1026C0009621412000F057FB48F230430093B82395
:1026D000B8229721422000F04EFB48F2304300938D
:1026E000EB23B922C821412000F045FB48F23043DA
:1026F0000093EA23B822C921422000F03CFB48F2B3
:102700003043009340F21D13B922FA21412000F01A
:1027100032FB48F2304300934FF48E73B822FB2112
:10272000422000F028FB00BFBD4680BD80B582B0CE
:1027300002AFFFF7BDFF00230093B923B922962112
:10274000412000F018FB00230093B823B822972102
:10275000422000F010FB00BFBD4680BD80B582B0B6
:1027600002AFFFF7A5FF00230093EB23B922C82196
:10277000412000F000FB00230093EA23B822C92186
:10278000422000F0F8FA00BFBD4680BD80B582B09F
:1027900002AFFFF78DFF0023009340F21D13B92213
:1027A000FA21412000F0E7FA002300934FF48E73E2
:1027B000B822FB21422000F0DEFA00BFBD4680BDFA
:1027C00080B582B002AF002300938723B922642131
:1027D000412000F0D0FA002300938623B82265211F
:1027E000422000F0C8FAFFF763FF00BFBD4680BD7E
:1027F00080B582B002AF48F2304300938723B922FC
:102800006421412000F0B7FA48F230430093862358
:10281000B8226521422000F0AEFAFFF787FF00BF23
:10282000BD4680BD80B582B002AF48F23043009310
:102830008723B9226421412000F09DFA48F23043F9
:1028400000938623B8226521422000F094FAFFF716
:1028500085FF00BFBD4680BD80B582B002AF48F2A3
:10286000304300938723B9226421412000F083FA8A
:1028700048F2304300938623B8226521422000F0BD
:102880007AFAFFF783FF00BFBD4680BD80B584B0F4
:1028900002AF3B4683E80300386879680123009360
:1028A00004234FF4FC6200F06CFE38687968012361
:1028B00000930123002200F064FE00BF0837BD46EC
:1028C00080BD90B585B002AF3B4683E80300386811
:1028D00079680123009304234FF4FC6200F051FE59
:1028E0003B689BB2033B98B27B689BB2033B99B2B7
:1028F0003B689BB204339AB27B689BB204339BB2B1
:102900004BF64044009400F0B2F93B689BB2033BA5
:1029100098B27B689BB2023B99B23B689BB203338F
:102920009AB27B689BB204339BB24BF6404400944E
:1029300000F09DF93B689BB2023B98B27B689BB26A
:10294000033B99B23B689BB204339AB27B689BB25B
:1029500003339BB24BF64044009400F088F900BF6B
:102960000C37BD4690BD80B584B002AF3B4683E8CE
:102970000300386879680123009304234FF47842F8
:1029800000F0FFFD00BF0837BD4680BD80B584B0B4
:1029900002AF3B4683E8030038687968012300935F
:1029A00004234FF6FF7200F0ECFD00BF0837BD4670
:1029B00080BD80B500AF00220121002000F04AFF59
:1029C00000220221002000F045FF00220321002008
:1029D00000F040FF00220421002000F03BFF00BF78
:1029E00080BD000080B500AF0F4B1B680D2B12D0CF
:1029F0000D2B16DC0B2B02D00C2B06D011E0002285
:102A00000221012000F026FF0CE00022022102201A
:102A100000F020FF06E000220221032000F01AFF50
:102A200000E000BF00BF80BDF800002080B500AF0F
:102A30000E4B1B680E4AA2FB0323DB080022032176
:102A4000184600F007FF094B1968094BA3FB012347
:102A5000DA0813469B0013445B00CA1A134600228F
:102A60000421184600F0F6FE00BF80BD04010020DE
:102A7000CDCCCCCC80B483B000AF0346FB80044AFD
:102A8000FB88138000BF0C37BD465DF8047B7047A0
:102A9000FEFF0F6080B483B000AF0346FB80044AA2
:102AA000FB88538000BF0C37BD465DF8047B704740
:102AB000FEFF0F6080B483B000AF064B5B889BB213
:102AC000FB80FB889BB218460C37BD465DF8047B43
:102AD000704700BFFEFF0F6090B583B000AF0446A3
:102AE000084611461A462346FB800346BB800B4628
:102AF0007B8013463B802A20FFF7BCFFFB881B0A24
:102B00009BB21846FFF7C6FFFB88DBB29BB21846A4
:102B1000FFF7C0FF7B881B0A9BB21846FFF7BAFF7E
:102B20007B88DBB29BB21846FFF7B4FF2B20FFF780
:102B3000A1FFBB881B0A9BB21846FFF7ABFFBB88FF
:102B4000DBB29BB21846FFF7A5FF3B881B0A9BB27E
:102B50001846FFF79FFF3B88DBB29BB21846FFF792
:102B600099FF2C20FFF786FF00BF0C37BD4690BDB4
:102B700080B584B000AF0346FB80154B1B88013B3A
:102B80009AB2134B5B88013B9BB200210020FFF7F8
:102B9000A3FF0023FB8111E00023BB8106E0FB883B
:102BA0001846FFF777FFBB890133BB81084B5B8871
:102BB000BA899A42F3D3FB890133FB81044B1B880A
:102BC000FA899A42E8D300BF00BF1037BD4680BDE6
:102BD000D005002090B585B000AF044608461146E8
:102BE0001A462346FB800346BB800B467B80134678
:102BF0003B807B88013B9AB23B88013B9BB2B98802
:102C0000F888FFF769FFBB88FB8110E0FB88BB8178
:102C100006E03B8C1846FFF73DFFBB890133BB81C3
:102C2000BA897B889A42F4D3FB890133FB81FA8904
:102C30003B889A42EAD300BF00BF1437BD4690BD1F
:102C400080B582B000AF0346FB800B46BB801346C5
:102C50007B80BB88FA88B988F888FFF73DFF7B88BE
:102C60001846FFF717FF00BF0837BD4680BD90B577
:102C70008DB000AF0446084611461A462346FB8035
:102C80000346BB800B467B8013463B800023BB6220
:102C900000237B627A88FB88D31A3B623A88BB8820
:102CA000D31AFB61FB88FB60BB88BB603B6A002BCF
:102CB00002DD01237B610BE03B6A002B02D1002384
:102CC0007B6105E04FF0FF337B613B6A5B423B6217
:102CD000FB69002B02DD01233B610BE0FB69002B4C
:102CE00002D100233B6105E04FF0FF333B61FB69FC
:102CF0005B42FB613A6AFB699A4202DD3B6ABB6157
:102D000001E0FB69BB610023FB852BE0FB689BB204
:102D1000BA6891B2B7F840201846FFF791FFBA6A37
:102D20003B6A1344BB627A6AFB6913447B62BA6AEA
:102D3000BB699A4207DDBA6ABB69D31ABB62FA68FB
:102D40007B691344FB607A6ABB699A4207DD7A6A41
:102D5000BB69D31A7B62BA683B691344BB60FB8DC5
:102D60000133FB85FB8DBA699A42CFDA00BF00BF01
:102D70003437BD4690BD90B585B002AF04460846D5
:102D800011461A462346FB800346BB800B467B80D8
:102D900013463B80BC887A88B988F8883B8B0093BF
:102DA0002346FFF764FF3C88FA88B988F8883B8B94
:102DB00000932346FFF75BFF3C887A883988F888C0
:102DC0003B8B00932346FFF752FF3C887A88B988F3
:102DD00078883B8B00932346FFF749FF00BF0C37F1
:102DE000BD4690BD90B587B000AF04460846114679
:102DF0001A462346FB800346BB800B46FB701346F6
:102E00003B8000237B75FB883B8297F82C305B0866
:102E1000FB73FB7BDB08DBB21A46FB7B03F007038B
:102E2000DBB2002B14BF01230023DBB213449AB2A0
:102E300097F82C309BB212FB03F3BB81FB78203B4D
:102E4000FB70FB7B9AB2FB8813449BB2013B9CB2A4
:102E500097F82C309AB2BB8813449BB2013B9BB2CB
:102E6000B988F8882246FFF737FE00237B827AE094
:102E700097F82C300C2B28D097F82C30102B08D139
:102E8000FA787B8A3C4912010A4413441B78FB758B
:102E90001BE097F82C30182B0BD1FA78798A374839
:102EA00013465B0013441B0103440B441B78FB7562
:102EB0000BE097F82C30202B5AD1FA787B8A3049D6
:102EC00092010A4413441B78FB750023BB7544E050
:102ED00097F83030002B20D1FA7DBB7D42FA03F306
:102EE00003F00103002B04D03B881846FFF7D2FD06
:102EF00003E03B8D1846FFF7CDFD7B7D01337B75ED
:102F00007B7DFA7BB3FBF2F102FB01F29B1ADBB291
:102F1000002B1FD100237B7522E0FA7DBB7D42FA96
:102F200003F303F00103002B05D03A88B988FB882E
:102F30001846FFF785FEFB880133FB80FA883B8A41
:102F4000D21AFB7B9A4205D13B8AFB80BB880133B6
:102F5000BB8005E0BB7D0133BB75BB7D072BB7D9BB
:102F60007B8A01337B827A8ABB899A4280D300E0D4
:102F700000BF1C37BD4690BDA8D2000898D80008F5
:102F800068EA000880B485B000AF03460A46FB71CA
:102F90001346BB710123FB6004E0FA79FB6802FB76
:102FA00003F3FB60BB795A1EBA71002BF5D1FB68A5
:102FB00018461437BD465DF8047B704790B589B05C
:102FC00004AF0446084611461A462346FB800346D2
:102FD000BB800B467B8013467B700023BB7397F846
:102FE00028305B087B730023FB7359E07C887A7878
:102FF000FB7BD31ADBB2013BDBB219460A20FFF799
:10300000C1FF0346B4FBF3F12A4BA3FB0123DA080B
:1030100013469B0013445B00CA1A13463B73BB7BE9
:10302000002B21D1FA7B7B78013B9A421CDA3B7B57
:10303000002B17D1FB7B9AB27B7B9BB212FB03F375
:103040009AB2FB88134498B23A8CB9880023029351
:1030500097F828300193BB8C009313462022FFF78A
:10306000C1FE1AE00123BB73FB7B9AB27B7B9BB250
:1030700012FB03F39AB2FB88134498B23B7B3033C4
:10308000DAB23C8CB9880023029397F82830019378
:10309000BB8C00932346FFF7A5FEFB7B0133FB733C
:1030A000FA7B7B789A42A1D300BF00BF1437BD469C
:1030B00090BD00BFCDCCCCCC90B587B000AF04465E
:1030C000084611461A462346FB800346BB800B4642
:1030D0007B8013463B8000233B61FA887B88134446
:1030E0009BB2013B9CB2BA883B8813449BB2013B24
:1030F0009BB2B988F8882246FFF7EEFC0023FB82DA
:1031000027E00023BB821DE03B695B00BA6A1344E1
:103110001B78FB733B695B000133BA6A13441B786D
:10312000BB73FB7B1B021AB2BB7B1BB213431BB2EC
:103130009BB21846FFF7AEFC3B6901333B61BB8A8B
:103140000133BB82BA8A3B889A42DDD3FB8A0133C2
:10315000FB82FA8A7B889A42D3D300BF00BF1C3718
:10316000BD4690BD80B483B000AF0346FB71FB79D0
:103170001B09DBB203F00303DBB2002B07D00A4BC1
:103180004FF4A0721A80084BF0225A8006E0064BDA
:10319000F0221A80044B4FF4A0725A8000BF0C3703
:1031A000BD465DF8047B7047D005002080B500AFB8
:1031B00000224FF40051AA4803F0A2FC4FF4FA7029
:1031C00002F0D6FB01224FF40051A54803F098FC11
:1031D0004FF4FA7002F0CCFB0020FFF7C3FFD320BE
:1031E000FFF748FCFFF766FC03461A469D4B9A80A2
:1031F000FFF760FC03461A469A4B9A80FFF75AFC89
:1032000003461A46974B9A80964B9B881B029AB2AC
:10321000944B9A80FFF74EFC03461A46914B9B88CD
:1032200013439AB28F4B9A80CF20FFF723FC0020E4
:10323000FFF730FCC120FFF72DFC3020FFF72AFC00
:10324000ED20FFF717FC6420FFF724FC0320FFF7B5
:1032500021FC1220FFF71EFC8120FFF71BFCE82059
:10326000FFF708FC8520FFF715FC1020FFF712FC84
:103270007A20FFF70FFCCB20FFF7FCFB3920FFF78C
:1032800009FC2C20FFF706FC0020FFF703FC34208C
:10329000FFF700FC0220FFF7FDFBF720FFF7EAFB3A
:1032A0002020FFF7F7FBEA20FFF7E4FB0020FFF701
:1032B000F1FB0020FFF7EEFBC020FFF7DBFB1B203C
:1032C000FFF7E8FBC120FFF7D5FB0120FFF7E2FB8A
:1032D000C520FFF7CFFB3020FFF7DCFB3020FFF7E6
:1032E000D9FBC720FFF7C6FBB720FFF7D3FB36207B
:1032F000FFF7C0FB0820FFF7CDFB3A20FFF7BAFB32
:103300005520FFF7C7FBB120FFF7B4FB0020FFF704
:10331000C1FB1A20FFF7BEFBB620FFF7ABFB0A206C
:10332000FFF7B8FBA220FFF7B5FBF220FFF7A2FBE7
:103330000020FFF7AFFB2620FFF79CFB0120FFF7E3
:10334000A9FBE020FFF796FB0F20FFF7A3FB2A2045
:10335000FFF7A0FB2820FFF79DFB0820FFF79AFB53
:103360000E20FFF797FB0820FFF794FB5420FFF790
:1033700091FBA920FFF78EFB4320FFF78BFB0A2070
:10338000FFF788FB0F20FFF785FB0020FFF782FB8C
:103390000020FFF77FFB0020FFF77CFB0020FFF7FA
:1033A00079FBE120FFF766FB0020FFF773FB152098
:1033B000FFF770FB1720FFF76DFB0720FFF76AFB95
:1033C0001120FFF767FB0620FFF764FB2B20FFF7B8
:1033D00061FB5620FFF75EFB3C20FFF75BFB0520FF
:1033E000FFF758FB1020FFF755FB0F20FFF752FBAC
:1033F0003F20FFF74FFB3F20FFF74CFB0F20FFF76D
:1034000049FB2B20FFF736FB0020FFF743FB002092
:10341000FFF740FB0120FFF73DFB3F20FFF73AFBA2
:103420002A20FFF727FB0020FFF734FB0020FFF7DF
:1034300031FB0020FFF72EFBEF20FFF72BFB1120C5
:10344000FFF718FB782002F093FA2920FFF712FB10
:1034500001224FF48071044803F052FB00BF80BD8D
:1034600000080240D00500200000024080B584B072
:1034700000AFF860B9607A603B60FB689AB27B6825
:103480009BB2134498B2BB689AB23B689BB2134498
:103490009BB23A8B1946FFF7D3FBFB689AB27B6865
:1034A0009BB2D31A98B2BB689AB23B689BB21344E2
:1034B0009BB23A8B1946FFF7C3FBFB689AB27B6855
:1034C0009BB2134498B2BB689AB23B689BB2D31AC2
:1034D0009BB23A8B1946FFF7B3FBFB689AB27B6845
:1034E0009BB2D31A98B2BB689AB23B689BB2D31A0C
:1034F0009BB23A8B1946FFF7A3FBFB689AB23B6875
:103500009BB2134498B2BB689AB27B689BB21344D7
:103510009BB23A8B1946FFF793FBFB689AB23B6864
:103520009BB2D31A98B2BB689AB27B689BB2134421
:103530009BB23A8B1946FFF783FBFB689AB23B6854
:103540009BB2134498B2BB689AB27B689BB2D31A01
:103550009BB23A8B1946FFF773FBFB689AB23B6844
:103560009BB2D31A98B2BB689AB27B689BB2D31A4B
:103570009BB23A8B1946FFF763FB00BF1037BD467D
:1035800080BD80B58AB002AFF860B9603B60134679
:10359000FB800023FB613B68BB613B685B00C3F1C0
:1035A00003033B61BB6A002B4FD029E0FB697B61C1
:1035B0000AE0FB8800937B69FA69B968F868FFF74D
:1035C00055FF7B6901337B617A69BB699A42F0DD03
:1035D0003B69002B06DAFB699A003B69134406330A
:1035E0003B610AE0FA69BB69D31A9A003B6913444C
:1035F0000A333B61BB69013BBB61FB690133FB6182
:10360000FA69BB699A42D1DD23E0FB880093BB696C
:10361000FA69B968F868FFF729FF3B69002B06DAF9
:10362000FB699A003B69134406333B610AE0FA697F
:10363000BB69D31A9A003B6913440A333B61BB69E7
:10364000013BBB61FB690133FB61FA69BB699A42CB
:10365000DBDD00BF2037BD4680BD000090B58BB0DC
:1036600004AFBA601A460346FB810B46BB81134682
:10367000FB80FB89BB820023FB7548E0FB7D002BB0
:1036800045D1FA89264B1B88194697F82C305B08E0
:10369000DBB2CB1A9A423FDCBA89214B5B881946D0
:1036A00097F82C30CB1A9A4236DCBB681B78802BFB
:1036B00002D90123FB752AE0BB681B780D2B0BD1C7
:1036C00097F82C309AB2BB891344BB81BB8AFB812B
:1036D000BB680133BB6017E0BB681A78FC88B98906
:1036E000F88997F83030029397F82C3001933B8D8E
:1036F00000932346FFF776FB97F82C305B08DBB28C
:103700009AB2FB891344FB81BB680133BB60BB6881
:103710001B78002BB2D100E000BF1C37BD4690BD26
:10372000D005002080B500AF01224021024803F0FF
:10373000E7F900BF80BD00BF0018024080B500AFB0
:103740003F4B1B88DBB29AB23D4B1A803D4B1B8826
:103750001A463D4B9B5C1B021AB2394B1B881BB2AD
:1037600013431BB29AB2364B1A80364B1B88032B7D
:1037700046D801A252F823F089370008A73700087D
:10378000C5370008E33700082D4B1B8843F0B00312
:103790009AB22B4B1A802A4B1B8823F040039AB213
:1037A000274B1A802DE0264B1B8843F0D0039AB29A
:1037B000234B1A80224B1B8823F020039AB2204B04
:1037C0001A801EE01E4B1B8843F0E0039AB21C4B8C
:1037D0001A801B4B1B8823F010039AB2184B1A80D7
:1037E0000FE0174B1B8843F070039AB2144B1A80FA
:1037F000134B1B8823F080039AB2114B1A8000E010
:1038000000BF104B1B8801335A4203F0030302F040
:10381000030258BF53429AB20A4B1A800022402139
:103820000A4803F06DF9012302220549084804F013
:1038300058FE01224021054803F062F900BF80BD17
:103840002200002014010020140000200018024073
:103850006C06002080B485B000AFF860B9601346F4
:10386000FB71FB68002B0EDBFB68092B0BDC094AA4
:10387000FB6813441A78FB79D31AD9B2064ABB689D
:1038800013440A461A7000BF1437BD465DF8047B26
:10389000704700BF180000201400002080B500AF62
:1038A00001F0F4FF00F02CF8FEF7E8FAFDF704FD54
:1038B000FDF75EFBFEF730F8FEF70EFC00F060FB54
:1038C00000F0C8FF01F064FF00F074FF01F00EF893
:1038D00001F088FF00F07EF8084B1B88012BFBD11C
:1038E000064B00221A8001F001FFFDF779FCFDF77D
:1038F000A9FDFDF76BFF00F09DF8EDE71801002032
:1039000080B594B000AF07F12003302200211846A3
:1039100007F0DCFB07F10C0300221A605A609A6082
:10392000DA601A610023BB60284B1B6C274A43F006
:1039300080531364254B1B6C03F08053BB60BB6842
:1039400000237B60224B1B68214A43F480431360B1
:103950001F4B1B6803F480437B607B6802233B6240
:103960000123FB6210233B630223BB630023FB6341
:1039700008233B64A8237B640223BB640423FB6409
:1039800007F12003184604F0AFF80346002B01D0DE
:1039900000F076F80F23FB6002233B6100237B617C
:1039A0004FF4A053BB614FF4A053FB6107F10C032C
:1039B0000521184604F010FB0346002B01D000F04F
:1039C0005FF800BF5037BD4680BD00BF00380240E1
:1039D0000070004080B500AF00F02CFAFDF7F4FB5A
:1039E000FFF7E4FB01F072FEFFF79CFEFEF7A2FB7F
:1039F00000F04CF80B4B0C4A10681860094B4FF460
:103A00007A725A81094B0A4A10681860054B7C2269
:103A1000DA82322000F038FA322000F019FA00BFC2
:103A200080BD00BF10050020C0D100081C0500208B
:103A3000C4D1000880B500AF0E4B1B780133DAB259
:103A40000C4B1A700B4B1A780B4BA3FB0213190982
:103A50000B469B000B449B00D31ADBB2002B06D114
:103A60001021064803F065F8024B00221A7000BFCF
:103A700080BD00BF16010020CDCCCCCC0010024090
:103A800080B400AF72B600BFFEE7000080B483B020
:103A900000AF194B77221A60174B63225A6001233B
:103AA0007B600DE0144A7B68002142F83310124A13
:103AB0007B68DB00134400225A607B6801337B6023
:103AC0007B68632BEEDD0D4B03221A600C4B012249
:103AD0001A600C4B00221A600B4B00221A600B4B31
:103AE0003C221A600A4B00221A6000BF0C37BD4608
:103AF0005DF8047B704700BFF0010020FC0000204F
:103B00000800002004000020000100200401002023
:103B10000801002080B485B000AF3B4683E8030075
:103B20003B68002B08DD3B68EE2B05DC7B68002B37
:103B300002DD7B68C62B01DD01231CE00023FB6056
:103B400013E03A680F49FB6851F833309A4209D1C3
:103B50007A680C49FB68DB000B445B689A4201D130
:103B6000012308E0FB680133FB60FA68064B1B6821
:103B70009A42E6D3002318461437BD465DF8047B0D
:103B8000704700BFF00100200800002080B483B01F
:103B900000AF1B4B1B68002B0BDD194B1B68EE2B7A
:103BA00007DC174B5B68002B03DD154B5B68C62BEE
:103BB00001DD01231EE001237B6015E0104B1A6834
:103BC0000F497B6851F833309A420AD10C4B5A683E
:103BD0000B497B68DB000B445B689A4201D10123EF
:103BE00008E07B6801337B607A68064B1B689A4269
:103BF000E4D3002318460C37BD465DF8047B7047BC
:103C0000F00100200800002080B500AF124B1A68B8
:103C1000124B1B6804339A421BDC0F4B1A680F4B84
:103C20001B68043B9A4214DB0B4B5A680B4B5B68D6
:103C300004339A420DDC084B5A68084B5B68043B1E
:103C40009A4206DB054B93E80300FEF79FFE012333
:103C500000E00023184680BDF00100200C00002089
:103C6000B0B582B000AF786007F038FA0346184666
:103C7000FCF750FC04460D467868FCF74BFC4FF00F
:103C800000020E4BFCF7FAFA02460B462046294684
:103C9000FCF7AAFC02460B46104619464FF00002FC
:103CA000074BFCF7CBFD02460B4610461946FCF7C6
:103CB0004BFF034618460837BD46B0BD0000F03F35
:103CC0000000E04180B582B000AFEF20FFF7C8FFF1
:103CD00003463B60C720FFF7C3FF03467B6009E054
:103CE000EF20FFF7BDFF03463B60C720FFF7B8FF9B
:103CF00003467B603B4693E80300FFF70BFF034658
:103D0000012BEDD0074B1A463B4693E8030082E8AF
:103D10000300044B93E80300FEF725FE00BF0837BD
:103D2000BD4680BD0C00002080B582B000AF2C4B9A
:103D30001B68013B2B4ADB00134493E80300FEF7AA
:103D400025FE274B1B68013B7B6016E07B68013B2F
:103D5000244A52F8332023497B6841F833207B689A
:103D6000013B204ADB0013445A681E497B68DB0094
:103D70000B445A607B68013B7B607B68002BE5DC71
:103D8000194B1B68013B032B22D801A252F823F0E8
:103D9000A13D0008AD3D0008B93D0008C53D000843
:103DA000104B1B6807330F4A136012E00D4B1B6862
:103DB000073B0C4A13600CE00A4B5B68073B094A5F
:103DC000536006E0074B5B680733064A536000E028
:103DD00000BF00F00BF800BF0837BD4680BD00BF34
:103DE00008000020F0010020FC00002080B582B017
:103DF00000AF0E4B93E80300FEF748FD01237B6004
:103E00000AE00A4A7B68DB00134493E80300FEF7EC
:103E100058FD7B6801337B607A68054B1B689A42CA
:103E2000EFD300BF00BF0837BD4680BDF0010020C2
:103E30000800002080B500AF034805F06DF9034885
:103E400005F002F900BF80BD540700200C070020D8
:103E500080B483B000AF0346FB80084AFB88138020
:103E6000064B1A88064B1A80064B00221A8000BFA8
:103E70000C37BD465DF8047B704700BF1C01002075
:103E80001A0100201801002080B483B000AF03465F
:103E9000FB80084AFB881380064B1A88064B1A8061
:103EA000064B00221A8000BF0C37BD465DF8047B2C
:103EB000704700BF22010020200100201E010020C9
:103EC00080B582B000AF78607B681B68B3F1804F2B
:103ED0002BD1184B1B88002B10D0164B1B88013B95
:103EE0009AB2144B1A80134B1B88002B06D1124B2D
:103EF00001221A80114B1A880E4B1A80104B1B8816
:103F0000002B10D00E4B1B88013B9AB20C4B1A8031
:103F10000B4B1B88002B06D10A4B01221A800A4B3F
:103F20001A88074B1A80FFF709FC00BF0837BD4607
:103F300080BD00BF1A010020180100201C010020D4
:103F4000200100201E0100202201002080B483B047
:103F500000AF0346FB80094B1B6800225A6200BF7A
:103F6000064B1B685A6AFB889A42F9D300BF00BF10
:103F70000C37BD465DF8047B704700BF0C0700207E
:103F800080B500AF174B184A1A60164B4FF4827277
:103F90005A60144B00229A60124B0022DA60114BD7
:103FA00000221A610F4B00225A610E4B4FF400722F
:103FB0009A610C4B0022DA610A4B00221A62094B0B
:103FC00000225A62074B00229A62064B0A22DA62EA
:103FD000044804F0FDF90346002B01D0FFF750FD23
:103FE00000BF80BD6C0600200030014080B483B06B
:103FF00000AF00237B60104B5B6C0F4A43F480439F
:1040000053640D4B5B6C03F480437B607B6800233F
:104010003B60094B1B6C084A43F080531364064B0A
:104020001B6C03F080533B603B6800BF0C37BD4600
:104030005DF8047B704700BF0038024080B58AB04D
:1040400000AF786007F1140300221A605A609A608A
:10405000DA601A617B681B683C4A934271D1002385
:104060003B613B4B5B6C3A4A43F480735364384B7F
:104070005B6C03F480733B613B690023FB60344B52
:104080001B6B334A43F004031363314B1B6B03F088
:104090000403FB60FB680023BB602D4B1B6B2C4AA9
:1040A00043F0020313632A4B1B6B03F00203BB6054
:1040B000BB6807237B610323BB610023FB6107F11E
:1040C00014031946234802F067FB03237B61032393
:1040D000BB610023FB6107F1140319461E4802F07F
:1040E0005BFB1E4B1E4A1A601C4B00225A601B4B86
:1040F00000229A60194B0022DA60184B4FF480625C
:104100001A61164B4FF400625A61144B4FF400527F
:104110009A61124B4FF48072DA61104B00221A62DE
:104120000E4B00225A620D4801F0BAFF0346002BE5
:1041300001D0FFF7A5FC7B68084A9A63074A7B68B1
:10414000936300BF2837BD4680BD00BF00200140FB
:104150000038024000080240000402400C06002023
:104160001064024080B58AB000AF786007F1140394
:1041700000221A605A609A60DA601A617B681B68D4
:10418000194A93422BD100233B61184B1B6B174AF2
:1041900043F002031363154B1B6B03F002033B61F7
:1041A0003B69C0237B611223BB610023FB610323B6
:1041B0003B6204237B6207F1140319460C4802F0AA
:1041C000EBFA0023FB60094B1B6C084A43F4001315
:1041D0001364064B1B6C03F40013FB60FB6800BF09
:1041E0002837BD4680BD00BF005400400038024063
:1041F0000004024080B58AB000AF786007F1140374
:1042000000221A605A609A60DA601A617B681B6843
:10421000194A93422BD100233B61184B5B6C174A20
:1042200043F480535364154B5B6C03F480533B6140
:104230003B690023FB60114B1B6B104A43F00203E8
:1042400013630E4B1B6B03F00203FB60FB68382308
:104250007B610223BB610023FB6103233B620523D7
:104260007B6207F114031946054802F095FA00BF76
:104270002837BD4680BD00BF0030014000380240F5
:104280000004024080B586B000AF78607B681B6890
:10429000224A93420ED100237B61214B5B6C204A62
:1042A00043F0010353641E4B5B6C03F001037B611D
:1042B0007B692EE07B681B68B3F1804F16D1002329
:1042C0003B61174B1B6C164A43F001031364144BFC
:1042D0001B6C03F001033B613B69002200211C20A1
:1042E00001F0A7FE1C2001F0C0FE12E07B681B68F5
:1042F0000C4A93420DD10023FB60094B1B6C084A0A
:1043000043F080031364064B1B6C03F08003FB60D7
:10431000FB6800BF1837BD4680BD00BF00000140EC
:1043200000380240001C004080B588B000AF7860C3
:1043300007F10C0300221A605A609A60DA601A6171
:104340007B681B68124A93421ED10023BB60114B4D
:104350001B6B104A43F0200313630E4B1B6B03F0DF
:104360002003BB60BB684FF48073FB6002233B619A
:1043700000237B610023BB610923FB6107F10C0370
:104380001946054802F008FA00BF2037BD4680BD37
:10439000001C0040003802400014024080B58CB080
:1043A00000AF786007F11C0300221A605A609A601F
:1043B000DA601A617B681B683A4A934235D1002360
:1043C000BB61394B5B6C384A43F010035364364B86
:1043D0005B6C03F01003BB61BB6900237B61324B54
:1043E0001B6B314A43F0010313632F4B1B6B03F02C
:1043F00001037B617B694FF4C063FB6102233B6275
:1044000000237B620323BB620723FB6207F11C03CB
:104410001946264802F0C0F900220021252001F0AB
:1044200008FE252001F021FE38E07B681B68204A49
:10443000934233D100233B611B4B1B6C1A4A43F45C
:1044400000331364184B1B6C03F400333B613B696E
:104450000023FB60144B1B6B134A43F001031363EF
:10446000114B1B6B03F00103FB60FB680C23FB612A
:1044700002233B6200237B620323BB620723FB62B0
:1044800007F11C031946094802F086F900220021B1
:10449000262001F0CEFD262001F0E7FD00BF3037D9
:1044A000BD4680BD001001400038024000000240BF
:1044B0000044004080B586B000AF3B1D00221A606A
:1044C0005A609A60DA601A611C4B1B68002B31D16C
:1044D0001A4B01221A6000233B60194B9B6B184A50
:1044E00043F001039363164B9B6B03F001033B60A6
:1044F0003B684FF688737B600223BB600023FB6040
:1045000003233B610C237B613B1D19460D4802F0E0
:1045100043F94CF2B3737B600223BB600023FB6062
:1045200003233B610C237B613B1D1946064802F0C7
:1045300033F900E000BF1837BD4680BD24010020DC
:104540000038024000100240000C024080B582B0EA
:1045500000AF7860FFF7AEFF00BF0837BD4680BDF3
:1045600080B400AFFEE780B400AFFEE780B400AFD8
:10457000FEE780B400AFFEE780B400AFFEE780B492
:1045800000AF00BFBD465DF8047B704780B400AF4C
:1045900000BFBD465DF8047B704780B400AF00BF2C
:1045A000BD465DF8047B704780B500AF01F0C0F9EF
:1045B00000BF80BD80B500AF024804F076FE00BFAA
:1045C00080BD00BF5407002080B500AF024805F051
:1045D000B1FD00BF80BD00BF9C07002080B500AFCB
:1045E000024805F0A7FD00BF80BD00BFE007002026
:1045F00080B500AF024801F093FE00BF80BD00BF50
:104600000C06002080B400AF01231846BD465DF8BB
:10461000047B704780B582B000AF7860396006F0E7
:1046200011FD034616221A604FF0FF331846083773
:10463000BD4680BD80B582B000AF78604FF0FF31DD
:104640007868FFF7E7FFFEE780B586B000AFF86057
:10465000B9607A6000237B610AE0AFF30080014615
:10466000BB685A1CBA60CAB21A707B6901337B619D
:104670007A697B689A42F0DB7B6818461837BD463A
:1046800080BD80B586B000AFF860B9607A60002365
:104690007B6109E0BB685A1CBA601B781846AFF30F
:1046A00000807B6901337B617A697B689A42F1DB28
:1046B0007B6818461837BD4680BD80B483B000AF14
:1046C00078604FF0FF3318460C37BD465DF8047B29
:1046D000704780B483B000AF786039603B684FF4B6
:1046E00000525A60002318460C37BD465DF8047B23
:1046F000704780B483B000AF7860012318460C3750
:10470000BD465DF8047B704780B485B000AFF860AB
:10471000B9607A60002318461437BD465DF8047B03
:104720007047000080B586B000AF7860144A154B22
:10473000D31A7B617B693B61134B1B68002B02D151
:10474000114B124A1A60104B1A687B6813443A697D
:104750009A4207D206F076FC03460C221A604FF00C
:10476000FF3309E0084B1B68FB60074B1A687B6846
:104770001344054A1360FB6818461837BD4680BDD0
:10478000000002200004000028010020380800205A
:1047900080B400AF064BD3F88830054A43F4700369
:1047A000C2F8883000BFBD465DF8047B704700BF8B
:1047B00000ED00E080B586B000AF07F108030022ED
:1047C0001A605A609A60DA603B4600221A605A60AA
:1047D0001E4B1F4A1A601D4B53225A601B4B00226E
:1047E0009A601A4B4FF6FF72DA60184B00221A617A
:1047F000164B00225A61154B00229A61134804F0AF
:10480000D3FB0346002B01D0FFF73AF94FF4805356
:10481000BB6007F1080319460C4804F011FF03467A
:10482000002B01D0FFF72CF900233B6000237B60B5
:104830003B461946054805F0DDFA0346002B01D03A
:10484000FFF71EF900BF1837BD4680BD0C070020DA
:104850000000014080B586B000AF07F108030022D8
:104860001A605A609A60DA603B4600221A605A6009
:104870001D4B4FF080421A601B4B40F247325A608A
:10488000194B00229A60184B6322DA60164B002203
:104890001A61154B00229A61134804F085FB034608
:1048A000002B01D0FFF7ECF84FF48053BB6007F109
:1048B000080319460C4804F0C3FE0346002B01D040
:1048C000FFF7DEF800233B6000237B603B46194680
:1048D000054805F08FFA0346002B01D0FFF7D0F80A
:1048E00000BF1837BD4680BD5407002080B588B092
:1048F00000AF3B1D00221A605A609A60DA601A61AC
:104900005A619A611E4B1F4A1A601D4B40F2473292
:104910005A601B4B00229A60194B6322DA60184BD5
:1049200000221A61164B00229A61154804F03CFBE4
:104930000346002B01D0FFF7A3F8114804F05CFCFC
:104940000346002B01D0FFF79BF860237B60002318
:10495000BB600023FB6000237B613B1D00221946E6
:10496000074804F0ABFD0346002B01D0FFF788F8A1
:104970000348FFF7D9FC00BF2037BD4680BD00BF0C
:10498000C4060020001C004080B584B000AF034680
:10499000FB710023FB730023FB7325E097F90730BD
:1049A000002B06DA01224FF40071134802F0A8F838
:1049B00005E000224FF400710F4802F0A1F8FB79E6
:1049C0005B00FB7100224FF480710C4802F098F8F4
:1049D0000120FFF7BBFA01224FF48071074802F073
:1049E0008FF8FB7B0133FB73FB7B072BD6D900BF12
:1049F00000BF1037BD4680BD0008024000180240CD
:104A000080B584B000AF0346FB710023FB73002325
:104A1000BB8100224FF480712F4802F071F8002210
:104A20004FF400712D4802F06BF8002280212A48D3
:104A300002F066F8FB791846FFF7A6FF0620FFF79D
:104A400085FA00224FF48071234802F059F80120C2
:104A5000FFF77CFA01224FF480711F4802F050F8F2
:104A60000120FFF773FA00224FF480711A4802F018
:104A700047F80023FB731FE0BB895B00BB8100226A
:104A80004FF48071144802F03BF80120FFF75EFA02
:104A900001224FF48071104802F032F84FF4805137
:104AA0000E4802F015F80346002B02D0BB890133F3
:104AB000BB81FB7B0133FB73FB7B0F2BDCD9BB89F9
:104AC0001B09BB8101228021034802F019F8BB8930
:104AD00018461037BD4680BD00180240000802404D
:104AE00090B589B000AF0346FB7100237B830023A0
:104AF000FB830FE0FC8BFB791846FFF781FF034631
:104B00001A46630007F120010B4423F8142CFB8B99
:104B10000133FB83FB8B042BECD90023FB833BE0AD
:104B2000FB8B0133BB8331E0FB8B5B0007F1200281
:104B3000134433F8142CBB8B5B0007F120010B44AA
:104B400033F8143C9A421ED9FB8B5B0007F120021C
:104B5000134433F8143C3B83BB8BFA8B5B0007F1A7
:104B600020010B4433F8141C530007F120021344B6
:104B70000A4623F8142CBB8B5B0007F12002134478
:104B80003A8B23F8142CBB8B0133BB83BB8B042BD8
:104B9000CAD9FB8B0133FB83FB8B032BC0D90023CA
:104BA0007B830123FB830CE0FB8B5B0007F120027E
:104BB000134433F8142C7B8B13447B83FB8B01331E
:104BC000FB83FB8B032BEFD97B8B054AA2FB0323D3
:104BD0005B083B833B8B18462437BD4690BD00BF26
:104BE000ABAAAAAA80B584B000AF786039600C4B3C
:104BF0001B781846FFF774FF0346FB81094B1B78AF
:104C00001846FFF76DFF0346BB817B68FA891A805F
:104C10003B68BA891A80012318461037BD4680BD0B
:104C20005C0000205D00002080B586B000AF786099
:104C3000396007F1120207F1140311461846FFF715
:104C4000D1FF0346FB75FB7D002B01D1002349E01A
:104C500007F10E0207F1100311461846FFF7C2FFD5
:104C60000346FB75FB7D002B01D100233AE03A8A15
:104C7000BB8A9A4204D83B8A6333BA8A934208DAE1
:104C8000BA8A3B8A9A422CD8BB8A63333A8A9342C7
:104C900027DBFA897B8A9A4204D8FB8963337A8AB4
:104CA000934208DA7A8AFB899A421AD87B8A63335C
:104CB000FA89934215DBBB8A1A463B8A1344DA0F02
:104CC00013445B109AB27B681A807B8A1A46FB8970
:104CD0001344DA0F13445B109AB23B681A80012325
:104CE00000E0002318461837BD4680BD90B585B05A
:104CF00002AF0346FB800B46BB8013467B80FB88DC
:104D00000C3B98B2FB880D339AB2BC88B9887B887B
:104D100000932346FDF7ABFFBB880C3B99B2BB88E1
:104D20000D339CB2FA88F8887B8800932346FDF700
:104D30009EFFFB88013398B2BB8801339BB27A880F
:104D40001946FDF77DFFFB88013B98B2BB88013314
:104D50009BB27A881946FDF773FFFB88013398B23E
:104D6000BB88013B9BB27A881946FDF769FFFB8837
:104D7000013B98B2BB88013B9BB27A881946FDF78C
:104D80005FFFF888B9887A88002300930623FEF72E
:104D9000F8FB00BF0C37BD4690BD000080B582B067
:104DA00000AF0346FB714FF48071434801F090FE61
:104DB0000346002B57D1FB79002B04D03F494048D4
:104DC000FFF732FF3CE03D493D48FFF72DFF03462A
:104DD000002B35D03B4B93ED097A3A4B9B8907EE7C
:104DE000903AF8EEE77A27EE277A364BB3F92C3073
:104DF00007EE903AF8EEE77A77EE277AFCEEE77A5C
:104E000017EE903A9AB22F4B9A812E4B93ED0A7A75
:104E10002C4BDB8A07EE903AF8EEE77A27EE277AFA
:104E2000284BB3F92E3007EE903AF8EEE77A77EE9A
:104E3000277AFCEEE77A17EE903A9AB2214BDA82A3
:104E4000204B93F820305BB2002B2ADB1D4BC02295
:104E500083F820201B4B9A891A4B9A82194BDA8AC5
:104E6000184BDA831DE0174B93F820305BB2002B10
:104E700009DA144B93F8203003F07F03DAB2114BB8
:104E800083F820200DE00F4B00229A820D4B002268
:104E9000DA830C4B4FF6FF729A810A4B4FF6FF7282
:104EA000DA82084B93F8203023F07F03DBB21846F8
:104EB0000837BD4680BD00BF000802403E0000200C
:104EC000340000202800002080B500AF0E220549E4
:104ED0000020FCF759F900210E20FCF7F5F800BF7F
:104EE00080BD00BF4C00002080B582B000AF002321
:104EF000FB710E20FCF7CCF80346FB71FB79002B0D
:104F000006D10E2205490020FCF71FF9012300E01D
:104F1000002318460837BD4680BD00BF4C00002066
:104F200080B58EB004AF002387F82730002387F8C0
:104F30002730614B1A88604B5B884FF6FF710091F8
:104F400000210020FDF746FE002302931023019369
:104F50004FF6FF7300934FF47843584A28210520F9
:104F6000FEF77CFB00230293102301934FF6FF739F
:104F700000934FF47843524A41210520FEF76EFB1F
:104F800000230293102301934FF6FF7300934FF415
:104F900078434C4A5A210520FEF760FB4FF47842D3
:104FA00014211420FFF7A2FE474B002283F8202093
:104FB000454B4FF000025A62322000F0D9FC424BC0
:104FC0005B6801209847404B93F8203003F0C00302
:104FD000402B40F05E833C4B93F8203023F040039D
:104FE000DAB2394B83F8202097F82730364A928975
:104FF0009B0007F128010B4423F8282C97F8273051
:10500000314AD28A9B0007F128010B4423F8262C51
:1050100097F82730013387F8273097F82730013B7E
:10502000032BC9D801A252F823F000BF3D5000085D
:105030005F50000889500008CD5000084FF6FF72FD
:1050400014211420FFF752FE1B4B1B88143B9BB20C
:105050004FF4784214211846FFF748FE1AE3164B26
:105060001B88143B9BB24FF6FF7214211846FFF7C2
:105070003DFE114B5B88143B9BB24FF478421946BE
:105080001420FFF733FE05E30B4B5B88143B9BB208
:105090004FF6FF7219461420FFF728FE064B1B88B7
:1050A000143B98B2044B5B88143B9BB24FF478429C
:1050B0001946FFF71BFEEDE2D0050020C8D100081D
:1050C000E4D10008FCD10008280000203B881A46E3
:1050D000BB88D31A002BB8BF5B423B627B881A4661
:1050E000FB88D31A002BB8BF5B42FB613B6A03FB12
:1050F00003F33B62FB6903FB03F3FB613A6AFB6961
:1051000013441846FBF7F6F902460B4643EC102B06
:1051100007F0D6F853EC102B10461946FBF73CFD70
:1051200003467B833B891A46BB89D31A002BB8BF41
:105130005B423B627B891A46FB89D31A002BB8BFBE
:105140005B42FB613B6A03FB03F33B62FB6903FBCE
:1051500003F3FB613A6AFB6913441846FBF7CAF98B
:1051600002460B4643EC102B07F0AAF853EC102B29
:1051700010461946FBF710FD03463B837B8B07EE79
:10518000903AB8EE677A3B8B07EE903AF8EEE77A02
:10519000C7EE276A16EE900AFBF7CEF902460B46D9
:1051A000C7E9042384A3D3E90023D7E90401FBF76B
:1051B0008DFC0346002B0FD181A3D3E90023D7E94F
:1051C0000401FBF7A1FC0346002B05D17B8B002BD0
:1051D00002D03B8B002B36D1002387F827307A4B47
:1051E0001B88143B98B2784B5B88143B9BB24FF6FC
:1051F000FF721946FFF77AFD4FF47842142114200C
:10520000FFF774FD00230293102301934FF6FF7301
:1052100000934FF478436D4A28210520FEF71EFACB
:1052200000230293102301934FF6FF7300934FF472
:105230007843674A3C210520FEF710FA4FF47A7054
:1052400000F096FB26E23B881A463B89D31A002BD6
:10525000B8BF5B423B627B881A467B89D31A002B1E
:10526000B8BF5B42FB613B6A03FB03F33B62FB6934
:1052700003FB03F3FB613A6AFB6913441846FBF72F
:1052800039F902460B4643EC102B07F019F853ECA2
:10529000102B10461946FBF77FFC03467B83BB8827
:1052A0001A46BB89D31A002BB8BF5B423B62FB880E
:1052B0001A46FB89D31A002BB8BF5B42FB613B6ADD
:1052C00003FB03F33B62FB6903FB03F3FB613A6AF5
:1052D000FB6913441846FBF70DF902460B4643ECF5
:1052E000102B06F0EDFF53EC102B10461946FBF780
:1052F00053FC03463B837B8B07EE903AB8EE677A0C
:105300003B8B07EE903AF8EEE77AC7EE276A16EE87
:10531000900AFBF711F902460B46C7E9042326A3BE
:10532000D3E90023D7E90401FBF7D0FB0346002BA8
:1053300009D123A3D3E90023D7E90401FBF7E4FB58
:105340000346002B46D0002387F827301E4B1B88CE
:10535000143B98B21C4B5B88143B9BB24FF6FF7218
:105360001946FFF7C3FC4FF4784214211420FFF7CD
:10537000BDFC00230293102301934FF6FF730093AB
:105380004FF47843114A28210520FEF767F90023DE
:105390000293102301934FF6FF7300934FF4784369
:1053A0000B4A3C210520FEF759F94FF47A7000F0C2
:1053B000DFFA6FE1AFF30080666666666666EE3F11
:1053C000CDCCCCCCCCCCF03FD005002010D2000806
:1053D00030D20008BB881A463B89D31A002BB8BFCD
:1053E0005B423B62FB881A467B89D31A002BB8BF0D
:1053F0005B42FB613B6A03FB03F33B62FB6903FB1C
:1054000003F3FB613A6AFB6913441846FBF772F831
:1054100002460B4643EC102B06F052FF53EC102BC8
:1054200010461946FBF7B8FB03467B833B881A46B8
:10543000BB89D31A002BB8BF5B423B627B881A46FC
:10544000FB89D31A002BB8BF5B42FB613B6A03FBAD
:1054500003F33B62FB6903FB03F3FB613A6AFB69FD
:1054600013441846FBF746F802460B4643EC102B54
:1054700006F026FF53EC102B10461946FBF78CFB69
:1054800003463B837B8B07EE903AB8EE677A3B8B03
:1054900007EE903AF8EEE77AC7EE276A16EE900A22
:1054A000FBF74AF802460B46C7E9042383A3D3E976
:1054B0000023D7E90401FBF709FB0346002B09D1C0
:1054C00080A3D3E90023D7E90401FBF71DFB0346C2
:1054D000002B36D0002387F82730714B1B88143BF4
:1054E00098B26F4B5B88143B9BB24FF6FF72194624
:1054F000FFF7FCFB4FF4784214211420FFF7F6FB72
:1055000000230293102301934FF6FF7300934FF48F
:105510007843644A28210520FEF7A0F8002302936F
:10552000102301934FF6FF7300934FF478435E4AC4
:105530003C210520FEF792F84FF47A7000F018FA3B
:10554000A8E0574B1B88283B07EE903AF8EEE76A35
:10555000BB881A463B88D31A07EE903AB8EEE77A32
:10556000C6EE877A514BC3ED097A4D4B1B8807EE87
:10557000903AB8EEE77A4D4BD3ED096ABB881A46EC
:105580003B88134407EE903AF8EEE77A66EEA77A86
:1055900037EE677AF0EE006AC7EE267AFDEEE77A1C
:1055A00017EE903A1AB2414B9A853D4B5B88283BE7
:1055B00007EE903AF8EEE76A7B891A467B88D31AA1
:1055C00007EE903AB8EEE77AC6EE877A374BC3ED2E
:1055D0000A7A334B5B8807EE903AB8EEE77A334BA2
:1055E000D3ED0A6A7B891A467B88134407EE903A0A
:1055F000F8EEE77A66EEA77A37EE677AF0EE006AA1
:10560000C7EE267AFDEEE77A17EE903A1AB2274BEC
:10561000DA85234B1B88143B98B2214B5B88143BE3
:105620009BB24FF6FF721946FFF760FB002302930F
:10563000102301934FF6FF7300934FF478431C4AF5
:1056400028210520FEF70AF8002302931023019376
:105650004FF6FF7300934FF47843164A3C21052020
:10566000FDF7FCFF4FF47A7000F082F900230293FB
:10567000102301934FF6FF7300934FF478430E4AC3
:1056800028210520FDF7EAFFFFF71EFCFFF72CFCA1
:1056900001E000BF90E42837BD4680BDAFF3008035
:1056A000D005002010D2000830D2000828000020C9
:1056B00050D2000870D2000890D200086666666674
:1056C0006666EE3FCDCCCCCCCCCCF03F80B500AF05
:1056D00004490548FFF786FAFBF7D4FCFFF704FC02
:1056E00000BF80BD3E0000203400002080B500AF28
:1056F000024B5B680020984700BF80BD2800002057
:1057000080B500AF4FF48071054801F0E1F9034620
:10571000002B0CBF01230023DBB2184680BD00BF65
:105720000008024080B400AF034B9B891846BD4679
:105730005DF8047B704700BF2800002080B400AFF4
:10574000034BDB8A1846BD465DF8047B704700BFFB
:105750002800002080B582B000AF78607B681B68AD
:10576000084A93420AD10A2301220749074804F054
:105770001EFC01220449054804F0ABFC00BF0837B9
:10578000BD4680BD001001402C0100209C07002078
:1057900080B500AF114B124A1A60104B4FF4E13242
:1057A0005A600E4B00229A600C4B0022DA600B4BC1
:1057B00000221A61094B0C225A61084B00229A619F
:1057C000064B0022DA61054804F0A4FB0346002BD7
:1057D00001D0FEF755F900BF80BD00BF9C07002037
:1057E0000010014080B500AF114B124A1A60104BF7
:1057F0004FF4E1325A600E4B00229A600C4B0022AB
:10580000DA600B4B00221A61094B0C225A61084BDB
:1058100000229A61064B0022DA61054804F07AFB07
:105820000346002B01D0FEF72BF900BF80BD00BF5F
:10583000E007002000440040DFF834D00D480E4956
:105840000E4A002302E0D458C4500433C4188C42DA
:10585000F9D30B4A0B4C002301E013600432A2423F
:10586000FBD3FEF795FF05F0F3FBFEF717F8704743
:105870000000022000000020D000002008140F08C3
:10588000D000002038080020FEE7000080B500AFFF
:105890000E4B1B680D4A43F4007313600B4B1B68DF
:1058A0000A4A43F480631360084B1B68074A43F4B9
:1058B00080731360032000F0B1FB0F2000F008F8A4
:1058C000FEF794FB0023184680BD00BF003C024059
:1058D00080B582B000AF7860124B1A68124B1B780B
:1058E00019464FF47A73B3FBF1F3B2FBF3F31846A6
:1058F00000F0C9FB0346002B01D001230EE07B68BA
:105900000F2B0AD8002279684FF0FF3000F091FB8E
:10591000064A7B681360002300E00123184608371D
:10592000BD4680BD240000206400002060000020EF
:1059300080B400AF064B1B781A46064B1B68134415
:10594000044A136000BFBD465DF8047B704700BF8A
:10595000640000202408002080B400AF034B1B68C3
:105960001846BD465DF8047B704700BF2408002040
:1059700080B584B000AF7860FFF7EEFFB8607B6859
:10598000FB60FB68B3F1FF3F05D00A4B1B781A465A
:10599000FB681344FB6000BFFFF7DEFF0246BB68F5
:1059A000D31AFA689A42F7D800BF00BF1037BD4635
:1059B00080BD00BF6400002080B584B000AF786077
:1059C0000023FB737B68002B01D1012333E07B684C
:1059D0001B6C002B09D17868FEF730FB7B68002236
:1059E0005A647B68002283F83C207B681B6C03F0C0
:1059F0001003002B18D17B681B6C23F4885323F011
:105A0000020343F002027B681A64786800F03AF9F6
:105A10007B6800225A647B681B6C23F0030343F00D
:105A200001027B681A6401E00123FB737B6800229A
:105A300083F83C20FB7B18461037BD4680BD000034
:105A400080B485B000AF786039600023BB607B68AC
:105A500093F83C30012B01D1022305E17B68012240
:105A600083F83C203B681B68092B25D97B681B68A1
:105A7000D9683B681B689BB21A4613465B00134407
:105A80001E3B072202FA03F3DA437B681B680A40D5
:105A9000DA607B681B68D9683B689A683B681B685A
:105AA0009BB2184603465B0003441E3B9A407B684A
:105AB0001B680A43DA6022E07B681B6819693B684F
:105AC0001B689BB21A4613465B001344072202FA76
:105AD00003F3DA437B681B680A401A617B681B6822
