:020000040800F2
:10000000000002208D6A0008D5550008DB55000865
:10001000E1550008E7550008ED5500080000000014
:10002000000000000000000000000000F355000880
:1000300001560008000000000F5600081D56000879
:10004000DD6A0008DD6A0008DD6A0008DD6A000874
:10005000DD6A0008DD6A0008DD6A0008DD6A000864
:10006000DD6A0008DD6A0008DD6A0008DD6A000854
:10007000DD6A0008DD6A0008DD6A0008DD6A000844
:10008000DD6A0008DD6A0008DD6A0008DD6A000834
:10009000DD6A0008DD6A0008DD6A0008DD6A000824
:1000A000DD6A0008DD6A0008DD6A0008DD6A000814
:1000B00029560008DD6A0008DD6A0008DD6A0008CC
:1000C000DD6A0008DD6A0008DD6A0008DD6A0008F4
:1000D000DD6A00083D56000851560008DD6A000838
:1000E000DD6A0008DD6A0008DD6A0008DD6A0008D4
:1000F000DD6A0008DD6A0008DD6A0008DD6A0008C4
:10010000DD6A0008DD6A0008DD6A0008DD6A0008B3
:10011000DD6A0008DD6A0008DD6A0008DD6A0008A3
:1001200065560008DD6A0008DD6A0008DD6A00081F
:10013000DD6A0008DD6A0008DD6A0008DD6A000883
:10014000DD6A0008DD6A0008DD6A0008DD6A000873
:10015000DD6A0008DD6A0008DD6A0008DD6A000863
:10016000DD6A0008DD6A0008DD6A0008DD6A000853
:10017000DD6A0008DD6A0008DD6A00080000000092
:08018000DD6A0008DD6A0008D9
:1001900010B5054C237833B9044B13B10448AFF3C1
:1001A00000800123237010BD140100200000000016
:1001B000D4E7000808B5034B1BB103490348AFF36C
:1001C000008008BD0000000018010020D4E70008EE
:1001D000034613F8012B002AFBD1181A0138704787
:1001E00001F0FF01102A2BDB10F0070F08D010F8E8
:1001F000013B013A8B422DD010F0070F42B3F6D1EC
:10020000F0B441EA012141EA014122F007047FF004
:1002100000070023F0E80256083C85EA010586EA5B
:10022000010685FA47F5A3FA87F586FA47F6A5FA97
:1002300087F68EB9EED1F0BC01F0FF0102F00702A3
:1002400032B110F8013B013A83EA010313B1F8D14E
:100250000020704701387047002D06BF354603382F
:10026000073815F0010F07D1013015F4807F02BF68
:10027000013015F4C03F0130F0BC0138704700BFB9
:1002800081F0004102E000BF83F0004330B54FEA47
:1002900041044FEA430594EA050F08BF90EA020FB4
:1002A0001FBF54EA000C55EA020C7FEA645C7FEA47
:1002B000655C00F0E2804FEA5454D4EB5555B8BF6A
:1002C0006D420CDD2C4480EA020281EA030382EADB
:1002D000000083EA010180EA020281EA0303362D6D
:1002E00088BF30BD11F0004F4FEA01314FF4801C40
:1002F0004CEA113102D0404261EB410113F0004F52
:100300004FEA03334CEA133302D0524263EB430308
:1003100094EA050F00F0A780A4F10104D5F1200EA6
:100320000DDB02FA0EFC22FA05F2801841F1000101
:1003300003FA0EF2801843FA05F359410EE0A5F1D5
:1003400020050EF1200E012A03FA0EFC28BF4CF006
:10035000020C43FA05F3C01851EBE37101F00045BC
:1003600007D54FF0000EDCF1000C7EEB00006EEBC9
:100370000101B1F5801F1BD3B1F5001F0CD3490853
:100380005FEA30004FEA3C0C04F101044FEA4452AA
:1003900012F5800F80F09A80BCF1004F08BF5FEA31
:1003A000500C50F1000041EB045141EA050130BD11
:1003B0005FEA4C0C404141EB0101013C28BFB1F523
:1003C000801FE9D291F0000F04BF01460020B1FA6E
:1003D00081F308BF2033A3F10B03B3F120020CDA41
:1003E0000C3208DD02F1140CC2F10C0201FA0CF01F
:1003F00021FA02F10CE002F11402D8BFC2F1200C84
:1004000001FA02F120FA0CFCDCBF41EA0C01904039
:10041000E41AA2BF01EB0451294330BD6FEA040482
:100420001F3C1CDA0C340EDC04F11404C4F120026D
:1004300020FA04F001FA02F340EA030021FA04F37F
:1004400045EA030130BDC4F10C04C4F1200220FAD6
:1004500002F001FA04F340EA0300294630BD21FA14
:1004600004F0294630BD94F0000F83F4801306BFDA
:1004700081F480110134013D4EE77FEA645C18BFCE
:100480007FEA655C29D094EA050F08BF90EA020F65
:1004900005D054EA000C04BF1946104630BD91EA5D
:1004A000030F1EBF0021002030BD5FEA545C05D160
:1004B0004000494128BF41F0004130BD14F580049F
:1004C0003CBF01F5801130BD01F0004545F0FE4113
:1004D00041F470014FF0000030BD7FEA645C1ABF48
:1004E000194610467FEA655C1CBF0B46024650EA7F
:1004F000013406BF52EA033591EA030F41F40021AB
:1005000030BD00BF90F0000F04BF0021704730B530
:100510004FF4806404F132044FF000054FF0000105
:1005200050E700BF90F0000F04BF0021704730B5C6
:100530004FF4806404F1320410F0004548BF40429B
:100540004FF000013EE700BF42004FEAE2014FEAF0
:1005500031014FEA02701FBF12F07F4393F07F4FCB
:1005600081F06051704732F07F4208BF704793F0CE
:100570007F4F04BF41F40021704730B54FF46074E1
:1005800001F0004521F000411CE700BF50EA0102E4
:1005900008BF704730B54FF000050AE050EA01028D
:1005A00008BF704730B511F0004502D5404261EBFD
:1005B00041014FF4806404F132045FEA915C3FF43E
:1005C000D8AE4FF003025FEADC0C18BF03325FEADB
:1005D000DC0C18BF033202EBDC02C2F1200300FA8C
:1005E00003FC20FA02F001FA03FE40EA0E0021FAB1
:1005F00002F11444BDE600BF70B54FF0FF0C4CF49F
:10060000E06C1CEA11541DBF1CEA135594EA0C0F50
:1006100095EA0C0F00F0DEF82C4481EA030621EA8B
:100620004C5123EA4C5350EA013518BF52EA0335C6
:1006300041F4801143F4801338D0A0FB02CE4FF078
:100640000005E1FB02E506F00042E0FB03E54FF0A8
:100650000006E1FB03569CF0000F18BF4EF0010EA0
:10066000A4F1FF04B6F5007F64F5407404D25FEA9C
:100670004E0E6D4146EB060642EAC62141EA55514F
:100680004FEAC52040EA5E504FEACE2EB4F1FD0C91
:1006900088BFBCF5E06F1ED8BEF1004F08BF5FEA0F
:1006A000500E50F1000041EB045170BD06F00046C1
:1006B00046EA010140EA020081EA0301B4EB5C046E
:1006C000C2BFD4EB0C0541EA045170BD41F4801166
:1006D0004FF0000E013C00F3AB8014F1360FDEBF8B
:1006E000002001F0004170BDC4F10004203C35DA67
:1006F0000C341BDC04F11404C4F1200500FA05F3EA
:1007000020FA04F001FA05F240EA020001F000428A
:1007100021F0004110EBD37021FA04F642EB060100
:100720005EEA430E08BF20EAD37070BDC4F10C042A
:10073000C4F1200500FA04F320FA05F001FA04F2EE
:1007400040EA020001F0004110EBD37041F10001DA
:100750005EEA430E08BF20EAD37070BDC4F12005E5
:1007600000FA05F24EEA020E20FA04F301FA05F24D
:1007700043EA020321FA04F001F0004121FA04F2F5
:1007800020EA020000EBD3705EEA430E08BF20EAC5
:10079000D37070BD94F0000F0FD101F000464000FF
:1007A00041EB010111F4801F08BF013CF7D041EA81
:1007B000060195F0000F18BF704703F00046520085
:1007C00043EB030313F4801F08BF013DF7D043EA56
:1007D0000603704794EA0C0F0CEA135518BF95EA0C
:1007E0000C0F0CD050EA410618BF52EA4306D1D193
:1007F00081EA030101F000414FF0000070BD50EAB2
:10080000410606BF1046194652EA430619D094EA3B
:100810000C0F02D150EA013613D195EA0C0F05D125
:1008200052EA03361CBF104619460AD181EA030179
:1008300001F0004141F0FE4141F470014FF0000031
:1008400070BD41F0FE4141F4780170BD70B54FF0CC
:10085000FF0C4CF4E06C1CEA11541DBF1CEA13554C
:1008600094EA0C0F95EA0C0F00F0A7F8A4EB05042E
:1008700081EA030E52EA03354FEA013100F0888025
:100880004FEA03334FF0805545EA131343EA1263EE
:100890004FEA022245EA111545EA10654FEA0026A3
:1008A0000EF000419D4208BF964244F1FD0404F55C
:1008B000407402D25B084FEA3202B61A65EB0305B8
:1008C0005B084FEA32024FF480104FF4002CB6EB75
:1008D000020E75EB030E22BFB61A754640EA0C00F5
:1008E0005B084FEA3202B6EB020E75EB030E22BF35
:1008F000B61A754640EA5C005B084FEA3202B6EB76
:10090000020E75EB030E22BFB61A754640EA9C0034
:100910005B084FEA3202B6EB020E75EB030E22BF04
:10092000B61A754640EADC0055EA060E18D04FEAC2
:10093000051545EA16754FEA06164FEAC30343EA62
:1009400052734FEAC2025FEA1C1CC0D111F4801F2F
:100950000BD141EA00014FF000004FF0004CB6E728
:1009600011F4801F04BF01430020B4F1FD0C88BFC7
:10097000BCF5E06F3FF6AFAEB5EB030C04BFB6EBD2
:10098000020C5FEA500C50F1000041EB045170BDC5
:100990000EF0004E4EEA113114EB5C04C2BFD4EBF2
:1009A0000C0541EA045170BD41F480114FF0000E76
:1009B000013C90E645EA060E8DE60CEA135594EAF2
:1009C0000C0F08BF95EA0C0F3FF43BAF94EA0C0FF5
:1009D0000AD150EA01347FF434AF95EA0C0F7FF46A
:1009E00025AF104619462CE795EA0C0F06D152EABE
:1009F00003353FF4FDAE1046194622E750EA4106A2
:100A000018BF52EA43067FF4C5AE50EA41047FF4B2
:100A10000DAF52EA43057FF4EBAE12E74FF0FF3C17
:100A200006E000BF4FF0010C02E000BF4FF0010CE8
:100A30004DF804CD4FEA410C7FEA6C5C4FEA430C61
:100A400018BF7FEA6C5C1BD001B050EA410C0CBFB0
:100A500052EA430C91EA030F02BF90EA020F002012
:100A6000704710F1000F91EA030F58BF994208BF79
:100A700090422CBFD8176FEAE37040F00100704736
:100A80004FEA410C7FEA6C5C02D150EA013C07D18D
:100A90004FEA430C7FEA6C5CD6D152EA033CD3D0D8
:100AA0005DF8040B704700BF8446104662468C46D2
:100AB0001946634600E000BF01B5FFF7B7FF002805
:100AC00048BF10F1000F01BD4DF808EDFFF7F4FF2E
:100AD0000CBF012000205DF808FB00BF4DF808EDB9
:100AE000FFF7EAFF34BF012000205DF808FB00BFDC
:100AF0004DF808EDFFF7E0FF94BF012000205DF8FE
:100B000008FB00BF4DF808EDFFF7CEFF94BF0120B2
:100B100000205DF808FB00BF4DF808EDFFF7C4FFAB
:100B200034BF012000205DF808FB00BF4FEA410CF4
:100B30007FEA6C5C02D150EA013C0AD14FEA430CD7
:100B40007FEA6C5C02D152EA033C02D14FF0000014
:100B500070474FF0010070474FEA410212F5001252
:100B600015D211D56FF47873B3EB625212D94FEAF4
:100B7000C12343F0004343EA505311F0004F23FADE
:100B800002F018BF404270474FF00000704750EA33
:100B9000013005D111F0004008BF6FF000407047F0
:100BA0004FF00000704700BF4A0011D212F500124A
:100BB00011D20DD56FF47873B3EB62520ED44FEAB5
:100BC000C12343F0004343EA505323FA02F0704735
:100BD0004FF00000704750EA013002D14FF0FF3073
:100BE00070474FF0000070474FEA4102B2F1E04316
:100BF00024BFB3F5001CDCF1FE5C0DD901F0004C04
:100C00004FEAC0024CEA5070B2F1004F40EB830053
:100C100008BF20F00100704711F0804F21D113F17F
:100C20003872BCBF01F00040704741F480114FEAB8
:100C30005252C2F11802C2F1200C10FA0CF320FA41
:100C400002F018BF40F001004FEAC1234FEAD3235E
:100C500003FA0CFC40EA0C0023FA02F34FEA4303C8
:100C6000CCE77FEA625307D150EA01331EBF4FF051
:100C7000FE4040F44000704701F0004040F0FE406C
:100C800040F40000704700BF53B94AB9002908BFBB
:100C900000281CBF4FF0FF314FF0FF3000F06EB95D
:100CA000ADF1080C6DE904CE00F006F8DDF804E0C3
:100CB000DDE9022304B070472DE9F047089D0446A2
:100CC0008C46002B40F083808A42174647D9B2FAFF
:100CD00082F242B1C2F1200024FA00F09140974024
:100CE00040EA010C94404FEA1748230CBCFBF8F68D
:100CF0001FFA87FE08FB16C143EA014306FB0EF10B
:100D0000994209D9FB1806F1FF3080F01981994208
:100D100040F21681023E3B445B1AA4B2B3FBF8F0EA
:100D200008FB103344EA034400FB0EFEA64509D934
:100D30003C1900F1FF3380F00581A64540F20281A5
:100D400002383C4440EA0640A4EB0E0400261DB1E4
:100D5000D4400023C5E900433146BDE8F08702B91D
:100D6000FFDEB2FA82F2002A50D1CB1B4FEA174EB7
:100D70001FFA87F80126B3FBFEFC210C0EFB1C3387
:100D800041EA034108FB0CF38B4207D979180CF1B7
:100D9000FF3002D28B4200F2E9808446C91AA3B226
:100DA000B1FBFEF00EFB101143EA014408FB00F812
:100DB000A04507D93C1900F1FF3302D2A04500F24B
:100DC000D9801846A4EB080440EA0C40BFE78B42E8
:100DD00009D9002D00F0B1800026C5E90001304698
:100DE0003146BDE8F087B3FA83F6002E4AD18B4234
:100DF00002D3824200F2B880841A61EB0301012021
:100E00008C46002DA8D0C5E9004CA5E7C2F120030F
:100E100020FA03F6974001FA02F04FEA174ED94044
:100E20003043030CB1FBFEF61FFA87F80EFB1611D8
:100E300043EA014306FB08F1994204FA02F409D996
:100E4000FB1806F1FF3C80F08D80994240F28A80C9
:100E5000023E3B445B1A81B2B3FBFEF00EFB103343
:100E600041EA034100FB08F38B4207D9791800F1EE
:100E7000FF3C73D28B4271D902383944CB1A40EA15
:100E8000064678E7C6F1200C03FA06F422FA0CF3C2
:100E90001C4320FA0CF701FA06F34FEA144E21FA2C
:100EA0000CF11F433B0CB1FBFEF91FFA84F80EFB5B
:100EB000191143EA014109FB08FA8A4502FA06F2D0
:100EC00000FA06F308D9611809F1FF3048D28A45C3
:100ED00046D9A9F102092144A1EB0A01BFB2B1FB35
:100EE000FEF00EFB101147EA014700FB08F8B84579
:100EF00007D9E71900F1FF312ED2B8452CD90238B5
:100F0000274440EA0940A7EB0807A0FB02894F45A8
:100F1000C64649461AD317D05DB1B3EB0E0267EB54
:100F2000010707FA0CFCF2404CEA0202F740C5E95F
:100F3000002700263146BDE8F0872E4628460BE7FD
:100F40000646E9E61846FDE64345E5D2B8EB020E53
:100F500069EB04010138DFE70846D2E760468DE718
:100F60008146B9E7664675E730464AE7ACF1020CC0
:100F7000394413E702383C4424E700BF704700BF00
:100F800080B584B000AF3B4600221A605A609A6078
:100F9000DA603D4B3D4A1A603B4B00225A603A4BA7
:100FA00000229A60384B01221A61374B00221A76D0
:100FB000354B002283F82020334B0022DA62324B7B
:100FC000334A9A62304B0022DA602F4B0522DA61F5
:100FD0002D4B002283F830202B4B01225A612A48E6
:100FE00005F014FE0346002B01D003F0C1FC0823DA
:100FF0003B6001237B600023BB603B4619462248CF
:1010000005F076FF0346002B01D003F0B1FC092365
:101010003B6002237B603B4619461B4805F068FF96
:101020000346002B01D003F0A3FC0A233B600323FB
:101030007B603B461946144805F05AFF0346002BD7
:1010400001D003F095FC0B233B6004237B603B46FF
:1010500019460D4805F04CFF0346002B01D003F064
:1010600087FC0C233B6005237B603B461946064802
:1010700005F03EFF0346002B01D003F079FC00BFD2
:101080001037BD4680BD00BFA801002000200140F0
:101090000100000F80B500AF00F03CF800BF80BD3C
:1010A00080B588B004AF0346FB800023FB73FA8849
:1010B0000A2302930123019307F10F0300931023E6
:1010C000A021044807F0D4FAFB7B18461037BD4630
:1010D00080BD00BF1403002080B586B004AF034676
:1010E0000A46FB8013467B71FA880A230293012388
:1010F00001937B1D00931023A021054807F0BEF942
:10110000052005F05FFD00BF0837BD4680BD00BF6C
:101110001403002080B582B000AF4FF6FF70FFF7D8
:10112000BFFF0346FB71FB79552B01D1002310E073
:1011300055214FF6FF70FFF7CFFF4FF6FF70FFF717
:10114000AFFF0346FB71FB79552B01D1002300E073
:10115000012318460837BD4680BD90B583B000AF67
:1011600003463960FB801346BB800DE0FB885A1CA8
:10117000FA803C68621C3A601846FFF791FF03460C
:101180002370BB88013BBB80BB88002BEED100BF26
:1011900000BF0C37BD4690BD80B582B000AF03469E
:1011A0003960FB801346BB800CE03B681A78FB88F3
:1011B00011461846FFF790FFFB880133FB803B6820
:1011C00001333B60BB885A1EBA80002BEDD100BFB3
:1011D00000BF0837BD4680BD80B500AF01220821A1
:1011E000024806F0EDFF00BF80BD00BF000C0240CA
:1011F00080B584B000AF002208212F4806F0E0FF40
:10120000012208212C4806F0DBFF0A2302222B4989
:101210002B4808F0E8FD0023FB604FF400437B817E
:1012200000237B603FE07B68002B06DB7B68032BA1
:1012300003DC7B680433FB6018E07B68032B07DD6D
:101240007B68072B04DC7B68C3F10703FB600DE0C0
:101250007B68072B06DD7B680B2B03DC7B68043384
:10126000FB6003E07B68C3F11703FB60134B1A8834
:101270007B8913409BB2002B05D0124AFB680021EA
:1012800022F8131009E00F4AFB6832F813300133DB
:1012900099B20C4AFB6822F813107B895B087B81AA
:1012A0007B6801337B607B680F2BBCDD00BF00BF18
:1012B0001037BD4680BD00BF000C02403001002049
:1012C00010040020F001002080B582B000AF0023A0
:1012D0007B600C4B1B6B0B4A43F480031363094B7D
:1012E0001B6B03F480037B607B68002200213820A5
:1012F00006F079F9382006F092F900BF0837BD46AC
:1013000080BD00BF0038024080B500AF0E4B1B7897
:10131000012B0BD10D4B1B78002B12D101210C4856
:1013200005F06AFA094B01221A700AE0074B1B7894
:10133000012B06D10121074805F05EFA034B00227C
:101340001A7000BF80BD00BF54010020380100208A
:10135000F0E70008F4E7000880B500AF3B4B1B68DE
:1013600001333A4A1360394B1B683C2B6BD81E2B58
:1013700004D20A2B46D0142B49D064E01E3B1E2B0E
:1013800061D801A252F823F019140008471400088C
:1013900047140008471400084714000847140008C1
:1013A00047140008471400084714000847140008B1
:1013B00023140008471400084714000847140008C5
:1013C0004714000847140008471400084714000891
:1013D00047140008471400082D140008471400089B
:1013E0004714000847140008471400084714000871
:1013F0004714000847140008471400084714000861
:10140000371400080121124805F0F6F91CE0042108
:10141000104805F0F1F917E001210F4805F0ECF94B
:1014200012E002210D4805F0E7F90DE001210C481A
:1014300005F0E2F908E002210A4805F0DDF9034B66
:1014400000221A6000E000BF00BF80BD3401002010
:10145000F8E70008FCE700080CE8000810E80008BE
:101460001CE8000820E8000880B500AFFFF74CFF3B
:10147000FFF772FF00BF80BD80B483B000AF0023D0
:101480007B6007E0084A7B68134400221A707B687F
:1014900001337B607B68032BF4DD00BF00BF0C379A
:1014A000BD465DF8047B70473C01002080B400AF6E
:1014B000094B01221A60094B1B68094A1360094B4A
:1014C0001B68094A1360094B03221A7000BFBD460E
:1014D0005DF8047B704700BF6C0100205C010020B8
:1014E00070010020600100207401002054010020E0
:1014F00080B500AF0C4B1B68012B13D10B4B1B6845
:101500000B4A13600B4B1B680B4A136003F03AFC49
:101510000A4B93E8030002F0A0F801F05BFB084BD4
:1015200001221A7000BF80BD6C01002070010020F4
:101530005C010020740100206001002050000020A8
:101540005401002080B500AF00F04EFD0346012B92
:1015500003D02A4B9B89012B07D1294B1B68022BF7
:1015600003D0274B01221A6046E000F061FD0346DC
:10157000012B03D0214B1B89012B07D1204B1B686A
:10158000012B03D01E4B02221A6035E000F074FDDF
:101590000346012B03D0194B5B88012B07D1184B55
:1015A0001B68042B03D0164B03221A6024E000F0C2
:1015B00085FD0346012B03D0104B5B8A012B07D11D
:1015C0000F4B1B68032B03D00D4B04221A6013E052
:1015D00000F0FFFD0346012B03D0084B5B89012B74
:1015E0000AD1FFF763FF074B0F221A60044B00225A
:1015F0001A6001F007FBFFE700BF80BDF00100208B
:10160000600100205C01002098B500AF8A4B0122E8
:101610001A7000F0CFFE0346012B1AD105F0CAF86C
:1016200003467C3B854A82FB03121211DB17D31A57
:10163000DAB2834B1A7005F0B1F80346063B7F4AD5
:1016400082FB03121211DB17D31ADAB27D4B1A7028
:101650004BE07D4B5B88012B0AD1794B1B78002B2B
:1016600043D0774B1B78013BDAB2754B1A703CE0E4
:10167000754B5B8A012B0AD1714B1B78032B34D835
:101680006F4B1B780133DAB26D4B1A702DE06E4B45
:101690001B89012B0AD16B4B1B78002B25D0694B82
:1016A0001B78013BDAB2674B1A701EE0664B9B89D0
:1016B000012B0AD1634B1B78042B16D8614B1B7886
:1016C0000133DAB25F4B1A700FE05F4B5B89012B7D
:1016D00008D15E4B1A785A4B1A705D4B1A78594BE9
:1016E0001A7002E0544B00221A70534B1B78012BE6
:1016F00040F0A180524B1A78544B1B789A4240F02C
:101700009880504B1A78524B1B789A4240F0918047
:101710004B4B1B78042B13D14A4B1B78002B0FD15A
:101720004C4B1B78012B05D14A4B00221A7001F05B
:101730005BFC7EE0474B01221A7001F00DFC78E063
:101740003F4B1B78042B16D13E4B1B78022B12D13A
:10175000414B1B78002B6CD03F4B1B78013BDAB21E
:101760003D4B1A703C4B1B781A463C4B0021995458
:1017700001F006FD5DE0324B1B78042B22D1314B8A
:101780001B78052B1ED1344B1B78002B51D0344BCA
:101790001B68344A13604FF4FA7003F041FB01F008
:1017A0002FF901F081FF03F0EDFA2F4B93E80300CE
:1017B00001F053FF01F0D6F901F00CFA2B4B012296
:1017C0001A7038E0244B1B78092B32D8214B1B7838
:1017D000012B13D11A4B1B7819461A4B1B781C4648
:1017E0001D4B1B781846224A0B465B000B445B00DE
:1017F000134423441A78194B1A5412E0104B1B78E7
:101800001946104B1B781C46134B1B781846194A77
:101810000B465B000B445B00134423441A780F4BC8
:101820001A540D4B1B780133DAB20B4B1A7001F0CE
:10183000A7FC01F021FC98BD55010020F31ACA6BEA
:101840005701002058010020F0010020590100201C
:101850005A010020560100204F01002044010020C1
:10186000700100205C010020500000205401002085
:101870000C0000202C00002080B500AFB24B1B688C
:10188000122B00F2888101A252F823F0D918000827
:1018900099190008971B0008931A0008971B000865
:1018A000971B0008971B0008971B0008971B000850
:1018B000971B0008971B0008B11A0008B71A000808
:1018C000BD1A0008971B00080D1B0008C31A00086A
:1018D000E51A0008071B000800F09FFC0346012BD7
:1018E00003D09A4BDB88012B17D1994B5B78012BE6
:1018F0000BD1FFF7C1FD944B01221A6005F01AF8D5
:1019000003F08EF800F02EFF45E0FFF7B5FD904B99
:1019100001225A7001F034FD3DE000F0A0FC0346C6
:10192000012B03D0894BDB89012B16D1884B9B7887
:10193000012B0AD1874B1B68012B06D1FFF79CFDB9
:1019400001F05EF8FFF7D4FD25E0FFF795FD804B31
:1019500001229A7001F02CFD1DE000F0A2FC03466C
:10196000012B04D0794BDB8A012B40F01681784B98
:10197000DB78012B07D1FFF77FFD734B03221A6041
:1019800000F068FF09E1FFF777FD714B0122DA7083
:1019900001F026FD01E100E100F0A6FC0346012B69
:1019A00003D06A4BDB88012B16D1694B1B78012BC6
:1019B0000AD1FFF761FD684B0B221A60624B1222BD
:1019C0001A6001F029FC46E0FFF756FD604B01224A
:1019D0001A7001F01FFD3EE000F0A8FC0346012B49
:1019E00003D05A4BDB89012B16D1594B5B78012B65
:1019F0000AD1FFF741FD584B0C221A60524B1222BC
:101A00001A6001F009FC26E0FFF736FD504B012279
:101A10005A7001F017FD1EE000F0AAFC0346012BEE
:101A200003D04A4BDB8A012B15D1494B9B78012B04
:101A30000AD1FFF721FD484B0D221A60424B1222BA
:101A40001A6001F0E9FB06E0FFF716FD404B0122AA
:101A50009A7001F011FD00F055FB0346012B04D0F4
:101A60003A4BDB8B012B40F09A80394BDB78012B12
:101A700007D1FFF701FD344B00221A6000F01AFE77
:101A80008DE0FFF7F9FC324B0122DA7001F00EFD18
:101A900085E000F037FB0346012B03D02B4BDB889E
:101AA000012B7ED1284B00221A6000F003FE78E063
:101AB000FFF748FD7CE0FFF745FD79E0FFF742FDC9
:101AC00076E000F01FFB0346012B03D01F4BDB88A1
:101AD000012B68D11C4B00221A6000F0EBFD01F0D5
:101AE00007FE60E000F00EFB0346012B03D0174B0E
:101AF000DB88012B59D1144B00221A6000F0DAFD6B
:101B000001F0F6FD51E0FFF77FFD51E000F01DFB15
:101B10000346012B03D00D4BDB89012B1ED10C4B4F
:101B20009B78012B07D1FFF7A7FC074B00221A6017
:101B300000F0C0FD2EE0FFF79FFC054B01229A70DC
:101B400001F0F6FC26E000BF5C010020F00100205F
:101B50003C0100206C0100207001002000F017FB08
:101B60000346012B03D0134BDB88012B1FD1124BF3
:101B70005B78012B06D1FFF77FFC00F041FFFFF7F8
:101B8000B7FC14E0FFF778FC0B4B01225A7001F010
:101B9000A7FC0CE00BE000BF0AE000BF08E000BFBC
:101BA00006E000BF04E000BF02E000BF00E000BFAD
:101BB00000BF80BDF00100203C01002000000000BB
:101BC00080B500AF02F0E8FE02F00CFFF0EE407AC4
:101BD0001B4BC3ED007A02F0F9FE034607EE903A84
:101BE000F8EE677A17EE900AFEF7AEFC12A3D3E97F
:101BF0000023FEF72BFE02460B46104619464FF017
:101C00000002104BFEF7F8FC02460B461046194640
:101C1000FEF7CAFF03469AB20B4B1A8002F0CAFEC7
:101C20000346C3F57F630F339AB2084B1A8000F066
:101C300099FF00BF80BD00BF0000000000FEAF4064
:101C40000400002000005940080000200A00002085
:101C500080B500AF0A4B1B684FF4C872B2FBF3F2B9
:101C600013469B001A44074B1B6813440533054A6F
:101C70001360034B00221A6000F0ACFF00BF80BD70
:101C8000640100200000002080B500AF194B1B68E4
:101C9000002B01D003F014F802F042FF0346012BA1
:101CA00009D1154B10221A6000F0F6FF04F072FE05
:101CB00002F0B6FE1BE002F071FF0346012B09D1D2
:101CC0000E4B1B6801330D4A1360FFF7C1FF02F092
:101CD000C5FF0CE0094B1B68052B08D1064B1122F0
:101CE0001A6001F089F804F055FE02F099FE00BF79
:101CF00080BD00BF600100205C0100204C0000207E
:101D000080B500AF4C4B1B680D2B4ED00D2B00F354
:101D100089800B2B02D00C2B18D083E0474B1B681B
:101D20000133464A1360464B1B88012B04D1444BB8
:101D300000221A80FFF744FF424B1B88012B73D10E
:101D4000404B00221A80FFF79FFF6DE03B4B1B6862
:101D500001333A4A13603A4B1B88012B04D1384BAC
:101D600000221A80FFF72CFF364B1B88012B5DD118
:101D7000344B00221A80FFF787FF334B1B68052B7B
:101D800003D1C82003F04CF850E02F4B1B680A2BFE
:101D900003D1642003F044F848E02B4B1B680F2B61
:101DA00044D1322003F03CF840E0244B1B6801335F
:101DB000224A1360224B1B88012B04D1204B0022A6
:101DC0001A80FFF7FDFE1F4B1B88012B30D11D4BE6
:101DD00000221A80FFF758FF1C4B1B68322B03D1DF
:101DE000C82003F01DF823E0184B1B68232B03D1F8
:101DF000642003F015F81BE0144B1B68142B03D16F
:101E0000322003F00DF813E0104B1B68002B0FDCA1
:101E1000094B11221A6000F0EFFF04F0BBFD02F045
:101E2000FFFD05E000BF04E000BF02E000BF00E0EE
:101E300000BF00BF80BD00BF5C0100206401002026
:101E400086010020800100204C0000206801002055
:101E500080B58EB000AF07F11C0300221A605A60F3
:101E60009A60DA601A615A619A613B4600221A60F0
:101E70005A609A60DA601A615A619A612F4B4FF08A
:101E800020421A602D4B2E4A5A602C4B00229A6039
:101E90002A4B0022DA60294B00221A61274B1022BC
:101EA0005A61264B00229A61244B0022DA61234BAF
:101EB00000221A62214B00225A62204B4FF48052BA
:101EC0009A621E4B0022DA621C4B4FF480421A6366
:101ED0001A4B00225A63194B00229A63174B0022B7
:101EE0005A640F23FB610F233B623C237B62002378
:101EF000BB621023FB6211233B6300237B63082337
:101F00003B600F237B600923BB600023FB60102331
:101F10003B6111237B610023BB613A4607F11C033F
:101F20001946064808F042FB0346002B01D002F098
:101F30001FFD00BF3837BD4680BD00BF1002002026
:101F4000040100A000000000B0B582B000AF04465C
:101F5000084611461A462346FB800346BB800B46C3
:101F60007B8013463B80FA887B88D31A1846FEF79D
:101F7000D9FA02460B469FED1A1B43EC102B0BF0CF
:101F80003FFC55EC104BBA883B88D31A1846FEF735
:101F9000C9FA02460B469FED121B43EC102B0BF0C7
:101FA0002FFC53EC102B20462946FEF76FF9024612
:101FB0000B4643EC172BB0EE470AF0EE670A0BF026
:101FC000CDFC53EC102B10461946FEF70DFE0346D0
:101FD00007EE903AB0EE670A0837BD46B0BD00BFC5
:101FE000000000000000004080B500AF04F0C4FB1A
:101FF0000346002B01D1002318E004F0CFFB034679
:10200000A52B12D904F0CAFB0346EA2B0DD804F025
:10201000D1FB0346B3F5857F07D304F0CBFB034622
:10202000B3F59D7F01D8012300E00023184680BD51
:1020300080B500AF04F0A0FB0346002B01D10023C4
:1020400018E004F0ABFB0346052B12D904F0A6FB05
:1020500003464A2B0DD804F0ADFB0346B3F5857F4C
:1020600007D304F0A7FB0346B3F59D7F01D80123F6
:1020700000E00023184680BD80B500AF04F07CFB73
:102080000346002B01D1002316E004F087FB034632
:10209000552B10D904F082FB03469A2B0BD804F081
:1020A00089FB0346CD2B06D904F084FB0346FE2BA7
:1020B00001D8012300E00023184680BD80B500AFA1
:1020C00004F05AFB0346002B01D1002318E004F072
:1020D00065FB0346552B12D904F060FB03469A2B8F
:1020E0000DD804F067FB0346B3F5857F07D304F0F2
:1020F00061FB0346B3F59D7F01D8012300E0002377
:10210000184680BD80B500AF04F036FB0346002BB7
:1021100001D1002317E004F041FB0346412B11D904
:1021200004F03CFB0346B82B0CD804F043FB0346F9
:10213000FA2B07D904F03EFB0346B3F58E7F01D896
:10214000012300E00023184680BD80B500AF04F0F5
:1021500013FB0346002B01D1002316E004F01EFB05
:102160000346412B10D904F019FB0346B82B0BD8BA
:1021700004F020FB0346C82B06D904F01BFB0346E2
:10218000EA2B01D8012300E00023184680BD80B56A
:1021900000AF04F0F1FA0346002B01D1002316E052
:1021A00004F0FCFA0346412B10D904F0F7FA034679
:1021B000B82B0BD804F0FEFA0346962B06D904F090
:1021C000F9FA0346B82B01D8012300E00023184692
:1021D00080BD98B500AF04F0CFFA0346002B01D1C3
:1021E000002318E004F0DAFA03461C4604F0E2FA91
:1021F00003461946E623C8222046FFF7A5FEF0EE67
:10220000407AB3EE097AF4EEC77AF1EE10FA4CBFD9
:1022100001230023DBB2184698BD80B500AF04F05F
:10222000ABFA0346002B01D1002316E004F0B6FA06
:102230000346412B10D904F0B1FA0346B82B0BD852
:1022400004F0B8FA0346962B06D904F0B3FA034615
:10225000B82B01D8012300E00023184680BD80B5CB
:1022600000AF04F089FA0346002B01D1002316E0E9
:1022700004F094FA0346412B10D904F08FFA034678
:10228000B82B0BD804F096FA0346C82B06D904F0F5
:1022900091FA0346EA2B01D8012300E000231846F7
:1022A00080BD80B500AF04F067FA0346002B01D172
:1022B000002317E004F072FA0346412B11D904F011
:1022C0006DFA0346B82B0CD804F074FA0346FA2BC7
:1022D00007D904F06FFA0346B3F58E7F01D80123C6
:1022E00000E00023184680BD80B500AF04F044FA3A
:1022F0000346002B01D1002316E004F04FFA0346F9
:10230000412B10D904F04AFA0346B82B0BD804F03D
:1023100051FA0346642B06D904F04CFA0346862B87
:1023200001D8012300E00023184680BD80B500AF2E
:1023300004F022FA0346002B01D1002316E004F03A
:102340002DFA0346412B10D904F028FA0346B82B86
:102350000BD804F02FFA0346962B06D904F02AFA7C
:102360000346B82B01D8012300E00023184680BDA6
:1023700080B500AF04F000FA0346002B01D1002322
:1023800016E004F00BFA0346412B10D904F006FACC
:102390000346B82B0BD804F00DFA0346C82B06D918
:1023A00004F008FA0346EA2B01D8012300E00023D9
:1023B000184680BD80B500AF04F0DEF90346002B5F
:1023C00001D1002317E004F0E9F90346062B11D9E7
:1023D00004F0E4F90346E92B0CD804F0EBF90346CA
:1023E0007C2B07D904F0E6F90346B3F59D7F01D2B3
:1023F000012300E00023184680BD000080B58EB0A8
:1024000000AF07F1240300221A605A609A60DA6074
:102410001A6100233B62894B1B6B884A43F010030F
:102420001363864B1B6B03F010033B623B6A002374
:10243000FB61824B1B6B814A43F0040313637F4BA8
:102440001B6B03F00403FB61FB690023BB617B4B47
:102450001B6B7A4A43F020031363784B1B6B03F02A
:102460002003BB61BB6900237B61744B1B6B734A08
:1024700043F080031363714B1B6B03F080037B619C
:102480007B6900233B616D4B1B6B6C4A43F001037E
:1024900013636A4B1B6B03F001033B613B69002331
:1024A000FB60664B1B6B654A43F002031363634B8F
:1024B0001B6B03F00203FB60FB680023BB605F4BF8
:1024C0001B6B5E4A43F0080313635C4B1B6B03F00A
:1024D0000803BB60BB6800237B60584B1B6B574AEB
:1024E00043F040031363554B1B6B03F040037B60C9
:1024F0007B6800221021524805F062FE00224FF452
:102500000851504805F05CFE00224FF480614E48AF
:1025100005F056FE00224FF4E0714C4805F050FEE5
:1025200000224FF480714A4805F04AFE002208213B
:10253000484805F045FE10237B620123BB6200235F
:10254000FB6200233B6307F1240319463C4805F076
:1025500083FC4FF408537B620123BB620023FB62C0
:1025600000233B6307F124031946364805F074FC49
:102570004FF400737B620023BB620023FB6207F110
:1025800024031946304805F067FC4FF480637B62F2
:102590000123BB620023FB6200233B6307F124039A
:1025A0001946294805F058FC4FF4E0737B6201237B
:1025B000BB620023FB6200233B6307F1240319463F
:1025C000224805F049FC4FF480737B620023BB6214
:1025D0000123FB6207F1240319461A4805F03CFC6D
:1025E0004FF480737B620123BB620023FB620023F4
:1025F0003B6307F124031946154805F02DFC4FF401
:1026000080537B620023BB620023FB6207F124033B
:1026100019460C4805F020FC08237B620123BB62AD
:102620000023FB6200233B6307F12403194609489A
:1026300005F012FC00BF3837BD4680BD00380240AF
:10264000001002400008024000140240001802403E
:1026500000000240000C024080B500AF124B134A4C
:102660001A60114B124A5A600F4B00229A600E4BAF
:102670000022DA600C4B4FF480421A610A4B0022B0
:102680005A61094B00229A61074B0022DA61064B1E
:1026900000221A62044805F0ADFD0346002B01D06C
:1026A00002F066F900BF80BD140300200054004012
:1026B000A086010080B584B004AF264B00934FF490
:1026C000A073F0220021002001F080FC4BF6404373
:1026D0000093B923B9229621412001F06DF94BF600
:1026E00040430093EB23B922C821412001F064F953
:1026F0004BF64043009340F21D13B922FA214120CA
:1027000001F05AF901230293182301930023009347
:102710000023114A9B21542001F029FF0123029339
:10272000182301930023009300230C4ACD214D2050
:1027300001F01DFF0123029318230193002300934E
:102740000023074AFF21482001F011FF00BFBD46CA
:1027500080BD00BFA81D010830E8000838E8000867
:1027600044E8000880B584B004AF344B00934FF4C4
:10277000A073F0220021002001F028FC304B0093D0
:102780004E23F0220021002001F020FC4BF64043B4
:1027900000938723B9226421412001F00DF94BF603
:1027A00040430093B923B9229621412001F004F956
:1027B0004BF640430093EB23B922C821412001F09E
:1027C000FBF84BF64043009340F21D13B922FA2167
:1027D000412001F0F1F80123029318230193002313
:1027E00000930023174A6921542001F0C0FE012301
:1027F000029318230193002300930023124A9B2184
:10280000602001F0B4FE01230293182301930023FA
:10281000009300230D4ACD21602001F0A8FE012382
:10282000029318230193002300930023084AFF21F9
:10283000642001F09CFE00BFBD4680BDA875030862
:10284000A8CD050850E8000858E8000860E800082E
:1028500068E8000890B589B004AF614B00934FF46D
:10286000A073F0220021002001F0B0FB5D4B00932B
:102870005123F0220021002001F0A8FB0123029344
:1028800010230193002300930023574A50210A206C
:1028900001F06DFE012302931023019300230093A6
:1028A0000023524A50213C2001F061FE0123029393
:1028B000102301930023009300234D4A5021A020B0
:1028C00001F055FE00237B6007F1080300221A6027
:1028D0009A800123FB7351E0FB7B05339BB21B0104
:1028E0009CB2FB7B391D0A22184609F033FF0246D1
:1028F0000123029310230193002300930023214618
:102900000A2001F034FEFB7B05339BB21B0199B218
:10291000FB7B5A1E1346DB009B1A5B00354A1A44A8
:1029200001230293102301930023009300233C20F2
:1029300001F01DFEFB7B05339BB21B019CB2FB7BB0
:102940005A1E2C491346DB009B1A5B000B440C33C8
:102950001B8818463B1D0A22194609F0FBFE024659
:1029600001230293102301930023009300232146A7
:10297000A02001F0FCFDFB7B0133FB731E4B1B7899
:10298000FA7B9A42A8D94BF64043009340F21D13BC
:10299000B922FA21412001F00FF8012302931823F4
:1029A0000193002300930023144AFF21642001F0C7
:1029B000DEFD0023009340F21D13B922FA214120CD
:1029C00001F0CBF8002300934FF48E73B822FB2163
:1029D000422001F0C2F800BF1437BD4690BD00BFD1
:1029E000A8750308E85F060870E8000878E80008A2
:1029F00080E80008880200204001002068E8000804
:102A000080B584B004AF4FF6FF7000F0A3FF4AF228
:102A1000516300931123EF220021002000F0CCFF2E
:102A20004AF25163009340F23F13EF22C821002085
:102A300000F0C2FF4BF64043009340F23B134B22A1
:102A400040F20911052000F0B7FF4BF64043009318
:102A500040F23B13EB2240F20911A52000F0ACFF3D
:102A60004BF640430093FF239B22CD21552000F0DD
:102A7000A3FF4BF64043009340F23B139B2240F2EE
:102A80000911552000F098FF0123009319234FF4FA
:102A90007842E621C82001F0FEFC012302930C23BA
:102AA0000193002300930023274A03210A2001F009
:102AB0005EFD012302930C23019300230093002366
:102AC000224A03214B2001F052FD012302930C23E3
:102AD00001930023009300231D4A03216E2001F07F
:102AE00046FD012302930C2301930023009300234E
:102AF000184A0321962001F03AFD012302930C238A
:102B00000193002300930023134A0321AA2001F01C
:102B10002EFD012302931023019300230093002331
:102B20000E4ADE21B62001F022FD0123029310237C
:102B30000193002300930023094ACD21052001F0D1
:102B400016FD00BFBD4680BD88E8000890E800087B
:102B500094E800089CE80008A0E80008A8E800083D
:102B6000B0E8000880B584B004AF174BD3ED007A0D
:102B70000C2301934AF25163009300230422B0EE28
:102B8000670A0321282001F099F9104B1A880C23B9
:102B900002934AF25163019300230093022303211D
:102BA000872001F00DF90A4B1A880C2302934AF290
:102BB000516301930023009304230321CF2001F0EC
:102BC000FFF800BFBD4680BD0400002008000020C3
:102BD0000A00002080B584B004AF094B1B689AB28C
:102BE000102302934AF251630193002300930523BB
:102BF000DD21052001F0E4F800BFBD4680BD00BF27
:102C00000000002080B584B004AF1F4B00934FF448
:102C1000A073F0220021002001F0D8F91B4B009393
:102C20005423F0220021002001F0D0F94BF640435C
:102C30000093B923B9229621412000F0BDFE4BF646
:102C400040430093EB23B922C821412000F0B4FE99
:102C500001230293182301930023009300230C4ABD
:102C60009B215A2001F083FC012302931823019336
:102C7000002300930023074ACD21642001F077FC54
:102C800000BFBD4680BD00BFA8750308C8F7060891
:102C9000B8E8000868E8000880B588B004AF4E4B7B
:102CA00000934FF4A073F0220021002001F08EF970
:102CB0004BF64043009340F21D13B922FA21412004
:102CC00000F07AFE0023009340F21D13B922FA218E
:102CD000412000F042FF002300934FF48E73B8228E
:102CE000FB21422000F039FF0123029318230193B6
:102CF000002300930023394AFF21642001F037FCB0
:102D000000237B6007F1080300221A609A800123E8
:102D10000293102301934BF6404300930023304A63
:102D20006421002001F072FC01230293102301931F
:102D30004BF64043009340F2CF132A4A78210020FB
:102D400001F064FC01230293102301934BF64043EE
:102D500000930023244A8C21002001F057FC234BD0
:102D60001B6818463B1D0A22194609F0F3FC02466F
:102D700001230293102301934BF64043009340F24A
:102D8000CF13A021002001F041FC01230293102366
:102D900001934BF6404300930023154AB4210020D1
:102DA00001F034FC134B1B6818463B1D0A221946E0
:102DB00009F0D0FC024601230293102301934BF645
:102DC0004043009340F2CF13C821002001F01EFCC5
:102DD00000BF1037BD4680BD4895070868E8000869
:102DE000C0E800084401002080E80008000000203E
:102DF000C8E800085001002080B588B004AF4E4BF1
:102E000000934FF4A073F0220021002001F0DEF8BF
:102E10004BF64043009340F21D13B922FA214120A2
:102E200000F0CAFD0023009340F21D13B922FA21DD
:102E3000412000F092FE002300934FF48E73B822DD
:102E4000FB21422000F089FE012302931823019305
:102E5000002300930023394AFF21642001F087FBFF
:102E600000237B6007F1080300221A609A80012387
:102E70000293102301934BF6404300930023304A02
:102E80006421002001F0C2FB01230293102301936F
:102E90004BF64043009340F2CF132A4A782100209A
:102EA00001F0B4FB01230293102301934BF640433E
:102EB00000930023244A8C21002001F0A7FB234B20
:102EC0001B6818463B1D0A22194609F043FC0246BE
:102ED00001230293102301934BF64043009340F2E9
:102EE000CF13A021002001F091FB012302931023B6
:102EF00001934BF6404300930023154AB421002070
:102F000001F084FB134B1B6818463B1D0A2219462F
:102F100009F020FC024601230293102301934BF693
:102F20004043009340F2CF13C821002001F06EFB14
:102F300000BF1037BD4680BD48ED090868E80008AD
:102F4000C0E800084401002080E8000800000020DC
:102F5000C8E8000850010020B0B586B004AF0023D7
:102F6000FB7136E00023BB712DE0BB799BB21A46A2
:102F7000D2001A44520013445B009BB2163398B23D
:102F8000FB799BB21A46D2001A44520013445B00EC
:102F90009BB286339CB2FA79B979124D13465B0025
:102FA00013445B002B440B441A7800230293102334
:102FB00001934BF6404300930023214600F004FEAA
:102FC000BB790133BB71BB79052BCED9FB790133BA
:102FD000FB71FB79042BC5D900BF00BF0837BD4684
:102FE000B0BD00BF0C000020B0B586B004AF002318
:102FF000FB7136E00023BB712DE0BB799BB21A4612
:10300000D2001A44520013445B009BB2163398B2AC
:10301000FB799BB21A46D2001A44520013445B005B
:103020009BB286339CB2FA79B979124D13465B0094
:1030300013445B002B440B441A78002302931023A3
:1030400001934BF6404300930023214600F0BCFD62
:10305000BB790133BB71BB79052BCED9FB79013329
:10306000FB71FB79042BC5D900BF00BF0837BD46F3
:10307000B0BD00BF2C00002090B583B002AF3C4B28
:103080001B789BB21A46D2001A44520013445B00CC
:103090009BB2063398B2374B1B789BB21A46D200CC
:1030A0001A44520013445B009BB27C3399B2304BFC
:1030B0001B7801339BB21A46D2001A4452001344C3
:1030C0005B009BB206339AB22A4B1B7801339BB24A
:1030D0001C46E4001C44640023445B009BB27C3328
:1030E0009BB248F23044009400F037FD224B1B782D
:1030F0009BB21A46D2001A44520013445B009BB2A2
:10310000063398B21D4B1B789BB21A46D2001A4464
:10311000520013445B009BB27C3399B2164B1B7870
:1031200001339BB21A46D2001A44520013445B008A
:103130009BB206339AB2114B1B7801339BB21C46EB
:10314000E4001C44640023445B009BB27C339BB2CC
:103150000024009400F001FD084B1A78054B1A700A
:10316000054B1A78024B1A7000BF0437BD4690BD5C
:103170005A01002059010020580100205701002069
:1031800080B586B004AF0023FB7118E0FB799BB2D9
:103190001A461201D31A9BB22F3398B2FB791C4AFC
:1031A000D25C00230293182301934BF64043009313
:1031B0000023502100F008FDFB790133FB71154B12
:1031C0001B78FA799A42E1D3124B1B78BB7116E057
:1031D000BB799BB21A461201D31A9BB22F3398B215
:1031E00000230293182301934BF6404300930023DE
:1031F0005F22502100F0E8FCBB790133BB71BB7941
:10320000092BE5D900BF00BF0837BD4680BD00BF10
:10321000440100204F01002090B585B002AF354B2E
:1032200000934FF4A073F0220021002000F0CEFEA6
:103230004BF6404300934FF49D73EA227C21062015
:1032400000F0BAFB0023FB713EE00023BB7135E0C8
:10325000BB799BB21A46D2001A44520013445B0059
:103260009BB2063398B2FB799BB21A46D2001A443D
:10327000520013445B009BB27C3399B2BB7901339B
:103280009BB21A46D2001A44520013445B009BB210
:1032900006339AB2FB7901339BB21C46E4001C440E
:1032A000640023445B009BB27C339BB248F2304401
:1032B000009400F052FCBB790133BB71BB79052B44
:1032C000C6D9FB790133FB71FB79042BBDD90A4BBD
:1032D00000221A70094B00221A70094B00221A7042
:1032E000FFF782FEFFF7C8FEFFF74AFF00BF0C376B
:1032F000BD4690BD48450C085701002058010020EC
:103300005601002080B582B002AF48F230430093EE
:10331000B923B9229621412000F01FFC48F2304326
:103320000093B823B8229721422000F016FC48F2FF
:1033300030430093EB23B922C821412000F00DFC5B
:1033400048F230430093EA23B822C921422000F01A
:1033500004FC48F23043009340F21D13B922FA21D5
:10336000412000F0FAFB48F2304300934FF48E7393
:10337000B822FB21422000F0F0FB00BFBD4680BD1B
:1033800080B582B002AFFFF7BDFF00230093B923E1
:10339000B9229621412000F0E0FB00230093B823DE
:1033A000B8229721422000F0D8FB00BFBD4680BD67
:1033B00080B582B002AFFFF7A5FF00230093EB2397
:1033C000B922C821412000F0C8FB00230093EA2362
:1033D000B822C921422000F0C0FB00BFBD4680BD1D
:1033E00080B582B002AFFFF78DFF0023009340F25B
:1033F0001D13B922FA21412000F0AFFB00230093F6
:103400004FF48E73B822FB21422000F0A6FB00BFD0
:10341000BD4680BD80B582B002AF002300938723F4
:10342000B9226421412000F098FB002300938623F9
:10343000B8226521422000F090FBFFF763FF00BF38
:10344000BD4680BD80B582B002AF48F230430093E4
:103450008723B9226421412000F07FFB48F23043EA
:1034600000938623B8226521422000F076FBFFF707
:1034700087FF00BFBD4680BD80B582B002AF48F275
:10348000304300938723B9226421412000F065FB7B
:1034900048F2304300938623B8226521422000F091
:1034A0005CFBFFF785FF00BFBD4680BD80B582B0E5
:1034B00002AF48F2304300938723B92264214120B0
:1034C00000F04BFB48F2304300938623B82265217D
:1034D000422000F042FBFFF783FF00BFBD4680BDE6
:1034E00080B582B002AF00230093B923B9229621A0
:1034F000412000F032FB00230093B823B82297212B
:10350000422000F02AFB48F230430093EB23B9221B
:10351000C821412000F021FB48F230430093EA2308
:10352000B822C921422000F018FB00BFBD4680BD73
:1035300080B582B002AF48F230430093B923B9227C
:103540009621412000F009FB48F230430093B82354
:10355000B8229721422000F000FB00230093EB23C8
:10356000B922C821412000F0F8FA00230093EA2391
:10357000B822C921422000F0F0FA00BFBD4680BD4C
:1035800080B584B002AF3B4683E8030038687968B1
:103590000123009304234FF4FC6200F07CFF3868A1
:1035A0007968012300930123002200F074FF00BF1B
:1035B0000837BD4680BD90B585B002AF3B4683E875
:1035C0000300386879680123009304234FF4FC62F8
:1035D00000F061FF3B689BB2033B98B27B689BB2F3
:1035E000033B99B23B689BB204339AB27B689BB2AF
:1035F00004339BB24BF64044009400F02AFA3B6837
:103600009BB2033B98B27B689BB2023B99B23B688A
:103610009BB203339AB27B689BB204339BB24BF6E6
:103620004044009400F015FA3B689BB2023B98B20C
:103630007B689BB2033B99B23B689BB204339AB25E
:103640007B689BB203339BB24BF64044009400F07E
:1036500000FA00BF0C37BD4690BD80B584B002AF04
:103660003B4683E80300386879680123009304230C
:103670004FF4784200F00FFF00BF0837BD4680BD11
:1036800080B584B002AF3B4683E8030038687968B0
:103690000123009304234FF6FF7200F0FCFE00BFED
:1036A0000837BD4680BD000080B500AF0F4B1B68DA
:1036B0000D2B12D00D2B16DC0B2B02D00C2B06D0B1
:1036C00011E001220021012001F06AF80CE0012242
:1036D0000021022001F064F806E00122002103200D
:1036E00001F05EF800E000BF00BF80BD5C0100207B
:1036F00080B500AF00220021002001F051F8002227
:103700000121002001F04CF800220221002001F0EC
:1037100047F800220321002001F042F800BF80BDDD
:1037200080B500AF444B1B88012B40F08180434B98
:103730001B78012B7CD1404B00221A80404B1B6828
:1037400001333F4A13603F4B1B680C2B02DC0B2BF1
:1037500003DA6EE00D2B30D06BE0394B1B683A4A30
:10376000A2FB03235B0900220121184601F018F88F
:10377000334B1A68344BA3FB02135B09642101FB32
:1037800003F3D31A314AA2FB0323DB0800220221F0
:10379000184601F005F82A4B19682C4BA3FB0123AE
:1037A000DA0813469B0013445B00CA1A1346002232
:1037B0000321184600F0F4FF3BE0254B1B68013B5A
:1037C000234A1360224B1B681F4A82FB03125211CB
:1037D000DB17D31A00220121184600F0E1FF1C4B31
:1037E0001A68194B83FB02135911D317CB1A6421A2
:1037F00001FB03F3D31A174A82FB03129210DB1763
:10380000D31A00220221184600F0CAFF104B1A6892
:10381000104B83FB02139910D317C81A03469B0061
:1038200003445B00D01A0022032100F0B9FF00E03E
:1038300000BF00BF80BD00BF8C01002054010020EC
:10384000500100205C0100201F85EB51CDCCCCCC79
:10385000680100206766666680B483B000AF0346E7
:10386000FB80044AFB88138000BF0C37BD465DF81F
:10387000047B7047FEFF0F6080B483B000AF034647
:10388000FB80044AFB88538000BF0C37BD465DF8BF
:10389000047B7047FEFF0F6080B483B000AF064B1F
:1038A0005B889BB2FB80FB889BB218460C37BD46F9
:1038B0005DF8047B704700BFFEFF0F6090B583B0DA
:1038C00000AF0446084611461A462346FB800346CD
:1038D000BB800B467B8013463B802A20FFF7BCFF52
:1038E000FB881B0A9BB21846FFF7C6FFFB88DBB2BA
:1038F0009BB21846FFF7C0FF7B881B0A9BB2184695
:10390000FFF7BAFF7B88DBB29BB21846FFF7B4FF24
:103910002B20FFF7A1FFBB881B0A9BB21846FFF7BD
:10392000ABFFBB88DBB29BB21846FFF7A5FF3B8815
:103930001B0A9BB21846FFF79FFF3B88DBB29BB286
:103940001846FFF799FF2C20FFF786FF00BF0C37C2
:10395000BD4690BD80B584B000AF0346FB80154BDB
:103960001B88013B9AB2134B5B88013B9BB2002141
:103970000020FFF7A3FF0023FB8111E00023BB81A0
:1039800006E0FB881846FFF777FFBB890133BB8150
:10399000084B5B88BA899A42F3D3FB890133FB81D8
:1039A000044B1B88FA899A42E8D300BF00BF103746
:1039B000BD4680BD6803002090B585B000AF0446C9
:1039C000084611461A462346FB800346BB800B4639
:1039D0007B8013463B807B88013B9AB23B88013B4E
:1039E0009BB2B988F888FFF769FFBB88FB8110E0BC
:1039F000FB88BB8106E03B8C1846FFF73DFFBB8987
:103A00000133BB81BA897B889A42F4D3FB890133A5
:103A1000FB81FA893B889A42EAD300BF00BF143782
:103A2000BD4690BD80B582B000AF0346FB800B461B
:103A3000BB8013467B80BB88FA88B988F888FFF77B
:103A40003DFF7B881846FFF717FF00BF0837BD46CC
:103A500080BD90B58DB000AF0446084611461A46A9
:103A60002346FB800346BB800B467B8013463B808E
:103A70000023BB6200237B627A88FB88D31A3B62F7
:103A80003A88BB88D31AFB61FB88FB60BB88BB60AC
:103A90003B6A002B02DD01237B610BE03B6A002BBC
:103AA00002D100237B6105E04FF0FF337B613B6A6D
:103AB0005B423B62FB69002B02DD01233B610BE0B3
:103AC000FB69002B02D100233B6105E04FF0FF337F
:103AD0003B61FB695B42FB613A6AFB699A4202DD2A
:103AE0003B6ABB6101E0FB69BB610023FB852BE006
:103AF000FB689BB2BA6891B2B7F840201846FFF74E
:103B000091FFBA6A3B6A1344BB627A6AFB69134449
:103B10007B62BA6ABB699A4207DDBA6ABB69D31A8B
:103B2000BB62FA687B691344FB607A6ABB699A429C
:103B300007DD7A6ABB69D31A7B62BA683B691344B2
:103B4000BB60FB8D0133FB85FB8DBA699A42CFDAEE
:103B500000BF00BF3437BD4690BD90B585B002AF01
:103B60000446084611461A462346FB800346BB809E
:103B70000B467B8013463B80BC887A88B988F888DE
:103B80003B8B00932346FFF764FF3C88FA88B98893
:103B9000F8883B8B00932346FFF75BFF3C887A88CD
:103BA0003988F8883B8B00932346FFF752FF3C8807
:103BB0007A88B98878883B8B00932346FFF749FFC2
:103BC00000BF0C37BD4690BD90B587B000AF04462E
:103BD000084611461A462346FB800346BB800B4627
:103BE000FB7013463B8000237B75FB883B8297F874
:103BF0002C305B08FB73FB7BDB08DBB21A46FB7BDC
:103C000003F00703DBB2002B14BF01230023DBB258
:103C100013449AB297F82C309BB212FB03F3BB818A
:103C2000FB78203BFB70FB7B9AB2FB8813449BB272
:103C3000013B9CB297F82C309AB2BB8813449BB2DC
:103C4000013B9BB2B988F8882246FFF737FE002374
:103C50007B8286E097F82C300C2B0BD1FA78798A8E
:103C6000454813465B0013449B0003440B441B78F8
:103C7000FB7528E097F82C30102B08D1FA787B8A56
:103C80003E4912010A4413441B78FB751BE097F868
:103C90002C30182B0BD1FA78798A394813465B00FF
:103CA00013441B0103440B441B78FB750BE097F88E
:103CB0002C30202B5BD1FA787B8A324992010A445E
:103CC00013441B78FB750023BB7544E097F8303034
:103CD000002B20D1FA7DBB7D42FA03F303F00103F0
:103CE000002B04D03B881846FFF7C6FD03E03B8D50
:103CF0001846FFF7C1FD7B7D01337B757B7DFA7B29
:103D0000B3FBF2F102FB01F29B1ADBB2002B1FD1D5
:103D100000237B7522E0FA7DBB7D42FA03F303F0BA
:103D20000103002B05D03A88B988FB881846FFF7B5
:103D300079FEFB880133FB80FA883B8AD21AFB7B31
:103D40009A4205D13B8AFB80BB880133BB8005E0EA
:103D5000BB7D0133BB75BB7D072BB7D97B8A013394
:103D60007B827A8ABB899A42FFF474AF00E000BF7D
:103D70001C37BD4690BD00BFB4E9000828EE00081E
:103D800018F40008E805010880B485B000AF0346C8
:103D90000A46FB711346BB710123FB6004E0FA790C
:103DA000FB6802FB03F3FB60BB795A1EBA71002B60
:103DB000F5D1FB6818461437BD465DF8047B7047A3
:103DC00090B589B004AF0446084611461A4623460A
:103DD000FB800346BB800B467B8013467B70002331
:103DE000BB7397F828305B087B730023FB7359E0A3
:103DF0007C887A78FB7BD31ADBB2013BDBB21946B5
:103E00000A20FFF7C1FF0346B4FBF3F12A4BA3FBE3
:103E10000123DA0813469B0013445B00CA1A1346B9
:103E20003B73BB7B002B21D1FA7B7B78013B9A4211
:103E30001CDA3B7B002B17D1FB7B9AB27B7B9BB2BE
:103E400012FB03F39AB2FB88134498B23A8CB988F8
:103E50000023029397F828300193BB8C00931346FC
:103E60002022FFF7B1FE1AE00123BB73FB7B9AB25D
:103E70007B7B9BB212FB03F39AB2FB88134498B28C
:103E80003B7B3033DAB23C8CB9880023029397F83D
:103E900028300193BB8C00932346FFF795FEFB7BF4
:103EA0000133FB73FA7B7B789A42A1D300BF00BF3A
:103EB0001437BD4690BD00BFCDCCCCCC90B58BB0F7
:103EC00004AF0446084687ED020A11461A46234607
:103ED000FB810346BB810B46FB711346BB8097F801
:103EE0002C305B08BB75D7ED027A9FED367A67EE12
:103EF000877AFCEEE77A17EE903ABB820023FB75D7
:103F000057E0BC8AFA79FB7DD31ADBB2013BDBB206
:103F100019460A20FFF738FF0346B4FBF3F12A4B9A
:103F2000A3FB0123DA0813469B0013445B00CA1A63
:103F30001346FB74FA7DFB79023B9A421DD1FB7953
:103F4000023B9AB2BB7D9BB212FB03F39AB2FB8990
:103F5000134498B2BA88B9890023029397F82C3099
:103F600001933B8D009313462E22FFF72DFEFB7D20
:103F70000133FB75FB790133FB71FB7D9AB2BB7D8D
:103F80009BB212FB03F39AB2FB89134498B2FB7CF9
:103F90003033DAB2BC88B9890023029397F82C3009
:103FA00001933B8D00932346FFF70EFEFB7D01330B
:103FB000FB75FA7DFB799A42A3D300BF00BF1C3783
:103FC000BD4690BD0000C842CDCCCCCC90B587B0EA
:103FD00000AF0446084611461A462346FB800346B6
:103FE000BB800B467B8013463B8000233B61FA88F5
:103FF0007B8813449BB2013B9CB2BA883B88134434
:104000009BB2013B9BB2B988F8882246FFF756FC69
:104010000023FB8227E00023BB821DE03B695B009D
:10402000BA6A13441B78FB733B695B000133BA6ABD
:1040300013441B78BB73FB7B1B021AB2BB7B1BB206
:1040400013431BB29BB21846FFF716FC3B690133C2
:104050003B61BB8A0133BB82BA8A3B889A42DDD37B
:10406000FB8A0133FB82FA8A7B889A42D3D300BF52
:1040700000BF1C37BD4690BD80B483B000AF03467F
:10408000FB71FB791B09DBB203F00303DBB2002BEE
:1040900007D00A4B4FF4A0721A80084BF0225A80C6
:1040A00006E0064BF0221A80044B4FF4A0725A80AF
:1040B00000BF0C37BD465DF8047B704768030020E5
:1040C00080B500AF00224FF40051AA4804F078F800
:1040D0004FF4FA7002F076FD01224FF40051A5482A
:1040E00004F06EF84FF4FA7002F06CFD0020FFF758
:1040F000C3FFD320FFF7B0FBFFF7CEFB03461A4602
:104100009D4B9A80FFF7C8FB03461A469A4B9A804C
:10411000FFF7C2FB03461A46974B9A80964B9B8843
:104120001B029AB2944B9A80FFF7B6FB03461A46DD
:10413000914B9B8813439AB28F4B9A80CF20FFF705
:104140008BFB0020FFF798FBC120FFF795FB302089
:10415000FFF792FBED20FFF77FFB6420FFF78CFB5E
:104160000320FFF789FB1220FFF786FB8120FFF772
:1041700083FBE820FFF770FB8520FFF77DFB102015
:10418000FFF77AFB7A20FFF777FBCB20FFF764FB82
:104190003920FFF771FB2C20FFF76EFB0020FFF7A3
:1041A0006BFB3420FFF768FB0220FFF765FBF7206D
:1041B000FFF752FB2020FFF75FFBEA20FFF74CFBE5
:1041C0000020FFF759FB0020FFF756FBC020FFF748
:1041D00043FB1B20FFF750FBC120FFF73DFB0120F5
:1041E000FFF74AFBC520FFF737FB3020FFF744FB02
:1041F0003020FFF741FBC720FFF72EFBB720FFF76A
:104200003BFB3620FFF728FB0820FFF735FB3A2061
:10421000FFF722FB5520FFF72FFBB120FFF71CFB18
:104220000020FFF729FB1A20FFF726FBB620FFF737
:1042300013FB0A20FFF720FBA220FFF71DFBF22053
:10424000FFF70AFB0020FFF717FB2620FFF704FB10
:104250000120FFF711FBE020FFF7FEFA0F20FFF728
:104260000BFB2A20FFF708FB2820FFF705FB08209F
:10427000FFF702FB0E20FFF7FFFA0820FFF7FCFA1A
:104280005420FFF7F9FAA920FFF7F6FA4320FFF7C9
:10429000F3FA0A20FFF7F0FA0F20FFF7EDFA0020FB
:1042A000FFF7EAFA0020FFF7E7FA0020FFF7E4FA49
:1042B0000020FFF7E1FAE120FFF7CEFA0020FFF738
:1042C000DBFA1520FFF7D8FA1720FFF7D5FA0720F9
:1042D000FFF7D2FA1120FFF7CFFA0620FFF7CCFA4A
:1042E0002B20FFF7C9FA5620FFF7C6FA3C20FFF74C
:1042F000C3FA0520FFF7C0FA1020FFF7BDFA0F2020
:10430000FFF7BAFA3F20FFF7B7FA3F20FFF7B4FAFA
:104310000F20FFF7B1FA2B20FFF79EFA0020FFF7DE
:10432000ABFA0020FFF7A8FA0120FFF7A5FA3F201B
:10433000FFF7A2FA2A20FFF78FFA0020FFF79CFA76
:104340000020FFF799FA0020FFF796FAEF20FFF719
:1043500093FA1120FFF780FA782002F033FC29202D
:10436000FFF77AFA01224FF48071044803F028FF26
:1043700000BF80BD0008024068030020000002402A
:1043800080B584B000AFF860B9607A603B60FB68CC
:104390009AB27B689BB2134498B2BB689AB23B68EE
:1043A0009BB213449BB23A8B1946FFF73BFBFB6869
:1043B0009AB27B689BB2D31A98B2BB689AB23B6838
:1043C0009BB213449BB23A8B1946FFF72BFBFB6859
:1043D0009AB27B689BB2134498B2BB689AB23B68AE
:1043E0009BB2D31A9BB23A8B1946FFF71BFBFB68B3
:1043F0009AB27B689BB2D31A98B2BB689AB23B68F8
:104400009BB2D31A9BB23A8B1946FFF70BFBFB68A2
:104410009AB23B689BB2134498B2BB689AB27B686D
:104420009BB213449BB23A8B1946FFF7FBFAFB6829
:104430009AB23B689BB2D31A98B2BB689AB27B68B7
:104440009BB213449BB23A8B1946FFF7EBFAFB6819
:104450009AB23B689BB2134498B2BB689AB27B682D
:104460009BB2D31A9BB23A8B1946FFF7DBFAFB6873
:104470009AB23B689BB2D31A98B2BB689AB27B6877
:104480009BB2D31A9BB23A8B1946FFF7CBFA00BF07
:104490001037BD4680BD80B58AB002AFF860B96004
:1044A0003B601346FB800023FB613B68BB613B68BC
:1044B0005B00C3F103033B61BB6A002B4FD029E0D3
:1044C000FB697B610AE0FB8800937B69FA69B96844
:1044D000F868FFF755FF7B6901337B617A69BB6937
:1044E0009A42F0DD3B69002B06DAFB699A003B69D2
:1044F000134406333B610AE0FA69BB69D31A9A0098
:104500003B6913440A333B61BB69013BBB61FB69F7
:104510000133FB61FA69BB699A42D1DD23E0FB8874
:104520000093BB69FA69B968F868FFF729FF3B692E
:10453000002B06DAFB699A003B69134406333B61A2
:104540000AE0FA69BB69D31A9A003B6913440A333B
:104550003B61BB69013BBB61FB690133FB61FA69EC
:10456000BB699A42DBDD00BF2037BD4680BD90B5F8
:104570008BB004AFBA601A460346FB810B46BB8181
:104580001346FB80FB89BB820023FB7534E0FB7D77
:10459000002B31D1BB681B78802B02D90123FB751E
:1045A0002AE0BB681B780D2B0BD197F82C309AB200
:1045B000BB891344BB81BB8AFB81BB680133BB60F1
:1045C00017E0BB681A78FC88B989F88997F8303009
:1045D000029397F82C3001933B8D00932346FFF70D
:1045E000F3FA97F82C305B08DBB29AB2FB891344DC
:1045F000FB81BB680133BB60BB681B78002BC6D155
:1046000000BF00BF1C37BD4690BD000080B58AB01A
:1046100004AFBA601A460346FB810B46BB811346C2
:10462000FB80B868FBF7D4FD0346FB820F4B1B8869
:104630001A46FB8ADB00D31ADA0F13445B10BB82E5
:10464000FA89BB8A134498B2FA88B98997F8283056
:10465000029397F8243001933B8C00931346BA6879
:10466000FFF785FF00BF1837BD4680BD68030020F7
:1046700080B500AF01224021024803F0A1FD00BF38
:1046800080BD00BF0018024080B500AF3F4B1B88C3
:10469000DBB29AB23D4B1A803D4B1B881A463D4B0C
:1046A0009B5C1B021AB2394B1B881BB213431BB213
:1046B0009AB2364B1A80364B1B88032B46D801A280
:1046C00052F823F0D5460008F346000811470008C9
:1046D0002F4700082D4B1B8843F0B0039AB22B4B99
:1046E0001A802A4B1B8823F040039AB2274B1A806A
:1046F0002DE0264B1B8843F0D0039AB2234B1A803F
:10470000224B1B8823F020039AB2204B1A801EE014
:104710001E4B1B8843F0E0039AB21C4B1A801B4BC4
:104720001B8823F010039AB2184B1A800FE0174B26
:104730001B8843F070039AB2144B1A80134B1B88EA
:1047400023F080039AB2114B1A8000E000BF104B97
:104750001B8801335A4203F0030302F0030258BFDF
:1047600053429AB20A4B1A80002240210A4803F0B1
:1047700027FD012302220549084805F0F8F9012226
:104780004021054803F01CFD00BF80BD66000020ED
:10479000780100205800002000180240100400207A
:1047A00080B485B000AFF860B9601346FB71FB6858
:1047B000002B0EDBFB68092B0BDC094AFB6813445A
:1047C0001A78FB79D31AD9B2064ABB6813440A4651
:1047D0001A7000BF1437BD465DF8047B704700BFF8
:1047E0005C0000205800002080B500AF02F078F98E
:1047F00000F02EF8FDF702FEFCF766FDFCF7C0FBAB
:10480000FDF726FBFDF728FF00F0F4FB01F05CF854
:1048100002F03CF801F008F801F0A2F802F060F8AC
:1048200000F080F8094B1B88012BFBD1074B0022BD
:104830001A8001F097FFFCF7DBFCFDF71DF8FDF790
:104840005FFAFEF76DFFFCF70FFEEBE77A01002041
:1048500080B594B000AF07F1200330220021184644
:1048600007F07AFF07F10C0300221A605A609A6081
:10487000DA601A610023BB60284B1B6C274A43F0A7
:1048800080531364254B1B6C03F08053BB60BB68E3
:1048900000237B60224B1B68214A43F48043136052
:1048A0001F4B1B6803F480437B607B6802233B62E1
:1048B0000123FB6210233B630223BB630023FB63E2
:1048C00008233B64A8237B640223BB640423FB64AA
:1048D00007F12003184604F04DFC0346002B01D0DD
:1048E00000F046F80F23FB6002233B6100237B614D
:1048F0004FF4A053BB614FF4A053FB6107F10C03CD
:104900000521184604F0AEFE0346002B01D000F04E
:104910002FF800BF5037BD4680BD00BF00380240B1
:104920000070004080B500AF00F050FAFCF754FC76
:10493000FFF7C6FB00F022F801F004FFFFF798FE36
:1049400001F044FFFDF7B6FE00F06AF8FEF7D0FE76
:10495000322000F049FA322000F062FA40F6B83016
:1049600000F07AFA4FF47A7000F092FA00BF80BD3E
:1049700080B400AF72B600BFFEE7000080B500AFA4
:1049800005220349034802F085F900BF80BD00BF3E
:1049900004040020A801002080B500AF05220349CF
:1049A000034802F077F900BF80BD00BF0404002077
:1049B000A801002080B400AF034B9B881846BD4679
:1049C0005DF8047B704700BF0404002080B400AF92
:1049D000034BDB881846BD465DF8047B704700BF7B
:1049E0000404002080B400AF0A4B1B8907EE903A04
:1049F000F8EE677A9FED087A67EE877A9FED077A7F
:104A0000C7EE876AF0EE667AB0EE670ABD465DF8DB
:104A1000047B7047040400200000A54300F07F459C
:104A200080B483B000AF194B77221A60174B5A221B
:104A30005A6001237B600DE0144A7B68002142F834
:104A40003310124A7B68DB00134400225A607B68F3
:104A500001337B607B68042BEEDD0D4B03221A6073
:104A60000C4B01221A600C4B00221A600B4B0022E7
:104A70001A600B4B3C221A600A4B00221A6000BFDE
:104A80000C37BD465DF8047B704700BF6002002014
:104A9000600100204C000020000000206401002084
:104AA000680100206C01002080B485B000AF3B4657
:104AB00083E803003B68002B08DD3B68EE2B05DC38
:104AC0007B68122B02DD7B68C62B01DD01231CE015
:104AD0000023FB6013E03A680F49FB6851F833305C
:104AE0009A4209D17A680C49FB68DB000B445B6889
:104AF0009A4201D1012308E0FB680133FB60FA68A8
:104B0000064B1B689A42E6D3002318461437BD466D
:104B10005DF8047B704700BF600200204C0000205D
:104B200080B483B000AF1B4B1B68002B0BDD194B0F
:104B30001B68EE2B07DC174B5B68122B03DD154B54
:104B40005B68C62B01DD01231EE001237B6015E0BD
:104B5000104B1A680F497B6851F833309A420AD1DA
:104B60000C4B5A680B497B68DB000B445B689A422C
:104B700001D1012308E07B6801337B607A68064B32
:104B80001B689A42E4D3002318460C37BD465DF8F3
:104B9000047B7047600200204C00002080B500AF0D
:104BA000134B1A68134B1B6806339A421DDC104BDB
:104BB0001A68104B1B68063B9A4216DB0C4B5A686E
:104BC0000C4B5B6806339A420FDC094B5A68094B61
:104BD0005B68063B9A4208DB064B93E80300FEF74E
:104BE0004FFD00F0CFF8012300E00023184680BD00
:104BF0006002002050000020B0B582B000AF7860A5
:104C000007F0B2FD03461846FBF78CFC04460D4640
:104C10007868FBF787FC4FF000020E4BFBF736FB82
:104C200002460B4620462946FBF7E6FC02460B46A9
:104C3000104619464FF00002074BFBF707FE0246ED
:104C40000B4610461946FBF787FF03461846083700
:104C5000BD46B0BD0000F03F0000E04180B582B02D
:104C600000AFEF20FFF7C8FF03463B60C720FFF708
:104C7000C3FF03467B6009E0EF20FFF7BDFF03465B
:104C80003B60C720FFF7B8FF03467B603B4693E8D5
:104C90000300FFF709FF0346012BEDD0074B1A462F
:104CA0003B4693E8030082E80300044B93E80300CB
:104CB000FEF7D3FC00BF0837BD4680BD5000002082
:104CC00080B582B000AF2C4B1B68013B2B4ADB0048
:104CD000134493E80300FEF7D3FC274B1B68013B0A
:104CE0007B6016E07B68013B244A52F8332023495D
:104CF0007B6841F833207B68013B204ADB0013448A
:104D00005A681E497B68DB000B445A607B68013B94
:104D10007B607B68002BE5DC194B1B68013B032B98
:104D200022D801A252F823F0394D0008454D000861
:104D3000514D00085D4D0008104B1B6807330F4AAA
:104D4000136012E00D4B1B68073B0C4A13600CE02C
:104D50000A4B5B68073B094A536006E0074B5B68F8
:104D60000733064A536000E000BF00F00BF800BFB5
:104D70000837BD4680BD00BF4C0000206002002007
:104D80006001002080B582B000AF0E4B93E80300B5
:104D9000FEF7F6FB01237B600AE00A4A7B68DB0032
:104DA000134493E80300FEF706FC7B6801337B6045
:104DB0007A68054B1B689A42EFD300BF00BF0837E3
:104DC000BD4680BD600200204C00002080B500AFD1
:104DD000034805F0E7FC034805F07CFC00BF80BDFC
:104DE000F8040020B004002080B483B000AF034674
:104DF000FB80084AFB881380064B1A88064B1A80F2
:104E0000064B00221A8000BF0C37BD465DF8047BBC
:104E1000704700BF7E0100207C0100207A01002045
:104E200080B483B000AF0346FB80084AFB88138040
:104E3000064B1A88064B1A80064B00221A8000BFC8
:104E40000C37BD465DF8047B704700BF840100202D
:104E5000820100208001002080B483B000AF0346AF
:104E6000FB80084AFB881380064B1A88064B1A8081
:104E7000064B00221A8000BF0C37BD465DF8047B4C
:104E8000704700BF8A0100208801002086010020B1
:104E900080B483B000AF0346FB80084AFB881380D0
:104EA000064B1A88064B1A80064B00221A8000BF58
:104EB0000C37BD465DF8047B704700BF90010020B1
:104EC0008E0100208C01002080B582B000AF786098
:104ED0007B681B68B3F1804F55D12D4B1B88002B8D
:104EE00010D02B4B1B88013B9AB2294B1A80284BC0
:104EF0001B88002B06D1274B01221A80264B1A88CB
:104F0000234B1A80254B1B88002B10D0234B1B886A
:104F1000013B9AB2214B1A80204B1B88002B06D1F3
:104F20001F4B01221A801F4B1A881C4B1A801E4BE4
:104F30001B88002B10D01C4B1B88013B9AB21A4BCC
:104F40001A80194B1B88002B06D1184B01221A809E
:104F5000174B1A88144B1A80164B1B88002B10D045
:104F6000144B1B88013B9AB2124B1A80114B1B88C1
:104F7000002B06D1104B01221A80104B1A880D4BC2
:104F80001A80FFF781FB00BF0837BD4680BD00BF18
:104F90007C0100207A0100207E0100208201002097
:104FA000800100208401002088010020860100206B
:104FB0008A0100208E0100208C0100209001002039
:104FC00080B483B000AF0346FB80094B1B6800220E
:104FD0005A6200BF064B1B685A6AFB889A42F9D393
:104FE00000BF00BF0C37BD465DF8047B704700BFB3
:104FF000B004002080B500AF174B184A1A60164B5A
:105000004FF482725A60144B00229A60124B0022B5
:10501000DA60114B00221A610F4B00225A610E4BCD
:105020004FF400729A610C4B0022DA610A4B0022A5
:105030001A62094B00225A62074B00229A62064B01
:105040000A22DA62044804F009FD0346002B01D06D
:10505000FFF78EFC00BF80BD10040020003001402F
:1050600080B483B000AF00237B60104B5B6C0F4AB1
:1050700043F4804353640D4B5B6C03F480437B60CB
:105080007B6800233B60094B1B6C084A43F080534C
:105090001364064B1B6C03F080533B603B6800BFFE
:1050A0000C37BD465DF8047B704700BF00380240F6
:1050B00080B58AB000AF786007F1140300221A604F
:1050C0005A609A60DA601A617B681B683C4A9342B6
:1050D00071D100233B613B4B5B6C3A4A43F48073D4
:1050E0005364384B5B6C03F480733B613B69002372
:1050F000FB60344B1B6B334A43F004031363314BA7
:105100001B6B03F00403FB60FB680023BB602D4BAB
:105110001B6B2C4A43F0020313632A4B1B6B03F0F7
:105120000203BB60BB6807237B610323BB610023D1
:10513000FB6107F114031946234802F08DFE032397
:105140007B610323BB610023FB6107F11403194654
:105150001E4802F081FE1E4B1E4A1A601C4B0022A4
:105160005A601B4B00229A60194B0022DA60184BE0
:105170004FF480621A61164B4FF400625A61144B6F
:105180004FF400529A61124B4FF48072DA61104B67
:1051900000221A620E4B00225A620D4802F05AFA9F
:1051A0000346002B01D0FFF7E3FB7B68084A9A63B4
:1051B000074A7B68936300BF2837BD4680BD00BFA8
:1051C0000020014000380240000802400004024074
:1051D000A40300201064024080B58AB000AF78605C
:1051E00007F1140300221A605A609A60DA601A61AB
:1051F0007B681B68194A93422BD100233B61184BF3
:105200001B6B174A43F002031363154B1B6B03F030
:1052100002033B613B69C0237B611223BB61002316
:10522000FB6103233B6204237B6207F114031946ED
:105230000C4802F011FE0023FB60094B1B6C084A6E
:1052400043F400131364064B1B6C03F40013FB6060
:10525000FB6800BF2837BD4680BD00BF005400403A
:10526000003802400004024080B58AB000AF786088
:1052700007F1140300221A605A609A60DA601A611A
:105280007B681B68194A93422BD100233B61184B62
:105290005B6C174A43F480535364154B5B6C03F407
:1052A00080533B613B690023FB60114B1B6B104A31
:1052B00043F0020313630E4B1B6B03F00203FB600E
:1052C000FB6838237B610223BB610023FB6103235E
:1052D0003B6205237B6207F114031946054802F07F
:1052E000BBFD00BF2837BD4680BD00BF0030014078
:1052F000003802400004024080B586B000AF7860FC
:105300007B681B68224A93420ED100237B61214BAC
:105310005B6C204A43F0010353641E4B5B6C03F04B
:1053200001037B617B692EE07B681B68B3F1804FD2
:1053300016D100233B61174B1B6C164A43F0010347
:105340001364144B1B6C03F001033B613B690022A7
:1053500000211C2002F047F91C2002F060F912E045
:105360007B681B680C4A93420DD10023FB60094BFC
:105370001B6C084A43F080031364064B1B6C03F05C
:105380008003FB60FB6800BF1837BD4680BD00BFCF
:105390000000014000380240001C004080B588B089
:1053A00000AF786007F10C0300221A605A609A601F
:1053B000DA601A617B681B68124A93421ED100238F
:1053C000BB60114B1B6B104A43F0200313630E4B61
:1053D0001B6B03F02003BB60BB684FF48073FB6062
:1053E00002233B6100237B610023BB610923FB6136
:1053F00007F10C031946054802F02EFD00BF2037C7
:10540000BD4680BD001C0040003802400014024030
:1054100080B58CB000AF786007F11C0300221A60E1
:105420005A609A60DA601A617B681B683A4A934254
:1054300035D10023BB61394B5B6C384A43F0100314
:105440005364364B5B6C03F01003BB61BB690023F4
:105450007B61324B1B6B314A43F0010313632F4BCB
:105460001B6B03F001037B617B694FF4C063FB613D
:1054700002233B6200237B620323BB620723FB62A0
:1054800007F11C031946264802F0E6FC0022002121
:10549000252002F0A8F8252002F0C1F838E07B684A
:1054A0001B68204A934233D100233B611B4B1B6C8A
:1054B0001A4A43F400331364184B1B6C03F4003393
:1054C0003B613B690023FB60144B1B6B134A43F0A9
:1054D00001031363114B1B6B03F00103FB60FB68BB
:1054E0000C23FB6102233B6200237B620323BB622C
:1054F0000723FB6207F11C031946094802F0ACFCC4
:1055000000220021262002F06EF8262002F087F803
:1055100000BF3037BD4680BD00100140003802405A
:10552000000002400044004080B586B000AF3B1D43
:1055300000221A605A609A60DA601A611C4B1B687C
:10554000002B31D11A4B01221A6000233B60194B0A
:105550009B6B184A43F001039363164B9B6B03F05C
:1055600001033B603B684FF688737B600223BB609E
:105570000023FB6003233B610C237B613B1D194629
:105580000D4802F069FC4CF2B3737B600223BB60F0
:105590000023FB6003233B610C237B613B1D194609
:1055A000064802F059FC00E000BF1837BD4680BD38
:1055B000940100200038024000100240000C02401C
:1055C00080B582B000AF7860FFF7AEFF00BF08374C
:1055D000BD4680BD80B400AFFEE780B400AFFEE7FB
:1055E00080B400AFFEE780B400AFFEE780B400AF48
:1055F000FEE780B400AF00BFBD465DF8047B704796
:1056000080B400AF00BFBD465DF8047B704780B436
:1056100000AF00BFBD465DF8047B704780B500AFAA
:1056200001F0B0FA00BF80BD80B500AF024805F0C0
:1056300082F900BF80BD00BFF804002080B500AF34
:10564000024806F0BDF800BF80BD00BF4005002045
:1056500080B500AF024806F0B3F800BF80BD00BFC0
:105660008405002080B500AF024802F08BF900BF2E
:1056700080BD00BFA403002080B400AF0123184602
:10568000BD465DF8047B704780B582B000AF78609E
:10569000396007F01DF8034616221A604FF0FF33F9
:1056A00018460837BD4680BD80B582B000AF78602F
:1056B0004FF0FF317868FFF7E7FFFEE780B586B06F
:1056C00000AFF860B9607A6000237B610AE0AFF355
:1056D00000800146BB685A1CBA60CAB21A707B6966
:1056E00001337B617A697B689A42F0DB7B681846FC
:1056F0001837BD4680BD80B586B000AFF860B96090
:105700007A6000237B6109E0BB685A1CBA601B7891
:105710001846AFF300807B6901337B617A697B684F
:105720009A42F1DB7B6818461837BD4680BD80B4CD
:1057300083B000AF78604FF0FF3318460C37BD469A
:105740005DF8047B704780B483B000AF7860396047
:105750003B684FF400525A60002318460C37BD4690
:105760005DF8047B704780B483B000AF786001239C
:1057700018460C37BD465DF8047B704780B485B091
:1057800000AFF860B9607A60002318461437BD4650
:105790005DF8047B7047000080B586B000AF78608C
:1057A000144A154BD31A7B617B693B61134B1B6811
:1057B000002B02D1114B124A1A60104B1A687B68F9
:1057C00013443A699A4207D206F082FF03460C223C
:1057D0001A604FF0FF3309E0084B1B68FB60074B72
:1057E0001A687B681344054A1360FB68184618372B
:1057F000BD4680BD0000022000040000980100208A
:10580000E005002080B400AF064BD3F88830054A8D
:1058100043F47003C2F8883000BFBD465DF8047BD6
:10582000704700BF00ED00E080B586B000AF07F123
:10583000080300221A605A609A60DA603B46002230
:105840001A605A601E4B1F4A1A601D4B53225A6041
:105850001B4B00229A601A4B4FF6FF72DA60184B0E
:1058600000221A61164B00225A61154B00229A61E0
:10587000134804F0DFFE0346002B01D0FFF778F851
:105880004FF48053BB6007F1080319460C4805F03C
:105890001DFA0346002B01D0FFF76AF800233B6096
:1058A00000237B603B461946054805F0E9FD0346A9
:1058B000002B01D0FFF75CF800BF1837BD4680BD54
:1058C000B00400200000014080B586B000AF07F1B1
:1058D000080300221A605A609A60DA603B46002290
:1058E0001A605A601D4B4FF080421A601B4B40F209
:1058F00047325A60194B00229A60184B6322DA60D3
:10590000164B00221A61154B00229A61134804F0CD
:1059100091FE0346002B01D0FFF72AF84FF4805385
:10592000BB6007F1080319460C4805F0CFF90346A0
:10593000002B01D0FFF71CF800233B6000237B60A5
:105940003B461946054805F09BFD0346002B01D058
:10595000FFF70EF800BF1837BD4680BDF8040020E1
:1059600080B588B000AF3B1D00221A605A609A6073
:10597000DA601A615A619A611E4B1F4A1A601D4B08
:1059800040F247325A601B4B00229A60194B632247
:10599000DA60184B00221A61164B00229A611548F2
:1059A00004F048FE0346002B01D0FEF7E1FF11484A
:1059B00004F068FF0346002B01D0FEF7D9FF6023F7
:1059C0007B600023BB600023FB6000237B613B1DE9
:1059D00000221946074805F0B7F80346002B01D00E
:1059E000FEF7C6FF0348FFF7D9FC00BF2037BD46CE
:1059F00080BD00BF68040020001C004080B584B05A
:105A000000AF0346FB710023FB730023FB7325E00B
:105A100097F90730002B06DA01224FF40071134882
:105A200002F0CEFB05E000224FF400710F4802F0B7
:105A3000C7FBFB795B00FB7100224FF480710C48BF
:105A400002F0BEFB0120FFF7BBFA01224FF4807188
:105A5000074802F0B5FBFB7B0133FB73FB7B072B95
:105A6000D6D900BF00BF1037BD4680BD0008024038
:105A70000018024080B584B000AF0346FB710023DC
:105A8000FB730023BB8100224FF480712F4802F08A
:105A900097FB00224FF400712D4802F091FB002289
:105AA00080212A4802F08CFBFB791846FFF7A6FFFD
:105AB0000620FFF785FA00224FF48071234802F098
:105AC0007FFB0120FFF77CFA01224FF480711F4811
:105AD00002F076FB0120FFF773FA00224FF4807189
