:020000040800F2
:1000000000000220B1600008ED4D0008F34D00082B
:10001000F94D0008FF4D0008054E000800000000E3
:100020000000000000000000000000000B4E00086F
:10003000194E000800000000274E0008354E000849
:100040000161000801610008016100080161000808
:1000500001610008016100080161000801610008F8
:1000600001610008016100080161000801610008E8
:1000700001610008016100080161000801610008D8
:1000800001610008016100080161000801610008C8
:1000900001610008016100080161000801610008B8
:1000A00001610008016100080161000801610008A8
:1000B000414E00080161000801610008016100086B
:1000C0000161000801610008016100080161000888
:1000D00001610008554E0008694E000801610008E2
:1000E0000161000801610008016100080161000868
:1000F0000161000801610008016100080161000858
:100100000161000801610008016100080161000847
:100110000161000801610008016100080161000837
:100120007D4E0008016100080161000801610008BE
:100130000161000801610008016100080161000817
:100140000161000801610008016100080161000807
:1001500001610008016100080161000801610008F7
:1001600001610008016100080161000801610008E7
:100170000161000801610008016100080000000041
:080180000161000801610008A3
:1001900010B5054C237833B9044B13B10448AFF3C1
:1001A00000800123237010BD20010020000000000A
:1001B00014DE000808B5034B1BB103490348AFF335
:1001C000008008BD000000002401002014DE0008AB
:1001D00001F0FF01102A2BDB10F0070F08D010F8F8
:1001E000013B013A8B422DD010F0070F42B3F6D1FC
:1001F000F0B441EA012141EA014122F007047FF015
:1002000000070023F0E80256083C85EA010586EA6B
:10021000010685FA47F5A3FA87F586FA47F6A5FAA7
:1002200087F68EB9EED1F0BC01F0FF0102F00702B3
:1002300032B110F8013B013A83EA010313B1F8D15E
:100240000020704701387047002D06BF354603383F
:10025000073815F0010F07D1013015F4807F02BF78
:10026000013015F4C03F0130F0BC0138704700BFC9
:1002700081F0004102E000BF83F0004330B54FEA57
:1002800041044FEA430594EA050F08BF90EA020FC4
:100290001FBF54EA000C55EA020C7FEA645C7FEA57
:1002A000655C00F0E2804FEA5454D4EB5555B8BF7A
:1002B0006D420CDD2C4480EA020281EA030382EAEB
:1002C000000083EA010180EA020281EA0303362D7D
:1002D00088BF30BD11F0004F4FEA01314FF4801C50
:1002E0004CEA113102D0404261EB410113F0004F62
:1002F0004FEA03334CEA133302D0524263EB430319
:1003000094EA050F00F0A780A4F10104D5F1200EB6
:100310000DDB02FA0EFC22FA05F2801841F1000111
:1003200003FA0EF2801843FA05F359410EE0A5F1E5
:1003300020050EF1200E012A03FA0EFC28BF4CF016
:10034000020C43FA05F3C01851EBE37101F00045CC
:1003500007D54FF0000EDCF1000C7EEB00006EEBD9
:100360000101B1F5801F1BD3B1F5001F0CD3490863
:100370005FEA30004FEA3C0C04F101044FEA4452BA
:1003800012F5800F80F09A80BCF1004F08BF5FEA41
:10039000500C50F1000041EB045141EA050130BD21
:1003A0005FEA4C0C404141EB0101013C28BFB1F533
:1003B000801FE9D291F0000F04BF01460020B1FA7E
:1003C00081F308BF2033A3F10B03B3F120020CDA51
:1003D0000C3208DD02F1140CC2F10C0201FA0CF02F
:1003E00021FA02F10CE002F11402D8BFC2F1200C94
:1003F00001FA02F120FA0CFCDCBF41EA0C0190404A
:10040000E41AA2BF01EB0451294330BD6FEA040492
:100410001F3C1CDA0C340EDC04F11404C4F120027D
:1004200020FA04F001FA02F340EA030021FA04F38F
:1004300045EA030130BDC4F10C04C4F1200220FAE6
:1004400002F001FA04F340EA0300294630BD21FA24
:1004500004F0294630BD94F0000F83F4801306BFEA
:1004600081F480110134013D4EE77FEA645C18BFDE
:100470007FEA655C29D094EA050F08BF90EA020F75
:1004800005D054EA000C04BF1946104630BD91EA6D
:10049000030F1EBF0021002030BD5FEA545C05D170
:1004A0004000494128BF41F0004130BD14F58004AF
:1004B0003CBF01F5801130BD01F0004545F0FE4123
:1004C00041F470014FF0000030BD7FEA645C1ABF58
:1004D000194610467FEA655C1CBF0B46024650EA8F
:1004E000013406BF52EA033591EA030F41F40021BB
:1004F00030BD00BF90F0000F04BF0021704730B541
:100500004FF4806404F132044FF000054FF0000115
:1005100050E700BF90F0000F04BF0021704730B5D6
:100520004FF4806404F1320410F0004548BF4042AB
:100530004FF000013EE700BF42004FEAE2014FEA00
:1005400031014FEA02701FBF12F07F4393F07F4FDB
:1005500081F06051704732F07F4208BF704793F0DE
:100560007F4F04BF41F40021704730B54FF46074F1
:1005700001F0004521F000411CE700BF50EA0102F4
:1005800008BF704730B54FF000050AE050EA01029D
:1005900008BF704730B511F0004502D5404261EB0D
:1005A00041014FF4806404F132045FEA915C3FF44E
:1005B000D8AE4FF003025FEADC0C18BF03325FEAEB
:1005C000DC0C18BF033202EBDC02C2F1200300FA9C
:1005D00003FC20FA02F001FA03FE40EA0E0021FAC1
:1005E00002F11444BDE600BF70B54FF0FF0C4CF4AF
:1005F000E06C1CEA11541DBF1CEA135594EA0C0F61
:1006000095EA0C0F00F0DEF82C4481EA030621EA9B
:100610004C5123EA4C5350EA013518BF52EA0335D6
:1006200041F4801143F4801338D0A0FB02CE4FF088
:100630000005E1FB02E506F00042E0FB03E54FF0B8
:100640000006E1FB03569CF0000F18BF4EF0010EB0
:10065000A4F1FF04B6F5007F64F5407404D25FEAAC
:100660004E0E6D4146EB060642EAC62141EA55515F
:100670004FEAC52040EA5E504FEACE2EB4F1FD0CA1
:1006800088BFBCF5E06F1ED8BEF1004F08BF5FEA1F
:10069000500E50F1000041EB045170BD06F00046D1
:1006A00046EA010140EA020081EA0301B4EB5C047E
:1006B000C2BFD4EB0C0541EA045170BD41F4801176
:1006C0004FF0000E013C00F3AB8014F1360FDEBF9B
:1006D000002001F0004170BDC4F10004203C35DA77
:1006E0000C341BDC04F11404C4F1200500FA05F3FA
:1006F00020FA04F001FA05F240EA020001F000429B
:1007000021F0004110EBD37021FA04F642EB060110
:100710005EEA430E08BF20EAD37070BDC4F10C043A
:10072000C4F1200500FA04F320FA05F001FA04F2FE
:1007300040EA020001F0004110EBD37041F10001EA
:100740005EEA430E08BF20EAD37070BDC4F12005F5
:1007500000FA05F24EEA020E20FA04F301FA05F25D
:1007600043EA020321FA04F001F0004121FA04F205
:1007700020EA020000EBD3705EEA430E08BF20EAD5
:10078000D37070BD94F0000F0FD101F0004640000F
:1007900041EB010111F4801F08BF013CF7D041EA91
:1007A000060195F0000F18BF704703F00046520095
:1007B00043EB030313F4801F08BF013DF7D043EA66
:1007C0000603704794EA0C0F0CEA135518BF95EA1C
:1007D0000C0F0CD050EA410618BF52EA4306D1D1A3
:1007E00081EA030101F000414FF0000070BD50EAC2
:1007F000410606BF1046194652EA430619D094EA4C
:100800000C0F02D150EA013613D195EA0C0F05D135
:1008100052EA03361CBF104619460AD181EA030189
:1008200001F0004141F0FE4141F470014FF0000041
:1008300070BD41F0FE4141F4780170BD70B54FF0DC
:10084000FF0C4CF4E06C1CEA11541DBF1CEA13555C
:1008500094EA0C0F95EA0C0F00F0A7F8A4EB05043E
:1008600081EA030E52EA03354FEA013100F0888035
:100870004FEA03334FF0805545EA131343EA1263FE
:100880004FEA022245EA111545EA10654FEA0026B3
:100890000EF000419D4208BF964244F1FD0404F56C
:1008A000407402D25B084FEA3202B61A65EB0305C8
:1008B0005B084FEA32024FF480104FF4002CB6EB85
:1008C000020E75EB030E22BFB61A754640EA0C0005
:1008D0005B084FEA3202B6EB020E75EB030E22BF45
:1008E000B61A754640EA5C005B084FEA3202B6EB86
:1008F000020E75EB030E22BFB61A754640EA9C0045
:100900005B084FEA3202B6EB020E75EB030E22BF14
:10091000B61A754640EADC0055EA060E18D04FEAD2
:10092000051545EA16754FEA06164FEAC30343EA72
:1009300052734FEAC2025FEA1C1CC0D111F4801F3F
:100940000BD141EA00014FF000004FF0004CB6E738
:1009500011F4801F04BF01430020B4F1FD0C88BFD7
:10096000BCF5E06F3FF6AFAEB5EB030C04BFB6EBE2
:10097000020C5FEA500C50F1000041EB045170BDD5
:100980000EF0004E4EEA113114EB5C04C2BFD4EB02
:100990000C0541EA045170BD41F480114FF0000E86
:1009A000013C90E645EA060E8DE60CEA135594EA02
:1009B0000C0F08BF95EA0C0F3FF43BAF94EA0C0F05
:1009C0000AD150EA01347FF434AF95EA0C0F7FF47A
:1009D00025AF104619462CE795EA0C0F06D152EACE
:1009E00003353FF4FDAE1046194622E750EA4106B2
:1009F00018BF52EA43067FF4C5AE50EA41047FF4C3
:100A00000DAF52EA43057FF4EBAE12E74FF0FF3C27
:100A100006E000BF4FF0010C02E000BF4FF0010CF8
:100A20004DF804CD4FEA410C7FEA6C5C4FEA430C71
:100A300018BF7FEA6C5C1BD001B050EA410C0CBFC0
:100A400052EA430C91EA030F02BF90EA020F002022
:100A5000704710F1000F91EA030F58BF994208BF89
:100A600090422CBFD8176FEAE37040F00100704746
:100A70004FEA410C7FEA6C5C02D150EA013C07D19D
:100A80004FEA430C7FEA6C5CD6D152EA033CD3D0E8
:100A90005DF8040B704700BF8446104662468C46E2
:100AA0001946634600E000BF01B5FFF7B7FF002815
:100AB00048BF10F1000F01BD4DF808EDFFF7F4FF3E
:100AC0000CBF012000205DF808FB00BF4DF808EDC9
:100AD000FFF7EAFF34BF012000205DF808FB00BFEC
:100AE0004DF808EDFFF7E0FF94BF012000205DF80E
:100AF00008FB00BF4DF808EDFFF7CEFF94BF0120C3
:100B000000205DF808FB00BF4DF808EDFFF7C4FFBB
:100B100034BF012000205DF808FB00BF4FEA410C04
:100B20007FEA6C5C02D150EA013C0AD14FEA430CE7
:100B30007FEA6C5C02D152EA033C02D14FF0000024
:100B400070474FF0010070474FEA410212F5001262
:100B500015D211D56FF47873B3EB625212D94FEA04
:100B6000C12343F0004343EA505311F0004F23FAEE
:100B700002F018BF404270474FF00000704750EA43
:100B8000013005D111F0004008BF6FF00040704700
:100B90004FF00000704700BF4A0011D212F500125A
:100BA00011D20DD56FF47873B3EB62520ED44FEAC5
:100BB000C12343F0004343EA505323FA02F0704745
:100BC0004FF00000704750EA013002D14FF0FF3083
:100BD00070474FF0000070474FEA4102B2F1E04326
:100BE00024BFB3F5001CDCF1FE5C0DD901F0004C14
:100BF0004FEAC0024CEA5070B2F1004F40EB830064
:100C000008BF20F00100704711F0804F21D113F18F
:100C10003872BCBF01F00040704741F480114FEAC8
:100C20005252C2F11802C2F1200C10FA0CF320FA51
:100C300002F018BF40F001004FEAC1234FEAD3236E
:100C400003FA0CFC40EA0C0023FA02F34FEA4303D8
:100C5000CCE77FEA625307D150EA01331EBF4FF061
:100C6000FE4040F44000704701F0004040F0FE407C
:100C700040F40000704700BF53B94AB9002908BFCB
:100C800000281CBF4FF0FF314FF0FF3000F070B96B
:100C9000ADF1080C6DE904CE00F006F8DDF804E0D3
:100CA000DDE9022304B070472DE9F047089E0D46A8
:100CB00004460F46002B4AD18A42944665D9B2FABF
:100CC00082F343B102FA03FCC3F120029F4020FAF1
:100CD00002F217439C404FEA1C4E1FFA8CF5B7FBFB
:100CE000FEF1220C0EFB117742EA074201FB05F0F0
:100CF00090420AD91CEB020201F1FF3780F01C81FF
:100D0000904240F2198102396244121AA4B2B2FB35
:100D1000FEF00EFB102244EA024400FB05F5A5425A
:100D20000AD91CEB040400F1FF3280F00781A542D0
:100D300040F204816444023840EA0140641B00210F
:100D40001EB1DC400023C6E90043BDE8F0878B42BA
:100D500008D9002E00F0ED800021C6E90005084604
:100D6000BDE8F087B3FA83F1002949D1AB4202D341
:100D7000824200F2F880841A65EB030201201746D4
:100D8000002EE2D0C6E90047DFE702B9FFDEB2FA83
:100D900082F3002B40F090808A1A4FEA1C471FFA1A
:100DA0008CFE0121B2FBF7F507FB1520220C42EA6D
:100DB00000420EFB05F0904208D91CEB020205F13F
:100DC000FF3802D2904200F2CB804546121AA4B2FC
:100DD000B2FBF7F007FB102244EA02440EFB00FED0
:100DE000A64508D91CEB040400F1FF3202D2A64547
:100DF00000F2BB801046A4EB0E0440EA05409FE7DA
:100E0000C1F120078B4022FA07FC4CEA030C05FADB
:100E100001F420FA07F3FD404FEA1C492343B5FBD8
:100E2000F9F81FFA8CFE09FB18551C0C44EA05441E
:100E300008FB0EF5A54202FA01F200FA01F00BD907
:100E40001CEB040408F1FF3A80F08880A54240F2D0
:100E50008580A8F102086444641B9DB2B4FBF9F3D9
:100E600009FB134445EA044403FB0EFEA64508D9DA
:100E70001CEB040403F1FF356CD2A6456AD9023B92
:100E8000644443EA0843A3FB0295A4EB0E04AC427E
:100E9000C846AE4656D353D056B1B0EB080264EB09
:100EA0000E0404FA07F7CA40CC401743C6E90074A1
:100EB00018460021BDE8F087C3F1200102FA03FCC7
:100EC00020FA01F225FA01F19D402A434FEA1C471E
:100ED0001FFA8CFEB1FBF7F007FB1015110C41EA6D
:100EE000054100FB0EF58D4204FA03F408D91CEB12
:100EF000010100F1FF382FD28D422DD90238614413
:100F0000491B92B2B1FBF7F507FB151142EA01420A
:100F100005FB0EF1914208D91CEB020205F1FF38E6
:100F200016D2914214D9023D6244521A45EA004158
:100F300038E73146304608E73946E6E61046FBE634
:100F40004845A9D2B9EB020865EB0C0E013BA3E7BB
:100F50004546EAE72B4694E74046D1E7D0467BE793
:100F6000023D624432E708460AE76444023842E739
:100F7000704700BF80B584B000AF3B4600221A60C6
:100F80005A609A60DA603D4B3D4A1A603B4B002242
:100F90005A603A4B00229A60384B01221A61374B53
:100FA00000221A76354B002283F82020334B002292
:100FB000DA62324B334A9A62304B0022DA602F4BAE
:100FC0000522DA612D4B002283F830202B4B0122C1
:100FD0005A612A4805F02CF90346002B01D003F092
:100FE0000DF908233B6001237B600023BB603B4677
:100FF0001946224805F08EFA0346002B01D003F073
:10100000FDF809233B6002237B603B4619461B48E1
:1010100005F080FA0346002B01D003F0EFF80A2315
:101020003B6003237B603B461946144805F072FA87
:101030000346002B01D003F0E1F80B233B600423AF
:101040007B603B4619460D4805F064FA0346002BC9
:1010500001D003F0D3F80C233B6005237B603B46B3
:101060001946064805F056FA0346002B01D003F056
:10107000C5F800BF1037BD4680BD00BF3C01002051
:10108000002001400100000F80B500AF00F03CF8E7
:1010900000BF80BD80B588B004AF0346FB8000234D
:1010A000FB73FA880A2302930123019307F10F03CC
:1010B00000931023A021044806F006FEFB7B18468F
:1010C0001037BD4680BD00BFAC05002080B586B09E
:1010D00004AF03460A46FB8013467B71FA880A2355
:1010E0000293012301937B1D00931023A021054847
:1010F00006F0F0FC052005F077F800BF0837BD4684
:1011000080BD00BFAC05002080B582B000AF4FF6B7
:10111000FF70FFF7BFFF0346FB71FB79552B01D131
:10112000002310E055214FF6FF70FFF7CFFF4FF679
:10113000FF70FFF7AFFF0346FB71FB79552B01D121
:10114000002300E0012318460837BD4680BD90B556
:1011500083B000AF03463960FB801346BB800DE0CF
:10116000FB885A1CFA803C68621C3A601846FFF7FC
:1011700091FF03462370BB88013BBB80BB88002BDB
:10118000EED100BF00BF0C37BD4690BD80B582B028
:1011900000AF03463960FB801346BB800CE03B6820
:1011A0001A78FB8811461846FFF790FFFB88013339
:1011B000FB803B6801333B60BB885A1EBA80002B22
:1011C000EDD100BF00BF0837BD4680BD80B500AF80
:1011D00001220821024806F005FB00BF80BD00BFC8
:1011E000000C024080B584B000AF002208212F48D7
:1011F00006F0F8FA012208212C4806F0F3FA0A2337
:1012000002222B492B4808F03EF90023FB604FF4E3
:1012100000437B8100237B603FE07B68002B06DB83
:101220007B68032B03DC7B680433FB6018E07B687E
:10123000032B07DD7B68072B04DC7B68C3F1070306
:10124000FB600DE07B68072B06DD7B680B2B03DC66
:101250007B680433FB6003E07B68C3F11703FB602A
:10126000134B1A887B8913409BB2002B05D0124A7E
:10127000FB68002122F8131009E00F4AFB6832F8DE
:101280001330013399B20C4AFB6822F813107B89A2
:101290005B087B817B6801337B607B680F2BBCDD47
:1012A00000BF00BF1037BD4680BD00BF000C02402C
:1012B000A4010020880600208401002080B582B0AF
:1012C00000AF00237B600C4B1B6B0B4A43F4800385
:1012D0001363094B1B6B03F480037B607B68002264
:1012E0000021382005F091FC382005F0AAFC00BF51
:1012F0000837BD4680BD00BF0038024080B483B0CF
:1013000000AF00237B6007E0084A7B68134400229B
:101310001A707B6801337B607B68032BF4DD00BFB0
:1013200000BF0C37BD465DF8047B7047AC01002060
:1013300080B400AF074B01221A60074B1B68074AB5
:101340001360074B1B68074A136000BFBD465DF87A
:10135000047B70478002002070020020840200207D
:10136000740200208802002080B500AF0B4B1B6880
:10137000012B10D10A4B1B680A4A13600A4B1B68E9
:101380000A4A136003F042F9094B93E8030001F0A5
:1013900020FE01F023FA00BF80BD00BF80020020C4
:1013A00084020020700200208802002074020020C5
:1013B0001000002080B500AF00F052FC0346012B66
:1013C00003D02A4B9B89012B07D1294B1B68022B89
:1013D00003D0274B01221A6046E000F065FC03466B
:1013E000012B03D0214B1B89012B07D1204B1B68FC
:1013F000012B03D01E4B02221A6035E000F078FC6E
:101400000346012B03D0194B5B88012B07D1184BE6
:101410001B68042B03D0164B03221A6024E000F053
:1014200089FC0346012B03D0104B5B8A012B07D1AB
:101430000F4B1B68032B03D00D4B04221A6013E0E3
:1014400000F003FD0346012B03D0084B5B89012B01
:101450000AD1FFF76DFF074B0F221A60044B0022E1
:101460001A6001F0D3F9FFE700BF80BD84010020BE
:10147000740200207002002080B500AFB14B1B68E1
:10148000122B00F2A98101A252F823F0D91400080E
:1014900095150008D917000895160008D9170008F7
:1014A000D9170008D9170008D9170008D91700085C
:1014B000D9170008D9170008B5160008BB16000890
:1014C000C1160008D917000861170008C7160008E0
:1014D000EB1600080D17000800F0DBFC0346012B9B
:1014E00003D0994BDB88012B15D1984B5B78012BEE
:1014F00009D1FFF703FF934B01221A6002F0D6FED9
:1015000000F048FF45E0FFF7F9FE904B01225A70CA
:1015100001F0F2FB3DE000F0DEFC0346012B03D0BE
:10152000894BDB89012B16D1884B9B78012B0AD183
:10153000874B1B68012B06D1FFF7E0FE01F064F832
:10154000FFF712FF25E0FFF7D9FE804B01229A70CA
:1015500001F0EAFB1DE000F0E0FC0346012B04D0A3
:10156000794BDB8A012B40F03981784BDB78012BFA
:1015700007D1FFF7C3FE734B03221A6000F078FF18
:101580002CE1FFF7BBFE714B0122DA7001F0E4FBA6
:1015900024E123E100F0E4FC0346012B03D06A4B75
:1015A000DB88012B16D1694B1B78012B0AD1FFF781
:1015B000A5FE684B0B221A60624B12221A6001F0E2
:1015C000E9FA49E0FFF79AFE604B01221A7001F038
:1015D000DDFB41E000F0E6FC0346012B03D05A4B53
:1015E000DB89012B16D1594B5B78012B0AD1FFF710
:1015F00085FE584B0C221A60524B12221A6001F0E1
:10160000C9FA29E0FFF77AFE504B01225A7001F027
:10161000D5FB21E000F0E8FC0346012B03D04A4B48
:10162000DB8A012B18D1494B9B78012B0DD1FFF799
:1016300065FE484B0D221A60424B12221A6001F0DF
:10164000A9FA454B00221A6006E0FFF757FE3F4B10
:1016500001229A7001F0CCFB00F090FB0346012BB5
:1016600004D0394BDB8B012B40F0BA80374BDB7851
:10167000012B07D1FFF742FE324B00221A6000F027
:1016800031FEADE0FFF73AFE304B0122DA7001F097
:10169000C9FBA5E000F072FB0346012B04D02A4BE6
:1016A000DB88012B40F09E80264B00221A6000F060
:1016B00019FE97E0FFF77EFE9BE0FFF77BFE98E0C8
:1016C000FFF778FE95E000F07CFB0346012B04D089
:1016D0001D4BDB88012B40F087801A4B00221A60DB
:1016E00000F000FE01F09BFC7EE000F06AFB034688
:1016F000012B03D0144BDB88012B77D1114B002237
:101700001A6000F0EFFD01F08AFC6FE040F6B8309F
:1017100004F06AFD0F4B1B680A4A13604FF4FA701D
:1017200002F0C2FF00F070FF01F092FC02F06EFFC9
:101730000A4B93E8030001F04CFC01F017F801F0AC
:101740004DF856E07002002084010020AC0100201A
:101750008002002084020020A80100201000002048
:1017600000F02FFB0346012B03D0234BDB89012B19
:1017700015D1224B9B78012B09D1FFF7BFFD204BE0
:1017800000221A6000F0AEFD01F049FC23E0FFF7F3
:10179000B5FD1A4B01229A7001F086FB1BE000F0A8
:1017A00032FB0346012B03D0134BDB88012B1FD1E7
:1017B000124B5B78012B06D1FFF7A0FD00F024FF50
:1017C000FFF7D2FD14E0FFF799FD0C4B01225A7090
:1017D00001F042FB0CE00BE000BF0AE000BF08E0B4
:1017E00000BF06E000BF04E000BF02E000BF00E071
:1017F00000BF00BF80BD00BF84010020AC010020FD
:10180000700200200000000080B500AF02F00AFD69
:1018100002F02EFDF0EE407A1B4BC3ED007A02F091
:101820001BFD034607EE903AF8EE677A17EE900A32
:10183000FEF782FE12A3D3E90023FEF7FFFF024664
:101840000B46104619464FF00002104BFEF7CCFE37
:1018500002460B4610461946FFF79EF903469AB218
:101860000B4B1A8002F0ECFC0346C3F57F630F3389
:101870009AB2084B1A8000F079FF00BF80BD00BF0C
:101880000000000000FEAF400400002000005940AE
:10189000080000200A00002080B500AF0A4B1B683A
:1018A0004FF4C872B2FBF3F213469B001A44074B85
:1018B0001B6813440533054A1360034B00221A606A
:1018C00000F08CFF00BF80BD7802002000000020E7
:1018D00080B500AF174B1B68002B01D002F034FE1F
:1018E00002F064FD0346012B07D1134B10221A604E
:1018F00000F0CCFF02F0DAFC19E002F095FD03469F
:10190000012B09D10D4B1B6801330C4A1360FFF703
:10191000C3FF02F0E7FD0AE0084B1B68642B06D109
:10192000054B11221A6000F0E9FF02F0BFFC00BF76
:1019300080BD00BF74020020700200200C00002057
:1019400080B500AF584B1B680D2B4FD00D2B00F30B
:10195000A1800B2B02D00C2B19D09BE0534B1B68A2
:101960000133524A1360524B1B88012B04D1504B58
:1019700000221A80FFF748FF4E4B1B88012B40F0D6
:101980008B804C4B00221A80FFF7A2FF84E0474B6C
:101990001B680133454A1360454B1B88012B04D15A
:1019A000434B00221A80FFF72FFF424B1B88012B6D
:1019B00074D1404B00221A80FFF78AFF3E4B1B6810
:1019C000052B03D1C82002F06FFE67E03A4B1B687D
:1019D0000A2B03D1642002F067FE5FE0364B1B68E0
:1019E0000F2B5BD1322002F05FFE57E02F4B1B68BC
:1019F00001332E4A1360314B1B6801332F4A1360A9
:101A00002E4B19682E4BA3FB01231A0913469B008A
:101A100013449B00CA1A002A06D12A4B1B68013BBB
:101A2000284A136001F038FB214B1B88012B04D19D
:101A30001F4B00221A80FFF7E7FE1E4B1B88012B6D
:101A40002ED11C4B00221A80FFF742FF1D4B1B6852
:101A5000322B03D8C82002F027FE21E0194B1B6867
:101A6000232B03D8642002F01FFE19E0154B1B68DE
:101A7000142B03D8322002F017FE11E0114B1B6823
:101A8000002B0DD1084B11221A6000F037FF02F035
:101A90000DFC05E000BF04E000BF02E000BF00E075
:101AA00000BF00BF80BD00BF700200207802002090
:101AB000820600207C0600200C000020A8010020E7
:101AC000CDCCCCCC7C02002080B58EB000AF07F12D
:101AD0001C0300221A605A609A60DA601A615A6127
:101AE0009A613B4600221A605A609A60DA601A6175
:101AF0005A619A612F4B4FF020421A602D4B2E4AAB
:101B00005A602C4B00229A602A4B0022DA60294B43
:101B100000221A61274B10225A61264B00229A613B
:101B2000244B0022DA61234B00221A62214B00224F
:101B30005A62204B4FF480529A621E4B0022DA62A6
:101B40001C4B4FF480421A631A4B00225A63194B04
:101B500000229A63174B00225A640F23FB610F2364
:101B60003B623C237B620023BB621023FB62112398
:101B70003B6300237B6308233B600F237B600923C7
:101B8000BB600023FB6010233B6111237B610023BA
:101B9000BB613A4607F11C031946064808F056F89F
:101BA0000346002B01D002F029FB00BF3837BD46A9
:101BB00080BD00BFB0010020040100A000000000B3
:101BC000B0B582B000AF0446084611461A46234617
:101BD000FB800346BB800B467B8013463B80FA8824
:101BE0007B88D31A1846FEF795FC02460B469FEDFC
:101BF0001A1B43EC102B0BF0A9F955EC104BBA88CB
:101C00003B88D31A1846FEF785FC02460B469FED2B
:101C1000121B43EC102B0BF099F953EC102B2046C0
:101C20002946FEF72BFB02460B4643EC172BB0EE82
:101C3000470AF0EE670A0BF0F9F953EC102B104647
:101C40001946FEF7C9FF034607EE903AB0EE670A61
:101C50000837BD46B0BD00BF0000000000000040D6
:101C600080B500AF04F088F90346002B01D10023B2
:101C700018E004F093F90346A52B12D904F08EF96D
:101C80000346EA2B0DD804F095F90346B3F5857F9A
:101C900007D304F08FF90346B3F59D7F01D80123E4
:101CA00000E00023184680BD80B500AF04F064F961
:101CB0000346002B01D1002318E004F06FF903461E
:101CC000052B12D904F06AF903464A2B0DD804F00B
:101CD00071F90346B3F5857F07D304F06BF903462A
:101CE000B3F59D7F01D8012300E00023184680BD95
:101CF00080B500AF04F040F90346002B01D100236A
:101D000016E004F04BF90346552B10D904F046F9C0
:101D100003469A2B0BD804F04DF90346CD2B06D978
:101D200004F048F90346FE2B01D8012300E000230C
:101D3000184680BD80B500AF04F01EF90346002BA5
:101D400001D1002318E004F029F90346552B12D9DC
:101D500004F024F903469A2B0DD804F02BF903461E
:101D6000B3F5857F07D304F025F90346B3F59D7FCE
:101D700001D8012300E00023184680BD80B500AFE4
:101D800004F0FAF80346002B01D1002317E004F019
:101D900005F90346412B11D904F000F90346B82B8D
:101DA0000CD804F007F90346FA2B07D904F002F91E
:101DB0000346B3F58E7F01D8012300E000231846C7
:101DC00080BD80B500AF04F0D7F80346002B01D1E9
:101DD000002316E004F0E2F80346412B10D904F08A
:101DE000DDF80346B82B0BD804F0E4F80346C82B03
:101DF00006D904F0DFF80346EA2B01D8012300E0FE
:101E00000023184680BD80B500AF04F0B5F8034646
:101E1000002B01D1002316E004F0C0F80346412B4B
:101E200010D904F0BBF80346B82B0BD804F0C2F865
:101E30000346962B06D904F0BDF80346B82B01D80B
:101E4000012300E00023184680BD98B500AF04F0E0
:101E500093F80346002B01D1002318E004F09EF80C
:101E600003461C4604F0A6F803461946E623C8229A
:101E70002046FFF7A5FEF0EE407AB3EE097AF4EEC5
:101E8000C77AF1EE10FA4CBF01230023DBB21846EB
:101E900098BD80B500AF04F06FF80346002B01D168
:101EA000002316E004F07AF80346412B10D904F021
:101EB00075F80346B82B0BD804F07CF80346962B34
:101EC00006D904F077F80346B82B01D8012300E0C7
:101ED0000023184680BD80B500AF04F04DF80346DE
:101EE000002B01D1002316E004F058F80346412BE3
:101EF00010D904F053F80346B82B0BD804F05AF865
:101F00000346C82B06D904F055F80346EA2B01D83E
:101F1000012300E00023184680BD80B500AF04F027
:101F20002BF80346002B01D1002317E004F036F80C
:101F30000346412B11D904F031F80346B82B0CD8D5
:101F400004F038F80346FA2B07D904F033F80346B7
:101F5000B3F58E7F01D8012300E00023184680BD31
:101F600080B500AF04F008F80346002B01D1002330
:101F700016E004F013F80346412B10D904F00EF8D4
:101F80000346B82B0BD804F015F80346642B06D98A
:101F900004F010F80346862B01D8012300E000234B
:101FA000184680BD80B500AF03F0E6FF0346002B66
:101FB00001D1002316E003F0F1FF0346412B10D9B5
:101FC00003F0ECFF0346B82B0BD803F0F3FF0346F6
:101FD000962B06D903F0EEFF0346B82B01D8012358
:101FE00000E00023184680BD80B500AF03F0C4FFB9
:101FF0000346002B01D1002316E003F0CFFF034678
:10200000412B10D903F0CAFF0346B82B0BD803F0BD
:10201000D1FF0346C82B06D903F0CCFF0346EA2BB9
:1020200001D8012300E00023184680BD80B58EB0A2
:1020300000AF07F1240300221A605A609A60DA6048
:102040001A6100233B62894B1B6B884A43F01003E3
:102050001363864B1B6B03F010033B623B6A002348
:10206000FB61824B1B6B814A43F0040313637F4B7C
:102070001B6B03F00403FB61FB690023BB617B4B1B
:102080001B6B7A4A43F020031363784B1B6B03F0FE
:102090002003BB61BB6900237B61744B1B6B734ADC
:1020A00043F080031363714B1B6B03F080037B6170
:1020B0007B6900233B616D4B1B6B6C4A43F0010352
:1020C00013636A4B1B6B03F001033B613B69002305
:1020D000FB60664B1B6B654A43F002031363634B63
:1020E0001B6B03F00203FB60FB680023BB605F4BCC
:1020F0001B6B5E4A43F0080313635C4B1B6B03F0DE
:102100000803BB60BB6800237B60584B1B6B574ABE
:1021100043F040031363554B1B6B03F040037B609C
:102120007B6800221021524805F05CFB00224FF42E
:102130000851504805F056FB00224FF480614E488C
:1021400005F050FB00224FF4E0714C4805F04AFBCB
:1021500000224FF480714A4805F044FB0022082118
:10216000484805F03FFB10237B620123BB6200233C
:10217000FB6200233B6307F1240319463C4805F04A
:102180007DF94FF408537B620123BB620023FB629D
:1021900000233B6307F124031946364805F06EF926
:1021A0004FF400737B620023BB620023FB6207F1E4
:1021B00024031946304805F061F94FF480637B62CF
:1021C0000123BB620023FB6200233B6307F124036E
:1021D0001946294805F052F94FF4E0737B62012358
:1021E000BB620023FB6200233B6307F12403194613
:1021F000224805F043F94FF480737B620023BB62F1
:102200000123FB6207F1240319461A4805F036F949
:102210004FF480737B620123BB620023FB620023C7
:102220003B6307F124031946154805F027F94FF4DD
:1022300080537B620023BB620023FB6207F124030F
:1022400019460C4805F01AF908237B620123BB628A
:102250000023FB6200233B6307F12403194609486E
:1022600005F00CF900BF3837BD4680BD003802408C
:102270000010024000080240001402400018024012
:1022800000000240000C024080B500AF124B134A20
:102290001A60114B124A5A600F4B00229A600E4B83
:1022A0000022DA600C4B4FF480421A610A4B002284
:1022B0005A61094B00229A61074B0022DA61064BF2
:1022C00000221A62044805F0C1FA0346002B01D02F
:1022D00001F094FF00BF80BDAC0500200054004019
:1022E000A086010080B584B004AF264B00934FF464
:1022F000A073F0220021002001F0ACFA4BF640431D
:102300000093B923B9229621412000F099FF4BF6A2
:1023100040430093EB23B922C821412000F090FFF5
:102320004BF64043009340F21D13B922FA2141209D
:1023300000F086FF012302931823019300230093EA
:102340000023114A9B21542001F055FD01230293E3
:10235000182301930023009300230C4ACD214D2024
:1023600001F049FD012302931823019300230093F8
:102370000023074AFF21482001F03DFD00BFBD4674
:1023800080BD00BF9C13010830DE000838DE000865
:1023900044DE000880B584B004AF304B00934FF4A6
:1023A000A073F0220021002001F054FA4BF64043C4
:1023B00000938723B9226421412000F041FF4BF6AE
:1023C00040430093B923B9229621412000F038FF01
:1023D0004BF640430093EB23B922C821412000F083
:1023E0002FFF4BF64043009340F21D13B922FA2110
:1023F000412000F025FF01230293182301930023BD
:1024000000930023164A6921542001F0F4FC0123B3
:10241000029318230193002300930023114A9B2168
:10242000602001F0E8FC01230293182301930023AC
:10243000009300230C4ACD21602001F0DCFC012335
:10244000029318230193002300930023074AFF21DE
:10245000642001F0D0FC00BFBD4680BD9C6B03082A
:1024600050DE000858DE000860DE000868DE000864
:1024700090B589B004AF5D4B00934FF4A073F02288
:102480000021002001F0E6F90123029310230193BB
:10249000002300930023564A50210A2001F0ABFC90
:1024A0000123029310230193002300930023514A38
:1024B00050213C2001F09FFC012302931023019343
:1024C0000023009300234C4A5021A02001F093FCEC
:1024D00000237B6007F1080300221A609A80012321
:1024E000FB7351E0FB7B05339BB21B019CB2FB7B72
:1024F000391D0A22184609F0FFFC02460123029307
:102500001023019300230093002321460A2001F0A9
:1025100072FCFB7B05339BB21B0199B2FB7B5A1EFD
:1025200013465B0013449B00344A1A440123029370
:10253000102301930023009300233C2001F05BFC57
:10254000FB7B05339BB21B019CB2FB7B5A1E2B49C4
:1025500013465B0013449B000B440A331B88184648
:102560003B1D0A22194609F0C7FC024601230293CB
:10257000102301930023009300232146A02001F0A3
:102580003AFCFB7B0133FB731D4B1B78FA7B9A42B1
:10259000A8D94BF64043009340F21D13B922FA210B
:1025A000412000F04DFE01230293182301930023E4
:1025B00000930023134AFF21642001F01CFC002338
:1025C000009340F21D13B922FA21412000F009FFC7
:1025D000002300934FF48E73B822FB21422000F0B9
:1025E00000FF00BF1437BD4690BD00BF9CC3050867
:1025F00070DE000878DE000880DE0008000200209F
:102600006C02002068DE000880B584B004AF4FF68D
:10261000FF7000F0E3FD4AF2516300931123EF22B3
:102620000021002000F00CFE4AF25163009340F2BA
:102630003F13EF22C821002000F002FE4BF640437A
:10264000009340F23B134B2240F20911052000F0A9
:10265000F7FD4BF64043009340F23B13EB2240F270
:102660000911A52000F0ECFD4BF640430093FF2339
:102670009B22CD21552000F0E3FD4BF64043009313
:1026800040F23B139B2240F20911552000F0D8FD87
:102690000123009319234FF47842E621C82001F06A
:1026A0003EFB012302930C2301930023009300239C
:1026B000274A03210A2001F09EFB012302930C23E9
:1026C0000193002300930023224A03214B2001F0B1
:1026D00092FB012302930C23019300230093002318
:1026E0001D4A03216E2001F086FB012302930C2377
:1026F0000193002300930023184A0321962001F040
:102700007AFB012302930C230193002300930023FF
:10271000134A0321AA2001F06EFB01230293102328
:1027200001930023009300230E4ADE21B62001F01E
:1027300062FB0123029310230193002300930023E3
:10274000094ACD21052001F056FB00BFBD4680BDE2
:1027500088DE000890DE000894DE00089CDE000899
:10276000A0DE0008A8DE0008B0DE000880B584B056
:1027700004AF174BD3ED007A0C2301934AF2516357
:10278000009300230422B0EE670A0321282000F002
:10279000D9FF104B1A880C2302934AF2516301931C
:1027A0000023009302230321872000F04DFF0A4BF2
:1027B0001A880C2302934AF2516301930023009379
:1027C00004230321CF2000F03FFF00BFBD4680BDA2
:1027D00004000020080000200A00002080B584B01A
:1027E00004AF094B1B689AB2102302934AF251635B
:1027F0000193002300930523DD21052000F024FF31
:1028000000BFBD4680BD00BF0000002080B584B081
:1028100004AF1B4B00934FF4A073F0220021002063
:1028200001F018F84BF640430093B923B9229621E2
:10283000412000F005FD4BF640430093EB23B92205
:10284000C821412000F0FCFC0123029318230193CE
:102850000023009300230B4A9B215A2001F0CBFA5E
:102860000123029318230193002300930023064AB7
:10287000CD21642001F0BFFA00BFBD4680BD00BF7E
:102880009C1B0808B8DE000868DE000880B584B02C
:1028900004AF184B00934FF4A073F02200210020E6
:1028A00000F0D8FF4BF640430093EB23B922C82138
:1028B000412000F0C5FC00230093EB23B922C8217E
:1028C000412000F08EFD00230093EA23B822C921A5
:1028D000422000F086FD0123029318230193002378
:1028E00000930023044ACD21642001F084FA00BF44
:1028F000BD4680BD9C730A0868DE000880B584B0C0
:1029000004AF184B00934FF4A073F0220021002075
:1029100000F0A0FF4BF640430093EB23B922C821FF
:10292000412000F08DFC00230093EB23B922C82145
:10293000412000F056FD00230093EA23B822C9216C
:10294000422000F04EFD012302931823019300233F
:1029500000930023044ACD21642001F04CFA00BF0B
:10296000BD4680BD9CCB0C0868DE0008B0B586B0C3
:1029700004AF0023FB7136E00023BB712DE0BB796F
:102980009BB21A46D2001A44520013445B009BB219
:10299000163398B2FB799BB21A46D2001A44520001
:1029A00013445B009BB286339CB2FA79B979124D1D
:1029B00013465B0013445B002B440B441A7800233E
:1029C0000293102301934BF64043009300232146CA
:1029D00000F03EFDBB790133BB71BB79052BCED92D
:1029E000FB790133FB71FB79042BC5D900BF00BF14
:1029F0000837BD46B0BD00BF2C000020B0B586B082
:102A000004AF0023FB7136E00023BB712DE0BB79DE
:102A10009BB21A46D2001A44520013445B009BB288
:102A2000163398B2FB799BB21A46D2001A44520070
:102A300013445B009BB286339CB2FA79B979124D8C
:102A400013465B0013445B002B440B441A780023AD
:102A50000293102301934BF6404300930023214639
:102A600000F0F6FCBB790133BB71BB79052BCED9E5
:102A7000FB790133FB71FB79042BC5D900BF00BF83
:102A80000837BD46B0BD00BF4C00002090B583B0F4
:102A900002AF3C4B1B789BB21A46D2001A4452003C
:102AA00013445B009BB2063398B2374B1B789BB242
:102AB0001A46D2001A44520013445B009BB27C3386
:102AC00099B2304B1B7801339BB21A46D2001A449C
:102AD000520013445B009BB206339AB22A4B1B7818
:102AE00001339BB21C46E4001C44640023445B0099
:102AF0009BB27C339BB248F23044009400F071FCEE
:102B0000224B1B789BB21A46D2001A44520013443F
:102B10005B009BB2063398B21D4B1B789BB21A46E2
:102B2000D2001A44520013445B009BB27C3399B22A
:102B3000164B1B7801339BB21A46D2001A4452003E
:102B400013445B009BB206339AB2114B1B780133DE
:102B50009BB21C46E4001C44640023445B009BB20F
:102B60007C339BB20024009400F03BFC084B1A78A5
:102B7000054B1A70054B1A78024B1A7000BF0437C8
:102B8000BD4690BD6A06002069060020290000208D
:102B90002800002090B585B002AF4BF6404300936B
:102BA0004FF49D73EA227C21062000F049FB0023AC
:102BB000FB713EE00023BB7135E0BB799BB21A4646
:102BC000D2001A44520013445B009BB2063398B201
:102BD000FB799BB21A46D2001A44520013445B00A0
:102BE0009BB27C3399B2BB7901339BB21A46D200B7
:102BF0001A44520013445B009BB206339AB2FB792D
:102C000001339BB21C46E4001C44640023445B0077
:102C10009BB27C339BB248F23044009400F0E1FB5D
:102C2000BB790133BB71BB79052BC6D9FB79013365
:102C3000FB71FB79042BBDD9FFF798FE40F6B83045
:102C400003F0D2FAFFF7DAFE40F6B83003F0CCFA20
:102C5000FFF71CFF074B04221A70074B03221A7060
:102C600040F6B83003F0C0FAFFF710FF00BF0C3792
:102C7000BD4690BD280000202900002080B582B00C
:102C800002AF48F230430093B923B9229621412084
:102C900000F0A7FB48F230430093B823B8229721F5
:102CA000422000F09EFB48F230430093EB23B92210
:102CB000C821412000F095FB48F230430093EA23FD
:102CC000B822C921422000F08CFB48F23043009327
:102CD00040F21D13B922FA21412000F082FB48F294
:102CE000304300934FF48E73B822FB21422000F052
:102CF00078FB00BFBD4680BD80B582B002AFFFF754
:102D0000BDFF00230093B923B9229621412000F092
:102D100068FB00230093B823B8229721422000F0DB
:102D200060FB00BFBD4680BD80B582B002AFFFF73B
:102D3000A5FF00230093EB23B922C821412000F016
:102D400050FB00230093EA23B822C921422000F05F
:102D500048FB00BFBD4680BD80B582B002AFFFF723
:102D60008DFF0023009340F21D13B922FA21412068
:102D700000F037FB002300934FF48E73B822FB2141
:102D8000422000F02EFB00BFBD4680BD80B582B062
:102D900002AF002300938723B9226421412000F071
:102DA00020FB002300938623B8226521422000F0F7
:102DB00018FBFFF763FF00BFBD4680BD80B582B042
:102DC00002AF48F2304300938723B92264214120A7
:102DD00000F007FB48F2304300938623B8226521B8
:102DE000422000F0FEFAFFF787FF00BFBD4680BD1E
:102DF00080B582B002AF48F2304300938723B922F6
:102E00006421412000F0EDFA48F23043009386231C
:102E1000B8226521422000F0E4FAFFF785FF00BFE9
:102E2000BD4680BD80B582B002AF48F2304300930A
:102E30008723B9226421412000F0D3FA48F23043BD
:102E400000938623B8226521422000F0CAFAFFF7DA
:102E500083FF00BFBD4680BD80B582B002AF0023B6
:102E60000093B923B9229621412000F0BAFA002339
:102E70000093B823B8229721422000F0B2FA48F21A
:102E800030430093EB23B922C821412000F0A9FA76
:102E900048F230430093EA23B822C921422000F0CF
:102EA000A0FA00BFBD4680BD80B582B002AF48F237
:102EB00030430093B923B9229621412000F091FAC2
:102EC00048F230430093B823B8229721422000F003
:102ED00088FA00230093EB23B922C821412000F097
:102EE00080FA00230093EA23B822C921422000F08F
:102EF00078FA00BFBD4680BD80B584B002AF3B46C6
:102F000083E80300386879680123009304234FF4B1
:102F1000FC6200F004FF3868796801230093012304
:102F2000002200F0FCFE00BF0837BD4680BD90B512
:102F300085B002AF3B4683E8030038687968012317
:102F4000009304234FF4FC6200F0E9FE3B689BB25F
:102F5000033B98B27B689BB2033B99B23B689BB240
:102F600004339AB27B689BB204339BB24BF6404465
:102F7000009400F0B2F93B689BB2033B98B27B68C7
:102F80009BB2023B99B23B689BB203339AB27B6817
:102F90009BB204339BB24BF64044009400F09DF981
:102FA0003B689BB2023B98B27B689BB2033B99B2F1
:102FB0003B689BB204339AB27B689BB203339BB2EB
:102FC0004BF64044009400F088F900BF0C37BD4632
:102FD00090BD80B584B002AF3B4683E803003868FB
:102FE00079680123009304234FF4784200F097FEA0
:102FF00000BF0837BD4680BD80B584B002AF3B46F8
:1030000083E80300386879680123009304234FF6AE
:10301000FF7200F084FE00BF0837BD4680BD80B55A
:1030200000AF00220121002000F0CCFF002202218D
:10303000002000F0C7FF00220321002000F0C2FFA3
:1030400000220421002000F0BDFF00BF80BD000071
:1030500080B500AF0F4B1B680D2B12D00D2B16DC6B
:103060000B2B02D00C2B06D011E0002202210120F4
:1030700000F0A8FF0CE000220221022000F0A2FFD5
:1030800006E000220221032000F09CFF00E000BFC8
:1030900000BF80BD7002002080B500AF0E4B1B68E2
:1030A0000E4AA2FB0323DB0800220321184600F08E
:1030B00089FF094B1968094BA3FB0123DA08134662
:1030C0009B0013445B00CA1A1346002204211846D1
:1030D00000F078FF00BF80BD7C020020CDCCCCCCBE
:1030E00080B483B000AF0346FB80044AFB881380A2
:1030F00000BF0C37BD465DF8047B7047FEFF0F60D4
:1031000080B483B000AF0346FB80044AFB88538041
:1031100000BF0C37BD465DF8047B7047FEFF0F60B3
:1031200080B483B000AF064B5B889BB2FB80FB880A
:103130009BB218460C37BD465DF8047B704700BF54
:10314000FEFF0F6090B583B000AF044608461146FD
:103150001A462346FB800346BB800B467B80134602
:103160003B802A20FFF7BCFFFB881B0A9BB2184656
:10317000FFF7C6FFFB88DBB29BB21846FFF7C0FF24
:103180007B881B0A9BB21846FFF7BAFF7B88DBB22D
:103190009BB21846FFF7B4FF2B20FFF7A1FFBB88B7
:1031A0001B0A9BB21846FFF7ABFFBB88DBB29BB292
:1031B0001846FFF7A5FF3B881B0A9BB21846FFF78E
:1031C0009FFF3B88DBB29BB21846FFF799FF2C208C
:1031D000FFF786FF00BF0C37BD4690BD80B584B0B9
:1031E00000AF0346FB80154B1B88013B9AB2134B83
:1031F0005B88013B9BB200210020FFF7A3FF002367
:10320000FB8111E00023BB8106E0FB881846FFF735
:1032100077FFBB890133BB81084B5B88BA899A422F
:10322000F3D3FB890133FB81044B1B88FA899A4253
:10323000E8D300BF00BF1037BD4680BD00060020A8
:1032400090B585B000AF0446084611461A4623469D
:10325000FB800346BB800B467B8013463B807B880C
:10326000013B9AB23B88013B9BB2B988F888FFF7D3
:1032700069FFBB88FB8110E0FB88BB8106E03B8CCB
:103280001846FFF73DFFBB890133BB81BA897B88B4
:103290009A42F4D3FB890133FB81FA893B889A4235
:1032A000EAD300BF00BF1437BD4690BD80B582B0E1
:1032B00000AF0346FB800B46BB8013467B80BB8878
:1032C000FA88B988F888FFF73DFF7B881846FFF732
:1032D00017FF00BF0837BD4680BD90B58DB000AF69
:1032E0000446084611461A462346FB800346BB8027
:1032F0000B467B8013463B800023BB6200237B622E
:103300007A88FB88D31A3B623A88BB88D31AFB6160
:10331000FB88FB60BB88BB603B6A002B02DD01239E
:103320007B610BE03B6A002B02D100237B6105E04F
:103330004FF0FF337B613B6A5B423B62FB69002BD2
:1033400002DD01233B610BE0FB69002B02D100236E
:103350003B6105E04FF0FF333B61FB695B42FB6182
:103360003A6AFB699A4202DD3B6ABB6101E0FB6994
:10337000BB610023FB852BE0FB689BB2BA6891B26E
:10338000B7F840201846FFF791FFBA6A3B6A13442A
:10339000BB627A6AFB6913447B62BA6ABB699A4270
:1033A00007DDBA6ABB69D31ABB62FA687B6913444A
:1033B000FB607A6ABB699A4207DD7A6ABB69D31AF5
:1033C0007B62BA683B691344BB60FB8D0133FB85AC
:1033D000FB8DBA699A42CFDA00BF00BF3437BD46D1
:1033E00090BD90B585B002AF0446084611461A4616
:1033F0002346FB800346BB800B467B8013463B8005
:10340000BC887A88B988F8883B8B00932346FFF7FD
:1034100064FF3C88FA88B988F8883B8B0093234680
:10342000FFF75BFF3C887A883988F8883B8B0093EC
:103430002346FFF752FF3C887A88B98878883B8B0F
:1034400000932346FFF749FF00BF0C37BD4690BDF0
:1034500090B587B000AF0446084611461A46234689
:10346000FB800346BB800B46FB7013463B8000236A
:103470007B75FB883B8297F82C305B08FB73FB7BEA
:10348000DB08DBB21A46FB7B03F00703DBB2002B41
:1034900014BF01230023DBB213449AB297F82C30F7
:1034A0009BB212FB03F3BB81FB78203BFB70FB7BE1
:1034B0009AB2FB8813449BB2013B9CB297F82C3024
:1034C0009AB2BB8813449BB2013B9BB2B988F8887F
:1034D0002246FFF737FE00237B8286E097F82C30E8
:1034E0000C2B0BD1FA78798A454813465B001344BC
:1034F0009B0003440B441B78FB7528E097F82C30A5
:10350000102B08D1FA787B8A3E4912010A441344F1
:103510001B78FB751BE097F82C30182B0BD1FA7831
:10352000798A394813465B0013441B0103440B445A
:103530001B78FB750BE097F82C30202B5BD1FA78C9
:103540007B8A324992010A4413441B78FB7500239D
:10355000BB7544E097F83030002B20D1FA7DBB7D5D
:1035600042FA03F303F00103002B04D03B88184612
:10357000FFF7C6FD03E03B8D1846FFF7C1FD7B7DDD
:1035800001337B757B7DFA7BB3FBF2F101FB02F229
:103590009B1ADBB2002B1FD100237B7522E0FA7D42
:1035A000BB7D42FA03F303F00103002B05D03A88F8
:1035B000B988FB881846FFF779FEFB880133FB804A
:1035C000FA883B8AD21AFB7B9A4205D13B8AFB8060
:1035D000BB880133BB8005E0BB7D0133BB75BB7D80
:1035E000072BB7D97B8A01337B827A8ABB899A42BF
:1035F000FFF474AF00E000BF1C37BD4690BD00BFB4
:10360000A8DF00081CE400080CEA0008DCFB000846
:1036100080B485B000AF03460A46FB711346BB7108
:103620000123FB6004E0FA79FB6802FB03F3FB6013
:10363000BB795A1EBA71002BF5D1FB6818461437B6
:10364000BD465DF8047B704790B589B004AF044671
:10365000084611461A462346FB800346BB800B46AC
:103660007B8013467B700023BB7397F828305B0880
:103670007B730023FB7359E07C887A78FB7BD31A39
:10368000DBB2013BDBB219460A20FFF7C1FF03465C
:10369000B4FBF3F12A4BA3FB0123DA0813469B008A
:1036A00013445B00CA1A13463B73BB7B002B21D12A
:1036B000FA7B7B78013B9A421CDA3B7B002B17D1CB
:1036C000FB7B9AB27B7B9BB212FB03F39AB2FB8823
:1036D000134498B23A8CB9880023029397F82830A3
:1036E0000193BB8C009313462022FFF7B1FE1AE032
:1036F0000123BB73FB7B9AB27B7B9BB212FB03F370
:103700009AB2FB88134498B23B7B3033DAB23C8CDC
:10371000B9880023029397F828300193BB8C00935B
:103720002346FFF795FEFB7B0133FB73FA7B7B7827
:103730009A42A1D300BF00BF1437BD4690BD00BF61
:10374000CDCCCCCC90B58BB004AF0446084687ED09
:10375000020A11461A462346FB810346BB810B46EB
:10376000FB711346BB8097F82C305B08BB75D7ED17
:10377000027A9FED367A67EE877AFCEEE77A17EEEB
:10378000903ABB820023FB7557E0BC8AFA79FB7D37
:10379000D31ADBB2013BDBB219460A20FFF738FF30
:1037A0000346B4FBF3F12A4BA3FB0123DA081346CB
:1037B0009B0013445B00CA1A1346FB74FA7DFB7925
:1037C000023B9A421DD1FB79023B9AB2BB7D9BB270
:1037D00012FB03F39AB2FB89134498B2BA88B989F1
:1037E0000023029397F82C3001933B8D00931346EE
:1037F0002E22FFF72DFEFB7D0133FB75FB79013394
:10380000FB71FB7D9AB2BB7D9BB212FB03F39AB2B4
:10381000FB89134498B2FB7C3033DAB2BC88B98997
:103820000023029397F82C3001933B8D009323469D
:10383000FFF70EFEFB7D0133FB75FA7DFB799A42A3
:10384000A3D300BF00BF1C37BD4690BD0000C842D7
:10385000CDCCCCCC90B587B000AF0446084611461D
:103860001A462346FB800346BB800B467B801346EB
:103870003B8000233B61FA887B8813449BB2013B69
:103880009CB2BA883B8813449BB2013B9BB2B98877
:10389000F8882246FFF756FC0023FB8227E000232E
:1038A000BB821DE03B695B00BA6A13441B78FB7363
:1038B0003B695B000133BA6A13441B78BB73FB7B23
:1038C0001B021AB2BB7B1BB213431BB29BB218463E
:1038D000FFF716FC3B6901333B61BB8A0133BB82B6
:1038E000BA8A3B889A42DDD3FB8A0133FB82FA8A8B
:1038F0007B889A42D3D300BF00BF1C37BD4690BD22
:1039000080B483B000AF0346FB71FB791B09DBB2C7
:1039100003F00303DBB2002B07D00A4B4FF4A07275
:103920001A80084BF0225A8006E0064BF0221A80DB
:10393000044B4FF4A0725A8000BF0C37BD465DF8AF
:10394000047B70470006002080B500AF00224FF4D2
:103950000051AA4803F046FF4FF4FA7002F044FC0D
:1039600001224FF40051A54803F03CFF4FF4FA70D8
:1039700002F03AFC0020FFF7C3FFD320FFF7B0FBB3
:10398000FFF7CEFB03461A469D4B9A80FFF7C8FB14
:1039900003461A469A4B9A80FFF7C2FB03461A4623
:1039A000974B9A80964B9B881B029AB2944B9A80B5
:1039B000FFF7B6FB03461A46914B9B8813439AB216
:1039C0008F4B9A80CF20FFF78BFB0020FFF798FBEF
:1039D000C120FFF795FB3020FFF792FBED20FFF7AA
:1039E0007FFB6420FFF78CFB0320FFF789FB12208D
:1039F000FFF786FB8120FFF783FBE820FFF770FBD2
:103A00008520FFF77DFB1020FFF77AFB7A20FFF778
:103A100077FBCB20FFF764FB3920FFF771FB2C20ED
:103A2000FFF76EFB0020FFF76BFB3420FFF768FB0E
:103A30000220FFF765FBF720FFF752FB2020FFF77E
:103A40005FFBEA20FFF74CFB0020FFF759FB00204B
:103A5000FFF756FBC020FFF743FB1B20FFF750FB8F
:103A6000C120FFF73DFB0120FFF74AFBC520FFF710
:103A700037FB3020FFF744FB3020FFF741FBC72026
:103A8000FFF72EFBB720FFF73BFB3620FFF728FBA5
:103A90000820FFF735FB3A20FFF722FB5520FFF700
:103AA0002FFBB120FFF71CFB0020FFF729FB1A209A
:103AB000FFF726FBB620FFF713FB0A20FFF720FBDA
:103AC000A220FFF71DFBF220FFF70AFB0020FFF703
:103AD00017FB2620FFF704FB0120FFF711FBE02076
:103AE000FFF7FEFA0F20FFF70BFB2A20FFF708FB7A
:103AF0002820FFF705FB0820FFF702FB0E20FFF749
:103B0000FFFA0820FFF7FCFA5420FFF7F9FAA92082
:103B1000FFF7F6FA4320FFF7F3FA0A20FFF7F0FA6F
:103B20000F20FFF7EDFA0020FFF7EAFA0020FFF779
:103B3000E7FA0020FFF7E4FA0020FFF7E1FAE120BE
:103B4000FFF7CEFA0020FFF7DBFA1520FFF7D8FACF
:103B50001720FFF7D5FA0720FFF7D2FA1120FFF759
:103B6000CFFA0620FFF7CCFA2B20FFF7C9FA562030
:103B7000FFF7C6FA3C20FFF7C3FA0520FFF7C0FAAB
:103B80001020FFF7BDFA0F20FFF7BAFA3F20FFF72A
:103B9000B7FA3F20FFF7B4FA0F20FFF7B1FA2B2056
:103BA000FFF79EFA0020FFF7ABFA0020FFF7A8FA14
:103BB0000120FFF7A5FA3F20FFF7A2FA2A20FFF71E
:103BC0008FFA0020FFF79CFA0020FFF799FA0020F7
:103BD000FFF796FAEF20FFF793FA1120FFF780FA2C
:103BE000782002F001FB2920FFF77AFA01224FF436
:103BF0008071044803F0F6FD00BF80BD000802405C
:103C0000000600200000024080B584B000AFF860DC
:103C1000B9607A603B60FB689AB27B689BB21344E0
:103C200098B2BB689AB23B689BB213449BB23A8B82
:103C30001946FFF73BFBFB689AB27B689BB2D31A2D
:103C400098B2BB689AB23B689BB213449BB23A8B62
:103C50001946FFF72BFBFB689AB27B689BB21344B3
:103C600098B2BB689AB23B689BB2D31A9BB23A8BAC
:103C70001946FFF71BFBFB689AB27B689BB2D31A0D
:103C800098B2BB689AB23B689BB2D31A9BB23A8B8C
:103C90001946FFF70BFBFB689AB23B689BB21344D3
:103CA00098B2BB689AB27B689BB213449BB23A8BC2
:103CB0001946FFF7FBFAFB689AB23B689BB2D31A2E
:103CC00098B2BB689AB27B689BB213449BB23A8BA2
:103CD0001946FFF7EBFAFB689AB23B689BB21344B4
:103CE00098B2BB689AB27B689BB2D31A9BB23A8BEC
:103CF0001946FFF7DBFAFB689AB23B689BB2D31A0E
:103D000098B2BB689AB27B689BB2D31A9BB23A8BCB
:103D10001946FFF7CBFA00BF1037BD4680BD80B50E
:103D20008AB002AFF860B9603B601346FB800023A5
:103D3000FB613B68BB613B685B00C3F103033B6114
:103D4000BB6A002B4FD029E0FB697B610AE0FB884E
:103D500000937B69FA69B968F868FFF755FF7B69DA
:103D600001337B617A69BB699A42F0DD3B69002BC4
:103D700006DAFB699A003B69134406333B610AE0AB
:103D8000FA69BB69D31A9A003B6913440A333B6151
:103D9000BB69013BBB61FB690133FB61FA69BB692C
:103DA0009A42D1DD23E0FB880093BB69FA69B968C8
:103DB000F868FFF729FF3B69002B06DAFB699A00D8
:103DC0003B69134406333B610AE0FA69BB69D31AC5
:103DD0009A003B6913440A333B61BB69013BBB61F9
:103DE000FB690133FB61FA69BB699A42DBDD00BF05
:103DF0002037BD4680BD90B58BB004AFBA601A467F
:103E00000346FB810B46BB811346FB80FB89BB82CB
:103E10000023FB7534E0FB7D002B31D1BB681B78A0
:103E2000802B02D90123FB752AE0BB681B780D2B80
:103E30000BD197F82C309AB2BB891344BB81BB8A53
:103E4000FB81BB680133BB6017E0BB681A78FC8854
:103E5000B989F88997F83030029397F82C3001939C
:103E60003B8D00932346FFF7F3FA97F82C305B085D
:103E7000DBB29AB2FB891344FB81BB680133BB60A0
:103E8000BB681B78002BC6D100BF00BF1C37BD46E6
:103E900090BD000080B500AF01224021024803F030
:103EA000A1FC00BF80BD00BF0018024080B500AF7C
:103EB0003F4B1B88DBB29AB23D4B1A803D4B1B88AF
:103EC0001A463D4B9B5C1B021AB2394B1B881BB236
:103ED00013431BB29AB2364B1A80364B1B88032B06
:103EE00046D801A252F823F0F93E0008173F000817
:103EF000353F0008533F00082D4B1B8843F0B003AB
:103F00009AB22B4B1A802A4B1B8823F040039AB29B
:103F1000274B1A802DE0264B1B8843F0D0039AB222
:103F2000234B1A80224B1B8823F020039AB2204B8C
:103F30001A801EE01E4B1B8843F0E0039AB21C4B14
:103F40001A801B4B1B8823F010039AB2184B1A805F
:103F50000FE0174B1B8843F070039AB2144B1A8082
:103F6000134B1B8823F080039AB2114B1A8000E098
:103F700000BF104B1B8801335A4203F0030302F0C9
:103F8000030258BF53429AB20A4B1A8000224021C2
:103F90000A4803F027FC012302220549084805F0DE
:103FA00036F901224021054803F01CFC00BF80BD0A
:103FB00026000020060600201800002000180240FD
:103FC0008806002080B485B000AFF860B960134661
:103FD000FB71FB68002B0EDBFB68092B0BDC094A2D
:103FE000FB6813441A78FB79D31AD9B2064ABB6826
:103FF00013440A461A7000BF1437BD465DF8047BAF
:10400000704700BF1C0000201800002080B500AFE2
:1040100002F078F800F02CF8FEF708F8FDF74EF9FA
:10402000FCF7A8FFFDF750FDFEF72EF900F0EEFBC0
:1040300001F056F801F0E8FF01F002F801F09CF8F9
:1040400002F00CF800F07EF8084B1B88012BFBD126
:10405000064B00221A8001F085FFFDF7C3F8FDF73B
:104060000BFAFDF76DFC00F0A3F8EDE776060020F3
:1040700080B594B000AF07F120033022002118462C
:1040800008F0C1F807F10C0300221A605A609A6028
:10409000DA601A610023BB60284B1B6C274A43F08F
:1040A00080531364254B1B6C03F08053BB60BB68CB
:1040B00000237B60224B1B68214A43F4804313603A
:1040C0001F4B1B6803F480437B607B6802233B62C9
:1040D0000123FB6210233B630223BB630023FB63CA
:1040E00008233B64A8237B640223BB640423FB6492
:1040F00007F12003184604F069FB0346002B01D0AA
:1041000000F07CF80F23FB6002233B6100237B61FE
:104110004FF4A053BB614FF4A053FB6107F10C03B4
:104120000521184604F0CAFD0346002B01D000F01B
:1041300065F800BF5037BD4680BD00BF0038024063
:104140000070004080B500AF00F084FAFDF73EF843
:10415000FFF7FAFB00F058F801F0F4FEFFF79AFEC3
:10416000FEF7C0F800F0A2F80D4B0E4A1068186078
:104170000B4B4FF47A725A810B4B0C4A1068186043
:10418000074B7C22DA82322000F072FA322000F0F3
:104190008BFA40F6B83000F0A3FA00BF80BD00BF34
:1041A00000020020C0DE00080C020020C4DE00086F
:1041B00080B500AF0E4B1B780133DAB20C4B1A708E
:1041C0000B4B1A780B4BA3FB021319090B469B00F0
:1041D0000B449B00D31ADBB2002B06D110210648FA
:1041E00003F019FB024B00221A7000BF80BD00BF14
:1041F00068060020CDCCCCCC0010024080B400AFCB
:1042000072B600BFFEE7000080B500AF052203498B
:10421000034802F051F800BF80BD00BF6C060020CB
:104220003C01002080B500AF05220349034802F09D
:1042300043F800BF80BD00BF6C0600203C01002099
:1042400080B400AF034B9B881846BD465DF8047BE5
:10425000704700BF6C06002080B400AF034BDB88C2
:104260001846BD465DF8047B704700BF6C06002011
:1042700080B400AF0A4B1B8907EE903AF8EE677ADC
:104280009FED087A67EE877A9FED077AC7EE876A17
:10429000F0EE667AB0EE670ABD465DF8047B7047C3
:1042A0006C0600200000A54300F07F4580B483B079
:1042B00000AF194B77221A60174B5A225A6001231C
:1042C0007B600DE0144A7B68002142F83310124AEB
:1042D0007B68DB00134400225A607B6801337B60FB
:1042E0007B68632BEEDD0D4B03221A600C4B012221
:1042F0001A600C4B00221A600B4B00221A600B4B09
:104300003C221A600A4B00221A6000BF0C37BD46DF
:104310005DF8047B704700BF8C020020740200200F
:104320000C00002000000020780200207C02002009
:104330008002002080B485B000AF3B4683E80300D4
:104340003B68002B08DD3B68EE2B05DC7B68122BFD
:1043500002DD7B68C62B01DD01231CE00023FB602E
:1043600013E03A680F49FB6851F833309A4209D19B
:104370007A680C49FB68DB000B445B689A4201D108
:10438000012308E0FB680133FB60FA68064B1B68F9
:104390009A42E6D3002318461437BD465DF8047BE5
:1043A000704700BF8C0200200C00002080B483B056
:1043B00000AF1B4B1B68002B0BDD194B1B68EE2B52
:1043C00007DC174B5B68122B03DD154B5B68C62BB4
:1043D00001DD01231EE001237B6015E0104B1A680C
:1043E0000F497B6851F833309A420AD10C4B5A6816
:1043F0000B497B68DB000B445B689A4201D10123C7
:1044000008E07B6801337B607A68064B1B689A4240
:10441000E4D3002318460C37BD465DF8047B704793
:104420008C0200200C00002080B500AF124B1A68EF
:10443000124B1B6804339A421BDC0F4B1A680F4B5C
:104440001B68043B9A4214DB0B4B5A680B4B5B68AE
:1044500004339A420DDC084B5A68084B5B68043BF6
:104460009A4206DB054B93E80300FEF7C5FD0123E6
:1044700000E00023184680BD8C02002010000020C0
:10448000B0B582B000AF786007F038FD034618463B
:10449000FCF740F804460D467868FCF73BF84FF00F
:1044A00000020E4BFBF7EAFE02460B462046294669
:1044B000FCF79AF802460B46104619464FF00002E8
:1044C000074BFCF7BBF902460B4610461946FCF7B2
:1044D0003BFB034618460837BD46B0BD0000F03F21
:1044E0000000E04180B582B000AFEF20FFF7C8FFC9
:1044F00003463B60C720FFF7C3FF03467B6009E02C
:10450000EF20FFF7BDFF03463B60C720FFF7B8FF72
:1045100003467B603B4693E80300FFF70BFF03462F
:10452000012BEDD0074B1A463B4693E8030082E887
:104530000300044B93E80300FEF74BFD00BF083770
:10454000BD4680BD1000002080B582B000AF2C4B6E
:104550001B68013B2B4ADB00134493E80300FEF782
:104560004BFD274B1B68013B7B6016E07B68013BE2
:10457000244A52F8332023497B6841F833207B6872
:10458000013B204ADB0013445A681E497B68DB006C
:104590000B445A607B68013B7B607B68002BE5DC49
:1045A000194B1B68013B032B22D801A252F823F0C0
:1045B000C1450008CD450008D9450008E54500087B
:1045C000104B1B6807330F4A136012E00D4B1B683A
:1045D000073B0C4A13600CE00A4B5B68073B094A37
:1045E000536006E0074B5B680733064A536000E000
:1045F00000BF00F00BF800BF0837BD4680BD00BF0C
:104600000C0000208C0200207402002080B582B0D3
:1046100000AF0E4B93E80300FEF76EFC01237B60B6
:104620000AE00A4A7B68DB00134493E80300FEF7C4
:104630007EFC7B6801337B607A68054B1B689A427D
:10464000EFD300BF00BF0837BD4680BD8C020020FD
:104650000C00002080B500AF034805F0F3FB0348D1
:1046600005F088FB00BF80BD30070020E806002071
:1046700080B483B000AF0346FB80084AFB881380F8
:10468000064B1A88064B1A80064B00221A8000BF80
:104690000C37BD465DF8047B704700BF7A060020EA
:1046A000780600207606002080B483B000AF034671
:1046B000FB80084AFB881380064B1A88064B1A8039
:1046C000064B00221A8000BF0C37BD465DF8047B04
:1046D000704700BF800600207E0600207C06002078
:1046E00080B483B000AF0346FB80084AFB88138088
:1046F000064B1A88064B1A80064B00221A8000BF10
:104700000C37BD465DF8047B704700BF860600206D
:10471000840600208206002080B582B000AF786059
:104720007B681B68B3F1804F40D1224B1B88002B64
:1047300010D0204B1B88013B9AB21E4B1A801D4B98
:104740001B88002B06D11C4B01221A801B4B1A8898
:10475000184B1A801A4B1B88002B10D0184B1B8843
:10476000013B9AB2164B1A80154B1B88002B06D1C1
:10477000144B01221A80144B1A88114B1A80134BC8
:104780001B88002B10D0114B1B88013B9AB20F4B9A
:104790001A800E4B1B88002B06D10D4B01221A806C
:1047A0000C4B1A88094B1A80FFF780FB00BF0837B3
:1047B000BD4680BD78060020760600207A060020DF
:1047C0007E0600207C060020800600208406002053
:1047D000820600208606002080B483B000AF034626
:1047E000FB80094B1B6800225A6200BF064B1B6806
:1047F0005A6AFB889A42F9D300BF00BF0C37BD4606
:104800005DF8047B704700BFE806002080B500AF6C
:10481000174B184A1A60164B4FF482725A60144BA9
:1048200000229A60124B0022DA60114B00221A61BA
:104830000F4B00225A610E4B4FF400729A610C4BE1
:104840000022DA610A4B00221A62094B00225A62E6
:10485000074B00229A62064B0A22DA62044804F0EF
:104860004DFC0346002B01D0FFF7C8FC00BF80BD04
:10487000880600200030014080B483B000AF0023E0
:104880007B60104B5B6C0F4A43F4804353640D4BC9
:104890005B6C03F480437B607B6800233B60094BC7
:1048A0001B6C084A43F080531364064B1B6C03F0E7
:1048B00080533B603B6800BF0C37BD465DF8047B0E
:1048C000704700BF0038024080B58AB000AF786002
:1048D00007F1140300221A605A609A60DA601A61C4
:1048E0007B681B683C4A934271D100233B613B4B80
:1048F0005B6C3A4A43F480735364384B5B6C03F44B
:1049000080733B613B690023FB60344B1B6B334A74
:1049100043F004031363314B1B6B03F00403FB6090
:10492000FB680023BB602D4B1B6B2C4A43F002033A
:1049300013632A4B1B6B03F00203BB60BB680723A6
:104940007B610323BB610023FB6107F1140319465C
:10495000234802F093FD03237B610323BB61002303
:10496000FB6107F1140319461E4802F087FD1E4B38
:104970001E4A1A601C4B00225A601B4B00229A6090
:10498000194B0022DA60184B4FF480621A61164B03
:104990004FF400625A61144B4FF400529A61124B6B
:1049A0004FF48072DA61104B00221A620E4B002223
:1049B0005A620D4802F060F90346002B01D0FFF760
:1049C0001DFC7B68084A9A63074A7B68936300BFB3
:1049D0002837BD4680BD00BF00200140003802409E
:1049E0000008024000040240080600201064024053
:1049F00080B58AB000AF786007F1140300221A6016
:104A00005A609A60DA601A617B681B68194A93429F
:104A10002BD100233B61184B1B6B174A43F0020359
:104A20001363154B1B6B03F002033B613B69C0230F
:104A30007B611223BB610023FB6103233B620423E0
:104A40007B6207F1140319460C4802F017FD00239E
:104A5000FB60094B1B6C084A43F400131364064BBC
:104A60001B6C03F40013FB60FB6800BF2837BD46D6
:104A700080BD00BF005400400038024000040240E6
:104A800080B58AB000AF786007F1140300221A6085
:104A90005A609A60DA601A617B681B68194A93420F
:104AA0002BD100233B61184B5B6C174A43F48053B6
:104AB0005364154B5B6C03F480533B613B690023EB
:104AC000FB60114B1B6B104A43F0020313630E4B48
:104AD0001B6B03F00203FB60FB6838237B6102233E
:104AE000BB610023FB6103233B6205237B6207F16B
:104AF00014031946054802F0C1FC00BF2837BD4623
:104B000080BD00BF00300140003802400004024078
:104B100080B586B000AF78607B681B68224A9342FC
:104B20000ED100237B61214B5B6C204A43F00103D3
:104B300053641E4B5B6C03F001037B617B692EE0C9
:104B40007B681B68B3F1804F16D100233B61174B84
:104B50001B6C164A43F001031364144B1B6C03F0E7
:104B600001033B613B69002200211C2002F04DF84B
:104B70001C2002F066F812E07B681B680C4A934226
:104B80000DD10023FB60094B1B6C084A43F08003E6
:104B90001364064B1B6C03F08003FB60FB6800BFD3
:104BA0001837BD4680BD00BF0000014000380240FC
:104BB000001C004080B588B000AF786007F10C039E
:104BC00000221A605A609A60DA601A617B681B687A
:104BD000124A93421ED10023BB60114B1B6B104A3B
:104BE00043F0200313630E4B1B6B03F02003BB60E9
:104BF000BB684FF48073FB6002233B6100237B6141
:104C00000023BB610923FB6107F10C03194605482A
:104C100002F034FC00BF2037BD4680BD001C0040C0
:104C2000003802400014024080B58CB000AF7860BC
:104C300007F11C0300221A605A609A60DA601A6158
:104C40007B681B683A4A934235D10023BB61394BDC
:104C50005B6C384A43F010035364364B5B6C03F0D3
:104C60001003BB61BB6900237B61324B1B6B314A74
:104C700043F0010313632F4B1B6B03F001037B61B4
:104C80007B694FF4C063FB6102233B6200237B62BC
:104C90000323BB620723FB6207F11C031946264866
:104CA00002F0ECFB00220021252001F0AEFF2520C0
:104CB00001F0C7FF38E07B681B68204A934233D17C
:104CC00000233B611B4B1B6C1A4A43F400331364F3
:104CD000184B1B6C03F400333B613B690023FB6002
:104CE000144B1B6B134A43F001031363114B1B6BF3
:104CF00003F00103FB60FB680C23FB6102233B62B2
:104D000000237B620323BB620723FB6207F11C03C2
:104D10001946094802F0B2FB00220021262001F0CA
:104D200074FF262001F08DFF00BF3037BD4680BDE7
:104D300000100140003802400000024000440040E2
:104D400080B586B000AF3B1D00221A605A609A60A1
:104D5000DA601A611C4B1B68002B31D11A4B0122FF
:104D60001A6000233B60194B9B6B184A43F0010308
:104D70009363164B9B6B03F001033B603B684FF65C
:104D800088737B600223BB600023FB6003233B61CD
:104D90000C237B613B1D19460D4802F06FFB4CF262
:104DA000B3737B600223BB600023FB6003233B6182
:104DB0000C237B613B1D1946064802F05FFB00E0B7
:104DC00000BF1837BD4680BDE00600200038024015
:104DD00000100240000C024080B582B000AF786045
:104DE000FFF7AEFF00BF0837BD4680BD80B400AFFF
:104DF000FEE780B400AFFEE780B400AFFEE780B40A
:104E000000AFFEE780B400AFFEE780B400AF00BFA4
:104E1000BD465DF8047B704780B400AF00BFBD465F
:104E20005DF8047B704780B400AF00BFBD465DF8FD
:104E3000047B704780B500AF01F0B6F900BF80BDBC
:104E400080B500AF024805F0C6F800BF80BD00BFC6
:104E50003007002080B500AF024806F001F800BF1F
:104E600080BD00BFC407002080B500AF024805F038
:104E7000F7FF00BF80BD00BF0808002080B500AF6D
:104E8000024802F091F800BF80BD00BF0806002074
:104E900080B400AF01231846BD465DF8047B70471F
:104EA00080B582B000AF7860396007F0FBF9034647
:104EB00016221A604FF0FF3318460837BD4680BDF2
:104EC00080B582B000AF78604FF0FF317868FFF7AF
:104ED000E7FFFEE780B586B000AFF860B9607A60A2
:104EE00000237B610AE0AFF300800146BB685A1CD7
:104EF000BA60CAB21A707B6901337B617A697B68D8
:104F00009A42F0DB7B6818461837BD4680BD80B5F5
:104F100086B000AFF860B9607A6000237B6109E079
:104F2000BB685A1CBA601B781846AFF300807B69D7
:104F300001337B617A697B689A42F1DB7B681846B2
:104F40001837BD4680BD80B483B000AF78604FF0A5
:104F5000FF3318460C37BD465DF8047B704780B4BC
:104F600083B000AF786039603B684FF400525A60FC
:104F7000002318460C37BD465DF8047B704780B4AB
:104F800083B000AF7860012318460C37BD465DF84A
:104F9000047B704780B485B000AFF860B9607A6078
:104FA000002318461437BD465DF8047B70470000A7
:104FB00080B586B000AF7860144A154BD31A7B6178
:104FC0007B693B61134B1B68002B02D1114B124ACA
:104FD0001A60104B1A687B6813443A699A4207D2E8
:104FE00007F060F903460C221A604FF0FF3309E026
:104FF000084B1B68FB60074B1A687B681344054A23
:105000001360FB6818461837BD4680BD00000220BB
:1050100000040000E4060020A009002080B400AFD6
:10502000064BD3F88830054A43F47003C2F8883041
:1050300000BFBD465DF8047B704700BF00ED00E097
:1050400080B586B000AF07F1080300221A605A60ED
:105050009A60DA603B4600221A605A601E4B1F4A73
:105060001A601D4B53225A601B4B00229A601A4B48
:105070004FF6FF72DA60184B00221A61164B0022BD
:105080005A61154B00229A61134804F023FE03462F
:10509000002B01D0FFF7B2F84FF48053BB6007F14B
:1050A000080319460C4805F061F90346002B01D0AE
:1050B000FFF7A4F800233B6000237B603B461946C2
:1050C000054805F02DFD0346002B01D0FFF796F8AB
:1050D00000BF1837BD4680BDE80600200000014033
:1050E00080B586B000AF07F1080300221A605A604D
:1050F0009A60DA603B4600221A605A601D4B4FF0FE
:1051000080421A601B4B40F247325A60194B002212
:105110009A60184B6322DA60164B00221A61154B15
:1051200000229A61134804F0D5FD0346002B01D0FC
:10513000FFF764F84FF48053BB6007F1080319468A
:105140000C4805F013F90346002B01D0FFF756F881
:1051500000233B6000237B603B461946054805F071
:10516000DFFC0346002B01D0FFF748F800BF1837DB
:10517000BD4680BD3007002080B588B000AF3B1D24
:1051800000221A605A609A60DA601A615A619A6164
:105190001E4B1F4A1A601D4B40F247325A601B4B90
:1051A00000229A60194B6322DA60184B00221A61C0
:1051B000164B00229A61154804F08CFD0346002B23
:1051C00001D0FFF71BF8114804F0ACFE0346002B9A
:1051D00001D0FFF713F860237B600023BB6000233E
:1051E000FB6000237B613B1D00221946074804F049
:1051F000FBFF0346002B01D0FFF700F80348FFF741
:10520000D9FC00BF2037BD4680BD00BF7807002015
:10521000001C004080B584B000AF0346FB71002342
:10522000FB730023FB7325E097F90730002B06DAA8
:1052300001224FF40071134802F0D4FA05E0002275
:105240004FF400710F4802F0CDFAFB795B00FB715F
:1052500000224FF480710C4802F0C4FA0120FFF7DD
:10526000BBFA01224FF48071074802F0BBFAFB7BC6
:105270000133FB73FB7B072BD6D900BF00BF103770
:10528000BD4680BD000802400018024080B584B0D1
:1052900000AF0346FB710023FB730023BB81002298
:1052A0004FF480712F4802F09DFA00224FF40071F4
:1052B0002D4802F097FA002280212A4802F092FA43
:1052C000FB791846FFF7A6FF0620FFF785FA0022B4
:1052D0004FF48071234802F085FA0120FFF77CFA31
:1052E00001224FF480711F4802F07CFA0120FFF781
:1052F00073FA00224FF480711A4802F073FA002307
:10530000FB731FE0BB895B00BB8100224FF48071FF
:10531000144802F067FA0120FFF75EFA01224FF409
:105320008071104802F05EFA4FF480510E4802F08E
:1053300041FA0346002B02D0BB890133BB81FB7BC2
:105340000133FB73FB7B0F2BDCD9BB891B09BB81B2
:1053500001228021034802F045FABB891846103724
:10536000BD4680BD001802400008024090B589B0DB
:1053700000AF0346FB7100237B830023FB830EE019
:10538000FC8BFB791846FFF781FF03461A46630042
:1053900020333B4423F8142CFB8B0133FB83FB8B22
:1053A000042BEDD90023FB8335E0FB8B0133BB835A
:1053B0002BE0FB8B5B0020333B4433F8142CBB8B7E
:1053C0005B0020333B4433F8143C9A421AD9FB8BE0
:1053D0005B0020333B4433F8143C3B83BB8BFA8B9C
:1053E0005B0020333B4433F8141C530020333B4410
:1053F0000A4623F8142CBB8B5B0020333B443A8BCA
:1054000023F8142CBB8B0133BB83BB8B042BD0D96B
:10541000FB8B0133FB83FB8B032BC6D900237B83E0
:105420000123FB830BE0FB8B5B0020333B4433F811
:10543000142C7B8B13447B83FB8B0133FB83FB8B13
:10544000032BF0D97B8B054AA2FB03235B083B832C
:105450003B8B18462437BD4690BD00BFABAAAAAA15
:1054600080B584B000AF786039600C4B1B7818466B
:10547000FFF77CFF0346FB81094B1B781846FFF7BB
:1054800075FF0346BB817B68FA891A803B68BA893D
:105490001A80012318461037BD4680BDA4000020A5
:1054A000A500002080B586B000AF7860396007F1B4
:1054B000120207F1140311461846FFF7D1FF034605
:1054C000FB75FB7D002B01D1002349E007F10E02A3
:1054D00007F1100311461846FFF7C2FF0346FB759C
:1054E000FB7D002B01D100233AE03A8ABB8A9A4225
:1054F00004D83B8A6333BA8A934208DABA8A3B8A71
:105500009A422CD8BB8A63333A8A934227DBFA89C2
:105510007B8A9A4204D8FB8963337A8A934208DAF9
:105520007A8AFB899A421AD87B8A6333FA89934232
:1055300015DBBB8A1A463B8A1344DA0F13445B100F
:105540009AB27B681A807B8A1A46FB891344DA0F69
:1055500013445B109AB23B681A80012300E00023D9
:1055600018461837BD4680BD90B585B002AF0346DA
:10557000FB800B46BB8013467B80FB880C3B98B2BC
:10558000FB880D339AB2BC88B9887B880093234688
:10559000FDF7A3FEBB880C3B99B2BB880D339CB2D0
:1055A000FA88F8887B8800932346FDF796FEFB88EF
:1055B000013398B2BB8801339BB27A881946FDF754
:1055C00075FEFB88013B98B2BB8801339BB27A8899
:1055D0001946FDF76BFEFB88013398B2BB88013B8F
:1055E0009BB27A881946FDF761FEFB88013B98B2B1
:1055F000BB88013B9BB27A881946FDF757FEF888B5
:10560000B9887A88002300930623FEF788FB00BF41
:105610000C37BD4690BD000080B582B000AF034698
:10562000FB714FF48071434802F0C4F80346002B2D
:1056300057D1FB79002B04D03F494048FFF732FF98
:105640003CE03D493D48FFF72DFF0346002B35D098
:105650003B4B93ED097A3A4B9B8907EE903AF8EE73
:10566000E77A27EE277A364BB3F92C3007EE903ADB
:10567000F8EEE77A77EE277AFCEEE77A17EE903AC3
:105680009AB22F4B9A812E4B93ED0A7A2C4BDB8AE0
:1056900007EE903AF8EEE77A27EE277A284BB3F92F
:1056A0002E3007EE903AF8EEE77A77EE277AFCEEA6
:1056B000E77A17EE903A9AB2214BDA82204B93F8B0
:1056C00020305BB2002B2ADB1D4BC02283F8202048
:1056D0001B4B9A891A4B9A82194BDA8A184BDA8338
:1056E0001DE0174B93F820305BB2002B09DA144B06
:1056F00093F8203003F07F03DAB2114B83F82020B7
:105700000DE00F4B00229A820D4B0022DA830C4BE6
:105710004FF6FF729A810A4B4FF6FF72DA82084BFE
:1057200093F8203023F07F03DBB218460837BD46DC
:1057300080BD00BF00080240860000207C000020E1
:105740007000002080B500AF0E2205490020FBF755
:105750001DFD00210E20FBF7B9FC00BF80BD00BF7E
:105760009400002080B582B000AF0023FB710E20B2
:10577000FBF790FC0346FB71FB79002B06D10E2250
:1057800005490020FBF7E3FC012300E00023184655
:105790000837BD4680BD00BF940000200000000017
:1057A00080B58EB004AF002387F82730002387F838
:1057B00027305F4B1A885E4B5B884FF6FF71009174
:1057C00000210020FDF73CFD0023029310230193EC
:1057D0004FF6FF7300934FF47843564A2821052073
:1057E000FEF709FB00230293102301934FF6FF738A
:1057F00000934FF47843504A41210520FEF7FBFA0D
:1058000000230293102301934FF6FF7300934FF48C
:1058100078434A4A5A210520FEF7EDFA4FF47842C0
:1058200014211420FFF7A0FE454B002283F820200E
:10583000434B4FF000025A62322000F0D5FC404B3F
:105840005B68012098473E4B93F8203003F0C0037B
:10585000402BF1D13A4B93F8203023F04003DAB2D9
:10586000374B83F8202097F82730354A92899B00E0
:1058700028333B4423F8282C97F82730304AD28A23
:105880009B0028333B4423F8262C97F8273001331C
:1058900087F8273097F82730013B032BCCD801A29B
:1058A00052F823F0B5580008D758000801590008ED
:1058B000455900084FF6FF7214211420FFF754FEDB
:1058C0001B4B1B88143B9BB24FF4784214211846A3
:1058D000FFF74AFE19E3164B1B88143B9BB24FF6A9
:1058E000FF7214211846FFF73FFE114B5B88143BF3
:1058F0009BB24FF4784219461420FFF735FE04E3BB
:105900000B4B5B88143B9BB24FF6FF721946142079
:10591000FFF72AFE064B1B88143B98B2044B5B88AA
:10592000143B9BB24FF478421946FFF71DFEECE2A0
:1059300000060020C8DE0008E4DE0008FCDE0008E7
:10594000700000203B881A46BB88D31A002BB8BFD2
:105950005B423B627B881A46FB88D31A002BB8BF98
:105960005B42FB613B6A03FB03F33B62FB6903FBA6
:1059700003F3FB613A6AFB6913441846FAF7BAFD70
:1059800002460B4643EC102B07F050FB53EC102B58
:1059900010461946FBF700F903467B833B891A46FC
:1059A000BB89D31A002BB8BF5B423B627B891A4686
:1059B000FB89D31A002BB8BF5B42FB613B6A03FB38
:1059C00003F33B62FB6903FB03F3FB613A6AFB6988
:1059D00013441846FAF78EFD02460B4643EC102B93
:1059E00007F024FB53EC102B10461946FBF7D4F8B4
:1059F00003463B837B8B07EE903AB8EE677A3B8B8E
:105A000007EE903AF8EEE77AC7EE276A16EE900AAC
:105A1000FAF792FD02460B46C7E9042384A3D3E9B3
:105A20000023D7E90401FBF751F80346002B0FD1FF
:105A300081A3D3E90023D7E90401FBF765F8034606
:105A4000002B05D17B8B002B02D03B8B002B36D15A
:105A5000002387F827307A4B1B88143B98B2784B89
:105A60005B88143B9BB24FF6FF721946FFF77CFD33
:105A70004FF4784214211420FFF776FD002302939F
:105A8000102301934FF6FF7300934FF478436D4A50
:105A900028210520FEF7AFF900230293102301937C
:105AA0004FF6FF7300934FF47843674A3C2105207B
:105AB000FEF7A1F94FF47A7000F096FB25E23B88DF
:105AC0001A463B89D31A002BB8BF5B423B627B88E6
:105AD0001A467B89D31A002BB8BF5B42FB613B6A35
