:020000040800F2
:1000000000000220B56A00080156000807560008E3
:100010000D5600081356000819560008000000008D
:100020000000000000000000000000001F56000853
:100030002D560008000000003B56000849560008F5
:10004000056B0008056B0008056B0008056B0008D0
:10005000056B0008056B0008056B0008056B0008C0
:10006000056B0008056B0008056B0008056B0008B0
:10007000056B0008056B0008056B0008056B0008A0
:10008000056B0008056B0008056B0008056B000890
:10009000056B0008056B0008056B0008056B000880
:1000A000056B0008056B0008056B0008056B000870
:1000B00055560008056B0008056B0008056B000825
:1000C000056B0008056B0008056B0008056B000850
:1000D000056B0008695600087D560008056B00088E
:1000E000056B0008056B0008056B0008056B000830
:1000F000056B0008056B0008056B0008056B000820
:10010000056B0008056B0008056B0008056B00080F
:10011000056B0008056B0008056B0008056B0008FF
:1001200091560008056B0008056B0008056B000878
:10013000056B0008056B0008056B0008056B0008DF
:10014000056B0008056B0008056B0008056B0008CF
:10015000056B0008056B0008056B0008056B0008BF
:10016000056B0008056B0008056B0008056B0008AF
:10017000056B0008056B0008056B00080000000017
:08018000056B0008056B000887
:1001900010B5054C237833B9044B13B10448AFF3C1
:1001A00000800123237010BD140100200000000016
:1001B000FCE7000808B5034B1BB103490348AFF344
:1001C000008008BD0000000018010020FCE70008C6
:1001D000034613F8012B002AFBD1181A0138704787
:1001E00001F0FF01102A2BDB10F0070F08D010F8E8
:1001F000013B013A8B422DD010F0070F42B3F6D1EC
:10020000F0B441EA012141EA014122F007047FF004
:1002100000070023F0E80256083C85EA010586EA5B
:10022000010685FA47F5A3FA87F586FA47F6A5FA97
:1002300087F68EB9EED1F0BC01F0FF0102F00702A3
:1002400032B110F8013B013A83EA010313B1F8D14E
:100250000020704701387047002D06BF354603382F
:10026000073815F0010F07D1013015F4807F02BF68
:10027000013015F4C03F0130F0BC0138704700BFB9
:1002800081F0004102E000BF83F0004330B54FEA47
:1002900041044FEA430594EA050F08BF90EA020FB4
:1002A0001FBF54EA000C55EA020C7FEA645C7FEA47
:1002B000655C00F0E2804FEA5454D4EB5555B8BF6A
:1002C0006D420CDD2C4480EA020281EA030382EADB
:1002D000000083EA010180EA020281EA0303362D6D
:1002E00088BF30BD11F0004F4FEA01314FF4801C40
:1002F0004CEA113102D0404261EB410113F0004F52
:100300004FEA03334CEA133302D0524263EB430308
:1003100094EA050F00F0A780A4F10104D5F1200EA6
:100320000DDB02FA0EFC22FA05F2801841F1000101
:1003300003FA0EF2801843FA05F359410EE0A5F1D5
:1003400020050EF1200E012A03FA0EFC28BF4CF006
:10035000020C43FA05F3C01851EBE37101F00045BC
:1003600007D54FF0000EDCF1000C7EEB00006EEBC9
:100370000101B1F5801F1BD3B1F5001F0CD3490853
:100380005FEA30004FEA3C0C04F101044FEA4452AA
:1003900012F5800F80F09A80BCF1004F08BF5FEA31
:1003A000500C50F1000041EB045141EA050130BD11
:1003B0005FEA4C0C404141EB0101013C28BFB1F523
:1003C000801FE9D291F0000F04BF01460020B1FA6E
:1003D00081F308BF2033A3F10B03B3F120020CDA41
:1003E0000C3208DD02F1140CC2F10C0201FA0CF01F
:1003F00021FA02F10CE002F11402D8BFC2F1200C84
:1004000001FA02F120FA0CFCDCBF41EA0C01904039
:10041000E41AA2BF01EB0451294330BD6FEA040482
:100420001F3C1CDA0C340EDC04F11404C4F120026D
:1004300020FA04F001FA02F340EA030021FA04F37F
:1004400045EA030130BDC4F10C04C4F1200220FAD6
:1004500002F001FA04F340EA0300294630BD21FA14
:1004600004F0294630BD94F0000F83F4801306BFDA
:1004700081F480110134013D4EE77FEA645C18BFCE
:100480007FEA655C29D094EA050F08BF90EA020F65
:1004900005D054EA000C04BF1946104630BD91EA5D
:1004A000030F1EBF0021002030BD5FEA545C05D160
:1004B0004000494128BF41F0004130BD14F580049F
:1004C0003CBF01F5801130BD01F0004545F0FE4113
:1004D00041F470014FF0000030BD7FEA645C1ABF48
:1004E000194610467FEA655C1CBF0B46024650EA7F
:1004F000013406BF52EA033591EA030F41F40021AB
:1005000030BD00BF90F0000F04BF0021704730B530
:100510004FF4806404F132044FF000054FF0000105
:1005200050E700BF90F0000F04BF0021704730B5C6
:100530004FF4806404F1320410F0004548BF40429B
:100540004FF000013EE700BF42004FEAE2014FEAF0
:1005500031014FEA02701FBF12F07F4393F07F4FCB
:1005600081F06051704732F07F4208BF704793F0CE
:100570007F4F04BF41F40021704730B54FF46074E1
:1005800001F0004521F000411CE700BF50EA0102E4
:1005900008BF704730B54FF000050AE050EA01028D
:1005A00008BF704730B511F0004502D5404261EBFD
:1005B00041014FF4806404F132045FEA915C3FF43E
:1005C000D8AE4FF003025FEADC0C18BF03325FEADB
:1005D000DC0C18BF033202EBDC02C2F1200300FA8C
:1005E00003FC20FA02F001FA03FE40EA0E0021FAB1
:1005F00002F11444BDE600BF70B54FF0FF0C4CF49F
:10060000E06C1CEA11541DBF1CEA135594EA0C0F50
:1006100095EA0C0F00F0DEF82C4481EA030621EA8B
:100620004C5123EA4C5350EA013518BF52EA0335C6
:1006300041F4801143F4801338D0A0FB02CE4FF078
:100640000005E1FB02E506F00042E0FB03E54FF0A8
:100650000006E1FB03569CF0000F18BF4EF0010EA0
:10066000A4F1FF04B6F5007F64F5407404D25FEA9C
:100670004E0E6D4146EB060642EAC62141EA55514F
:100680004FEAC52040EA5E504FEACE2EB4F1FD0C91
:1006900088BFBCF5E06F1ED8BEF1004F08BF5FEA0F
:1006A000500E50F1000041EB045170BD06F00046C1
:1006B00046EA010140EA020081EA0301B4EB5C046E
:1006C000C2BFD4EB0C0541EA045170BD41F4801166
:1006D0004FF0000E013C00F3AB8014F1360FDEBF8B
:1006E000002001F0004170BDC4F10004203C35DA67
:1006F0000C341BDC04F11404C4F1200500FA05F3EA
:1007000020FA04F001FA05F240EA020001F000428A
:1007100021F0004110EBD37021FA04F642EB060100
:100720005EEA430E08BF20EAD37070BDC4F10C042A
:10073000C4F1200500FA04F320FA05F001FA04F2EE
:1007400040EA020001F0004110EBD37041F10001DA
:100750005EEA430E08BF20EAD37070BDC4F12005E5
:1007600000FA05F24EEA020E20FA04F301FA05F24D
:1007700043EA020321FA04F001F0004121FA04F2F5
:1007800020EA020000EBD3705EEA430E08BF20EAC5
:10079000D37070BD94F0000F0FD101F000464000FF
:1007A00041EB010111F4801F08BF013CF7D041EA81
:1007B000060195F0000F18BF704703F00046520085
:1007C00043EB030313F4801F08BF013DF7D043EA56
:1007D0000603704794EA0C0F0CEA135518BF95EA0C
:1007E0000C0F0CD050EA410618BF52EA4306D1D193
:1007F00081EA030101F000414FF0000070BD50EAB2
:10080000410606BF1046194652EA430619D094EA3B
:100810000C0F02D150EA013613D195EA0C0F05D125
:1008200052EA03361CBF104619460AD181EA030179
:1008300001F0004141F0FE4141F470014FF0000031
:1008400070BD41F0FE4141F4780170BD70B54FF0CC
:10085000FF0C4CF4E06C1CEA11541DBF1CEA13554C
:1008600094EA0C0F95EA0C0F00F0A7F8A4EB05042E
:1008700081EA030E52EA03354FEA013100F0888025
:100880004FEA03334FF0805545EA131343EA1263EE
:100890004FEA022245EA111545EA10654FEA0026A3
:1008A0000EF000419D4208BF964244F1FD0404F55C
:1008B000407402D25B084FEA3202B61A65EB0305B8
:1008C0005B084FEA32024FF480104FF4002CB6EB75
:1008D000020E75EB030E22BFB61A754640EA0C00F5
:1008E0005B084FEA3202B6EB020E75EB030E22BF35
:1008F000B61A754640EA5C005B084FEA3202B6EB76
:10090000020E75EB030E22BFB61A754640EA9C0034
:100910005B084FEA3202B6EB020E75EB030E22BF04
:10092000B61A754640EADC0055EA060E18D04FEAC2
:10093000051545EA16754FEA06164FEAC30343EA62
:1009400052734FEAC2025FEA1C1CC0D111F4801F2F
:100950000BD141EA00014FF000004FF0004CB6E728
:1009600011F4801F04BF01430020B4F1FD0C88BFC7
:10097000BCF5E06F3FF6AFAEB5EB030C04BFB6EBD2
:10098000020C5FEA500C50F1000041EB045170BDC5
:100990000EF0004E4EEA113114EB5C04C2BFD4EBF2
:1009A0000C0541EA045170BD41F480114FF0000E76
:1009B000013C90E645EA060E8DE60CEA135594EAF2
:1009C0000C0F08BF95EA0C0F3FF43BAF94EA0C0FF5
:1009D0000AD150EA01347FF434AF95EA0C0F7FF46A
:1009E00025AF104619462CE795EA0C0F06D152EABE
:1009F00003353FF4FDAE1046194622E750EA4106A2
:100A000018BF52EA43067FF4C5AE50EA41047FF4B2
:100A10000DAF52EA43057FF4EBAE12E74FF0FF3C17
:100A200006E000BF4FF0010C02E000BF4FF0010CE8
:100A30004DF804CD4FEA410C7FEA6C5C4FEA430C61
:100A400018BF7FEA6C5C1BD001B050EA410C0CBFB0
:100A500052EA430C91EA030F02BF90EA020F002012
:100A6000704710F1000F91EA030F58BF994208BF79
:100A700090422CBFD8176FEAE37040F00100704736
:100A80004FEA410C7FEA6C5C02D150EA013C07D18D
:100A90004FEA430C7FEA6C5CD6D152EA033CD3D0D8
:100AA0005DF8040B704700BF8446104662468C46D2
:100AB0001946634600E000BF01B5FFF7B7FF002805
:100AC00048BF10F1000F01BD4DF808EDFFF7F4FF2E
:100AD0000CBF012000205DF808FB00BF4DF808EDB9
:100AE000FFF7EAFF34BF012000205DF808FB00BFDC
:100AF0004DF808EDFFF7E0FF94BF012000205DF8FE
:100B000008FB00BF4DF808EDFFF7CEFF94BF0120B2
:100B100000205DF808FB00BF4DF808EDFFF7C4FFAB
:100B200034BF012000205DF808FB00BF4FEA410CF4
:100B30007FEA6C5C02D150EA013C0AD14FEA430CD7
:100B40007FEA6C5C02D152EA033C02D14FF0000014
:100B500070474FF0010070474FEA410212F5001252
:100B600015D211D56FF47873B3EB625212D94FEAF4
:100B7000C12343F0004343EA505311F0004F23FADE
:100B800002F018BF404270474FF00000704750EA33
:100B9000013005D111F0004008BF6FF000407047F0
:100BA0004FF00000704700BF4A0011D212F500124A
:100BB00011D20DD56FF47873B3EB62520ED44FEAB5
:100BC000C12343F0004343EA505323FA02F0704735
:100BD0004FF00000704750EA013002D14FF0FF3073
:100BE00070474FF0000070474FEA4102B2F1E04316
:100BF00024BFB3F5001CDCF1FE5C0DD901F0004C04
:100C00004FEAC0024CEA5070B2F1004F40EB830053
:100C100008BF20F00100704711F0804F21D113F17F
:100C20003872BCBF01F00040704741F480114FEAB8
:100C30005252C2F11802C2F1200C10FA0CF320FA41
:100C400002F018BF40F001004FEAC1234FEAD3235E
:100C500003FA0CFC40EA0C0023FA02F34FEA4303C8
:100C6000CCE77FEA625307D150EA01331EBF4FF051
:100C7000FE4040F44000704701F0004040F0FE406C
:100C800040F40000704700BF53B94AB9002908BFBB
:100C900000281CBF4FF0FF314FF0FF3000F06EB95D
:100CA000ADF1080C6DE904CE00F006F8DDF804E0C3
:100CB000DDE9022304B070472DE9F047089D0446A2
:100CC0008C46002B40F083808A42174647D9B2FAFF
:100CD00082F242B1C2F1200024FA00F09140974024
:100CE00040EA010C94404FEA1748230CBCFBF8F68D
:100CF0001FFA87FE08FB16C143EA014306FB0EF10B
:100D0000994209D9FB1806F1FF3080F01981994208
:100D100040F21681023E3B445B1AA4B2B3FBF8F0EA
:100D200008FB103344EA034400FB0EFEA64509D934
:100D30003C1900F1FF3380F00581A64540F20281A5
:100D400002383C4440EA0640A4EB0E0400261DB1E4
:100D5000D4400023C5E900433146BDE8F08702B91D
:100D6000FFDEB2FA82F2002A50D1CB1B4FEA174EB7
:100D70001FFA87F80126B3FBFEFC210C0EFB1C3387
:100D800041EA034108FB0CF38B4207D979180CF1B7
:100D9000FF3002D28B4200F2E9808446C91AA3B226
:100DA000B1FBFEF00EFB101143EA014408FB00F812
:100DB000A04507D93C1900F1FF3302D2A04500F24B
:100DC000D9801846A4EB080440EA0C40BFE78B42E8
:100DD00009D9002D00F0B1800026C5E90001304698
:100DE0003146BDE8F087B3FA83F6002E4AD18B4234
:100DF00002D3824200F2B880841A61EB0301012021
:100E00008C46002DA8D0C5E9004CA5E7C2F120030F
:100E100020FA03F6974001FA02F04FEA174ED94044
:100E20003043030CB1FBFEF61FFA87F80EFB1611D8
:100E300043EA014306FB08F1994204FA02F409D996
:100E4000FB1806F1FF3C80F08D80994240F28A80C9
:100E5000023E3B445B1A81B2B3FBFEF00EFB103343
:100E600041EA034100FB08F38B4207D9791800F1EE
:100E7000FF3C73D28B4271D902383944CB1A40EA15
:100E8000064678E7C6F1200C03FA06F422FA0CF3C2
:100E90001C4320FA0CF701FA06F34FEA144E21FA2C
:100EA0000CF11F433B0CB1FBFEF91FFA84F80EFB5B
:100EB000191143EA014109FB08FA8A4502FA06F2D0
:100EC00000FA06F308D9611809F1FF3048D28A45C3
:100ED00046D9A9F102092144A1EB0A01BFB2B1FB35
:100EE000FEF00EFB101147EA014700FB08F8B84579
:100EF00007D9E71900F1FF312ED2B8452CD90238B5
:100F0000274440EA0940A7EB0807A0FB02894F45A8
:100F1000C64649461AD317D05DB1B3EB0E0267EB54
:100F2000010707FA0CFCF2404CEA0202F740C5E95F
:100F3000002700263146BDE8F0872E4628460BE7FD
:100F40000646E9E61846FDE64345E5D2B8EB020E53
:100F500069EB04010138DFE70846D2E760468DE718
:100F60008146B9E7664675E730464AE7ACF1020CC0
:100F7000394413E702383C4424E700BF704700BF00
:100F800080B584B000AF3B4600221A605A609A6078
:100F9000DA603D4B3D4A1A603B4B00225A603A4BA7
:100FA00000229A60384B01221A61374B00221A76D0
:100FB000354B002283F82020334B0022DA62324B7B
:100FC000334A9A62304B0022DA602F4B0522DA61F5
:100FD0002D4B002283F830202B4B01225A612A48E6
:100FE00005F028FE0346002B01D003F0D7FC0823B0
:100FF0003B6001237B600023BB603B4619462248CF
:1010000005F08AFF0346002B01D003F0C7FC09233B
:101010003B6002237B603B4619461B4805F07CFF82
:101020000346002B01D003F0B9FC0A233B600323E5
:101030007B603B461946144805F06EFF0346002BC3
:1010400001D003F0ABFC0B233B6004237B603B46E9
:1010500019460D4805F060FF0346002B01D003F050
:101060009DFC0C233B6005237B603B4619460648EC
:1010700005F052FF0346002B01D003F08FFC00BFA8
:101080001037BD4680BD00BFAC01002000200140EC
:101090000100000F80B500AF00F03CF800BF80BD3C
:1010A00080B588B004AF0346FB800023FB73FA8849
:1010B0000A2302930123019307F10F0300931023E6
:1010C000A021044807F0E8FAFB7B18461037BD461C
:1010D00080BD00BF1C03002080B586B004AF03466E
:1010E0000A46FB8013467B71FA880A230293012388
:1010F00001937B1D00931023A021054807F0D2F92E
:10110000052005F073FD00BF0837BD4680BD00BF58
:101110001C03002080B582B000AF4FF6FF70FFF7D0
:10112000BFFF0346FB71FB79552B01D1002310E073
:1011300055214FF6FF70FFF7CFFF4FF6FF70FFF717
:10114000AFFF0346FB71FB79552B01D1002300E073
:10115000012318460837BD4680BD90B583B000AF67
:1011600003463960FB801346BB800DE0FB885A1CA8
:10117000FA803C68621C3A601846FFF791FF03460C
:101180002370BB88013BBB80BB88002BEED100BF26
:1011900000BF0C37BD4690BD80B582B000AF03469E
:1011A0003960FB801346BB800CE03B681A78FB88F3
:1011B00011461846FFF790FFFB880133FB803B6820
:1011C00001333B60BB885A1EBA80002BEDD100BFB3
:1011D00000BF0837BD4680BD80B500AF01220821A1
:1011E000024807F001F800BF80BD00BF000C0240BC
:1011F00080B584B000AF002208212F4806F0F4FF2C
:10120000012208212C4806F0EFFF0A2302222B4975
:101210002B4808F0FCFD0023FB604FF400437B816A
:1012200000237B603FE07B68002B06DB7B68032BA1
:1012300003DC7B680433FB6018E07B68032B07DD6D
:101240007B68072B04DC7B68C3F10703FB600DE0C0
:101250007B68072B06DD7B680B2B03DC7B68043384
:10126000FB6003E07B68C3F11703FB60134B1A8834
:101270007B8913409BB2002B05D0124AFB680021EA
:1012800022F8131009E00F4AFB6832F813300133DB
:1012900099B20C4AFB6822F813107B895B087B81AA
:1012A0007B6801337B607B680F2BBCDD00BF00BF18
:1012B0001037BD4680BD00BF000C02403001002049
:1012C00018040020F401002080B582B000AF002394
:1012D0007B600C4B1B6B0B4A43F480031363094B7D
:1012E0001B6B03F480037B607B68002200213820A5
:1012F00006F08DF9382006F0A6F900BF0837BD4684
:1013000080BD00BF0038024080B500AF0E4B1B7897
:10131000012B0BD10D4B1B78002B12D101210C4856
:1013200005F07EFA094B01221A700AE0074B1B7880
:10133000012B06D10121074805F072FA034B002268
:101340001A7000BF80BD00BF580100203801002086
:1013500018E800081CE8000880B582B000AF012141
:10136000314805F05DFA314B1B88314AA2FB03235B
:101370005B099BB2DAB22F4B1A702C4B1B882C4A9C
:10138000A2FB03125209642101FB02F29B1A9BB2D9
:10139000DAB2294B1A700121264805F041FA0121E1
:1013A000254805F03DFA0121244805F039FA244B7F
:1013B0001B68244A1360234BD3ED007A9FED227AF9
:1013C00067EE877A1F4BC3ED007A1E4B93ED007AD0
:1013D000DFED1D6AC7EE267AFCEEE77AC7ED017AEB
:1013E0003B79DAB2194B1A70164BD3ED007AFDEE49
:1013F000E77A17EE902A0E4B83FB02135911D3178D
:10140000CB1A642101FB03F3D31ADAB2104B1A7022
:1014100001210E4805F004FA01210D4805F000FAFB
:1014200000BF0837BD4680BD20E800080A00002044
:101430001F85EB51390100203A01002008000020EF
:1014400004000020140200200000C8423B010020DC
:101450003C01002080B500AF0D4B1B6801330C4AE6
:1014600013600B4B19680B4BA3FB01235A0913465E
:101470001B019B1A9B00CA1A002A06D1044B0022AA
:101480001A60FFF741FFFFF767FF00BF80BD00BF95
:10149000340100208988888880B483B000AF00239D
:1014A0007B6007E0084A7B68134400221A707B685F
:1014B00001337B607B68032BF4DD00BF00BF0C377A
:1014C000BD465DF8047B70474001002080B400AF4A
:1014D000094B01221A60094B1B68094A1360094B2A
:1014E0001B68094A1360094B03221A7000BFBD46EE
:1014F0005DF8047B704700BF700100206001002090
:1015000074010020640100207801002058010020AF
:1015100080B500AF0C4B1B68012B13D10B4B1B6824
:101520000B4A13600B4B1B680B4A136003F040FC23
:101530000A4B93E8030002F054F801F00FFB084B4C
:1015400001221A7000BF80BD7001002074010020CC
:10155000600100207801002064010020500000207C
:101560005801002080B500AF00F002FD0346012BBA
:1015700003D02A4B9B89012B07D1294B1B68022BD7
:1015800003D0274B01221A6046E000F015FD034608
:10159000012B03D0214B1B89012B07D1204B1B684A
:1015A000012B03D01E4B02221A6035E000F028FD0B
:1015B0000346012B03D0194B5B88012B07D1184B35
:1015C0001B68042B03D0164B03221A6024E000F0A2
:1015D00039FD0346012B03D0104B5B8A012B07D149
:1015E0000F4B1B68032B03D00D4B04221A6013E032
:1015F00000F0B3FD0346012B03D0084B5B89012BA0
:101600000AD1FFF763FF074B0F221A60044B002239
:101610001A6001F0BBFAFFE700BF80BDF4010020B3
:10162000640100206001002098B500AF8A4B0122C0
:101630001A7000F083FE0346012B1AD105F0CEF894
:1016400003467C3B854A82FB03121211DB17D31A37
:10165000DAB2834B1A7005F0B5F80346063B7F4AB1
:1016600082FB03121211DB17D31ADAB27D4B1A7008
:101670004BE07D4B5B88012B0AD1794B1B78002B0B
:1016800043D0774B1B78013BDAB2754B1A703CE0C4
:10169000754B5B8A012B0AD1714B1B78032B34D815
:1016A0006F4B1B780133DAB26D4B1A702DE06E4B25
:1016B0001B89012B0AD16B4B1B78002B25D0694B62
:1016C0001B78013BDAB2674B1A701EE0664B9B89B0
:1016D000012B0AD1634B1B78042B16D8614B1B7866
:1016E0000133DAB25F4B1A700FE05F4B5B89012B5D
:1016F00008D15E4B1A785A4B1A705D4B1A78594BC9
:101700001A7002E0544B00221A70534B1B78012BC5
:1017100040F0A180524B1A78544B1B789A4240F00B
:101720009880504B1A78524B1B789A4240F0918027
:101730004B4B1B78042B13D14A4B1B78002B0FD13A
:101740004C4B1B78012B05D14A4B00221A7001F03B
:101750000FFC7EE0474B01221A7001F0C1FB78E0DC
:101760003F4B1B78042B16D13E4B1B78022B12D11A
:10177000414B1B78002B6CD03F4B1B78013BDAB2FE
:101780003D4B1A703C4B1B781A463C4B0021995438
:1017900001F0BAFC5DE0324B1B78042B22D1314BB7
:1017A0001B78052B1ED1344B1B78002B51D0344BAA
:1017B0001B68344A13604FF4FA7003F047FB01F0E2
:1017C000E3F801F035FF03F0F3FA2F4B93E8030041
:1017D00001F007FF01F08AF901F0C0F92B4B01225B
:1017E0001A7038E0244B1B78092B32D8214B1B7818
:1017F000012B13D11A4B1B7819461A4B1B781C4628
:101800001D4B1B781846224A0B465B000B445B00BD
:10181000134423441A78194B1A5412E0104B1B78C6
:101820001946104B1B781C46134B1B781846194A57
:101830000B465B000B445B00134423441A780F4BA8
:101840001A540D4B1B780133DAB20B4B1A7001F0AE
:101850005BFC01F0D5FB98BD59010020F31ACA6B5F
:101860005B0100205C010020F40100205D010020EC
:101870005E0100205A010020530100204801002091
:101880007401002060010020500000205801002059
:101890000C0000202C00002080B500AFB24B1B686C
:1018A000122B00F2888101A252F823F0F9180008E7
:1018B000B9190008B71B0008B31A0008B71B0008C5
:1018C000B71B0008B71B0008B71B0008B71B0008B0
:1018D000B71B0008B71B0008D11A0008D71A000868
:1018E000DD1A0008B71B00082D1B0008E31A0008CA
:1018F000051B0008271B000800F053FC0346012BC2
:1019000003D09A4BDB88012B17D1994B5B78012BC5
:101910000BD1FFF7C1FD944B01221A6005F01EF8B0
:1019200003F094F800F0E2FE45E0FFF7B5FD904BC0
:1019300001225A7001F0E8FC3DE000F054FC03463F
:10194000012B03D0894BDB89012B16D1884B9B7867
:10195000012B0AD1874B1B68012B06D1FFF79CFD99
:1019600001F012F8FFF7D4FD25E0FFF795FD804B5D
:1019700001229A7001F0E0FC1DE000F056FC0346E5
:10198000012B04D0794BDB8A012B40F01681784B78
:10199000DB78012B07D1FFF77FFD734B03221A6021
:1019A00000F01CFF09E1FFF777FD714B0122DA70AF
:1019B00001F0DAFC01E100E100F05AFC0346012BE2
:1019C00003D06A4BDB88012B16D1694B1B78012BA6
:1019D0000AD1FFF761FD684B0B221A60624B12229D
:1019E0001A6001F0DDFB46E0FFF756FD604B012277
:1019F0001A7001F0D3FC3EE000F05CFC0346012BC2
:101A000003D05A4BDB89012B16D1594B5B78012B44
:101A10000AD1FFF741FD584B0C221A60524B12229B
:101A20001A6001F0BDFB26E0FFF736FD504B0122A6
:101A30005A7001F0CBFC1EE000F05EFC0346012B67
:101A400003D04A4BDB8A012B15D1494B9B78012BE4
:101A50000AD1FFF721FD484B0D221A60424B12229A
:101A60001A6001F09DFB06E0FFF716FD404B0122D6
:101A70009A7001F0C5FC00F009FB0346012B04D06D
:101A80003A4BDB8B012B40F09A80394BDB78012BF2
:101A900007D1FFF701FD344B00221A6000F0CEFDA4
:101AA0008DE0FFF7F9FC324B0122DA7001F0C2FC45
:101AB00085E000F0EBFA0346012B03D02B4BDB88CB
:101AC000012B7ED1284B00221A6000F0B7FD78E090
:101AD000FFF748FD7CE0FFF745FD79E0FFF742FDA9
:101AE00076E000F0D3FA0346012B03D01F4BDB88CE
:101AF000012B68D11C4B00221A6000F09FFD01F001
:101B0000BBFD60E000F0C2FA0346012B03D0174B87
:101B1000DB88012B59D1144B00221A6000F08EFD96
:101B200001F0AAFD51E0FFF77FFD51E000F0D1FA8E
:101B30000346012B03D00D4BDB89012B1ED10C4B2F
:101B40009B78012B07D1FFF7A7FC074B00221A60F7
:101B500000F074FD2EE0FFF79FFC054B01229A7008
:101B600001F0AAFC26E000BF60010020F401002083
:101B700040010020700100207401002000F0CBFA29
:101B80000346012B03D0134BDB88012B1FD1124BD3
:101B90005B78012B06D1FFF77FFC00F0F5FEFFF725
:101BA000B7FC14E0FFF778FC0B4B01225A7001F0F0
:101BB0005BFC0CE00BE000BF0AE000BF08E000BFE8
:101BC00006E000BF04E000BF02E000BF00E000BF8D
:101BD00000BF80BDF40100204001002080B500AFAF
:101BE0000A4B1B684FF4C872B2FBF3F213469B001A
:101BF0001A44074B1B6813440533054A1360034B13
:101C000000221A6000F0AAFF00BF80BD680100201A
:101C10000000002080B500AF194B1B68002B01D0DD
:101C200003F064F802F092FF0346012B09D1154B33
:101C300010221A6000F0F4FF04F0C0FE02F006FF6C
:101C40001BE002F0C1FF0346012B09D10E4B1B68BC
:101C500001330D4A1360FFF7C1FF03F015F80CE0E4
:101C6000094B1B68052B08D1064B11221A6001F0A5
:101C700087F804F0A3FE02F0E9FE00BF80BD00BFBC
:101C800064010020600100204C00002080B500AFFE
:101C90004C4B1B680D2B4ED00D2B00F389800B2B6A
:101CA00002D00C2B18D083E0474B1B680133464A07
:101CB0001360464B1B88012B04D1444B00221A8031
:101CC00000F014FF424B1B88012B73D1404B0022C4
:101CD0001A80FFF79FFF6DE03B4B1B6801333A4AC8
:101CE00013603A4B1B88012B04D1384B00221A8019
:101CF00000F0FCFE364B1B88012B5DD1344B0022DB
:101D00001A80FFF787FF334B1B68052B03D1C820D0
:101D100003F09CF850E02F4B1B680A2B03D1642082
:101D200003F094F848E02B4B1B680F2B44D1322072
:101D300003F08CF840E0244B1B680133224A136007
:101D4000224B1B88012B04D1204B00221A8000F06B
:101D5000CDFE1F4B1B88012B30D11D4B00221A805A
:101D6000FFF758FF1C4B1B68322B03D1C82003F030
:101D70006DF823E0184B1B68232B03D1642003F07C
:101D800065F81BE0144B1B68142B03D1322003F0C1
:101D90005DF813E0104B1B68002B0FDC094B112280
:101DA0001A6000F0EDFF04F009FE02F04FFE05E0BE
:101DB00000BF04E000BF02E000BF00E000BF00BFC2
:101DC00080BD00BF60010020680100208A01002062
:101DD000840100204C0000206C01002080B58EB0F2
:101DE00000AF07F11C0300221A605A609A60DA60A3
:101DF0001A615A619A613B4600221A605A609A60E1
:101E0000DA601A615A619A612F4B4FF020421A60D2
:101E10002D4B2E4A5A602C4B00229A602A4B0022EE
:101E2000DA60294B00221A61274B10225A61264B97
:101E300000229A61244B0022DA61234B00221A62AD
:101E4000214B00225A62204B4FF480529A621E4B63
:101E50000022DA621C4B4FF480421A631A4B0022B4
:101E60005A63194B00229A63174B00225A640F23BE
:101E7000FB610F233B623C237B620023BB62102388
:101E8000FB6211233B6300237B6308233B600F232A
:101E90007B600923BB600023FB6010233B6111239F
:101EA0007B610023BB613A4607F11C0319460648D3
:101EB00008F090FB0346002B01D002F06FFD00BF3D
:101EC0003837BD4680BD00BF18020020040100A0C5
:101ED000B0B582B000AF0446084611461A46234604
:101EE000FB800346BB800B467B8013463B80FA8811
:101EF0007B88D31A1846FEF715FB02460B469FED6A
:101F00001A1B43EC102B0BF08FFC55EC104BBA88CE
:101F10003B88D31A1846FEF705FB02460B469FED99
:101F2000121B43EC102B0BF07FFC53EC102B2046C4
:101F30002946FEF7ABF902460B4643EC172BB0EEF1
:101F4000470AF0EE670A0BF01DFD53EC102B10460C
:101F50001946FEF749FE034607EE903AB0EE670ACF
:101F60000837BD46B0BD00BF0000000000000040C3
:101F700080B500AF04F014FC0346002B01D1002310
:101F800018E004F01FFC0346A52B12D904F01AFC3C
:101F90000346EA2B0DD804F021FC0346B3F5857FF8
:101FA00007D304F01BFC0346B3F59D7F01D8012342
:101FB00000E00023184680BD80B500AF04F0F0FBC0
:101FC0000346002B01D1002318E004F0FBFB03467D
:101FD000052B12D904F0F6FB03464A2B0DD804F06A
:101FE000FDFB0346B3F5857F07D304F0F7FB0346FB
:101FF000B3F59D7F01D8012300E00023184680BD82
:1020000080B500AF04F0CCFB0346002B01D10023C8
:1020100016E004F0D7FB0346552B10D904F0D2FB91
:1020200003469A2B0BD804F0D9FB0346CD2B06D9D7
:1020300004F0D4FB0346FE2B01D8012300E000236B
:10204000184680BD80B500AF04F0AAFB0346002B04
:1020500001D1002318E004F0B5FB0346552B12D93B
:1020600004F0B0FB03469A2B0DD804F0B7FB0346EF
:10207000B3F5857F07D304F0B1FB0346B3F59D7F2D
:1020800001D8012300E00023184680BD80B500AFD1
:1020900004F086FB0346002B01D1002317E004F077
:1020A00091FB0346412B11D904F08CFB0346B82B5E
:1020B0000CD804F093FB0346FA2B07D904F08EFBEF
:1020C0000346B3F58E7F01D8012300E000231846B4
:1020D00080BD80B500AF04F063FB0346002B01D147
:1020E000002316E004F06EFB0346412B10D904F0E8
:1020F00069FB0346B82B0BD804F070FB0346C82BD2
:1021000006D904F06BFB0346EA2B01D8012300E05B
:102110000023184680BD80B500AF04F041FB0346A4
:10212000002B01D1002316E004F04CFB0346412BA9
:1021300010D904F047FB0346B82B0BD804F04EFB34
:102140000346962B06D904F049FB0346B82B01D869
:10215000012300E00023184680BD98B500AF04F0CD
:102160001FFB0346002B01D1002318E004F02AFBDB
:1021700003461C4604F032FB03461946E623C822F8
:102180002046FFF7A5FEF0EE407AB3EE097AF4EEB2
:10219000C77AF1EE10FA4CBF01230023DBB21846D8
:1021A00098BD80B500AF04F0FBFA0346002B01D1C7
:1021B000002316E004F006FB0346412B10D904F07F
:1021C00001FB0346B82B0BD804F008FB0346962B03
:1021D00006D904F003FB0346B82B01D8012300E025
:1021E0000023184680BD80B500AF04F0D9FA03463D
:1021F000002B01D1002316E004F0E4FA0346412B42
:1022000010D904F0DFFA0346B82B0BD804F0E6FA35
:102210000346C82B06D904F0E1FA0346EA2B01D89D
:10222000012300E00023184680BD80B500AF04F014
:10223000B7FA0346002B01D1002317E004F0C2FADD
:102240000346412B11D904F0BDFA0346B82B0CD834
:1022500004F0C4FA0346FA2B07D904F0BFFA034688
:10226000B3F58E7F01D8012300E00023184680BD1E
:1022700080B500AF04F094FA0346002B01D100238F
:1022800016E004F09FFA0346412B10D904F09AFAA5
:102290000346B82B0BD804F0A1FA0346642B06D9E9
:1022A00004F09CFA0346862B01D8012300E00023AA
:1022B000184680BD80B500AF04F072FA0346002BCB
:1022C00001D1002316E004F07DFA0346412B10D91A
:1022D00004F078FA0346B82B0BD804F07FFA0346D3
:1022E000962B06D904F07AFA0346B82B01D80123BD
:1022F00000E00023184680BD80B500AF04F050FA1E
:102300000346002B01D1002316E004F05BFA0346DC
:10231000412B10D904F056FA0346B82B0BD804F021
:102320005DFA0346C82B06D904F058FA0346EA2B97
:1023300001D8012300E00023184680BD80B500AF1E
:1023400004F02EFA0346002B01D1002317E004F01D
:1023500039FA0346062B11D904F034FA0346E92B67
:102360000CD804F03BFA03467C2B07D904F036FA6C
:102370000346B3F59D7F01D2012300E000231846F8
:1023800080BD000080B58EB000AF07F124030022AD
:102390001A605A609A60DA601A6100233B62894BC6
:1023A0001B6B884A43F010031363864B1B6B03F0CF
:1023B00010033B623B6A0023FB61824B1B6B814A2B
:1023C00043F0040313637F4B1B6B03F00403FB61B7
:1023D000FB690023BB617B4B1B6B7A4A43F02003F4
:1023E0001363784B1B6B03F02003BB61BB690023B5
:1023F0007B61744B1B6B734A43F080031363714B17
:102400001B6B03F080037B617B6900233B616D4B99
:102410001B6B6C4A43F0010313636A4B1B6B03F0A5
:1024200001033B613B690023FB60664B1B6B654A04
:1024300043F002031363634B1B6B03F00203FB6067
:10244000FB680023BB605F4B1B6B5E4A43F00803D5
:1024500013635C4B1B6B03F00803BB60BB6800237A
:102460007B60584B1B6B574A43F040031363554B3B
:102470001B6B03F040037B607B68002210215248F5
:1024800005F0B2FE00224FF40851504805F0ACFEB2
:1024900000224FF480614E4805F0A6FE00224FF462
:1024A000E0714C4805F0A0FE00224FF480714A48CC
:1024B00005F09AFE00220821484805F095FE1023F9
:1024C0007B620123BB620023FB6200233B6307F1B5
:1024D000240319463C4805F0D3FC4FF408537B62B3
:1024E0000123BB620023FB6200233B6307F124034B
:1024F0001946364805F0C4FC4FF400737B62002394
:10250000BB620023FB6207F124031946304805F043
:10251000B7FC4FF480637B620123BB620023FB6244
:1025200000233B6307F124031946294805F0A8FC62
:102530004FF4E0737B620123BB620023FB62002344
:102540003B6307F124031946224805F099FC4FF438
:1025500080737B620023BB620123FB6207F12403CB
:1025600019461A4805F08CFC4FF480737B620123F6
:10257000BB620023FB6200233B6307F1240319467F
:10258000154805F07DFC4FF480537B620023BB624D
:102590000023FB6207F1240319460C4805F070FC88
:1025A00008237B620123BB620023FB6200233B63A1
:1025B00007F124031946094805F062FC00BF3837CB
:1025C000BD4680BD003802400010024000080240B5
:1025D000001402400018024000000240000C0240BB
:1025E00080B500AF124B134A1A60114B124A5A6061
:1025F0000F4B00229A600E4B0022DA600C4B4FF416
:1026000080421A610A4B00225A61094B00229A61EA
:10261000074B0022DA61064B00221A62044805F0DB
:10262000FDFD0346002B01D002F0B8F900BF80BDCC
:102630001C03002000540040A086010080B584B037
:1026400004AF264B00934FF4A073F022002100202A
:1026500001F0D2FC4BF640430093B923B9229621F6
:10266000412001F0BFF94BF640430093EB23B92220
:10267000C821412001F0B6F94BF64043009340F2E7
:102680001D13B922FA21412001F0ACF90123029374
:1026900018230193002300930023114A9B21542007
:1026A00001F07BFF01230293182301930023009381
:1026B00000230C4ACD214D2001F06FFF012302932E
:1026C00018230193002300930023074AFF21482089
:1026D00001F063FF00BFBD4680BD00BF9C1D010827
:1026E00024E800082CE8000838E8000880B584B029
:1026F00004AF344B00934FF4A073F022002100206C
:1027000001F07AFC304B00934E23F0220021002090
:1027100001F072FC4BF6404300938723B9226421F9
:10272000412001F05FF94BF640430093B923B922F1
:102730009621412001F056F94BF640430093EB23DC
:10274000B922C821412001F04DF94BF640430093D6
:1027500040F21D13B922FA21412001F043F901236F
:10276000029318230193002300930023174A692141
:10277000542001F012FF0123029318230193002338
:1027800000930023124A9B21602001F006FF0123E1
:102790000293182301930023009300230D4ACD21B7
:1027A000602001F0FAFE0123029318230193002315
:1027B00000930023084AFF21642001F0EEFE00BFD1
:1027C000BD4680BD9C7503089CCD050844E8000803
:1027D0004CE8000854E800085CE8000890B589B0AF
:1027E00004AF614B00934FF4A073F022002100204E
:1027F00001F002FC5D4B00935123F02200210020E8
:1028000001F0FAFB012302931023019300230093AC
:102810000023574A50210A2001F0BFFE01230293F2
:1028200010230193002300930023524A50213C209F
:1028300001F0B3FE012302931023019300230093C0
:1028400000234D4A5021A02001F0A7FE00237B6009
:1028500007F1080300221A609A800123FB7351E0FC
:10286000FB7B05339BB21B019CB2FB7B391D0A220B
:10287000184609F083FF02460123029310230193B7
:1028800000230093002321460A2001F086FEFB7BF3
:1028900005339BB21B0199B2FB7B5A1E1346DB002A
:1028A0009B1A5B00354A1A440123029310230193BB
:1028B0000023009300233C2001F06FFEFB7B0533D7
:1028C0009BB21B019CB2FB7B5A1E2C491346DB00BA
:1028D0009B1A5B000B440C331B8818463B1D0A22D5
:1028E000194609F04BFF024601230293102301937E
:1028F0000023009300232146A02001F04EFEFB7B25
:102900000133FB731E4B1B78FA7B9A42A8D94BF616
:102910004043009340F21D13B922FA21412001F0F7
:1029200061F80123029318230193002300930023ED
:10293000144AFF21642001F030FE0023009340F28E
:102940001D13B922FA21412001F01DF90023009343
:102950004FF48E73B822FB21422001F014F900BF1E
:102960001437BD4690BD00BF9C750308DC5F0608A8
:1029700064E800086CE8000874E800089002002091
:10298000440100205CE8000880B584B004AF4FF635
:10299000FF7000F0F5FF4AF2516300931123EF221C
:1029A0000021002001F01EF84AF25163009340F22A
:1029B0003F13EF22C821002001F014F84BF64043EA
:1029C000009340F23B134B2240F20911052001F025
:1029D00009F84BF64043009340F23B13EB2240F2E0
:1029E0000911A52000F0FEFF4BF640430093FF23A2
:1029F0009B22CD21552000F0F5FF4BF6404300937C
:102A000040F23B139B2240F20911552000F0EAFFEF
:102A10000123009319234FF47842E621C82001F0E6
:102A200050FD012302930C23019300230093002304
:102A3000274A03210A2001F0B0FD012302930C2351
:102A40000193002300930023224A03214B2001F02D
:102A5000A4FD012302930C23019300230093002380
:102A60001D4A03216E2001F098FD012302930C23DF
:102A70000193002300930023184A0321962001F0BC
:102A80008CFD012302930C23019300230093002368
:102A9000134A0321AA2001F080FD01230293102391
:102AA00001930023009300230E4ADE21B62001F09B
:102AB00074FD01230293102301930023009300234C
:102AC000094ACD21052001F068FD00BFBD4680BD4B
:102AD0007CE8000884E8000888E8000890E800081E
:102AE00094E800089CE80008A4E8000880B584B0D9
:102AF00004AF174BD3ED007A0C2301934AF25163D4
:102B0000009300230422B0EE670A0321282001F07D
:102B1000EBF9104B1A880C2302934AF2516301938C
:102B20000023009302230321872001F05FF90A4B61
:102B30001A880C2302934AF25163019300230093F5
:102B400004230321CF2001F051F900BFBD4680BD11
:102B500004000020080000200A00002080B584B096
:102B600004AF094B1B689AB2102302934AF25163D7
:102B70000193002300930523DD21052001F036F9A0
:102B800000BFBD4680BD00BF0000002080B584B0FE
:102B900004AF1F4B00934FF4A073F02200210020DC
:102BA00001F02AFA1B4B00935423F022002100204D
:102BB00001F022FA4BF640430093B923B922962143
:102BC000412000F00FFF4BF640430093EB23B92266
:102BD000C821412000F006FF01230293182301932E
:102BE0000023009300230C4A9B215A2001F0D5FCBE
:102BF0000123029318230193002300930023074A23
:102C0000CD21642001F0C9FC00BFBD4680BD00BFDE
:102C10009C750308BCF70608ACE800085CE80008EF
:102C200080B588B004AF4E4B00934FF4A073F022F0
:102C30000021002001F0E0F94BF64043009340F200
:102C40001D13B922FA21412000F0CCFE002300938D
:102C500040F21D13B922FA21412000F094FF002315
:102C600000934FF48E73B822FB21422000F08BFFBB
:102C70000123029318230193002300930023394A70
:102C8000FF21642001F089FC00237B6007F1080329
:102C900000221A609A8001230293102301934BF6BD
:102CA000404300930023304A6421002001F0C4FC1B
:102CB00001230293102301934BF64043009340F20B
:102CC000CF132A4A7821002001F0B6FC0123029399
:102CD000102301934BF6404300930023244A8C2198
:102CE000002001F0A9FC234B1B6818463B1D0A225B
:102CF000194609F043FD0246012302931023019374
:102D00004BF64043009340F2CF13A021002001F086
:102D100093FC01230293102301934BF6404300934D
:102D20000023154AB421002001F086FC134B1B68D8
:102D300018463B1D0A22194609F020FD02460123D0
:102D40000293102301934BF64043009340F2CF13BC
:102D5000C821002001F070FC00BF1037BD4680BDC7
:102D60003C9507085CE80008B4E80008480100202A
:102D700074E8000800000020BCE8000854010020AE
:102D800080B588B004AF4E4B00934FF4A073F0228F
:102D90000021002001F030F94BF64043009340F24F
:102DA0001D13B922FA21412000F01CFE00230093DC
:102DB00040F21D13B922FA21412000F0E4FE002365
:102DC00000934FF48E73B822FB21422000F0DBFE0B
:102DD0000123029318230193002300930023394A0F
:102DE000FF21642001F0D9FB00237B6007F1080379
:102DF00000221A609A8001230293102301934BF65C
:102E0000404300930023304A6421002001F014FC69
:102E100001230293102301934BF64043009340F2A9
:102E2000CF132A4A7821002001F006FC01230293E7
:102E3000102301934BF6404300930023244A8C2136
:102E4000002001F0F9FB234B1B6818463B1D0A22AA
:102E5000194609F093FC02460123029310230193C3
:102E60004BF64043009340F2CF13A021002001F025
:102E7000E3FB01230293102301934BF6404300939D
:102E80000023154AB421002001F0D6FB134B1B6828
:102E900018463B1D0A22194609F070FC0246012320
:102EA0000293102301934BF64043009340F2CF135B
:102EB000C821002001F0C0FB00BF1037BD4680BD17
:102EC0003CED09085CE80008B4E80008480100206F
:102ED00074E8000800000020BCE80008540100204D
:102EE000B0B586B004AF0023FB7136E00023BB71A0
:102EF0002DE0BB799BB21A46D2001A44520013440B
:102F00005B009BB2163398B2FB799BB21A46D20093
:102F10001A44520013445B009BB286339CB2FA7988
:102F2000B979124D13465B0013445B002B440B44EC
:102F30001A7800230293102301934BF64043009329
:102F40000023214600F056FEBB790133BB71BB79EB
:102F5000052BCED9FB790133FB71FB79042BC5D945
:102F600000BF00BF0837BD46B0BD00BF0C00002049
:102F7000B0B586B004AF0023FB7136E00023BB710F
:102F80002DE0BB799BB21A46D2001A44520013447A
:102F90005B009BB2163398B2FB799BB21A46D20003
:102FA0001A44520013445B009BB286339CB2FA79F8
:102FB000B979124D13465B0013445B002B440B445C
:102FC0001A7800230293102301934BF64043009399
:102FD0000023214600F00EFEBB790133BB71BB79A3
:102FE000052BCED9FB790133FB71FB79042BC5D9B5
:102FF00000BF00BF0837BD46B0BD00BF2C00002099
:1030000090B583B002AF3C4B1B789BB21A46D200FE
:103010001A44520013445B009BB2063398B2374BFC
:103020001B789BB21A46D2001A44520013445B002C
:103030009BB27C3399B2304B1B7801339BB21A465A
:10304000D2001A44520013445B009BB206339AB27A
:103050002A4B1B7801339BB21C46E4001C446400DD
:1030600023445B009BB27C339BB248F23044009413
:1030700000F089FD224B1B789BB21A46D2001A44FD
:10308000520013445B009BB2063398B21D4B1B7871
:103090009BB21A46D2001A44520013445B009BB202
:1030A0007C3399B2164B1B7801339BB21A46D2007F
:1030B0001A44520013445B009BB206339AB2114B80
:1030C0001B7801339BB21C46E4001C44640023447B
:1030D0005B009BB27C339BB20024009400F053FD54
:1030E000084B1A78054B1A70054B1A78024B1A7068
:1030F00000BF0437BD4690BD5E0100205D01002089
:103100005C0100205B01002080B586B004AF002385
:10311000FB7118E0FB799BB21A461201D31A9BB2DD
:103120002F3398B2FB791C4AD25C002302931823F8
:1031300001934BF6404300930023502100F05AFDC9
:10314000FB790133FB71154B1B78FA799A42E1D375
:10315000124B1B78BB7116E0BB799BB21A46120169
:10316000D31A9BB22F3398B20023029318230193F2
:103170004BF64043009300235F22502100F03AFDBC
:10318000BB790133BB71BB79092BE5D900BF00BF07
:103190000837BD4680BD00BF480100205301002014
:1031A00090B585B002AF354B00934FF4A073F02279
:1031B0000021002000F020FF4BF6404300934FF425
:1031C0009D73EA227C21062000F00CFC0023FB7199
:1031D0003EE00023BB7135E0BB799BB21A46D200BA
:1031E0001A44520013445B009BB2063398B2FB7939
:1031F0009BB21A46D2001A44520013445B009BB2A1
:103200007C3399B2BB7901339BB21A46D2001A447F
:10321000520013445B009BB206339AB2FB79013330
:103220009BB21C46E4001C44640023445B009BB238
:103230007C339BB248F23044009400F0A4FCBB798C
:103240000133BB71BB79052BC6D9FB790133FB7107
:10325000FB79042BBDD90A4B00221A70094B0022BE
:103260001A70094B00221A70FFF782FEFFF7C8FEA2
:10327000FFF74AFF00BF0C37BD4690BD3C450C0828
:103280005B0100205C0100205A01002080B582B063
:1032900002AF48F230430093B923B922962141206E
:1032A00000F071FC48F230430093B823B822972114
:1032B000422000F068FC48F230430093EB23B9222F
:1032C000C821412000F05FFC48F230430093EA231C
:1032D000B822C921422000F056FC48F23043009346
:1032E00040F21D13B922FA21412000F04CFC48F2B3
:1032F000304300934FF48E73B822FB21422000F03C
:1033000042FC00BFBD4680BD80B582B002AFFFF772
:10331000BDFF00230093B923B9229621412000F07C
:1033200032FC00230093B823B8229721422000F0FA
:103330002AFC00BFBD4680BD80B582B002AFFFF75A
:10334000A5FF00230093EB23B922C821412000F000
:103350001AFC00230093EA23B822C921422000F07E
:1033600012FC00BFBD4680BD80B582B002AFFFF742
:103370008DFF0023009340F21D13B922FA21412052
:1033800000F001FC002300934FF48E73B822FB2160
:10339000422000F0F8FB00BFBD4680BD80B582B082
:1033A00002AF002300938723B9226421412000F05B
:1033B000EAFB002300938623B8226521422000F017
:1033C000E2FBFFF763FF00BFBD4680BD80B582B062
:1033D00002AF48F2304300938723B9226421412091
:1033E00000F0D1FB48F2304300938623B8226521D8
:1033F000422000F0C8FBFFF787FF00BFBD4680BD3D
:1034000080B582B002AF48F2304300938723B922DF
:103410006421412000F0B7FB48F23043009386233B
:10342000B8226521422000F0AEFBFFF785FF00BF08
:10343000BD4680BD80B582B002AF48F230430093F4
:103440008723B9226421412000F09DFB48F23043DC
:1034500000938623B8226521422000F094FBFFF7F9
:1034600083FF00BFBD4680BD80B582B002AF0023A0
:103470000093B923B9229621412000F084FB002358
:103480000093B823B8229721422000F07CFB48F239
:1034900030430093EB23B922C821412000F073FB95
:1034A00048F230430093EA23B822C921422000F0B9
:1034B0006AFB00BFBD4680BD80B582B002AF48F256
:1034C00030430093B923B9229621412000F05BFBE1
:1034D00048F230430093B823B8229721422000F0ED
:1034E00052FB00230093EB23B922C821412000F0B6
:1034F0004AFB00230093EA23B822C921422000F0AE
:1035000042FB00BFBD4680BD80B584B002AF3B46E4
:1035100083E80300386879680123009304234FF49B
:10352000FC6200F0CEFF3868796801230093012324
:10353000002200F0C6FF00BF0837BD4680BD90B531
:1035400085B002AF3B4683E8030038687968012301
:10355000009304234FF4FC6200F0B3FF3B689BB27E
:10356000033B98B27B689BB2033B99B23B689BB22A
:1035700004339AB27B689BB204339BB24BF640444F
:10358000009400F07CFA3B689BB2033B98B27B68E6
:103590009BB2023B99B23B689BB203339AB27B6801
:1035A0009BB204339BB24BF64044009400F067FAA0
:1035B0003B689BB2023B98B27B689BB2033B99B2DB
:1035C0003B689BB204339AB27B689BB203339BB2D5
:1035D0004BF64044009400F052FA00BF0C37BD4651
:1035E00090BD80B584B002AF3B4683E803003868E5
:1035F00079680123009304234FF4784200F061FFBF
:1036000000BF0837BD4680BD80B584B002AF3B46E1
:1036100083E80300386879680123009304234FF698
:10362000FF7200F04EFF00BF0837BD4680BD0000AE
:1036300080B500AF0F4B1B680D2B12D00D2B16DC85
:103640000B2B02D00C2B06D011E00122002101200F
:1036500001F0BCF80CE001220021022001F0B6F8D4
:1036600006E001220021032001F0B0F800E000BFD5
:1036700000BF80BD6001002080B500AF00220021A6
:10368000002001F0A3F800220121002001F09EF8A3
:1036900000220221002001F099F8002203210020DD
:1036A00001F094F800BF80BD80B500AF01F08AF949
:1036B00001F0AEF9F0EE407A1B4BC3ED007A01F059
:1036C0009BF9034607EE903AF8EE677A17EE900AF8
:1036D000FCF73AFF12A3D3E90023FDF7B7F802463F
:1036E0000B46104619464FF00002104BFCF784FFC2
:1036F00002460B4610461946FDF756FA03469AB2A3
:103700000B4B1A8001F06CF90346C3F57F630F334E
:103710009AB2084B1A8000BF80BD00BFAFF3008093
:103720000000000000FEAF400400002000005940EF
:10373000080000200A00002080B500AF484B1B881D
:10374000012B04D1464B00221A80FFF7ADFF454BF9
:103750001B88012B40F08180434B1B78012B7CD1CF
:10376000404B00221A80414B1B6801333F4A1360D3
:103770003F4B1B680C2B02DC0B2B03DA6EE00D2B8E
:1037800030D06BE0394B1B683A4AA2FB03235B093C
:1037900000220121184601F019F8344B1A68354B04
:1037A000A3FB02135B09642101FB03F3D31A324A22
:1037B000A2FB0323DB0800220221184601F006F8D1
:1037C0002A4B19682C4BA3FB0123DA0813469B00F4
:1037D00013445B00CA1A134600220321184600F066
:1037E000F5FF3BE0254B1B68013B244A1360234B4C
:1037F0001B68204A82FB03125211DB17D31A0022E6
:103800000121184600F0E2FF1C4B1A68194B83FB9C
:1038100002135911D317CB1A642101FB03F3D31AF6
:10382000174A82FB03129210DB17D31A00220221DF
:10383000184600F0CBFF114B1A68114B83FB0213A3
:103840009910D317C81A03469B0003445B00D01A93
:103850000022032100F0BAFF00E000BF00BF80BDDE
:103860008A0100209001002058010020540100200E
:10387000600100201F85EB51CDCCCCCC6C01002029
:103880006766666680B483B000AF0346FB80044A77
:10389000FB88138000BF0C37BD465DF8047B704782
:1038A000FEFF0F6080B483B000AF0346FB80044A84
:1038B000FB88538000BF0C37BD465DF8047B704722
:1038C000FEFF0F6080B483B000AF064B5B889BB2F5
:1038D000FB80FB889BB218460C37BD465DF8047B25
:1038E000704700BFFEFF0F6090B583B000AF044685
:1038F000084611461A462346FB800346BB800B460A
:103900007B8013463B802A20FFF7BCFFFB881B0A05
:103910009BB21846FFF7C6FFFB88DBB29BB2184686
:10392000FFF7C0FF7B881B0A9BB21846FFF7BAFF60
:103930007B88DBB29BB21846FFF7B4FF2B20FFF762
:10394000A1FFBB881B0A9BB21846FFF7ABFFBB88E1
:10395000DBB29BB21846FFF7A5FF3B881B0A9BB260
:103960001846FFF79FFF3B88DBB29BB21846FFF774
:1039700099FF2C20FFF786FF00BF0C37BD4690BD96
:1039800080B584B000AF0346FB80154B1B88013B1C
:103990009AB2134B5B88013B9BB200210020FFF7DA
:1039A000A3FF0023FB8111E00023BB8106E0FB881D
:1039B0001846FFF777FFBB890133BB81084B5B8853
:1039C000BA899A42F3D3FB890133FB81044B1B88EC
:1039D000FA899A42E8D300BF00BF1037BD4680BDC8
:1039E0007003002090B585B000AF0446084611462C
:1039F0001A462346FB800346BB800B467B8013465A
:103A00003B807B88013B9AB23B88013B9BB2B988E3
:103A1000F888FFF769FFBB88FB8110E0FB88BB815A
:103A200006E03B8C1846FFF73DFFBB890133BB81A5
:103A3000BA897B889A42F4D3FB890133FB81FA89E6
:103A40003B889A42EAD300BF00BF1437BD4690BD01
:103A500080B582B000AF0346FB800B46BB801346A7
:103A60007B80BB88FA88B988F888FFF73DFF7B88A0
:103A70001846FFF717FF00BF0837BD4680BD90B559
:103A80008DB000AF0446084611461A462346FB8017
:103A90000346BB800B467B8013463B800023BB6202
:103AA00000237B627A88FB88D31A3B623A88BB8802
:103AB000D31AFB61FB88FB60BB88BB603B6A002BB1
:103AC00002DD01237B610BE03B6A002B02D1002366
:103AD0007B6105E04FF0FF337B613B6A5B423B62F9
:103AE000FB69002B02DD01233B610BE0FB69002B2E
:103AF00002D100233B6105E04FF0FF333B61FB69DE
:103B00005B42FB613A6AFB699A4202DD3B6ABB6138
:103B100001E0FB69BB610023FB852BE0FB689BB2E6
:103B2000BA6891B2B7F840201846FFF791FFBA6A19
:103B30003B6A1344BB627A6AFB6913447B62BA6ACC
:103B4000BB699A4207DDBA6ABB69D31ABB62FA68DD
:103B50007B691344FB607A6ABB699A4207DD7A6A23
:103B6000BB69D31A7B62BA683B691344BB60FB8DA7
:103B70000133FB85FB8DBA699A42CFDA00BF00BFE3
:103B80003437BD4690BD90B585B002AF04460846B7
:103B900011461A462346FB800346BB800B467B80BA
:103BA00013463B80BC887A88B988F8883B8B0093A1
:103BB0002346FFF764FF3C88FA88B988F8883B8B76
:103BC00000932346FFF75BFF3C887A883988F888A2
:103BD0003B8B00932346FFF752FF3C887A88B988D5
:103BE00078883B8B00932346FFF749FF00BF0C37D3
:103BF000BD4690BD90B587B000AF0446084611465B
:103C00001A462346FB800346BB800B46FB701346D7
:103C10003B8000237B75FB883B8297F82C305B0848
:103C2000FB73FB7BDB08DBB21A46FB7B03F007036D
:103C3000DBB2002B14BF01230023DBB213449AB282
:103C400097F82C309BB212FB03F3BB81FB78203B2F
:103C5000FB70FB7B9AB2FB8813449BB2013B9CB286
:103C600097F82C309AB2BB8813449BB2013B9BB2AD
:103C7000B988F8882246FFF737FE00237B8286E06A
:103C800097F82C300C2B0BD1FA78798A45481346DB
:103C90005B0013449B0003440B441B78FB7528E036
:103CA00097F82C30102B08D1FA787B8A3E49120104
:103CB0000A4413441B78FB751BE097F82C30182B33
:103CC0000BD1FA78798A394813465B0013441B01FB
:103CD00003440B441B78FB750BE097F82C30202B2A
:103CE0005BD1FA787B8A324992010A4413441B78EB
:103CF000FB750023BB7544E097F83030002B20D1D2
:103D0000FA7DBB7D42FA03F303F00103002B04D0DC
:103D10003B881846FFF7C6FD03E03B8D1846FFF7CA
:103D2000C1FD7B7D01337B757B7DFA7BB3FBF2F1BB
:103D300002FB01F29B1ADBB2002B1FD100237B7523
:103D400022E0FA7DBB7D42FA03F303F00103002B6E
:103D500005D03A88B988FB881846FFF779FEFB88BA
:103D60000133FB80FA883B8AD21AFB7B9A4205D149
:103D70003B8AFB80BB880133BB8005E0BB7D013300
:103D8000BB75BB7D072BB7D97B8A01337B827A8ACF
:103D9000BB899A42FFF474AF00E000BF1C37BD46F8
:103DA00090BD00BFA8E900081CEE00080CF4000854
:103DB000DC05010880B485B000AF03460A46FB71FC
:103DC0001346BB710123FB6004E0FA79FB6802FB38
:103DD00003F3FB60BB795A1EBA71002BF5D1FB6867
:103DE00018461437BD465DF8047B704790B589B01E
:103DF00004AF0446084611461A462346FB80034694
:103E0000BB800B467B8013467B700023BB7397F807
:103E100028305B087B730023FB7359E07C887A7839
:103E2000FB7BD31ADBB2013BDBB219460A20FFF75A
:103E3000C1FF0346B4FBF3F12A4BA3FB0123DA08CD
:103E400013469B0013445B00CA1A13463B73BB7BAB
:103E5000002B21D1FA7B7B78013B9A421CDA3B7B19
:103E6000002B17D1FB7B9AB27B7B9BB212FB03F337
:103E70009AB2FB88134498B23A8CB9880023029313
:103E800097F828300193BB8C009313462022FFF74C
:103E9000B1FE1AE00123BB73FB7B9AB27B7B9BB222
:103EA00012FB03F39AB2FB88134498B23B7B303386
:103EB000DAB23C8CB9880023029397F8283001933A
:103EC000BB8C00932346FFF795FEFB7B0133FB730E
:103ED000FA7B7B789A42A1D300BF00BF1437BD465E
:103EE00090BD00BFCDCCCCCC90B58BB004AF044618
:103EF000084687ED020A11461A462346FB8103460F
:103F0000BB810B46FB711346BB8097F82C305B08D6
:103F1000BB75D7ED027A9FED367A67EE877AFCEEB5
:103F2000E77A17EE903ABB820023FB7557E0BC8A14
:103F3000FA79FB7DD31ADBB2013BDBB219460A20CA
:103F4000FFF738FF0346B4FBF3F12A4BA3FB012331
:103F5000DA0813469B0013445B00CA1A1346FB742D
:103F6000FA7DFB79023B9A421DD1FB79023B9AB262
:103F7000BB7D9BB212FB03F39AB2FB89134498B248
:103F8000BA88B9890023029397F82C3001933B8DAE
:103F9000009313462E22FFF72DFEFB7D0133FB75A8
:103FA000FB790133FB71FB7D9AB2BB7D9BB212FBA7
:103FB00003F39AB2FB89134498B2FB7C3033DAB234
:103FC000BC88B9890023029397F82C3001933B8D6C
:103FD00000932346FFF70EFEFB7D0133FB75FA7D50
:103FE000FB799A42A3D300BF00BF1C37BD4690BDEA
:103FF0000000C842CDCCCCCC90B587B000AF044611
:10400000084611461A462346FB800346BB800B46F2
:104010007B8013463B8000233B61FA887B881344F6
:104020009BB2013B9CB2BA883B8813449BB2013BD4
:104030009BB2B988F8882246FFF756FC0023FB8222
:1040400027E00023BB821DE03B695B00BA6A134492
:104050001B78FB733B695B000133BA6A13441B781E
:10406000BB73FB7B1B021AB2BB7B1BB213431BB29D
:104070009BB21846FFF716FC3B6901333B61BB8AD4
:104080000133BB82BA8A3B889A42DDD3FB8A013373
:10409000FB82FA8A7B889A42D3D300BF00BF1C37C9
:1040A000BD4690BD80B483B000AF0346FB71FB7981
:1040B0001B09DBB203F00303DBB2002B07D00A4B72
:1040C0004FF4A0721A80084BF0225A8006E0064B8B
:1040D000F0221A80044B4FF4A0725A8000BF0C37B4
:1040E000BD465DF8047B70477003002080B500AFCB
:1040F00000224FF40051AA4804F076F84FF4FA7009
:1041000002F074FD01224FF40051A54804F06CF850
:104110004FF4FA7002F06AFD0020FFF7C3FFD320CE
:10412000FFF7B0FBFFF7CEFB03461A469D4B9A8084
:10413000FFF7C8FB03461A469A4B9A80FFF7C2FB6B
:1041400003461A46974B9A80964B9B881B029AB25D
:10415000944B9A80FFF7B6FB03461A46914B9B8817
:1041600013439AB28F4B9A80CF20FFF78BFB00202E
:10417000FFF798FBC120FFF795FB3020FFF792FB7C
:10418000ED20FFF77FFB6420FFF78CFB0320FFF798
:1041900089FB1220FFF786FB8120FFF783FBE820D5
:1041A000FFF770FB8520FFF77DFB1020FFF77AFB00
:1041B0007A20FFF777FBCB20FFF764FB3920FFF76E
:1041C00071FB2C20FFF76EFB0020FFF76BFB342008
:1041D000FFF768FB0220FFF765FBF720FFF752FBB4
:1041E0002020FFF75FFBEA20FFF74CFB0020FFF7E2
:1041F00059FB0020FFF756FBC020FFF743FB1B20B5
:10420000FFF750FBC120FFF73DFB0120FFF74AFB02
:10421000C520FFF737FB3020FFF744FB3020FFF7C6
:1042200041FBC720FFF72EFBB720FFF73BFB3620F3
:10423000FFF728FB0820FFF735FB3A20FFF722FBAA
:104240005520FFF72FFBB120FFF71CFB0020FFF7E5
:1042500029FB1A20FFF726FBB620FFF713FB0A20E5
:10426000FFF720FBA220FFF71DFBF220FFF70AFB60
:104270000020FFF717FB2620FFF704FB0120FFF7C4
:1042800011FBE020FFF7FEFA0F20FFF70BFB2A20BF
:10429000FFF708FB2820FFF705FB0820FFF702FBCC
:1042A0000E20FFF7FFFA0820FFF7FCFA5420FFF773
:1042B000F9FAA920FFF7F6FA4320FFF7F3FA0A20EC
:1042C000FFF7F0FA0F20FFF7EDFA0020FFF7EAFA08
:1042D0000020FFF7E7FA0020FFF7E4FA0020FFF7DD
:1042E000E1FAE120FFF7CEFA0020FFF7DBFA152014
:1042F000FFF7D8FA1720FFF7D5FA0720FFF7D2FA11
:104300001120FFF7CFFA0620FFF7CCFA2B20FFF79A
:10431000C9FA5620FFF7C6FA3C20FFF7C3FA05207A
:10432000FFF7C0FA1020FFF7BDFA0F20FFF7BAFA27
:104330003F20FFF7B7FA3F20FFF7B4FA0F20FFF74F
:10434000B1FA2B20FFF79EFA0020FFF7ABFA00200E
:10435000FFF7A8FA0120FFF7A5FA3F20FFF7A2FA1E
:104360002A20FFF78FFA0020FFF79CFA0020FFF7C2
:1043700099FA0020FFF796FAEF20FFF793FA112041
:10438000FFF780FA782002F031FC2920FFF77AFA53
:1043900001224FF48071044803F026FF00BF80BD66
:1043A00000080240700300200000024080B584B085
:1043B00000AFF860B9607A603B60FB689AB27B68D6
:1043C0009BB2134498B2BB689AB23B689BB2134449
:1043D0009BB23A8B1946FFF73BFBFB689AB27B68AE
:1043E0009BB2D31A98B2BB689AB23B689BB2134493
:1043F0009BB23A8B1946FFF72BFBFB689AB27B689E
:104400009BB2134498B2BB689AB23B689BB2D31A72
:104410009BB23A8B1946FFF71BFBFB689AB27B688D
:104420009BB2D31A98B2BB689AB23B689BB2D31ABC
:104430009BB23A8B1946FFF70BFBFB689AB23B68BD
:104440009BB2134498B2BB689AB27B689BB2134488
:104450009BB23A8B1946FFF7FBFAFB689AB23B68AE
:104460009BB2D31A98B2BB689AB27B689BB21344D2
:104470009BB23A8B1946FFF7EBFAFB689AB23B689E
:104480009BB2134498B2BB689AB27B689BB2D31AB2
:104490009BB23A8B1946FFF7DBFAFB689AB23B688E
:1044A0009BB2D31A98B2BB689AB27B689BB2D31AFC
:1044B0009BB23A8B1946FFF7CBFA00BF1037BD46C7
:1044C00080BD80B58AB002AFF860B9603B6013462A
:1044D000FB800023FB613B68BB613B685B00C3F171
:1044E00003033B61BB6A002B4FD029E0FB697B6172
:1044F0000AE0FB8800937B69FA69B968F868FFF7FE
:1045000055FF7B6901337B617A69BB699A42F0DDB3
:104510003B69002B06DAFB699A003B6913440633BA
:104520003B610AE0FA69BB69D31A9A003B691344FC
:104530000A333B61BB69013BBB61FB690133FB6132
:10454000FA69BB699A42D1DD23E0FB880093BB691D
:10455000FA69B968F868FFF729FF3B69002B06DAAA
:10456000FB699A003B69134406333B610AE0FA6930
:10457000BB69D31A9A003B6913440A333B61BB6998
:10458000013BBB61FB690133FB61FA69BB699A427C
:10459000DBDD00BF2037BD4680BD90B58BB004AFDA
:1045A000BA601A460346FB810B46BB811346FB806B
:1045B000FB89BB820023FB7534E0FB7D002B31D1EE
:1045C000BB681B78802B02D90123FB752AE0BB68EE
:1045D0001B780D2B0BD197F82C309AB2BB89134462
:1045E000BB81BB8AFB81BB680133BB6017E0BB6842
:1045F0001A78FC88B989F88997F83030029397F8CF
:104600002C3001933B8D00932346FFF7F3FA97F884
:104610002C305B08DBB29AB2FB891344FB81BB6888
:104620000133BB60BB681B78002BC6D100BF00BF45
:104630001C37BD4690BD000080B58AB004AFBA609B
:104640001A460346FB810B46BB811346FB80B868C4
:10465000FBF7BEFD0346FB820F4B1B881A46FB8A05
:10466000DB00D31ADA0F13445B10BB82FA89BB8AD2
:10467000134498B2FA88B98997F82830029397F8CA
:10468000243001933B8C00931346BA68FFF785FFF3
:1046900000BF1837BD4680BD7003002080B500AF55
:1046A00001224021024803F09FFD00BF80BD00BFF2
:1046B0000018024080B500AF3F4B1B88DBB29AB2B6
:1046C0003D4B1A803D4B1B881A463D4B9B5C1B02A1
:1046D0001AB2394B1B881BB213431BB29AB2364B2A
:1046E0001A80364B1B88032B46D801A252F823F0C0
:1046F000014700081F4700083D4700085B470008C6
:104700002D4B1B8843F0B0039AB22B4B1A802A4BD7
:104710001B8823F040039AB2274B1A802DE0264BCA
:104720001B8843F0D0039AB2234B1A80224B1B887C
:1047300023F020039AB2204B1A801EE01E4B1B88E8
:1047400043F0E0039AB21C4B1A801B4B1B8823F0EA
:1047500010039AB2184B1A800FE0174B1B8843F0D6
:1047600070039AB2144B1A80134B1B8823F08003FA
:104770009AB2114B1A8000E000BF104B1B88013326
:104780005A4203F0030302F0030258BF53429AB2A5
:104790000A4B1A80002240210A4803F025FD01231C
:1047A00002220549084805F0F6F901224021054892
:1047B00003F01AFD00BF80BD660000207C010020D0
:1047C00058000020001802401804002080B485B072
:1047D00000AFF860B9601346FB71FB68002B0EDB7D
:1047E000FB68092B0BDC094AFB6813441A78FB7938
:1047F000D31AD9B2064ABB6813440A461A7000BFDE
:104800001437BD465DF8047B704700BF5C00002094
:104810005800002080B500AF02F076F900F02EF8C5
:10482000FDF7B0FDFCF750FDFCF7AAFBFDF7D6FA4B
:10483000FDF7D6FE00F0F4FB01F05CF802F03AF868
:1048400001F008F801F0A2F802F05EF800F080F83C
:10485000094B1B88012BFBD1074B00221A8001F06A
:1048600095FFFCF7C5FCFDF717F8FDF70FFAFEF70B
:1048700063FFFCF7EFFDEBE77E01002080B594B00D
:1048800000AF07F1200330220021184607F078FF1F
:1048900007F10C0300221A605A609A60DA601A610C
:1048A0000023BB60284B1B6C274A43F080531364E2
:1048B000254B1B6C03F08053BB60BB6800237B60FF
:1048C000224B1B68214A43F4804313601F4B1B6833
:1048D00003F480437B607B6802233B620123FB621D
:1048E00010233B630223BB630023FB6308233B6469
:1048F000A8237B640223BB640423FB6407F1200329
:10490000184604F04BFC0346002B01D000F046F89B
:104910000F23FB6002233B6100237B614FF4A05314
:10492000BB614FF4A053FB6107F10C03052118464E
:1049300004F0ACFE0346002B01D000F02FF800BFBE
:104940005037BD4680BD00BF0038024000700040B7
:1049500080B500AF00F050FAFCF73EFCFFF7C6FB55
:1049600000F022F801F002FFFFF798FE01F042FF8D
:10497000FDF764FE00F06AF8FEF77EFE322000F0DC
:1049800049FA322000F062FA40F6B83000F07AFAC4
:104990004FF47A7000F092FA00BF80BD80B400AF8F
:1049A00072B600BFFEE7000080B500AF05220349E4
:1049B000034802F083F900BF80BD00BF0C04002053
:1049C000AC01002080B500AF05220349034802F086
:1049D00075F900BF80BD00BF0C040020AC010020B1
:1049E00080B400AF034B9B881846BD465DF8047B3E
:1049F000704700BF0C04002080B400AF034BDB887D
:104A00001846BD465DF8047B704700BF0C040020CB
:104A100080B400AF0A4B1B8907EE903AF8EE677A34
:104A20009FED087A67EE877A9FED077AC7EE876A6F
:104A3000F0EE667AB0EE670ABD465DF8047B70471B
:104A40000C0400200000A54300F07F4580B483B033
:104A500000AF194B77221A60174B5A225A60012374
:104A60007B600DE0144A7B68002142F83310124A43
:104A70007B68DB00134400225A607B6801337B6053
:104A80007B68042BEEDD0D4B03221A600C4B0122D8
:104A90001A600C4B00221A600B4B00221A600B4B61
:104AA0003C221A600A4B00221A6000BF0C37BD4638
:104AB0005DF8047B704700BF68020020640100209D
:104AC0004C00002000000020680100206C01002044
:104AD0007001002080B485B000AF3B4683E803003E
:104AE0003B68002B08DD3B68EE2B05DC7B68122B56
:104AF00002DD7B68C62B01DD01231CE00023FB6087
:104B000013E03A680F49FB6851F833309A4209D1F3
:104B10007A680C49FB68DB000B445B689A4201D160
:104B2000012308E0FB680133FB60FA68064B1B6851
:104B30009A42E6D3002318461437BD465DF8047B3D
:104B4000704700BF680200204C00002080B483B092
:104B500000AF1B4B1B68002B0BDD194B1B68EE2BAA
:104B600007DC174B5B68122B03DD154B5B68C62B0C
:104B700001DD01231EE001237B6015E0104B1A6864
:104B80000F497B6851F833309A420AD10C4B5A686E
:104B90000B497B68DB000B445B689A4201D101231F
:104BA00008E07B6801337B607A68064B1B689A4299
:104BB000E4D3002318460C37BD465DF8047B7047EC
:104BC000680200204C00002080B500AF134B1A682B
:104BD000134B1B6806339A421DDC104B1A68104BAE
:104BE0001B68063B9A4216DB0C4B5A680C4B5B6801
:104BF00006339A420FDC094B5A68094B5B68063B47
:104C00009A4208DB064B93E80300FEF7FDFC00F038
:104C1000CFF8012300E00023184680BD6802002081
:104C200050000020B0B582B000AF786007F0B0FD52
:104C300003461846FBF776FC04460D467868FBF7FA
:104C400071FC4FF000020E4BFBF720FB02460B46B7
:104C500020462946FBF7D0FC02460B461046194673
:104C60004FF00002074BFBF7F1FD02460B461046E2
:104C70001946FBF771FF034618460837BD46B0BD1D
:104C80000000F03F0000E04180B582B000AFEF20AF
:104C9000FFF7C8FF03463B60C720FFF7C3FF03468B
:104CA0007B6009E0EF20FFF7BDFF03463B60C720B4
:104CB000FFF7B8FF03467B603B4693E80300FFF72E
:104CC00009FF0346012BEDD0074B1A463B4693E8FC
:104CD000030082E80300044B93E80300FEF781FC25
:104CE00000BF0837BD4680BD5000002080B582B0AF
:104CF00000AF2C4B1B68013B2B4ADB00134493E8AD
:104D00000300FEF781FC274B1B68013B7B6016E02C
:104D10007B68013B244A52F8332023497B6841F8E1
:104D200033207B68013B204ADB0013445A681E494C
:104D30007B68DB000B445A607B68013B7B607B68CF
:104D4000002BE5DC194B1B68013B032B22D801A289
:104D500052F823F0654D0008714D00087D4D0008A4
:104D6000894D0008104B1B6807330F4A136012E08F
:104D70000D4B1B68073B0C4A13600CE00A4B5B6849
:104D8000073B094A536006E0074B5B680733064A56
:104D9000536000E000BF00F00BF800BF0837BD46CD
:104DA00080BD00BF4C00002068020020640100208C
:104DB00080B582B000AF0E4B93E80300FEF7A4FB72
:104DC00001237B600AE00A4A7B68DB00134493E816
:104DD0000300FEF7B4FB7B6801337B607A68054B08
:104DE0001B689A42EFD300BF00BF0837BD4680BDA5
:104DF000680200204C00002080B500AF034805F099
:104E0000E5FC034805F07AFC00BF80BD00050020EA
:104E1000B804002080B483B000AF0346FB80084A8A
:104E2000FB881380064B1A88064B1A80064B00221B
:104E30001A8000BF0C37BD465DF8047B704700BF89
:104E400082010020800100207E01002080B483B018
:104E500000AF0346FB80084AFB881380064B1A8884
:104E6000064B1A80064B00221A8000BF0C37BD4645
:104E70005DF8047B704700BF880100208601002098
:104E80008401002080B483B000AF0346FB80084A51
:104E9000FB881380064B1A88064B1A80064B0022AB
:104EA0001A8000BF0C37BD465DF8047B704700BF19
:104EB0008E0100208C0100208A01002080B483B084
:104EC00000AF0346FB80084AFB881380064B1A8814
:104ED000064B1A80064B00221A8000BF0C37BD46D5
:104EE0005DF8047B704700BF940100209201002010
:104EF0009001002080B582B000AF78607B681B68AD
:104F0000B3F1804F55D12D4B1B88002B10D02B4B6C
:104F10001B88013B9AB2294B1A80284B1B88002B17
:104F200006D1274B01221A80264B1A88234B1A8060
:104F3000254B1B88002B10D0234B1B88013B9AB2BA
:104F4000214B1A80204B1B88002B06D11F4B0122BE
:104F50001A801F4B1A881C4B1A801E4B1B88002B73
:104F600010D01C4B1B88013B9AB21A4B1A80194B6C
:104F70001B88002B06D1184B01221A80174B1A8868
:104F8000144B1A80164B1B88002B10D0144B1B8817
:104F9000013B9AB2124B1A80114B1B88002B06D191
:104FA000104B01221A80104B1A880D4B1A80FFF704
:104FB00081FB00BF0837BD4680BD00BF80010020D7
:104FC0007E01002082010020860100208401002053
:104FD000880100208C0100208A0100208E01002021
:104FE00092010020900100209401002080B483B041
:104FF00000AF0346FB80094B1B6800225A6200BFCA
:10500000064B1B685A6AFB889A42F9D300BF00BF5F
:105010000C37BD465DF8047B704700BFB804002024
:1050200080B500AF174B184A1A60164B4FF48272C6
:105030005A60144B00229A60124B0022DA60114B26
:1050400000221A610F4B00225A610E4B4FF400727E
:105050009A610C4B0022DA610A4B00221A62094B5A
:1050600000225A62074B00229A62064B0A22DA6239
:10507000044804F007FD0346002B01D0FFF78EFC27
:1050800000BF80BD180400200030014080B483B010
:1050900000AF00237B60104B5B6C0F4A43F48043EE
:1050A00053640D4B5B6C03F480437B607B6800238F
:1050B0003B60094B1B6C084A43F080531364064B5A
:1050C0001B6C03F080533B603B6800BF0C37BD4650
:1050D0005DF8047B704700BF0038024080B58AB09D
:1050E00000AF786007F1140300221A605A609A60DA
:1050F000DA601A617B681B683C4A934271D10023D5
:105100003B613B4B5B6C3A4A43F480735364384BCE
:105110005B6C03F480733B613B690023FB60344BA1
:105120001B6B334A43F004031363314B1B6B03F0D7
:105130000403FB60FB680023BB602D4B1B6B2C4AF8
:1051400043F0020313632A4B1B6B03F00203BB60A3
:10515000BB6807237B610323BB610023FB6107F16D
:1051600014031946234802F08BFE03237B610323BB
:10517000BB610023FB6107F1140319461E4802F0CE
:105180007FFE1E4B1E4A1A601C4B00225A601B4BAE
:1051900000229A60194B0022DA60184B4FF48062AB
:1051A0001A61164B4FF400625A61144B4FF40052CF
:1051B0009A61124B4FF48072DA61104B00221A622E
:1051C0000E4B00225A620D4802F058FA0346002B9B
:1051D00001D0FFF7E3FB7B68084A9A63074A7B68C4
:1051E000936300BF2837BD4680BD00BF002001404B
:1051F000003802400008024000040240AC030020D6
:105200001064024080B58AB000AF786007F11403E3
:1052100000221A605A609A60DA601A617B681B6823
:10522000194A93422BD100233B61184B1B6B174A41
:1052300043F002031363154B1B6B03F002033B6146
:105240003B69C0237B611223BB610023FB61032305
:105250003B6204237B6207F1140319460C4802F0F9
:105260000FFE0023FB60094B1B6C084A43F400133C
:105270001364064B1B6C03F40013FB60FB6800BF58
:105280002837BD4680BD00BF0054004000380240B2
:105290000004024080B58AB000AF786007F11403C3
:1052A00000221A605A609A60DA601A617B681B6893
:1052B000194A93422BD100233B61184B5B6C174A70
:1052C00043F480535364154B5B6C03F480533B6190
:1052D0003B690023FB60114B1B6B104A43F0020338
:1052E00013630E4B1B6B03F00203FB60FB68382358
:1052F0007B610223BB610023FB6103233B62052327
:105300007B6207F114031946054802F0B9FD00BF9E
:105310002837BD4680BD00BF003001400038024044
:105320000004024080B586B000AF78607B681B68DF
:10533000224A93420ED100237B61214B5B6C204AB1
:1053400043F0010353641E4B5B6C03F001037B616C
:105350007B692EE07B681B68B3F1804F16D1002378
:105360003B61174B1B6C164A43F001031364144B4B
:105370001B6C03F001033B613B69002200211C20F0
:1053800002F045F91C2002F05EF912E07B681B6810
:105390000C4A93420DD10023FB60094B1B6C084A59
:1053A00043F080031364064B1B6C03F08003FB6027
:1053B000FB6800BF1837BD4680BD00BF000001403C
:1053C00000380240001C004080B588B000AF786013
:1053D00007F10C0300221A605A609A60DA601A61C1
:1053E0007B681B68124A93421ED10023BB60114B9D
:1053F0001B6B104A43F0200313630E4B1B6B03F02F
:105400002003BB60BB684FF48073FB6002233B61E9
:1054100000237B610023BB610923FB6107F10C03BF
:105420001946054802F02CFD00BF2037BD4680BD5F
:10543000001C0040003802400014024080B58CB0CF
:1054400000AF786007F11C0300221A605A609A606E
:10545000DA601A617B681B683A4A934235D10023AF
:10546000BB61394B5B6C384A43F010035364364BD5
:105470005B6C03F01003BB61BB6900237B61324BA3
:105480001B6B314A43F0010313632F4B1B6B03F07B
:1054900001037B617B694FF4C063FB6102233B62C4
:1054A00000237B620323BB620723FB6207F11C031B
:1054B0001946264802F0E4FC00220021252002F0D3
:1054C000A6F8252002F0BFF838E07B681B68204A68
:1054D000934233D100233B611B4B1B6C1A4A43F4AC
:1054E00000331364184B1B6C03F400333B613B69BE
:1054F0000023FB60144B1B6B134A43F0010313633F
:10550000114B1B6B03F00103FB60FB680C23FB6179
:1055100002233B6200237B620323BB620723FB62FF
:1055200007F11C031946094802F0AAFC00220021D9
:10553000262002F06CF8262002F085F800BF3037F4
:10554000BD4680BD0010014000380240000002400E
:105550000044004080B586B000AF3B1D00221A60B9
:105560005A609A60DA601A611C4B1B68002B31D1BB
:105570001A4B01221A6000233B60194B9B6B184A9F
:1055800043F001039363164B9B6B03F001033B60F5
:105590003B684FF688737B600223BB600023FB608F
:1055A00003233B610C237B613B1D19460D4802F030
:1055B00067FC4CF2B3737B600223BB600023FB608B
:1055C00003233B610C237B613B1D1946064802F017
:1055D00057FC00E000BF1837BD4680BD9801002091
:1055E0000038024000100240000C024080B582B03A
:1055F00000AF7860FFF7AEFF00BF0837BD4680BD43
:1056000080B400AFFEE780B400AFFEE780B400AF27
:10561000FEE780B400AFFEE780B400AFFEE780B4E1
:1056200000AF00BFBD465DF8047B704780B400AF9B
:1056300000BFBD465DF8047B704780B400AF00BF7B
:10564000BD465DF8047B704780B500AF01F0AEFA4F
:1056500000BF80BD80B500AF024805F080F900BFF3
:1056600080BD00BF0005002080B500AF024806F0F5
:10567000BBF800BF80BD00BF4805002080B500AF6B
:10568000024806F0B1F800BF80BD00BF8C050020C5
:1056900080B500AF024802F089F900BF80BD00BFAD
:1056A000AC03002080B400AF01231846BD465DF86E
:1056B000047B704780B582B000AF7860396007F036
:1056C0001BF8034616221A604FF0FF3318460837BE
:1056D000BD4680BD80B582B000AF78604FF0FF312D
:1056E0007868FFF7E7FFFEE780B586B000AFF860A7
:1056F000B9607A6000237B610AE0AFF30080014665
:10570000BB685A1CBA60CAB21A707B6901337B61EC
:105710007A697B689A42F0DB7B6818461837BD4689
:1057200080BD80B586B000AFF860B9607A600023B4
:105730007B6109E0BB685A1CBA601B781846AFF35E
:1057400000807B6901337B617A697B689A42F1DB77
:105750007B6818461837BD4680BD80B483B000AF63
:1057600078604FF0FF3318460C37BD465DF8047B78
:10577000704780B483B000AF786039603B684FF405
:1057800000525A60002318460C37BD465DF8047B72
:10579000704780B483B000AF7860012318460C379F
:1057A000BD465DF8047B704780B485B000AFF860FB
:1057B000B9607A60002318461437BD465DF8047B53
:1057C0007047000080B586B000AF7860144A154B72
:1057D000D31A7B617B693B61134B1B68002B02D1A1
:1057E000114B124A1A60104B1A687B6813443A69CD
:1057F0009A4207D206F080FF03460C221A604FF04F
:10580000FF3309E0084B1B68FB60074B1A687B6895
:105810001344054A1360FB6818461837BD4680BD1F
:1058200000000220000400009C010020E805002088
:1058300080B400AF064BD3F88830054A43F47003B8
:10584000C2F8883000BFBD465DF8047B704700BFDA
:1058500000ED00E080B586B000AF07F1080300223C
:105860001A605A609A60DA603B4600221A605A60F9
:105870001E4B1F4A1A601D4B53225A601B4B0022BD
:105880009A601A4B4FF6FF72DA60184B00221A61C9
:10589000164B00225A61154B00229A61134804F0FE
:1058A000DDFE0346002B01D0FFF778F84FF480535C
:1058B000BB6007F1080319460C4805F01BFA0346C4
:1058C000002B01D0FFF76AF800233B6000237B60C8
:1058D0003B461946054805F0E7FD0346002B01D07D
:1058E000FFF75CF800BF1837BD4680BDB804002044
:1058F0000000014080B586B000AF07F10803002228
:105900001A605A609A60DA603B4600221A605A6058
:105910001D4B4FF080421A601B4B40F247325A60D9
:10592000194B00229A60184B6322DA60164B002252
:105930001A61154B00229A61134804F08FFE03464A
:10594000002B01D0FFF72AF84FF48053BB6007F11A
:10595000080319460C4805F0CDF90346002B01D089
:10596000FFF71CF800233B6000237B603B46194691
:10597000054805F099FD0346002B01D0FFF70EF80E
:1059800000BF1837BD4680BD0005002080B588B037
:1059900000AF3B1D00221A605A609A60DA601A61FB
:1059A0005A619A611E4B1F4A1A601D4B40F24732E2
:1059B0005A601B4B00229A60194B6322DA60184B25
:1059C00000221A61164B00229A61154804F046FE27
:1059D0000346002B01D0FEF7E1FF114804F066FFFB
:1059E0000346002B01D0FEF7D9FF60237B60002324
:1059F000BB600023FB6000237B613B1D0022194636
:105A0000074805F0B5F80346002B01D0FEF7C6FFA6
:105A10000348FFF7D9FC00BF2037BD4680BD00BF5B
:105A200070040020001C004080B584B000AF034625
:105A3000FB710023FB730023FB7325E097F907300C
:105A4000002B06DA01224FF40071134802F0CCFB60
:105A500005E000224FF400710F4802F0C5FBFB790E
:105A60005B00FB7100224FF480710C4802F0BCFB1C
:105A70000120FFF7BBFA01224FF48071074802F0C2
:105A8000B3FBFB7B0133FB73FB7B072BD6D900BF3A
:105A900000BF1037BD4680BD00080240001802401C
:105AA00080B584B000AF0346FB710023FB73002375
:105AB000BB8100224FF480712F4802F095FB002239
:105AC0004FF400712D4802F08FFB002280212A48FC
:105AD00002F08AFBFB791846FFF7A6FF0620FFF7C6
