:020000040800F2
:100000000000022009220008252100082B210008F9
:1000100031210008372100083D21000800000000C0
:100020000000000000000000000000004321000864
:1000300051210008000000005F2100086D21000828
:1000400059220008592200085922000859220008A4
:100050005922000859220008592200085922000894
:100060005922000859220008592200085922000884
:100070005922000859220008592200085922000874
:100080005922000859220008592200085922000864
:100090005922000859220008592200085922000854
:1000A0005922000859220008592200085922000844
:1000B0005922000859220008592200085922000834
:1000C0005922000859220008592200085922000824
:1000D0005922000859220008592200085922000814
:1000E0005922000859220008592200085922000804
:1000F00059220008592200085922000859220008F4
:1001000059220008592200085922000859220008E3
:1001100059220008592200085922000859220008D3
:1001200059220008592200085922000859220008C3
:1001300059220008592200085922000859220008B3
:1001400059220008592200085922000859220008A3
:100150005922000859220008592200085922000893
:100160005922000859220008592200085922000883
:1001700059220008592200085922000800000000F6
:08018000592200085922000871
:1001900010B5054C237833B9044B13B10448AFF3C1
:1001A00000800123237010BD940000200000000097
:1001B000744C000808B5034B1BB103490348AFF367
:1001C000008008BD0000000098000020744C00086A
:1001D00001F0FF01102A2BDB10F0070F08D010F8F8
:1001E000013B013A8B422DD010F0070F42B3F6D1FC
:1001F000F0B441EA012141EA014122F007047FF015
:1002000000070023F0E80256083C85EA010586EA6B
:10021000010685FA47F5A3FA87F586FA47F6A5FAA7
:1002200087F68EB9EED1F0BC01F0FF0102F00702B3
:1002300032B110F8013B013A83EA010313B1F8D15E
:100240000020704701387047002D06BF354603383F
:10025000073815F0010F07D1013015F4807F02BF78
:10026000013015F4C03F0130F0BC0138704700BFC9
:1002700053B94AB9002908BF00281CBF4FF0FF310D
:100280004FF0FF3000F074B9ADF1080C6DE904CE09
:1002900000F006F8DDF804E0DDE9022304B0704761
:1002A0002DE9F047089D04468E46002B4DD18A4229
:1002B000944669D9B2FA82F252B101FA02F3C2F15C
:1002C000200120FA01F10CFA02FC41EA030E9440ED
:1002D0004FEA1C48210CBEFBF8F61FFA8CF708FB0E
:1002E00016E341EA034306FB07F199420AD91CEBE6
:1002F000030306F1FF3080F01F81994240F21C8118
:10030000023E63445B1AA4B2B3FBF8F008FB10335F
:1003100044EA034400FB07F7A7420AD91CEB040494
:1003200000F1FF3380F00A81A74240F20781644464
:10033000023840EA0640E41B00261DB1D4400023E9
:10034000C5E900433146BDE8F0878B4209D9002D4D
:1003500000F0EF800026C5E9000130463146BDE8D7
:10036000F087B3FA83F6002E4AD18B4202D3824241
:1003700000F2F980841A61EB030301209E46002DF0
:10038000E0D0C5E9004EDDE702B9FFDEB2FA82F245
:10039000002A40F09280A1EB0C014FEA1C471FFAA3
:1003A0008CFE0126200CB1FBF7F307FB131140EA8A
:1003B00001410EFB03F0884208D91CEB010103F157
:1003C000FF3802D2884200F2CB804346091AA4B219
:1003D000B1FBF7F007FB101144EA01440EFB00FEED
:1003E000A64508D91CEB040400F1FF3102D2A64552
:1003F00000F2BB800846A4EB0E0440EA03409CE7F1
:10040000C6F12007B34022FA07FC4CEA030C20FA9D
:1004100007F401FA06F31C43F9404FEA1C4900FABD
:1004200006F3B1FBF9F8200C1FFA8CFE09FB18113A
:1004300040EA014108FB0EF0884202FA06F20BD9AD
:100440001CEB010108F1FF3A80F08880884240F2FD
:100450008580A8F102086144091AA4B2B1FBF9F041
:1004600009FB101144EA014100FB0EFE8E4508D93C
:100470001CEB010100F1FF346CD28E456AD90238C1
:10048000614440EA0840A0FB0294A1EB0E01A142A6
:10049000C846A64656D353D05DB1B3EB080261EB14
:1004A0000E0101FA07F722FA06F3F1401F43C5E9EE
:1004B000007100263146BDE8F087C2F12003D84024
:1004C0000CFA02FC21FA03F3914001434FEA1C4766
:1004D0001FFA8CFEB3FBF7F007FB10360B0C43EA58
:1004E000064300FB0EF69E4204FA02F408D91CEB08
:1004F000030300F1FF382FD29E422DD90238634406
:100500009B1B89B2B3FBF7F607FB163341EA0341A5
:1005100006FB0EF38B4208D91CEB010106F1FF38F4
:1005200016D28B4214D9023E6144C91A46EA0046EB
:1005300038E72E46284605E70646E3E61846F8E67D
:100540004B45A9D2B9EB020864EB0C0E0138A3E7C6
:100550004646EAE7204694E74046D1E7D0467BE7A7
:10056000023B614432E7304609E76444023842E71F
:10057000704700BF80B500AF0221032000F04CF8A7
:10058000062001F0DDFE0021032000F045F80420E4
:1005900001F0D6FE0421042000F03EF800210820DE
:1005A00000F03AF801214B2000F036F800214B20F2
:1005B00000F032F84821202000F02EF801212120FF
:1005C00000F02AF80F21172000F026F8D32141204F
:1005D00000F022F801214A2000F01EF801214B20F2
:1005E00000F01AF800214B2000F016F801215620E7
:1005F00000F012F80121582000F00EF803214020ED
:1006000000F00AF8FF210B2000F006F8042001F0AA
:1006100097FE00BF80BD000080B586B002AF0346E4
:100620000A46FB711346BB710023BB81FB793B7308
:10063000BB797B7307F10C024FF47A7300930223AA
:100640008221034802F080FA00BF1037BD4680BD0A
:10065000B800002080B588B002AF0346FB710023CC
:100660003B740023BB8100237B61FB793B7407F162
:1006700010024FF47A730093012382210D4802F097
:1006800063FA07F10C024FF47A730093022382217C
:10069000084802F057FB3B7B7B617B691B027B6157
:1006A0007B7B1A467B6913437B617B69184618374D
:1006B000BD4680BDB800002080B582B000AF0023E9
:1006C0007B604D20FFF7C6FF78607B6818460837CF
:1006D000BD4680BD80B582B000AF00237B604F2057
:1006E000FFF7B8FF78607B6818460837BD4680BDC5
:1006F00080B584B002AF0023FB71FF23BB7101F012
:10070000ADFD00F0F5F800F08BF900F0CDF900F048
:1007100059F900F045FFFFF72DFF4FF4FC6001F0A1
:1007200067F8BA79FB799A4201D0FB79BB71FB7902
:10073000042B00F2D38001A252F823F051070008E5
:1007400057070008CB070008130800082108000815
:100750000123FB71C6E0FFF7AFFF0346624A136057
:10076000FFF7B8FF0346614A1360142001F0E8FD6B
:100770004FF47843009350236A220021DA2000F0DE
:10078000E5FF4FF6E073009350236A22A021DA20A0
:1007900000F0DCFF544B1B68E52B13D9524B1B6850
:1007A000B3F5AF6F0ED8514B1B6840F663229342EE
:1007B00008D94E4B1B6840F6D862934202D80223F8
:1007C000FB718FE00323FB718CE000F08DFD0023B3
:1007D000FB71FFF771FF0346434A1360FFF77AFF8F
:1007E0000346424A1360404B1B68BB2BF1D93E4B7A
:1007F0001B6840F63C729342EBD83C4B1B68B3F548
:10080000827FE6D3394B1B6840F6D8629342E0D82A
:1008100068E000F0AEF900F0DDF90423FB7161E05F
:1008200000F0CEFB034683F00103DBB2002B21D0A6
:100830000023FB71FFF740FF03462B4A1360FFF7CD
:1008400049FF0346294A1360274B1B68BB2BF1D98C
:10085000254B1B6840F63C729342EBD8234B1B6838
:10086000B3F5827FE6D3214B1B6840F6D8629342F2
:10087000E0D837E0FFF720FF03461B4A1360FFF77D
:1008800029FF0346194A1360174B1B68BB2B28D955
:10089000154B1B6840F63C72934222D8134B1B68E1
:1008A000B3F5827F1DD3114B1B6840F6D86293428B
:1008B00017D8FFF701FF03460B4A1360FFF70AFF43
:1008C00003460A4A1360084B1B689BB2074A12682A
:1008D00092B21146184600F0A1FC02E00023FB7121
:1008E00000E000BF1DE700BFB0000020B400002002
:1008F00080B594B000AF07F12003302200211846E4
:1009000003F050FD07F10C0300221A605A609A6050
:10091000DA601A610023BB60284B1B6C274A43F046
:1009200080531364254B1B6C03F08053BB60BB6882
:1009300000237B60224B1B68214A43F480431360F1
:100940001F4B1B6803F480437B607B6801233B6281
:100950004FF480337B620223BB634FF48003FB635D
:1009600008233B644FF4A8737B640223BB64072312
:10097000FB6407F12003184602F038FF0346002B02
:1009800001D000F0F1F80F23FB6002233B6100234C
:100990007B614FF4A053BB614FF48053FB6107F1BF
:1009A0000C030521184603F099F90346002B01D0EA
:1009B00000F0DAF800BF5037BD4680BD0038024075
:1009C0000070004080B500AF124B134A1A60114B03
:1009D000124A5A600F4B00229A600E4B0022DA60D6
:1009E0000C4B4FF480421A610A4B00225A61094BAA
:1009F00000229A61074B0022DA61064B00221A623C
:100A0000044801F05DFF0346002B01D000F0ACF874
:100A100000BF80BDB800002000540040A086010047
:100A200080B485B000AF0023FB601E4B1B6B1D4ADA
:100A300043F0100313631B4B1B6B03F01003FB60AD
:100A4000FB680023BB60174B1B6B164A43F0800307
:100A50001363144B1B6B03F08003BB60BB68002364
:100A60007B60104B1B6B0F4A43F0080313630D4B65
:100A70001B6B03F008037B607B6800233B60094B22
:100A80001B6B084A43F002031363064B1B6B03F016
:100A900002033B603B6800BF1437BD465DF8047B32
:100AA000704700BF0038024080B588B000AF3B1DE2
:100AB00000221A605A609A60DA601A615A619A617B
:100AC000274B4FF020421A60254B264A5A60244B90
:100AD00000229A60224B0022DA60214B00221A6128
:100AE0001F4B10225A611E4B00229A611C4B0022A0
:100AF000DA611B4B00221A62194B00225A62184B12
:100B00004FF480529A62164B0022DA62144B002294
:100B10001A63134B00225A63114B00229A63104B45
:100B200000225A6409237B600F23BB602423FB60EF
:100B30000F233B6110237B611123BB610023FB6109
:100B40003B1D00221946064803F0D4FA0346002B49
:100B500001D000F009F800BF2037BD4680BD00BFBE
:100B60000C010020040100A080B400AF72B600BFE9
:100B7000FEE780B582B002AF4FF6FF7000F038FE9E
:100B80001F2000F07DFE0123009304234FF4A07288
:100B90001421002000F02CFF01230093DC23042209
:100BA0001421002000F024FF0123009304234FF4BC
:100BB000A072EC21002000F01BFF01230093DC2336
:100BC000042214214FF49E7000F012FF00BFBD46B6
:100BD00080BD000080B582B000AF484B05221A707E
:100BE000474B4FF47A721A80464B02221A70464BDA
:100BF00000221A80454B00221A70444B1A78444B4D
:100C00001A70434B1A78434B1A70434B91221A8047
:100C1000414B91225A804FF6E0714FF4FC6000F096
:100C200017FE3D4B1B883C4A51880522184601F0AF
:100C3000C1F80123FB7122E0FB799BB21A469200B6
:100C400013445B009AB2FB79913291B2324A22F896
:100C50002310FB79304A9B00134491225A80FB7980
:100C60002D4A32F82300FB792B4A9B001344598804
:100C70000123052200F0FEFFFB790133FB711F4BBE
:100C80001B78FA799A42D7D34FF6FF714FF4784028
:100C900000F0DEFD214B1888204B598801230322E8
:100CA00000F0E8FF4FF6FF71002000F0D1FD1C4876
:100CB00000F0BEFD01F092F803469B881A469200B0
:100CC00013441A4691001A460B4613449BB2154A28
:100CD0001946052001F034F901F080F803469B889D
:100CE0001A46520013445B009BB20F4A1946052076
:100CF00001F026F900BF0837BD4680BD1000002076
:100D00001C0000201A000020080300200603002019
:100D100005030020040300207001002014000020BF
:100D2000080000208C4C0008984C000880B586B064
:100D300002AF0346FB71834B1B787B730023BB73AD
:100D4000FB79032B01D90123F8E04FF6FF7000F087
:100D500097FD7B7B013B7C4A32F82330053B98B200
:100D60007B7B013B784A9B0013445B88053B99B22F
:100D7000012300930B230B2200F03AFE7B7B013B07
:100D8000FB7317E0FB7B5A1EFB7B6F4931F8221087
:100D90006D4A22F82310FB7B013BFA7B6A499B00DA
:100DA0000B445888684993000B4402465A80FB7BE9
:100DB000013BFB73FB7B002BE4D14FF6E0714FF45A
:100DC000FC6000F045FD7B7B013B5F4A32F823006D
:100DD0007B7B013B5C4A9B0013445988012305221D
:100DE00000F048FFFB79032B3FD801A252F823F013
:100DF000010E00081B0E0008370E0008510E0008F7
:100E0000514B1B880F2B01D80223BB734E4B1B8801
:100E10000A3B9AB24C4B1A8027E04B4B1B88B3F528
:100E2000987F01D90223BB73474B1B880A339AB2C0
:100E3000454B1A8019E0444B5B88232B01D80223D1
:100E4000BB73414B5B880A3B9AB23F4B5A800CE024
:100E50003D4B5B88E02B01D90223BB733A4B5B8887
:100E60000A339AB2384B5A8000BF7B7B013BFB733D
:100E700015E0354B1A88FB7B334931F823309A4211
:100E80000AD1314B5A88FB7B2F499B000B445B886E
:100E90009A4201D10223BB73FB7B013BFB73FB7BBB
:100EA000002BE6D14FF6E0714FF4FC6000F0D0FC6F
:100EB000254B1B88244A51880522184600F07AFFEA
:100EC000214B9888204BD9880123052200F0D2FEBF
:100ED0001E4B1A881C4B1B889A422ED11B4B5A88DA
:100EE000194B5B889A4228D1184B01221A71184B72
:100EF0001B8801339AB2164B1A8000F02FF8154B5D
:100F00001B78013BDAB2134B1A70124B1B78002B83
:100F100013D1104B01221A700F4B1A880E4B1B88ED
:100F20009B089BB2D31A9AB20B4B1A800A4B1B88B0
:100F3000092B02D8084B0A221A80BB7B18461037AF
:100F4000BD4680BD1000002070010020140000206C
:100F5000080300201E0000201C00002080B400AF09
:100F6000154B1B78642B21D0134B1B78013B124A85
:100F700012781146114A32F82320104B23F8212011
:100F80000D4B1B78013B0C4A127810460B4A9B0014
:100F900013445988094A830013440A465A80064B71
:100FA0001B780133DAB2044B1A7000E000BFBD4673
:100FB0005DF8047B704700BF100000207001002026
:100FC00080B584B002AF01F0AFF90346804AA2FBBE
:100FD00003239B09BB717F4B1B78BA799A424CD98A
:100FE0007D4B1B780133DAB27B4B1A70794ABB799F
:100FF0001370794B1B783C2B08D1774B00221A7069
:10100000764B1B780133DAB2744B1A70734B1B7832
:101010003C2B08D1714B00221A70714B1B780133A5
:10102000DAB26F4B1A706E4B1B78002B0ED06C4BE4
:101030001B781A46694B1B781946674B1B7800933F
:101040000B466849684803F0B5F908E0634B1B7824
:101050001A46614B1B786549634803F0ABF900F011
:10106000BDFE03469B881A46520013445B009BB2A8
:101070005D4A1946052000F063FF5D4B1A885D4B01
:101080001B889A421CD25B4B1A88594B1A80594BC9
:101090001B881A465849544803F08CF900F09EFE0C
:1010A00003469B881A46920013441A4691001A463A
:1010B0000B4613449BB24C4A1946052000F040FFF2
:1010C00001F032F902464D4B1B689A421AD901F0E1
:1010D0002BF903464A4A12881344484A1360494B85
:1010E0001B781846FFF722FE0346022B0AD14FF663
:1010F000FF711F2000F0ACFB4FF47A7001F020F973
:10110000002361E0404B1B79002B5CD001F00CF90F
:1011100001463E4BA3FB01231A0913461B019B1AF0
:101120005B00CA1A531C9BB21A46920013445B0020
:101130009BB205339AB2344B1A8001F0F5F80146A0
:10114000334BA3FB01231A0913469B0013449B0056
:10115000CA1A531C9BB21A46920013445B009BB2FE
:1011600019339AB2284B5A800023FB7115E0264BA5
:101170001A88FB79274931F823309A420AD1224B49
:101180005A88FB7923499B000B445B889A4201D122
:10119000012319E0FB790133FB711F4B1B78FA79AE
:1011A0009A42E4D34FF6FF714FF4784000F050FBC1
:1011B000154B1888144B59880123032200F05AFD5F
:1011C000114B00221A71012318460837BD4680BD15
:1011D000D34D62100A0300200603002005030020FF
:1011E00004030020A44C00085C010020B84C000857
:1011F0000C03002008030020C84C00080003002056
:101200001C0000201A000020140000208988888813
:10121000CDCCCCCC700100201000002080B483B075
:1012200000AF03460A46FB801346BB80FB8840F6AE
:101230007722934210D9FB8840F63C7293420BD838
:10124000BB88B3F5B46F07D3BB8840F68C229342BA
:1012500002D8244B00221A70FB88C72B10D9FB88B8
:1012600040F25A5293420BD8BB88B3F5B46F07D300
:10127000BB8840F66E22934202D81A4B01221A70A4
:10128000FB8840F2955293420FD9FB8840F68C229E
:1012900093420AD8BB88B3F58C7F06D3BB88B3F5DD
:1012A000AF6F02D80F4B02221A70FB88B3F5AF6FF5
:1012B00011D3FB8840F68C2293420CD8BB8840F6B1
:1012C0008B22934207D9BB8840F6A662934202D88C
:1012D000044B03221A7000BF0C37BD465DF8047B37
:1012E000704700BF1A00002080B500AF00F006F87C
:1012F0004FF47A7001F024F800BF80BD90B583B040
:1013000000AF0023BB8049E0BB881946002000F0F5
:101310000BFB00F0D5FA0023FB8038E0BB88812B63
:1013200016D8FB8803F11402BB889A4203DA4FF403
:1013300078437B8024E0FB88C3F5AA72BB889A427D
:1013400003DA4FF4FC637B801AE01F237B8017E0F5
:10135000BB88C3F1F002FB889A4203DD4FF4784367
:101360007B800DE0BB88C3F1F002FB88C3F5A0735E
:101370009A4203DD4FF4FC637B8001E000237B8015
:101380007B88184600F0A8FAFB880133FB80FB88B5
:10139000B3F5A07FC2D3BB880133BB80BB88EF2BE2
:1013A000B2D9394800F044FA1F214FF6FF7000F01F
:1013B0004FFA00F013FD03469B881A46520013446F
:1013C0005B009BB2314A1946052000F0B9FD304858
:1013D00000F02EFA00F002FD0346DB885B009CB2B1
:1013E00000F0FCFC03469B881A46D20013449BB2D3
:1013F000284A1946204600F0A3FD4FF4784000F03B
:101400004FFA00F0EBFC0346DB881A4692001344C7
:101410009CB200F0E3FC03469B881F4A1946204615
:1014200000F08EFD4FF4FC6000F03AFA00F0D6FCBC
:101430000346DB881A46920013449CB200F0CEFCAF
:1014400003469B881A46D200D31A5B009BB2134A0C
:101450001946204600F074FD002000F021FA00F04B
:10146000BDFC0346DB88DB009CB200F0B7FC034602
:101470009B88DB009BB20A4A1946204600F060FDBB
:1014800000BF0C37BD4690BD08000020D44C0008BA
:1014900000000020F04C0008F44C0008FC4C000850
:1014A000044D000880B588B000AF0023BB602E4B10
:1014B0001B6B2D4A43F0080313632B4B1B6B03F08C
:1014C0000803BB60BB680823FB6000237B61022329
:1014D000BB6101233B6107F10C031946234801F06E
:1014E00039F800220821214801F0D0F9052000F048
:1014F00027FF012208211D4801F0C8F90A2000F049
:101500001FFF00220821194801F0C0F9142000F043
:1015100017FF01220821154801F0B8F90A2000F050
:101520000FFF00237B60104B1B6B0F4A43F0080337
:1015300013630D4B1B6B03F008037B607B684FF458
:101540000053FB6001233B6107F10C031946074878
:1015500001F000F801224FF40051044801F096F91F
:1015600000BF2037BD4680BD00380240000C02405D
:1015700080B483B000AF03460A46FB711346BB80BC
:101580004FF0C043FA7992B21A80044ABB881380A4
:1015900000BF0C37BD465DF8047B7047000010604B
:1015A00080B500AFFFF77EFF01211020FFF7E0FFBD
:1015B000B2211E20FFF7DCFF06212820FFF7D8FF0D
:1015C00001210020FFF7D4FF43F2EF010120FFF7D4
:1015D000CFFF4FF4C0610220FFF7CAFF00211020A7
:1015E000FFF7C6FF642000F0ABFE46F63001112085
:1015F000FFF7BEFF40F699111220FFF7B9FF4FF435
:1016000060512620FFF7B4FF33210720FFF7B0FF1A
:1016100005210C20FFF7ACFF00213020FFF7A8FFC9
:1016200040F203313120FFF7A3FF40F2074132209F
:10163000FFF79EFF40F201313320FFF799FF40F2A0
:1016400001313420FFF794FF40F203413520FFF7CA
:101650008FFF40F207713620FFF78AFF4FF4806159
:101660003720FFF785FF4FF420613A20FFF780FF16
:101670004FF480513B20FFF77BFF0A210D20FFF73D
:1016800077FF4FF438510E20FFF772FF642000F00F
:1016900057FE4FF46F414420FFF76AFF00214520B9
:1016A000FFF766FF40F23F114620FFF761FF002180
:1016B0004E20FFF75DFF00214F20FFF759FF00BFCD
:1016C00080BD80B582B000AF03460A46FB8013465A
:1016D000BB804FF46F414420FFF74AFF00214520B3
:1016E000FFF746FF40F23F114620FFF741FFFB881E
:1016F00019464E20FFF73CFFBB8819464F20FFF7E5
:1017000037FF4FF0C04322221A8000BF0837BD4682
:1017100080BD000080B582B000AF0346FB800B4661
:10172000BB8013467B80BA88FB8811461846FFF7BA
:10173000C8FF4FF0C04322221A80034A7B881380DF
:1017400000BF0837BD4680BD0000106090B585B071
:1017500000AF0446084611461A462346FB8003465E
:10176000BB800B467B8013463B80FB88B3F5A07F94
:1017700002D94FF4A073FB80BB88F02B01D9F02372
:10178000BB80FA887B881344B3F5A07F03DDFB8818
:10179000C3F5A0737B80BA883B881344F02B03DD2C
:1017A000BB88C3F1F0033B80FB88FB8114E0BB885E
:1017B000BB8108E03A8CB989FB891846FFF7AAFF7C
:1017C000BB890133BB81BA89B9883B880B449A42F3
:1017D000F0DBFB890133FB81FA89F9887B880B44B4
:1017E0009A42E4DB00BF00BF1437BD4690BD000045
:1017F00080B485B000AF0346FB804FF0C043222287
:101800001A800023FB6005E0084AFB881380FB6810
:101810000133FB60FB68B3F5963FF5D300BF00BF13
:101820001437BD465DF8047B704700BF00001060B0
:1018300080B483B000AF7860044A7B68136000BF57
:101840000C37BD465DF8047B704700BF10030020D5
:1018500080B483B000AF03460A46FB801346BB80CA
:10186000054AFB881380054ABB88138000BF0C37EC
:10187000BD465DF8047B7047140300202000002063
:1018800080B483B000AF0346FB80044AFB8813801A
:1018900000BF0C37BD465DF8047B70471403002081
:1018A00080B483B000AF0346FB80044AFB881380FA
:1018B00000BF0C37BD465DF8047B70472000002058
:1018C00080B400AF4FF0C04322221A8000BFBD4653
:1018D0005DF8047B7047000080B483B000AF03461E
:1018E000FB80044AFB88138000BF0C37BD465DF8BF
:1018F000047B70470000106080B483B000AF0346E3
:101900000A46FB801346BB804FF0C042FB88138021
:10191000044ABB88138000BF0C37BD465DF8047BCA
:10192000704700BF0000106080B582B000AF034672
:101930000A46FB801346BB80FB8819464E20FFF702
:10194000DBFFBB8819464F20FFF7D6FF00BF0837E3
:10195000BD4680BD90B585B000AF0446084611462F
:101960001A462346FB800346BB800B467B8013460A
:101970007B700023FB60BA88FB8811461846FFF78E
:10198000D3FF7B78002B12D1FFF79AFF0023FB6077
:1019900008E0164B1B889BB21846FFF79DFFFB68BB
:1019A0000133FB607B88FA689A42F2D31AE0002385
:1019B000FB6013E0FFF784FF0C4B1B889BB21846BB
:1019C000FFF78AFFBB880133BB80BA88FB881146CA
:1019D0001846FFF7A9FFFB680133FB607B88FA68B4
:1019E0009A42E7D300BF1437BD4690BD14030020D0
:1019F00090B585B000AF0446084611461A46234606
:101A0000FB800346BB800B467B8013463B80274B05
:101A10001B88FB817A88B988F8880023FFF79AFF32
:101A2000BA883B88134499B27A88F8880023FFF774
:101A300091FF3A88B988F8880123FFF78BFFFA886D
:101A40007B8813449BB2013B98B23A88B988012342
:101A5000FFF780FF3B88013B3B80BB880133BB80A5
:101A6000FB880133FB807B88023B7B8097F820302A
:101A7000002B0ED10E4B1B889BB21846FFF700FFC0
:101A800007E0B9884B1CBB807A88F8880023FFF7F1
:101A900061FF3B885A1E3A80002BF2D1FB89184621
:101AA000FFF7EEFE00BF1437BD4690BD14030020C3
:101AB0002000002080B586B000AF0346FB800B46B7
:101AC000BB8013467B807B885B00C3F103037B6193
:101AD00000233B617B88FB60BFE03B699AB2FB88D7
:101AE000134498B2FB689AB2BB8813449BB2194660
:101AF000FFF71AFFFFF7E4FE5D4B1B889BB2184609
:101B0000FFF7EAFE3B699AB2FB88134498B2FB6880
:101B10009BB2BA88D31A9BB21946FFF705FFFFF7AD
:101B2000CFFE534B1B889BB21846FFF7D5FE3B698F
:101B30009BB2FA88D31A98B2FB689AB2BB88134456
:101B40009BB21946FFF7F0FEFFF7BAFE484B1B8821
:101B50009BB21846FFF7C0FE3B699BB2FA88D31AC6
:101B600098B2FB689BB2BA88D31A9BB21946FFF7AA
:101B7000DBFEFFF7A5FE3E4B1B889BB21846FFF726
:101B8000ABFEFB689AB2FB88134498B23B699AB2E9
:101B9000BB8813449BB21946FFF7C6FEFFF790FEC1
:101BA000334B1B889BB21846FFF796FEFB689AB230
:101BB000FB88134498B23B699BB2BA88D31A9BB294
:101BC0001946FFF7B1FEFFF77BFE294B1B889BB23E
:101BD0001846FFF781FEFB689BB2FA88D31A98B2C9
:101BE0003B699AB2BB8813449BB21946FFF79CFE2F
:101BF000FFF766FE1E4B1B889BB21846FFF76CFE74
:101C0000FB689BB2FA88D31A98B23B699BB2BA8838
:101C1000D31A9BB21946FFF787FEFFF751FE144B0C
:101C20001B889BB21846FFF757FE7B69002B06DA2C
:101C30003B699A007B69134406337B610AE03A6989
:101C4000FB68D31A9A007B6913440A337B61FB68F3
:101C5000013BFB603B6901333B613A69FB689A4297
:101C60007FF63BAF00BF00BF1837BD4680BD00BF49
:101C70001403002090B587B000AF04460846114613
:101C80001A462346FB800346BB800B467B801346E7
:101C90007B70464B1B887B817B885B00C3F1030311
:101CA0007B6100233B617B88FB607B78002B68D1E4
:101CB0003F4B1B889BB21846FFF7E2FD61E0FB68D3
:101CC000002B21D03B699BB2FA88D31A98B2FB68EB
:101CD0009BB2BA88D31A99B2FB689BB25B009AB2E6
:101CE0000123FFF737FE3B699AB2FB88134498B291
:101CF000FB689BB2BA88D31A99B2FB689BB25B00AF
:101D00009AB20123FFF726FE3B69002B21D0FB6826
:101D10009BB2FA88D31A98B23B699BB2BA88D31A9D
:101D200099B23B699BB25B009AB20123FFF712FEA6
:101D3000FB689AB2FB88134498B23B699BB2BA889D
:101D4000D31A99B23B699BB25B009AB20123FFF7A9
:101D500001FE7B69002B06DA3B699A007B6913441C
:101D600006337B610AE03A69FB68D31A9A007B6903
:101D700013440A337B61FB68013BFB603B69013321
:101D80003B613A69FB689A4299D97B891846FFF70B
:101D900077FD7B78002B05D17A88B988FB881846B7
:101DA000FFF788FE00BF1C37BD4690BD140300201E
:101DB0002000002080B582B000AF0346FB800B46B8
:101DC000BB8013467B807A88B988F8880023FFF7A8
:101DD00051FF00BF0837BD4680BD000080B400AF92
:101DE000034B1B681846BD465DF8047B704700BF77
:101DF0001003002080B586B000AF03463A60FB8038
:101E00000B46BB8000237B6100233B610023FB81E9
:101E1000FB88FB81FA89BB8811461846FFF784FDD1
:101E200000237B6155E0FFF74BFD00233B613DE064
:101E30007B695B003A6813441B8819462B4B1B686F
:101E40009B882B4AA2FB0323DB089BB2DB0080228A
:101E50009A403B6942FA03F30B40002B04D1234B19
:101E60001B689B880C2B11D97B695B003A68134473
:101E70001B881A463B6942FA03F303F00103002B67
:101E80000BD11A4B1B689B880C2B06D9194B1B884E
:101E90009BB21846FFF720FD05E0174B1B889BB24D
:101EA0001846FFF719FD3B6901333B610F4B1B6877
:101EB0009B881A463B699342BAD3FB890133FB8165
:101EC000FA89BB8811461846FFF72EFD7B6901335E
:101ED0007B61064B1B68DB881A467B699342A2D361
:101EE00000BF00BF1837BD4680BD00BF10030020F3
:101EF000ABAAAAAA200000201403002080B582B05B
:101F000000AF0346FB800B46BB801346FB70FB789B
:101F1000203BFB70094B1B681A68FB78074909686E
:101F2000C98801FB03F35B001A44B988FB88184693
:101F3000FFF760FF00BF0837BD4680BD10030020DB
:101F400080B584B000AF03463A60FB800B46BB808F
:101F5000BB88FB8113E03B681A78F989FB88184637
:101F6000FFF7CCFF0B4B1B689A88FB891344FB815E
:101F7000FB89B3F5A07F07D23B6801333B603B6828
:101F80001B78002BE7D100E000BF00BF1037BD4633
:101F900080BD00BF1003002080B582B000AF0023D9
:101FA0007B60104B5B6C0F4A43F4804353640D4BD2
:101FB0005B6C03F480437B607B6800233B60094BD0
:101FC0001B6C084A43F080531364064B1B6C03F0F0
:101FD00080533B603B68072000F088FA00BF083759
:101FE000BD4680BD0038024080B58AB000AF786041
:101FF00007F1140300221A605A609A60DA601A61CD
:102000007B681B68194A93422CD100233B61184B13
:102010001B6B174A43F002031363154B1B6B03F052
:1020200002033B613B694FF440737B611223BB6148
:102030000023FB6103233B6204237B6207F114034B
:1020400019460C4800F086FA0023FB60084B1B6C15
:10205000074A43F400131364054B1B6C03F400138D
:10206000FB60FB6800BF2837BD4680BD00540040C0
:10207000003802400004024080B586B000AF3B1D2E
:1020800000221A605A609A60DA601A611C4B1B6861
:10209000002B31D11A4B01221A6000233B60194BEF
:1020A0009B6B184A43F001039363164B9B6B03F041
:1020B00001033B603B684FF688737B600223BB6083
:1020C0000023FB6003233B610C237B613B1D19460E
:1020D0000D4800F03FFA4CF2B3737B600223BB6003
:1020E0000023FB6003233B610C237B613B1D1946EE
:1020F000064800F02FFA00E000BF1837BD4680BD4B
:10210000180300200038024000100240000C02407A
:1021100080B582B000AF7860FFF7AEFF00BF083730
:10212000BD4680BD80B400AFFEE780B400AFFEE7DF
:1021300080B400AFFEE780B400AFFEE780B400AF2C
:10214000FEE780B400AF00BFBD465DF8047B70477A
:1021500080B400AF00BFBD465DF8047B704780B41B
:1021600000AF00BFBD465DF8047B704780B500AF8F
:1021700000F0C6F800BF80BD80B586B000AF7860C3
:10218000144A154BD31A7B617B693B61134B1B6867
:10219000002B02D1114B124A1A60104B1A687B684F
:1021A00013443A699A4207D202F0C4F803460C225B
:1021B0001A604FF0FF3309E0084B1B68FB60074BC8
:1021C0001A687B681344054A1360FB681846183781
:1021D000BD4680BD00000220000400001C0300205A
:1021E0003803002080B400AF064BD3F88830054A8E
:1021F00043F47003C2F8883000BFBD465DF8047B2D
:10220000704700BF00ED00E0DFF834D00D480E4904
:102210000E4A002302E0D458C4500433C4188C4240
:10222000F9D30B4A0B4C002301E013600432A242A5
:10223000FBD3FFF7D7FF02F083F8FEF759FA704798
:1022400000000220000000209400002038680008F0
:102250009400002034030020FEE7000080B500AFAA
:102260000E4B1B680D4A43F4007313600B4B1B6845
:102270000A4A43F480631360084B1B68074A43F41F
:1022800080731360032000F031F9002000F008F89B
:10229000FFF782FE0023184680BD00BF003C0240CD
:1022A00080B582B000AF7860124B1A68124B1B7871
:1022B00019464FF47A73B3FBF1F3B2FBF3F318460C
:1022C00000F03BF90346002B01D001230EE07B68B0
:1022D0000F2B0AD8002279684FF0FF3000F011F977
:1022E000064A7B681360002300E001231846083784
:1022F000BD4680BD240000202C00002028000020C6
:1023000080B400AF064B1B781A46064B1B6813447B
:10231000044A136000BFBD465DF8047B704700BFF0
:102320002C0000202003002080B400AF034B1B686A
:102330001846BD465DF8047B704700BF20030020AF
:1023400080B584B000AF7860FFF7EEFFB8607B68BF
:10235000FB60FB68B3F1FF3F05D00A4B1B781A46C0
:10236000FB681344FB6000BFFFF7DEFF0246BB685B
:10237000D31AFA689A42F7D800BF00BF1037BD469B
:1023800080BD00BF2C00002080B485B000AF786015
:102390007B6803F00703FB600C4BDB68BB60BA682B
:1023A0004FF6FF031340BB60FB681A02BB68134380
:1023B00043F0BF6343F40033BB60044ABB68D3609F
:1023C00000BF1437BD465DF8047B704700ED00E0A8
:1023D00080B400AF044BDB681B0A03F00703184608
:1023E000BD465DF8047B704700ED00E080B483B02B
:1023F00000AF03463960FB7197F90730002B0ADB09
:102400003B68DAB20C4997F907301201D2B20B449B
:1024100083F800230AE03B68DAB20849FB7903F04D
:102420000F03043B1201D2B20B441A7600BF0C37E3
:10243000BD465DF8047B704700E100E000ED00E080
:1024400080B489B000AFF860B9607A60FB6803F0CF
:102450000703FB61FB69C3F10703042B28BF0423B7
:10246000BB61FB690433062B02D9FB69033B00E027
:1024700000237B614FF0FF32BB6902FA03F3DA43BA
:10248000BB681A407B699A404FF0FF317B6901FAC3
:1024900003F3D9437B680B40134318462437BD46EA
:1024A0005DF8047B7047000080B582B000AF7860B3
:1024B0007B68013BB3F1807F01D301230FE00A4A1F
:1024C0007B68013B53600F214FF0FF30FFF78EFF19
:1024D000054B00229A60044B07221A60002318461D
:1024E0000837BD4680BD00BF10E000E080B582B077
:1024F00000AF78607868FFF747FF00BF0837BD4638
:1025000080BD80B586B000AF0346B9607A60FB73CA
:1025100000237B61FFF75CFF78617A68B9687869AE
:10252000FFF78EFF024697F90F3011461846FFF766
:102530005DFF00BF1837BD4680BD80B582B000AFDB
:1025400078607868FFF7B0FF034618460837BD4645
:1025500080BD000080B489B000AF7860396000238E
:102560007B6100233B610023BB610023FB616BE1C6
:102570000122FB6902FA03F37B613B681B687A69FD
:1025800013403B613A697B699A4240F05A813B684B
:102590005B6803F00303012B05D03B685B6803F025
:1025A0000303022B30D17B689B68BB61FB695B0036
:1025B000032202FA03F3DB43BA691340BB613B68B1
:1025C000DA68FB695B0002FA03F3BA691343BB6183
:1025D0007B68BA699A607B685B68BB610122FB69B2
:1025E00002FA03F3DB43BA691340BB613B685B68E3
:1025F0001B0903F00102FB6902FA03F3BA691343F2
:10260000BB617B68BA695A603B685B6803F003038F
:10261000032B17D07B68DB68BB61FB695B0003227F
:1026200002FA03F3DB43BA691340BB613B689A6863
:10263000FB695B0002FA03F3BA691343BB617B6871
:10264000BA69DA603B685B6803F00303022B23D1AD
:10265000FB69DA087B68083253F82230BB61FB69FA
:1026600003F007039B000F2202FA03F3DB43BA696E
:102670001340BB613B681A69FB6903F007039B00C9
:1026800002FA03F3BA691343BB61FB69DA087B689A
:102690000832B96943F822107B681B68BB61FB698B
:1026A0005B00032202FA03F3DB43BA691340BB6108
:1026B0003B685B6803F00302FB695B0002FA03F30B
:1026C000BA691343BB617B68BA691A603B685B688F
:1026D00003F44033002B00F0B4800023FB60604B18
:1026E0005B6C5F4A43F4804353645D4B5B6C03F463
:1026F0008043FB60FB685B4AFB699B08023352F82E
:102700002330BB61FB6903F003039B000F2202FA35
:1027100003F3DB43BA691340BB617B68524A9342BF
:102720002BD07B68514A934225D07B68504A934214
:102730001FD07B684F4A934219D07B684E4A934220
:1027400013D07B684D4A93420DD07B684C4A93422C
:1027500007D07B684B4A934201D107230EE0082340
:102760000CE006230AE0052308E0042306E0032327
:1027700004E0022302E0012300E00023FA6902F0F2
:10278000030292009340BA691343BB613549FB6968
:102790009B080233BA6941F823203B4B9B68BB611D
:1027A0003B69DB43BA691340BB613B685B6803F478
:1027B0008013002B03D0BA693B691343BB61324AD3
:1027C000BB699360304BDB68BB613B69DB43BA6933
:1027D0001340BB613B685B6803F40013002B03D01C
:1027E000BA693B691343BB61274ABB69D360264B77
:1027F0005B68BB613B69DB43BA691340BB613B6803
:102800005B6803F40033002B03D0BA693B691343C0
:10281000BB611D4ABB6953601B4B1B68BB613B69B5
:10282000DB43BA691340BB613B685B6803F48033E8
:10283000002B03D0BA693B691343BB61124ABB69E1
:102840001360FB690133FB61FB690F2B7FF690AED0
:1028500000BF00BF2437BD465DF8047B704700BF52
:1028600000380240003801400000024000040240ED
:1028700000080240000C0240001002400014024018
:1028800000180240001C0240003C014080B483B0AC
:1028900000AF78600B467B8013467B707B78002B03
:1028A00003D07A887B689A6103E07B881A047B688E
:1028B0009A6100BF0C37BD465DF8047B704700008D
:1028C00080B584B000AF78607B68002B01D1012314
:1028D0002BE17B6893F83D30DBB2002B06D17B689F
:1028E000002283F83C207868FFF77EFB7B68242277
:1028F00083F83D207B681B681A687B681B6822F0A0
:1029000001021A607B681B681A687B681B6842F4C6
:1029100000421A607B681B681A687B681B6822F497
:1029200000421A6001F0D2FBF8607B685B68814A64
:10293000934207D8FB68804A934294BF0123002347
:10294000DBB206E0FB687D4A934294BF012300237B
:10295000DBB2002B01D00123E7E0FB68784AA2FB41
:1029600003239B0CBB607B681B685B6823F03F0103
:102970007B681B68BA680A435A607B681B681B6ADD
:1029800023F03F017B685B686A4A934202D8BB68C8
:10299000013309E0BB684FF4967202FB03F3694A06
:1029A000A2FB03239B0901337A6812680B4313626D
:1029B0007B681B68DB6923F44F4222F0FF027B68CF
:1029C0005B685C498B4219D8FB68591E7B685B6861
:1029D0005B00B1FBF3F3591C40F6FC730B40002B7A
:1029E0000AD0FB68591E7B685B685B00B1FBF3F3A0
:1029F0000133C3F30B0351E004234FE07B689B6872
:102A0000002B11D1FB68581E7B6859680B465B0090
:102A10000B44B0FBF3F30133C3F30B03002B0CBFE8
:102A200001230023DBB212E0FB68581E7B68596863
:102A30000B469B000B4499000B44B0FBF3F30133AE
:102A4000C3F30B03002B0CBF01230023DBB2002BCD
:102A500001D0012322E07B689B68002B0ED1FB682C
:102A6000581E7B6859680B465B000B44B0FBF3F3C0
:102A70000133C3F30B0343F400430FE0FB68581E1C
:102A80007B6859680B469B000B4499000B44B0FBD4
:102A9000F3F30133C3F30B0343F44043796809684C
:102AA0001343CB617B681B681B6823F0C0017B6804
:102AB000DA697B681B6A1A437B681B680A431A60E1
:102AC0007B681B689B6823F4034323F0FF037A6849
:102AD00011697A68D26811437A6812680B4393606F
:102AE0007B681B68DB6823F0FF017B685A697B68A1
:102AF0009B691A437B681B680A43DA607B681B6822
:102B00001A687B681B6842F001021A607B68002229
:102B10001A647B68202283F83D207B6800221A63B8
:102B20007B68002283F83E20002318461037BD46FC
:102B300080BD00BFA08601007F841E00FF083D000D
:102B400083DE1B43D34D621080B588B002AFF860BE
:102B50007A601A460B467B8113463B81FFF7E4FB04
:102B60007861FB6893F83D30DBB2202B40F0E080C9
:102B70007B690093192301227049F86800F058FC22
:102B80000346002B01D00223D3E0FB6893F83C30CE
:102B9000012B01D10223CCE0FB68012283F83C2009
:102BA000FB681B681B6803F00103012B07D0FB685F
:102BB0001B681A68FB681B6842F001021A60FB6818
:102BC0001B681A68FB681B6822F400621A60FB68C5
:102BD000212283F83D20FB68102283F83E20FB6809
:102BE00000221A64FB687A685A62FB683A895A853F
:102BF000FB685B8D9AB2FB681A85FB68504ADA6203
:102C000079897B693A6AF86800F0C2FA0346002BBA
:102C100001D001238DE000233B61FB681B685B69E9
:102C20003B61FB681B689B693B613B6966E07A69B5
:102C3000396AF86800F0D2FC0346002B0DD0FB681F
:102C40001B6C042B07D1FB681B681A68FB681B68A8
:102C500042F400721A6001236BE0FB685B6A1A7829
:102C6000FB681B681A61FB685B6A5A1CFB685A6246
:102C7000FB685B8D9BB2013B9AB2FB685A85FB688F
:102C80001B8D013B9AB2FB681A85FB681B685B6968
:102C900003F00403042B1BD1FB681B8D002B17D002
:102CA000FB685B6A1A78FB681B681A61FB685B6AE1
:102CB0005A1CFB685A62FB685B8D9BB2013B9AB25F
:102CC000FB685A85FB681B8D013B9AB2FB681A852D
:102CD0007A69396AF86800F0C2FC0346002B0DD00F
:102CE000FB681B6C042B07D1FB681B681A68FB6828
:102CF0001B6842F400721A6001231AE0FB681B8D06
:102D0000002B94D1FB681B681A68FB681B6842F4AF
:102D100000721A60FB68202283F83D20FB680022C5
:102D200083F83E20FB68002283F83C20002300E06B
:102D3000022318461837BD4680BD00BF02001000B0
:102D40000000FFFF80B58CB002AFF8607A601A46D1
:102D50000B467B8113463B81FFF7E6FA7862FB68FE
:102D600093F83D30DBB2202B40F00B827B6A00935E
:102D7000192301227C49F86800F05AFB0346002B16
:102D800001D00223FEE1FB6893F83C30012B01D116
:102D90000223F7E1FB68012283F83C20FB681B68F3
:102DA0001B6803F00103012B07D0FB681B681A683E
:102DB000FB681B6842F001021A60FB681B681A6816
:102DC000FB681B6822F400621A60FB68222283F809
:102DD0003D20FB68102283F83E20FB6800221A6425
:102DE000FB687A685A62FB683A895A85FB685B8D92
:102DF0009AB2FB681A85FB685C4ADA6279897B6A59
:102E00003A6BF86800F046FA0346002B01D0012324
:102E1000B8E1FB681B8D002B13D100233B62FB68DC
:102E20001B685B693B62FB681B689B693B623B6A92
:102E3000FB681B681A68FB681B6842F400721A6022
:102E40008CE1FB681B8D012B1BD1FB681B681A688A
:102E5000FB681B6822F480621A600023FB61FB6838
:102E60001B685B69FB61FB681B689B69FB61FB6915
:102E7000FB681B681A68FB681B6842F400721A60E2
:102E80006CE1FB681B8D022B1BD1FB681B681A6869
:102E9000FB681B6822F480621A60FB681B681A6872
:102EA000FB681B6842F400621A600023BB61FB6888
:102EB0001B685B69BB61FB681B689B69BB61BB6985
:102EC0004CE1FB681B681A68FB681B6842F480626F
:102ED0001A6000237B61FB681B685B697B61FB6890
:102EE0001B689B697B617B6938E1FB681B8D032B49
:102EF00000F2F180FB681B8D012B23D17A6A396BBC
:102F0000F86800F0EDFB0346002B01D0012339E106
:102F1000FB681B681A69FB685B6AD2B21A70FB68AF
:102F20005B6A5A1CFB685A62FB681B8D013B9AB2B4
:102F3000FB681A85FB685B8D9BB2013B9AB2FB680C
:102F40005A850BE1FB681B8D022B4ED17B6A0093E7
:102F50003B6B00220649F86800F06AFA0346002B32
:102F600008D001230EE100BF020010000000FFFFA7
:102F700004000100FB681B681A68FB681B6842F4C8
:102F800000721A60FB681B681A69FB685B6AD2B240
:102F90001A70FB685B6A5A1CFB685A62FB681B8DDF
:102FA000013B9AB2FB681A85FB685B8D9BB2013BC3
:102FB0009AB2FB685A85FB681B681A69FB685B6AF2
:102FC000D2B21A70FB685B6A5A1CFB685A62FB68D3
:102FD0001B8D013B9AB2FB681A85FB685B8D9BB227
:102FE000013B9AB2FB685A85B8E07B6A00933B6B61
:102FF00000226649F86800F01BFA0346002B01D056
:103000000123BFE0FB681B681A68FB681B6822F499
:1030100080621A60FB681B681A69FB685B6AD2B23F
:103020001A70FB685B6A5A1CFB685A62FB681B8D4E
:10303000013B9AB2FB681A85FB685B8D9BB2013B32
:103040009AB2FB685A857B6A00933B6B00224F491A
:10305000F86800F0EDF90346002B01D0012391E060
:10306000FB681B681A68FB681B6842F400721A60F0
:10307000FB681B681A69FB685B6AD2B21A70FB684E
:103080005B6A5A1CFB685A62FB681B8D013B9AB253
:10309000FB681A85FB685B8D9BB2013B9AB2FB68AB
:1030A0005A85FB681B681A69FB685B6AD2B21A70A2
:1030B000FB685B6A5A1CFB685A62FB681B8D013B0C
:1030C0009AB2FB681A85FB685B8D9BB2013B9AB292
:1030D000FB685A8542E07A6A396BF86800F000FBB9
:1030E0000346002B01D001234CE0FB681B681A69E2
:1030F000FB685B6AD2B21A70FB685B6A5A1CFB6899
:103100005A62FB681B8D013B9AB2FB681A85FB680B
:103110005B8D9BB2013B9AB2FB685A85FB681B68CA
:103120005B6903F00403042B18D1FB681B681A6960
:10313000FB685B6AD2B21A70FB685B6A5A1CFB6858
:103140005A62FB681B8D013B9AB2FB681A85FB68CB
:103150005B8D9BB2013B9AB2FB685A85FB681B8D65
:10316000002B7FF4C2AEFB68202283F83D20FB6871
:10317000002283F83E20FB68002283F83C200023D5
:1031800000E0022318462837BD4680BD0400010038
:1031900080B588B002AFF8607A603B600B467B81F7
:1031A000FB68DB6A7B617B69082B06D07B69012B9E
:1031B00003D07B6913F5803F08D1FB681B681A6850
:1031C000FB681B6842F480721A600BE0FB681B6BA3
:1031D000122B07D1FB681B681A68FB681B6842F456
:1031E00080721A603B6800937B6800224FF00111E7
:1031F000F86800F01DF90346002B0DD0FB681B6832
:103200001B6803F48073B3F5807F03D1FB684FF430
:1032100000721A64032335E0FB681B69B3F5804F25
:1032200008D17B89DBB21A46FB681B6802F0FE02FC
:103230001A611BE07B89DB11DBB203F00603DBB212
:1032400063F00F03DAB2FB681B681A613B687A68A7
:103250000E49F86800F043F90346002B01D0012322
:1032600010E07B89DAB2FB681B681A613B687A68F8
:103270000749F86800F033F90346002B01D0012319
:1032800000E0002318461837BD4680BD0800010045
:103290000200010080B588B002AFF8607A603B6040
:1032A0000B467B81FB68DB6A7B61FB681B681A68E5
:1032B000FB681B6842F480621A607B69082B06D0A9
:1032C0007B69012B03D07B6913F5803F08D1FB6834
:1032D0001B681A68FB681B6842F480721A600BE076
:1032E000FB681B6B112B07D1FB681B681A68FB6816
:1032F0001B6842F480721A603B6800937B6800226E
:103300004FF00111F86800F093F80346002B0DD040
:10331000FB681B681B6803F48073B3F5807F03D1DF
:10332000FB684FF400721A64032379E0FB681B69A1
:10333000B3F5804F08D17B89DBB243F00103DAB2E9
:10334000FB681B681A615FE07B89DB11DBB203F06D
:103350000603DBB263F00F03DAB2FB681B681A6185
:103360003B687A683049F86800F0B9F80346002BEA
:1033700001D0012354E07B89DAB2FB681B681A6133
:103380003B687A682949F86800F0A9F80346002BE1
:1033900001D0012344E000233B61FB681B685B69AB
:1033A0003B61FB681B689B693B613B69FB681B6871
:1033B0001A68FB681B6842F480721A603B680093CD
:1033C0007B6800224FF00111F86800F031F80346E5
:1033D000002B0DD0FB681B681B6803F48073B3F5EA
:1033E000807F03D1FB684FF400721A64032317E057
:1033F0007B89DB11DBB203F00603DBB263F00E0363
:10340000DAB2FB681B681A613B687A680749F8689A
:1034100000F065F80346002B01D0012300E00023F3
:1034200018461837BD4680BD0800010002000100A3
:1034300080B584B000AFF860B9603B601346FB71A3
:1034400025E03B68B3F1FF3F21D0FEF76DFF024658
:10345000BB69D31A3A689A4202D33B68002B16D153
:10346000FB6800221A63FB68202283F83D20FB687A
:10347000002283F83E20FB681B6C43F02002FB68AF
:103480001A64FB68002283F83C20012323E0BB6818
:103490001B0CDBB2012B0DD1FB681B685B69DA43A7
:1034A000BB6813409BB2002B0CBF01230023DBB28F
:1034B0001A460CE0FB681B689B69DA43BB68134043
:1034C0009BB2002B0CBF01230023DBB21A46FB7911
:1034D0009A42B6D0002318461037BD4680BD80B54D
:1034E00084B000AFF860B9607A603B6051E0FB687F
:1034F0001B685B6903F48063B3F5806F23D1FB68BD
:103500001B681A68FB681B6842F400721A60FB684B
:103510001B686FF480625A61FB6800221A63FB68C3
:10352000202283F83D20FB68002283F83E20FB68C0
:103530001B6C43F00402FB681A64FB68002283F8EA
:103540003C20012346E07B68B3F1FF3F21D0FEF72A
:10355000EBFE02463B68D31A7A689A4202D37B6834
:10356000002B16D1FB6800221A63FB68202283F827
:103570003D20FB68002283F83E20FB681B6C43F073
:103580002002FB681A64FB68002283F83C200123B8
:1035900020E0BB681B0CDBB2012B0CD1FB681B6865
:1035A0005B69DA43BB6813409BB2002B14BF012355
:1035B0000023DBB20BE0FB681B689B69DA43BB6846
:1035C00013409BB2002B14BF01230023DBB2002B5E
:1035D0008DD1002318461037BD4680BD80B584B01C
:1035E00000AFF860B9607A602DE0F86800F0CEF8BE
:1035F0000346002B01D001232DE0BB68B3F1FF3F50
:1036000021D0FEF791FE02467B68D31ABA689A422F
:1036100002D3BB68002B16D1FB6800221A63FB683B
:10362000202283F83D20FB68002283F83E20FB68BF
:103630001B6C43F02002FB681A64FB68002283F8CD
:103640003C20012307E0FB681B685B6903F08003F3
:10365000802BCAD1002318461037BD4680BD80B5E7
:1036600084B000AFF860B9607A602DE0F86800F0CF
:103670008DF80346002B01D001232DE0BB68B3F188
:10368000FF3F21D0FEF750FE02467B68D31ABA688E
:103690009A4202D3BB68002B16D1FB6800221A6342
:1036A000FB68202283F83D20FB68002283F83E203F
:1036B000FB681B6C43F02002FB681A64FB68002265
:1036C00083F83C20012307E0FB681B685B6903F07B
:1036D0000403042BCAD1002318461037BD4680BD11
:1036E00080B584B000AFF860B9607A6042E0FB68F2
:1036F0001B685B6903F01003102B19D1FB681B6872
:103700006FF010025A61FB6800221A63FB682022E6
:1037100083F83D20FB68002283F83E20FB681A6C8A
:10372000FB681A64FB68002283F83C20012329E02F
:10373000FEF7FAFD02467B68D31ABA689A4202D3B2
:10374000BB68002B16D1FB6800221A63FB6820229D
:1037500083F83D20FB68002283F83E20FB681B6C49
:1037600043F02002FB681A64FB68002283F83C20C7
:10377000012307E0FB681B685B6903F04003402BF3
:10378000B5D1002318461037BD4680BD80B483B044
:1037900000AF78607B681B685B6903F48063B3F5F6
:1037A000806F1BD17B681B686FF480625A617B68F5
:1037B00000221A637B68202283F83D207B68002268
:1037C00083F83E207B681B6C43F004027B681A641C
:1037D0007B68002283F83C20012300E00023184688
:1037E0000C37BD465DF8047B7047000080B586B09D
:1037F00000AF78607B68002B01D1012367E27B6812
:103800001B6803F00103002B75D0884B9B6803F005
:103810000C03042B0CD0854B9B6803F00C03082B86
:1038200012D1824B5B6803F48003B3F5800F0BD198
:103830007E4B1B6803F40033002B5BD07B685B6816
:10384000002B57D1012342E27B685B68B3F5803FD0
:1038500006D1764B1B68754A43F4803313601DE034
:103860007B685B68B3F5A02F0CD1704B1B686F4A67
:1038700043F4802313606D4B1B686C4A43F4803320
:1038800013600BE0694B1B68684A23F480331360B4
:10389000664B1B68654A23F4802313607B685B6872
:1038A000002B13D0FEF740FD386108E0FEF73CFD29
:1038B00002463B69D31A642B01D9032307E25B4B11
:1038C0001B6803F40033002BF0D014E0FEF72CFD4E
:1038D000386108E0FEF728FD02463B69D31A642BE5
:1038E00001D90323F3E1514B1B6803F40033002B90
:1038F000F0D100E000BF7B681B6803F00203002BDF
:1039000063D04A4B9B6803F00C03002B0BD0474B52
:103910009B6803F00C03082B1CD1444B5B6803F439
:103920008003002B16D1414B1B6803F00203002BD0
:1039300005D07B68DB68012B01D00123C7E13B4B3D
:103940001B6823F0F8027B681B69DB0037491343CF
:103950000B603AE07B68DB68002B20D0344B0122FF
:103960001A60FEF7E1FC386108E0FEF7DDFC024674
:103970003B69D31A022B01D90323A8E12B4B1B6807
:1039800003F00203002BF0D0284B1B6823F0F80251
:103990007B681B69DB00254913430B6015E0244B52
:1039A00000221A60FEF7C0FC386108E0FEF7BCFC9C
:1039B00002463B69D31A022B01D9032387E11B4B33
:1039C0001B6803F00203002BF0D17B681B6803F037
:1039D0000803002B36D07B685B69002B16D0154B93
:1039E00001221A60FEF7A0FC386108E0FEF79CFC9B
:1039F00002463B69D31A022B01D9032367E10B4B23
:103A00005B6F03F00203002BF0D01BE0094B002298
:103A10001A60FEF789FC38610EE0FEF785FC02466D
:103A20003B69D31A022B07D9032350E10038024027
:103A300000004742800E4742884B5B6F03F0020351
:103A4000002BEAD17B681B6803F00403002B00F015
:103A500097800023FB75814B1B6C03F08053002B78
:103A60000FD10023BB607D4B1B6C7C4A43F080531D
:103A700013647A4B1B6C03F08053BB60BB6801235B
:103A8000FB75774B1B6803F48073002B18D1744BC4
:103A90001B68734A43F480731360FEF745FC38617A
:103AA00008E0FEF741FC02463B69D31A022B01D91C
:103AB00003230CE16A4B1B6803F48073002BF0D0E6
:103AC0007B689B68012B06D1644B1B6F634A43F0F4
:103AD000010313671CE07B689B68052B0CD15F4BCF
:103AE0001B6F5E4A43F0040313675C4B1B6F5B4A1A
:103AF00043F0010313670BE0584B1B6F574A23F049
:103B000001031367554B1B6F544A23F004031367DB
:103B10007B689B68002B15D0FEF706FC38610AE035
:103B2000FEF702FC02463B69D31A41F28832934207
:103B300001D90323CBE0494B1B6F03F00203002B99
:103B4000EED014E0FEF7F0FB38610AE0FEF7ECFB84
:103B500002463B69D31A41F28832934201D90323CA
:103B6000B5E03E4B1B6F03F00203002BEED1FB7D53
:103B7000012B05D1394B1B6C384A23F08053136459
:103B80007B689B69002B00F0A180344B9B6803F09D
:103B90000C03082B5CD07B689B69022B41D1314B15
:103BA00000221A60FEF7C0FB386108E0FEF7BCFB9C
:103BB00002463B69D31A022B01D9032387E0274B26
:103BC0001B6803F00073002BF0D17B68DA697B6817
:103BD0001B6A1A437B685B6A9B011A437B689B6A7A
:103BE0005B08013B1B041A437B68DB6A1B061B490D
:103BF00013434B601B4B01221A60FEF795FB3861A3
:103C000008E0FEF791FB02463B69D31A022B01D96B
:103C100003235CE0114B1B6803F00073002BF0D012
:103C200054E0104B00221A60FEF77EFB386108E07A
:103C3000FEF77AFB02463B69D31A022B01D9032314
:103C400045E0064B1B6803F00073002BF0D13DE00C
:103C50007B689B69012B07D1012338E000380240C3
:103C600000700040600047421B4B5B68FB607B6854
:103C70009B69012B28D0FB6803F480027B68DB6919
:103C80009A4221D1FB6803F03F027B681B6A9A428B
:103C90001AD1FA6847F6C07313407A68526A9201E3
:103CA000934211D1FB6803F440327B689B6A5B0846
:103CB000013B1B049A4207D1FB6803F070627B68EA
:103CC000DB6A1B069A4201D0012300E0002318465C
:103CD0001837BD4680BD00BF0038024080B584B0B3
:103CE00000AF786039607B68002B01D10123CCE004
:103CF000684B1B6803F007033A689A420CD9654B7E
:103D00003A68D2B21A70634B1B6803F007033A6833
:103D10009A4201D00123B8E07B681B6803F00203DC
:103D2000002B20D07B681B6803F00403002B05D018
:103D3000594B9B68584A43F4E05393607B681B6877
:103D400003F00803002B05D0534B9B68524A43F401
:103D500060439360504B9B6823F0F0027B689B6844
:103D60004D4913438B607B681B6803F00103002BF4
:103D700044D07B685B68012B07D1474B1B6803F479
:103D80000033002B19D101237FE07B685B68022B95
:103D900003D07B685B68032B07D13F4B1B6803F0A4
:103DA0000073002B09D101236FE03B4B1B6803F02C
:103DB0000203002B01D1012367E0374B9B6823F0FE
:103DC00003027B685B68344913438B60FEF7ACFAEF
:103DD000F8600AE0FEF7A8FA0246FB68D31A41F23F
:103DE0008832934201D903234FE02B4B9B6803F0A9
:103DF0000C027B685B689B009A42EBD1254B1B68E9
:103E000003F007033A689A420CD2224B3A68D2B2C6
:103E10001A70204B1B6803F007033A689A4201D0DE
:103E2000012332E07B681B6803F00403002B08D0F9
:103E3000194B9B6823F4E0527B68DB6816491343F7
:103E40008B607B681B6803F00803002B09D0124BC2
:103E50009B6823F460427B681B69DB000E491343B7
:103E60008B6000F021F802460B4B9B681B0903F0A6
:103E70000F030A49CB5C22FA03F3094A1360094B8A
:103E80001B681846FEF70CFA002318461037BD468B
:103E900080BD00BF003C024000380240DC670008E3
:103EA00024000020280000202DE9B04F94B000AF7E
:103EB00000237B640023FB6400233B640023BB647A
:103EC000794B9B6803F00C03082B0DD0082B00F2F4
:103ED000E180002B02D0042B03D0DBE0734BBB64EA
:103EE000DBE0734BBB64D8E06F4B5B6803F03F03D0
:103EF0007B646D4B5B6803F48003002B63D06A4BDB
:103F00005B689B090022BB63FA63BB6BC3F30803C6
:103F10003B6300237B63D7E90C4522462B464FF0D9
:103F200000004FF00001590141EAD2615001024600
:103F30000B462146511A3961294663EB01037B6127
:103F40004FF000024FF00003D7E904AB59468B0154
:103F5000514643EA916351468A015146B2EB01084A
:103F6000594663EB01094FF000024FF000034FEA9E
:103F7000C90343EA58734FEAC8029046994623465C
:103F800018EB0303BB602B4649EB0303FB604FF0C8
:103F900000024FF00003D7E9024529464B022146B3
:103FA00043EAD15321464A02104619467B6C00224F
:103FB000BB62FA62D7E90A23FCF75AF902460B46BC
:103FC0001346FB6458E0384B5B689B090022184697
:103FD0001146C0F308033B6200237B62D7E90889DE
:103FE00042464B464FF000004FF00001590141EAB4
:103FF000D261500102460B464146B2EB010A4946E6
:1040000063EB010B4FF000024FF000034FEA8B13FC
:1040100043EA9A634FEA8A12B2EB0A0463EB0B0598
:104020004FF000024FF00003EB0043EA5473E2004C
:1040300014461D464346E3183B604B4645EB0303DD
:104040007B604FF000024FF00003D7E9004529469E
:104050008B02214643EA915321468A0210461946B3
:104060007B6C0022BB61FA61D7E90623FCF700F9FB
:1040700002460B461346FB640B4B5B681B0C03F0BC
:10408000030301335B003B64FA6C3B6CB2FBF3F35C
:10409000BB6402E0054BBB6400BFBB6C18465037E5
:1040A000BD46BDE8B08F00BF003802400024F400D8
:1040B00000127A0080B400AF034B1B681846BD465F
:1040C0005DF8047B704700BF2400002080B500AF7E
:1040D000FFF7F0FF0246054B9B689B0A03F00703BE
:1040E0000349CB5C22FA03F3184680BD0038024036
:1040F000EC67000880B584B000AFF860B9607A6002
:10410000FB68002B01D1012338E0FB6893F84930AC
:10411000DBB2002B06D1FB68002283F84820F86848
:10412000FDF7F6FFFB681A68FB680833194610466E
:1041300000F028F8FB681868FB689B681A46B968A5
:1041400000F08AF8FB685868FB689A68FB681B6B8C
:10415000796800F0B7F8FB681B68FA68926853F852
:104160002210FB681B68FA68926841F0010143F86D
:104170002210FB68012283F84920002318461037DB
:10418000BD4680BD80B487B000AF786039603B68C1
:104190001A687B6853F822303A68126823F00101EC
:1041A0007B6843F822103B689B68082B02D14023B0
:1041B0007B6101E000237B613B685A687B691A439D
:1041C0003B689B681A433B68DB681A433B681B6982
:1041D0001A433B685B691A433B68DB691A433B68D7
:1041E0001B6A1A433B685B6A1A433B689B6A1A4323
:1041F0003B68DB6A1A433B681B6B13433B613B68BC
:104200009B693A6913433B613B68DB6B3A69134333
:104210003B61104BFB60FB6843F48063FB60FB6811
:1042200043F4E023FB603B681A687B6853F8222064
:10423000FB68DB4302EA03013B681A683B691943E8
:104240007B6843F82210002318461C37BD465DF8F2
:10425000047B70477FFB080080B485B000AFF86036
:10426000B9607A607B685A1CFB6853F8223003F00F
:104270004041BB681A68BB685B681B011A43BB6896
:104280009B681B021A43BB68DB681B041A43BB68AC
:104290001B69013B1B051A43BB685B69023B1B069C
:1042A0001A43BB689B6913437A6801321943FB6860
:1042B00043F82210002318461437BD465DF8047BEE
:1042C0007047000080B485B000AFF860B9607A60D4
:1042D0003B603B68B3F5804F1DD1FB687A6853F8AB
:1042E0002220134B1340BA681168BA685268120151
:1042F0001143BA68926812021143BA689269114375
:10430000BA68D26812040A4343EA0201FB687A6879
:1043100043F8221005E0FB687A686FF0704143F8BB
:104320002210002318461437BD465DF8047B704701
:104330000000F0CF014B1868704700BF300000202C
:1043400070B50D4D0D4C641BA4100026A64209D17A
:104350000B4D0C4C00F08EFC641BA4100026A642F2
:1043600005D170BD55F8043B98470136EEE755F886
:10437000043B98470136F2E73068000830680008CF
:1043800030680008346800080A44914200F1FF33A5
:1043900000D1704710B511F8014B03F8014F91425D
:1043A000F9D110BD02440346934200D1704703F88F
:1043B000011BF9E70EB400B59CB01DAB029006904E
:1043C0006FF00041094807910491094953F8042B03
:1043D00005910068019302A900F068F8029B002291
:1043E0001A701CB05DF804EB03B070473000002079
:1043F0000802FFFF2DE9F0478E689E4282460C4678
:1044000090461F4638D88A8912F4906F32D02568BA
:104410000969A5EB0109656905EB450505EBD5754E
:1044200001334B446D109D4238BF1D46530531D5B5
:10443000294600F055FB064650B90C23CAF8003057
:10444000A38943F04003A3814FF0FF30BDE8F0871C
:1044500021694A46FFF798FFA38923F4906343F04C
:104460008003A381266165614E44A5EB09052660A2
:10447000A5603E46BE4200D93E46206832464146CF
:1044800000F0A8FAA3689B1BA36023683344236051
:104490000020DBE72A4600F097FB06460028E1D122
:1044A0002169504600F0B0FAC7E700002DE9F04F4F
:1044B00098468B891B069DB007460D4614460ED5BF
:1044C0000B6963B9402100F00BFB2860286120B91B
:1044D0000C233B604FF0FF30D1E040236B610023A1
:1044E000099320238DF82930CDF80C803023DFF894
:1044F000A8818DF82A304FF0010923469A4613F817
:10450000012B0AB1252AF9D1BAEB040B0BD05B467B
:10451000224629463846FFF76DFF013000F0AA8099
:10452000099A5A4409929AF80030002B00F0A280B0
:1045300000234FF0FF32CDE905230AF1010A04936D
:1045400007938DF853301A935446052214F8011B33
:104550005148FBF73DFE049AD8B9D00644BF20234A
:104560008DF85330110744BF2B238DF853309AF840
:1045700000302A2B15D0079A544600204FF00A0C21
:10458000214611F8013B303B092B4ED9B0B10792BF
:1045900014E0A0EB080309FA03F313430493A246C3
:1045A000D2E7039B191D1B680391002BBBBF5B4225
:1045B00042F0020207930793B8BF049223782E2B90
:1045C0000CD163782A2B35D1039B1A1D1B680392EB
:1045D000002BB8BF4FF0FF3302340593DFF8C8A0BB
:1045E000217803225046FBF7F3FD40B14023A0EBB6
:1045F0000A0003FA00F0049B03430134049314F807
:10460000011B26488DF828100622FBF7E1FD002843
:1046100038D0234B1BBB039B073323F0070308331E
:104620000393099B3344099367E70CFB02320C4662
:104630000120A5E700230134059319464FF00A0C29
:10464000204610F8012B303A092A03D9002BC5D097
:104650000591C3E70CFB012104460123F0E703ABFE
:1046600000932A460F4B04A93846AFF30080421C42
:104670000646D6D1AB895B063FF52CAF09981DB035
:10468000BDE8F08F03AB00932A46064B04A93846D9
:1046900000F07AF8EBE700BFF4670008FE67000857
:1046A00000000000F5430008FA6700082DE9F04714
:1046B000164699468A680B69DDF820809342B8BF98
:1046C0001346336091F8432007460C460AB1013384
:1046D00033602368990642BF33680233336025682C
:1046E00015F0060506D104F1190AE36832689B1A31
:1046F000AB4226DC94F84320131E226818BF012326
:1047000092062BD404F1430249463846C047013093
:104710001ED02368E568326803F00603042B08BF47
:10472000AD1AA36822690CBF25EAE57500259342FE
:10473000C4BF9B1AED1800261A34B5421AD10020C6
:1047400008E00123524649463846C047013003D1AC
:104750004FF0FF30BDE8F0870135C6E7E1185A1C7D
:10476000302081F84300224494F8451082F8431029
:104770000233C7E70123224649463846C047013085
:10478000E6D00136D9E700002DE9FF470F7E0C9DEA
:10479000782F914680460C469A4601F1430207D88D
:1047A000622F0AD8002F00F0D880582F00F0A38085
:1047B00004F1420584F842703AE0A7F16303152B37
:1047C000F6D801A151F823F0214800083548000827
:1047D000B1470008B1470008B1470008B1470008D9
:1047E00035480008B1470008B1470008B147000844
:1047F000B1470008414900086548000823490008FE
:10480000B1470008B147000863490008B1470008F4
:1048100065480008B1470008B14700082B49000867
:104820002B681A1D1B682A6004F1420584F8423087
:104830000123A3E020682968060601F104030AD5D4
:104840000E682B60002E03DA2D23764284F8433065
:104850005E480A2319E00E682B6010F0400F18BF65
:1048600036B2EFE72B682068191D2960010601D5D3
:104870001E6802E04606FBD51E8854486F2F0CBF09
:1048800008230A23002184F843106568A560002DE1
:10489000A2BF216821F0040121600EB9002D4DD086
:1048A0001546B6FBF3F103FB1167C75D05F8017D03
:1048B0003746BB420E46F4D9082B0BD12368DE07DE
:1048C00008D5236961689942DEBF302305F8013CB1
:1048D00005F1FF35521B2261CDF800A04B4603AA1B
:1048E00021464046FFF7E2FE01304CD14FF0FF3049
:1048F00004B0BDE8F087354881F845702968236821
:1049000051F8046B29601D0614D5DF0744BF43F03E
:10491000200323601EB9236823F0200323601023A3
:10492000B0E7236843F0200323607823284884F805
:104930004530E3E7590648BFB6B2E6E71546BBE7A0
:104940002B6826686169181D286035061B6801D52B
:10495000196002E07006FBD519800023236115461B
:10496000BAE72B681A1D2A601D6862680021284674
:10497000FBF72EFC08B1401B6060636823610023D5
:1049800084F84330A8E723692A4649464046D04781
:104990000130ABD023689B0713D4E068039B984297
:1049A000B8BF1846A4E70123324649464046D047DF
:1049B00001309BD00135E36803995B1AAB42F2DC0E
:1049C000EBE7002504F11906F5E700BF05680008CC
:1049D00016680008884210B501EB020402D984422F
:1049E000234607D8431EA14208D011F8012B03F833
:1049F000012FF8E7024401468A4200D110BD13F8A6
:104A0000014D02F8014DF7E737B5002944D051F8C0
:104A1000043C0190002BA1F10404B8BFE41800F09D
:104A200013F91E4A0198136833B96360146003B028
:104A3000BDE8304000F00EB9A34208D925686119DD
:104A40008B4201BF19685B6849192160EDE71A467E
:104A50005B680BB1A342FAD911685518A5420BD176
:104A6000246821445418A3421160E0D11C685B689B
:104A7000536021441160DAE702D90C230360D6E7C2
:104A8000256861198B4204BF19685B68636004BFC5
:104A9000491921605460CAE703B030BD24030020E7
:104AA00070B50E4E0C463168054611B900F0BCF8E1
:104AB00030602146284600F0B7F8431C0AD0C41CD9
:104AC00024F00304A04207D0211A284600F0ACF8D5
:104AD000013001D14FF0FF34204670BD2803002083
:104AE0002DE9F041CD1C25F0030508350C2D38BF0C
:104AF0000C25002D074601DBA94205D90C233B609C
:104B000000263046BDE8F0812E4E00F09DF8336857
:104B10001C4634BB29463846FFF7C2FF431C0446F7
:104B20004DD134682646002E40D1236831463846A0
:104B300004EB030800F078F880453AD1216803358A
:104B40006D1A25F0030508350C2D38BF0C252946B4
:104B50003846FFF7A5FF01302BD023682B44236094
:104B60000EE02268521B1ED40B2A16D96119A342EB
:104B7000256018BF5960636808BF316062514B609F
:104B8000384604F10B0600F065F826F00706231DF1
:104B9000F21AB6D09B1BA350B3E76268A3420CBFC6
:104BA00032605A60ECE723466468B2E734467668C0
:104BB000B9E70C233B60384600F04CF8A1E72560CC
:104BC000DEE700BF240300202DE9F04180461446B3
:104BD0000E4621B9BDE8F0411146FFF781BF2AB961
:104BE000FFF712FF25462846BDE8F08100F038F8AF
:104BF0008442074602D8B4EB500F12D821464046F3
:104C0000FFF76EFF05460028EDD0BC422246314634
:104C100028BF3A46FFF7B8FB31464046FFF7F4FE9F
:104C2000E1E73546DFE7000038B5064D00230446CE
:104C300008462B60FDF7A0FA431C02D12B6803B194
:104C4000236038BD2C030020014800F011B800BFDC
:104C500030030020014800F00CB800BF30030020F2
:104C600051F8043C181F002BBCBF0B58C0187047EC
:104C700070477047F8B500BFF8BC08BC9E46704747
:0C4C8000F8B500BFF8BC08BC9E467047A9
:104C8C00506F696E74733A202030000054696D6562
:104C9C0020303A303000000054696D652025643AAC
:104CAC00253032643A2530326400000054696D6559
:104CBC002025643A2530326400000000506F696E84
:104CCC0074733A2533640000546F75636820736302
:104CDC007265656E20736E616B6520636F6E7472A6
:104CEC006F6C0000555000004C454654000000000D
:104CFC005249474854000000444F574E00000000F2
:104D0C000000000000000000000000000000000097
:104D1C000000000000000000000000000000000087
:104D2C000000000000000000000000000000000077
:104D3C0000008001800180018001800180018001E0
:104D4C008001800180018001800180010000000051
:104D5C008001800100000000000000000000000045
:104D6C0000000000CC00CC00CC00CC00CC00CC006F
:104D7C000000000000000000000000000000000027
:104D8C000000000000000000000000000000000017
:104D9C00000000000000000000000000600C600C2F
:104DAC00600C30063006FE1FFE1F30063807180355
:104DBC00FE1FFE1F180318038C018C018C010000D0
:104DCC0000008000E003F80F9C0E8C1C8C188C00EB
:104DDC009800F801E007800E801C8C188C189C1829
:104DEC00B80CF00FE0038000800000000000000011
:104DFC000000000000000E181B0C110C110611060F
:104E0C00110311039B018E01C038C06C60446044D7
:104E1C00304430441844186C0C380000000000007A
:104E2C000000E001F0033807180618063003F00103
:104E3C00F000F8009C310E33061E061C061C063FC3
:104E4C00FC73F021000000000000000000000000D6
:104E5C00000000000C000C000C000C000C000C00FE
:104E6C000000000000000000000000000000000036
:104E7C000000000000000000000000000000000026
:104E8C000000000200038001C000C0006000600050
:104E9C003000300030003000300030003000300086
:104EAC0060006000C000C000800100030002000030
:104EBC00000020006000C00080018001000300039E
:104ECC0000060006000600060006000600060006A6
:104EDC000003000380018001C0006000200000007E
:104EEC00000000000000000000000000C000C00036
:104EFC00D806F807E0013003380700000000000076
:104F0C000000000000000000000000000000000095
:104F1C000000000000000000000000008001800183
:104F2C00800180018001FC3FFC3F800180018001F9
:104F3C008001800100000000000000000000000063
:104F4C000000000000000000000000000000000055
:104F5C000000000000000000000000000000000045
:104F6C0000008001800100010001800000000000B1
:104F7C000000000000000000000000000000000025
:104F8C000000000000000000E007E0070000000047
:104F9C000000000000000000000000000000000005
:104FAC0000000000000000000000000000000000F5
:104FBC0000000000000000000000000000000000E5
:104FCC000000C000C0000000000000000000000055
:104FDC000000000C000C0006000600060003000395
:104FEC0000038003800180018001C000C000C0006C
:104FFC0060006000000000000000000000000000E5
:10500C000000E003F007380E180C0C180C180C18E4
:10501C000C180C180C180C180C180C18180C380E42
:10502C00F007E0030000000000000000000000009A
:10503C00000000018001C001F0019801880180018D
:10504C00800180018001800180018001800180014C
:10505C008001800100000000000000000000000042
:10506C000000E003F80F180C0C180C1800180018AE
:10507C00000C000600038001C00060003000180026
:10508C00FC1FFC1F000000000000000000000000DE
:10509C000000E001F807180E0C0C0C0C000C0006BC
:1050AC00C003C007000C001800180C180C18180CC2
:1050BC00F807E00300000000000000000000000002
:1050CC000000000C000E000F000F800DC00C600CD7
:1050DC00600C300C180C0C0CFC3FFC3F000C000C52
:1050EC00000C000C0000000000000000000000009C
:1050FC000000F80FF80F180018000C00EC03FC0768
:10510C001C0E001C0018001800180C181C0C180E93
:10511C00F807E003000000000000000000000000A1
:10512C000000C007F00F381C181818000C00CC0336
:10513C00EC0F3C0E1C1C0C180C180C18181C380E00
:10514C00F007E00300000000000000000000000079
:10515C000000FC1FFC1F000C00060006000380036F
:10516C008001C001C000E0006000600070003000F1
:10517C0030003000000000000000000000000000C3
:10518C000000E003F007380E180C180C180C380649
:10519C00F007F007180C0C180C180C180C18380C1D
:1051AC00F80FE00300000000000000000000000009
:1051BC000000E003F007380E1C0C0C180C180C182F
:1051CC001C1C381EF81BE0190018000C000C1C0EDF
:1051DC00F807F001000000000000000000000000D3
:1051EC0000000000000000000000000080018001B1
:1051FC0000000000000000000000000000000000A3
:10520C008001800100000000000000000000000090
:10521C000000000000000000000000008001800180
:10522C000000000000000000000000000000000072
:10523C0080018001000100018000000000000000DE
:10524C000000000000000000000000000000000052
:10525C000010001C800FE003F8001800F800E003B9
:10526C00800F001C00100000000000000000000077
:10527C000000000000000000000000000000000022
:10528C00F81F000000000000F81F000000000000E4
:10529C000000000000000000000000000000000002
:1052AC0000000000000000000000000000000000F2
:1052BC0008003800F001C007001F0018001FC007CD
:1052CC00F0013800080000000000000000000000A1
:1052DC000000E003F80F180C0C180C180018000C48
:1052EC00000600038001C000C000C00000000000E8
:1052FC00C000C00000000000000000000000000022
:10530C0000000000E00718180420C229224A1144AA
:10531C0009440944094409221113E20C02400420F7
:10532C001818E0070000000000000000000000005A
:10533C00000080038003C006C006C006600C600C31
:10534C00301830183018F83FF83F1C700C600C60A7
:10535C0006C006C0000000000000000000000000B5
:10536C000000FC03FC0F0C0C0C180C180C180C0C8B
:10537C00FC07FC0F0C180C300C300C300C300C18DB
:10538C00FC1FFC07000000000000000000000000F3
:10539C000000C007F01F38381C300C700660060087
:1053AC000600060006000600060006600C701C30A5
:1053BC00F01FE007000000000000000000000000EB
:1053CC000000FE03FE0F060E061806180630063007
:1053DC000630063006300630063006180618060E63
:1053EC00FE0FFE03000000000000000000000000A3
:1053FC000000FC3FFC3F0C000C000C000C000C00EF
:10540C00FC1FFC1F0C000C000C000C000C000C0012
:10541C00FC3FFC3F0000000000000000000000000A
:10542C000000F83FF83F180018001800180018008A
:10543C00F81FF81F180018001800180018001800A2
:10544C001800180000000000000000000000000020
:10545C000000E00FF83F3C780E6006E007C0030048
:10546C00030003FE03FE03C007C006C00EC03CF0E1
:10547C00F83FE00F000000000000000000000000FA
:10548C0000000C300C300C300C300C300C300C306C
:10549C00FC3FFC3F0C300C300C300C300C300C3022
:1054AC000C300C3000000000000000000000000078
:1054BC000000800180018001800180018001800159
:1054CC0080018001800180018001800180018001C8
:1054DC0080018001000000000000000000000000BE
:1054EC000000000600060006000600060006000686
:1054FC000006000600060006000618061806380707
:10550C00F003E001000000000000000000000000BB
:10551C00000006300618060C060606038601C600B7
:10552C0066007600DE008E0106030606060C0618E1
:10553C0006300660000000000000000000000000C3
:10554C0000001800180018001800180018001800A7
:10555C00180018001800180018001800180018007F
:10556C00F81FF81F00000000000000000000000001
:10557C0000000EE01EF01EF01EF036D836D836D8DD
:10558C0036D866CC66CC66CCC6C6C6C6C6C6C6C63B
:10559C0086C386C30000000000000000000000006D
:1055AC0000000C301C303C303C306C306C30CC305B
:1055BC00CC308C310C330C330C360C360C3C0C3C94
:1055CC000C380C300000000000000000000000004F
:1055DC000000E007F81F1C380E70066003C003C003
:1055EC0003C003C003C003C003C006600E701C38A8
:1055FC00F81FE007000000000000000000000000A1
:10560C000000FC0FFC1F0C380C300C300C300C3034
:10561C000C18FC1FFC070C000C000C000C000C0000
:10562C000C000C0000000000000000000000000056
:10563C000000E007F81F1C380E70066003E003C082
:10564C0003C003C003C003C007E006630E3F1C3C4D
:10565C00F83FE0F700C00000000000000000000070
:10566C000000FE0FFE1F06380630063006300638E6
:10567C00FE1FFE0706030606060C06180618063063
:10568C000630066000000000000000000000000072
:10569C000000E003F80F1C0C0C180C180C001C007C
:1056AC00F803E00F001E0038063006300E301C1CCC
:1056BC00F80FE007000000000000000000000000F0
:1056CC000000FE7FFE7F800180018001800180014F
:1056DC0080018001800180018001800180018001B6
:1056EC0080018001000000000000000000000000AC
:1056FC0000000C300C300C300C300C300C300C30FA
:10570C000C300C300C300C300C300C300C301818B9
:10571C00F81FE0070000000000000000000000007F
:10572C00000003600630063006300C180C180C18FC
:10573C00180C180C380E3006300670076003600326
:10574C00C001C001000000000000000000000000CB
:10575C0000000360C361C361C361663366336633A3
:10576C006633663366336C1B6C1B6C1B2C1A3C1E2D
:10577C00380E380E00000000000000000000000091
:10578C0000000FE00C7018303018700C600EC00761
:10579C0080038003C003E006700C301C18180C301A
:1057AC000E6007E000000000000000000000000098
:1057BC00000003C006600C301C383818300C600632
:1057CC00E007C0038001800180018001800180011D
:1057DC0080018001000000000000000000000000BB
:1057EC000000FC7FFC7F006000300018000C0006FD
:1057FC0000038001C0006000300018000C0006009F
:10580C00FE7FFE7F00000000000000000000000092
:10581C000000E003E00360006000600060006000D6
:10582C00600060006000600060006000600060006C
:10583C0060006000600060006000E003E0030000B6
:10584C00000030003000600060006000C000C0004C
:10585C00C000C0018001800180010003000300032F
:10586C000006000600000000000000000000000020
:10587C000000E003E0030003000300030003000347
:10588C0000030003000300030003000300030003F4
:10589C0000030003000300030003E003E003000027
:1058AC0000000000C001C00160036003600330060B
:1058BC003006180C180C000000000000000000005E
:1058CC0000000000000000000000000000000000CC
:1058DC0000000000000000000000000000000000BC
:1058EC0000000000000000000000000000000000AC
:1058FC000000FFFFFFFF00000000000000000000A0
:10590C0000000C000C000C000C000C000C00000043
:10591C00000000000000000000000000000000007B
:10592C00000000000000000000000000000000006B
:10593C00000000000000000000000000F003F80769
:10594C001C0C0C0C000FF00FF80C0C0C0C0C1C0F9E
:10595C00F80FF0180000000000000000000000002C
:10596C00000018001800180018001800D803F80FD1
:10597C00380C181818181818181818181818380C73
:10598C00F80FD80300000000000000000000000029
:10599C00000000000000000000000000C003F00741
:1059AC00300E180C1800180018001800180C300EC7
:1059BC00F007C00300000000000000000000000021
:1059CC00000000180018001800180018C01BF01F69
:1059DC00301C181818181818181818181818301C03
:1059EC00F01FC01B000000000000000000000000C1
:1059FC00000000000000000000000000C003F00FD9
:105A0C00300C1818F81FF81F180018003818301C24
:105A1C00F00FC007000000000000000000000000B4
:105A2C000000800FC00FC000C000C000F007F007DE
:105A3C00C000C000C000C000C000C000C000C0005A
:105A4C00C000C000000000000000000000000000CA
:105A5C00000000000000000000000000E00DF80F46
:105A6C00180E0C0C0C0C0C0C0C0C0C0C0C0C180E4E
:105A7C00F80FE00D000C0C0C1C06F807F0010000F0
:105A8C00000018001800180018001800D807F80FAC
:105A9C00381C181818181818181818181818181856
:105AAC00181818180000000000000000000000008A
:105ABC000000C000C000000000000000C000C000DA
:105ACC00C000C000C000C000C000C000C000C000CA
